{
	"contracts/rough.sol": {
		"Secure": {
			"abi": [
				{
					"inputs": [],
					"name": "AccessControlBadConfirmation",
					"type": "error"
				},
				{
					"inputs": [
						{
							"internalType": "address",
							"name": "account",
							"type": "address"
						},
						{
							"internalType": "bytes32",
							"name": "neededRole",
							"type": "bytes32"
						}
					],
					"name": "AccessControlUnauthorizedAccount",
					"type": "error"
				},
				{
					"inputs": [
						{
							"internalType": "address",
							"name": "account",
							"type": "address"
						}
					],
					"name": "AddressBlacklisted",
					"type": "error"
				},
				{
					"inputs": [
						{
							"internalType": "address",
							"name": "target",
							"type": "address"
						}
					],
					"name": "AddressEmptyCode",
					"type": "error"
				},
				{
					"inputs": [
						{
							"internalType": "address",
							"name": "account",
							"type": "address"
						}
					],
					"name": "AlreadyBlacklisted",
					"type": "error"
				},
				{
					"inputs": [],
					"name": "AmountZero",
					"type": "error"
				},
				{
					"inputs": [],
					"name": "CooldownActive",
					"type": "error"
				},
				{
					"inputs": [
						{
							"internalType": "address",
							"name": "implementation",
							"type": "address"
						}
					],
					"name": "ERC1967InvalidImplementation",
					"type": "error"
				},
				{
					"inputs": [],
					"name": "ERC1967NonPayable",
					"type": "error"
				},
				{
					"inputs": [],
					"name": "EmergencyActive",
					"type": "error"
				},
				{
					"inputs": [
						{
							"internalType": "uint256",
							"name": "amount",
							"type": "uint256"
						},
						{
							"internalType": "uint256",
							"name": "limit",
							"type": "uint256"
						}
					],
					"name": "ExceedsLimit",
					"type": "error"
				},
				{
					"inputs": [],
					"name": "FailedCall",
					"type": "error"
				},
				{
					"inputs": [
						{
							"internalType": "uint256",
							"name": "available",
							"type": "uint256"
						},
						{
							"internalType": "uint256",
							"name": "required",
							"type": "uint256"
						}
					],
					"name": "InsufficientBalance",
					"type": "error"
				},
				{
					"inputs": [],
					"name": "InvalidInitialization",
					"type": "error"
				},
				{
					"inputs": [],
					"name": "LimitZero",
					"type": "error"
				},
				{
					"inputs": [],
					"name": "NoBalance",
					"type": "error"
				},
				{
					"inputs": [],
					"name": "NotInEmergency",
					"type": "error"
				},
				{
					"inputs": [],
					"name": "NotInitializing",
					"type": "error"
				},
				{
					"inputs": [
						{
							"internalType": "address",
							"name": "account",
							"type": "address"
						}
					],
					"name": "NotWhitelisted",
					"type": "error"
				},
				{
					"inputs": [],
					"name": "TransferFailed",
					"type": "error"
				},
				{
					"inputs": [],
					"name": "UUPSUnauthorizedCallContext",
					"type": "error"
				},
				{
					"inputs": [
						{
							"internalType": "bytes32",
							"name": "slot",
							"type": "bytes32"
						}
					],
					"name": "UUPSUnsupportedProxiableUUID",
					"type": "error"
				},
				{
					"inputs": [],
					"name": "ZeroAddress",
					"type": "error"
				},
				{
					"anonymous": false,
					"inputs": [
						{
							"indexed": true,
							"internalType": "address",
							"name": "from",
							"type": "address"
						},
						{
							"indexed": false,
							"internalType": "uint256",
							"name": "amount",
							"type": "uint256"
						}
					],
					"name": "AfterDeposit",
					"type": "event"
				},
				{
					"anonymous": false,
					"inputs": [
						{
							"indexed": true,
							"internalType": "address",
							"name": "to",
							"type": "address"
						},
						{
							"indexed": false,
							"internalType": "uint256",
							"name": "amount",
							"type": "uint256"
						}
					],
					"name": "AfterEmergencyWithdraw",
					"type": "event"
				},
				{
					"anonymous": false,
					"inputs": [
						{
							"indexed": true,
							"internalType": "address",
							"name": "to",
							"type": "address"
						},
						{
							"indexed": false,
							"internalType": "uint256",
							"name": "amount",
							"type": "uint256"
						}
					],
					"name": "AfterSecureWithdraw",
					"type": "event"
				},
				{
					"anonymous": false,
					"inputs": [
						{
							"indexed": true,
							"internalType": "address",
							"name": "from",
							"type": "address"
						},
						{
							"indexed": false,
							"internalType": "uint256",
							"name": "amount",
							"type": "uint256"
						}
					],
					"name": "BeforeDeposit",
					"type": "event"
				},
				{
					"anonymous": false,
					"inputs": [
						{
							"indexed": true,
							"internalType": "address",
							"name": "to",
							"type": "address"
						},
						{
							"indexed": false,
							"internalType": "uint256",
							"name": "amount",
							"type": "uint256"
						}
					],
					"name": "BeforeEmergencyWithdraw",
					"type": "event"
				},
				{
					"anonymous": false,
					"inputs": [
						{
							"indexed": true,
							"internalType": "address",
							"name": "to",
							"type": "address"
						},
						{
							"indexed": false,
							"internalType": "uint256",
							"name": "amount",
							"type": "uint256"
						}
					],
					"name": "BeforeSecureWithdraw",
					"type": "event"
				},
				{
					"anonymous": false,
					"inputs": [
						{
							"indexed": true,
							"internalType": "address",
							"name": "account",
							"type": "address"
						}
					],
					"name": "Blacklisted",
					"type": "event"
				},
				{
					"anonymous": false,
					"inputs": [
						{
							"indexed": true,
							"internalType": "address",
							"name": "account",
							"type": "address"
						},
						{
							"indexed": false,
							"internalType": "uint256",
							"name": "amount",
							"type": "uint256"
						}
					],
					"name": "Deposit",
					"type": "event"
				},
				{
					"anonymous": false,
					"inputs": [
						{
							"indexed": false,
							"internalType": "bool",
							"name": "status",
							"type": "bool"
						}
					],
					"name": "EmergencyModeUpdated",
					"type": "event"
				},
				{
					"anonymous": false,
					"inputs": [
						{
							"indexed": true,
							"internalType": "address",
							"name": "account",
							"type": "address"
						},
						{
							"indexed": false,
							"internalType": "uint256",
							"name": "amount",
							"type": "uint256"
						}
					],
					"name": "EmergencyWithdraw",
					"type": "event"
				},
				{
					"anonymous": false,
					"inputs": [
						{
							"indexed": false,
							"internalType": "uint64",
							"name": "version",
							"type": "uint64"
						}
					],
					"name": "Initialized",
					"type": "event"
				},
				{
					"anonymous": false,
					"inputs": [
						{
							"indexed": false,
							"internalType": "uint256",
							"name": "newLimit",
							"type": "uint256"
						}
					],
					"name": "MaxWithdrawalLimitUpdated",
					"type": "event"
				},
				{
					"anonymous": false,
					"inputs": [
						{
							"indexed": false,
							"internalType": "address",
							"name": "account",
							"type": "address"
						}
					],
					"name": "Paused",
					"type": "event"
				},
				{
					"anonymous": false,
					"inputs": [
						{
							"indexed": true,
							"internalType": "address",
							"name": "account",
							"type": "address"
						}
					],
					"name": "RemovedFromBlacklist",
					"type": "event"
				},
				{
					"anonymous": false,
					"inputs": [
						{
							"indexed": true,
							"internalType": "address",
							"name": "account",
							"type": "address"
						}
					],
					"name": "RemovedFromWhitelist",
					"type": "event"
				},
				{
					"anonymous": false,
					"inputs": [
						{
							"indexed": true,
							"internalType": "bytes32",
							"name": "role",
							"type": "bytes32"
						},
						{
							"indexed": true,
							"internalType": "bytes32",
							"name": "previousAdminRole",
							"type": "bytes32"
						},
						{
							"indexed": true,
							"internalType": "bytes32",
							"name": "newAdminRole",
							"type": "bytes32"
						}
					],
					"name": "RoleAdminChanged",
					"type": "event"
				},
				{
					"anonymous": false,
					"inputs": [
						{
							"indexed": true,
							"internalType": "bytes32",
							"name": "role",
							"type": "bytes32"
						},
						{
							"indexed": true,
							"internalType": "address",
							"name": "account",
							"type": "address"
						},
						{
							"indexed": true,
							"internalType": "address",
							"name": "sender",
							"type": "address"
						}
					],
					"name": "RoleGranted",
					"type": "event"
				},
				{
					"anonymous": false,
					"inputs": [
						{
							"indexed": true,
							"internalType": "bytes32",
							"name": "role",
							"type": "bytes32"
						},
						{
							"indexed": true,
							"internalType": "address",
							"name": "account",
							"type": "address"
						},
						{
							"indexed": true,
							"internalType": "address",
							"name": "sender",
							"type": "address"
						}
					],
					"name": "RoleRevoked",
					"type": "event"
				},
				{
					"anonymous": false,
					"inputs": [
						{
							"indexed": true,
							"internalType": "address",
							"name": "account",
							"type": "address"
						},
						{
							"indexed": false,
							"internalType": "uint256",
							"name": "amount",
							"type": "uint256"
						}
					],
					"name": "SecureWithdraw",
					"type": "event"
				},
				{
					"anonymous": false,
					"inputs": [
						{
							"indexed": false,
							"internalType": "address",
							"name": "account",
							"type": "address"
						}
					],
					"name": "Unpaused",
					"type": "event"
				},
				{
					"anonymous": false,
					"inputs": [
						{
							"indexed": true,
							"internalType": "address",
							"name": "implementation",
							"type": "address"
						}
					],
					"name": "Upgraded",
					"type": "event"
				},
				{
					"anonymous": false,
					"inputs": [
						{
							"indexed": true,
							"internalType": "address",
							"name": "account",
							"type": "address"
						}
					],
					"name": "Whitelisted",
					"type": "event"
				},
				{
					"inputs": [],
					"name": "ADMIN_ROLE",
					"outputs": [
						{
							"internalType": "bytes32",
							"name": "",
							"type": "bytes32"
						}
					],
					"stateMutability": "view",
					"type": "function"
				},
				{
					"inputs": [],
					"name": "DEFAULT_ADMIN_ROLE",
					"outputs": [
						{
							"internalType": "bytes32",
							"name": "",
							"type": "bytes32"
						}
					],
					"stateMutability": "view",
					"type": "function"
				},
				{
					"inputs": [],
					"name": "UPGRADE_INTERFACE_VERSION",
					"outputs": [
						{
							"internalType": "string",
							"name": "",
							"type": "string"
						}
					],
					"stateMutability": "view",
					"type": "function"
				},
				{
					"inputs": [
						{
							"internalType": "address",
							"name": "account",
							"type": "address"
						}
					],
					"name": "addToBlacklist",
					"outputs": [],
					"stateMutability": "nonpayable",
					"type": "function"
				},
				{
					"inputs": [
						{
							"internalType": "address",
							"name": "account",
							"type": "address"
						}
					],
					"name": "addToWhitelist",
					"outputs": [],
					"stateMutability": "nonpayable",
					"type": "function"
				},
				{
					"inputs": [
						{
							"internalType": "address",
							"name": "account",
							"type": "address"
						}
					],
					"name": "balanceOf",
					"outputs": [
						{
							"internalType": "uint256",
							"name": "",
							"type": "uint256"
						}
					],
					"stateMutability": "view",
					"type": "function"
				},
				{
					"inputs": [],
					"name": "deposit",
					"outputs": [],
					"stateMutability": "payable",
					"type": "function"
				},
				{
					"inputs": [],
					"name": "emergencyMode",
					"outputs": [
						{
							"internalType": "bool",
							"name": "",
							"type": "bool"
						}
					],
					"stateMutability": "view",
					"type": "function"
				},
				{
					"inputs": [],
					"name": "emergencyWithdraw",
					"outputs": [],
					"stateMutability": "nonpayable",
					"type": "function"
				},
				{
					"inputs": [
						{
							"internalType": "bytes32",
							"name": "role",
							"type": "bytes32"
						}
					],
					"name": "getRoleAdmin",
					"outputs": [
						{
							"internalType": "bytes32",
							"name": "",
							"type": "bytes32"
						}
					],
					"stateMutability": "view",
					"type": "function"
				},
				{
					"inputs": [
						{
							"internalType": "bytes32",
							"name": "role",
							"type": "bytes32"
						},
						{
							"internalType": "address",
							"name": "account",
							"type": "address"
						}
					],
					"name": "grantRole",
					"outputs": [],
					"stateMutability": "nonpayable",
					"type": "function"
				},
				{
					"inputs": [
						{
							"internalType": "bytes32",
							"name": "role",
							"type": "bytes32"
						},
						{
							"internalType": "address",
							"name": "account",
							"type": "address"
						}
					],
					"name": "hasRole",
					"outputs": [
						{
							"internalType": "bool",
							"name": "",
							"type": "bool"
						}
					],
					"stateMutability": "view",
					"type": "function"
				},
				{
					"inputs": [
						{
							"internalType": "address",
							"name": "owner",
							"type": "address"
						},
						{
							"internalType": "uint256",
							"name": "initialMaxWithdraw",
							"type": "uint256"
						}
					],
					"name": "initialize",
					"outputs": [],
					"stateMutability": "nonpayable",
					"type": "function"
				},
				{
					"inputs": [
						{
							"internalType": "address",
							"name": "account",
							"type": "address"
						}
					],
					"name": "isBlacklisted",
					"outputs": [
						{
							"internalType": "bool",
							"name": "",
							"type": "bool"
						}
					],
					"stateMutability": "view",
					"type": "function"
				},
				{
					"inputs": [
						{
							"internalType": "address",
							"name": "account",
							"type": "address"
						}
					],
					"name": "isWhitelisted",
					"outputs": [
						{
							"internalType": "bool",
							"name": "",
							"type": "bool"
						}
					],
					"stateMutability": "view",
					"type": "function"
				},
				{
					"inputs": [],
					"name": "maxWithdrawalLimit",
					"outputs": [
						{
							"internalType": "uint256",
							"name": "",
							"type": "uint256"
						}
					],
					"stateMutability": "view",
					"type": "function"
				},
				{
					"inputs": [],
					"name": "pause",
					"outputs": [],
					"stateMutability": "nonpayable",
					"type": "function"
				},
				{
					"inputs": [],
					"name": "paused",
					"outputs": [
						{
							"internalType": "bool",
							"name": "",
							"type": "bool"
						}
					],
					"stateMutability": "view",
					"type": "function"
				},
				{
					"inputs": [],
					"name": "proxiableUUID",
					"outputs": [
						{
							"internalType": "bytes32",
							"name": "",
							"type": "bytes32"
						}
					],
					"stateMutability": "view",
					"type": "function"
				},
				{
					"inputs": [
						{
							"internalType": "address",
							"name": "account",
							"type": "address"
						}
					],
					"name": "removeFromBlacklist",
					"outputs": [],
					"stateMutability": "nonpayable",
					"type": "function"
				},
				{
					"inputs": [
						{
							"internalType": "address",
							"name": "account",
							"type": "address"
						}
					],
					"name": "removeFromWhitelist",
					"outputs": [],
					"stateMutability": "nonpayable",
					"type": "function"
				},
				{
					"inputs": [
						{
							"internalType": "bytes32",
							"name": "role",
							"type": "bytes32"
						},
						{
							"internalType": "address",
							"name": "callerConfirmation",
							"type": "address"
						}
					],
					"name": "renounceRole",
					"outputs": [],
					"stateMutability": "nonpayable",
					"type": "function"
				},
				{
					"inputs": [
						{
							"internalType": "bytes32",
							"name": "role",
							"type": "bytes32"
						},
						{
							"internalType": "address",
							"name": "account",
							"type": "address"
						}
					],
					"name": "revokeRole",
					"outputs": [],
					"stateMutability": "nonpayable",
					"type": "function"
				},
				{
					"inputs": [
						{
							"internalType": "uint256",
							"name": "amount",
							"type": "uint256"
						}
					],
					"name": "secureWithdraw",
					"outputs": [],
					"stateMutability": "nonpayable",
					"type": "function"
				},
				{
					"inputs": [
						{
							"internalType": "bool",
							"name": "status",
							"type": "bool"
						}
					],
					"name": "setEmergencyMode",
					"outputs": [],
					"stateMutability": "nonpayable",
					"type": "function"
				},
				{
					"inputs": [
						{
							"internalType": "uint256",
							"name": "newLimit",
							"type": "uint256"
						}
					],
					"name": "setMaxWithdrawalLimit",
					"outputs": [],
					"stateMutability": "nonpayable",
					"type": "function"
				},
				{
					"inputs": [
						{
							"internalType": "bytes4",
							"name": "interfaceId",
							"type": "bytes4"
						}
					],
					"name": "supportsInterface",
					"outputs": [
						{
							"internalType": "bool",
							"name": "",
							"type": "bool"
						}
					],
					"stateMutability": "view",
					"type": "function"
				},
				{
					"inputs": [],
					"name": "unpause",
					"outputs": [],
					"stateMutability": "nonpayable",
					"type": "function"
				},
				{
					"inputs": [
						{
							"internalType": "address",
							"name": "newImplementation",
							"type": "address"
						},
						{
							"internalType": "bytes",
							"name": "data",
							"type": "bytes"
						}
					],
					"name": "upgradeToAndCall",
					"outputs": [],
					"stateMutability": "payable",
					"type": "function"
				},
				{
					"stateMutability": "payable",
					"type": "receive"
				}
			],
			"devdoc": {
				"errors": {
					"AccessControlBadConfirmation()": [
						{
							"details": "The caller of a function is not the expected one. NOTE: Don't confuse with {AccessControlUnauthorizedAccount}."
						}
					],
					"AccessControlUnauthorizedAccount(address,bytes32)": [
						{
							"details": "The `account` is missing a role."
						}
					],
					"AddressEmptyCode(address)": [
						{
							"details": "There's no code at `target` (it is not a contract)."
						}
					],
					"ERC1967InvalidImplementation(address)": [
						{
							"details": "The `implementation` of the proxy is invalid."
						}
					],
					"ERC1967NonPayable()": [
						{
							"details": "An upgrade function sees `msg.value > 0` that may be lost."
						}
					],
					"FailedCall()": [
						{
							"details": "A call to an address target failed. The target may have reverted."
						}
					],
					"InvalidInitialization()": [
						{
							"details": "The contract is already initialized."
						}
					],
					"NotInitializing()": [
						{
							"details": "The contract is not initializing."
						}
					],
					"UUPSUnauthorizedCallContext()": [
						{
							"details": "The call is from an unauthorized context."
						}
					],
					"UUPSUnsupportedProxiableUUID(bytes32)": [
						{
							"details": "The storage `slot` is unsupported as a UUID."
						}
					]
				},
				"events": {
					"Initialized(uint64)": {
						"details": "Triggered when the contract has been initialized or reinitialized."
					},
					"Paused(address)": {
						"details": "Emitted when the pause is triggered by `account`."
					},
					"RoleAdminChanged(bytes32,bytes32,bytes32)": {
						"details": "Emitted when `newAdminRole` is set as ``role``'s admin role, replacing `previousAdminRole` `DEFAULT_ADMIN_ROLE` is the starting admin for all roles, despite {RoleAdminChanged} not being emitted to signal this."
					},
					"RoleGranted(bytes32,address,address)": {
						"details": "Emitted when `account` is granted `role`. `sender` is the account that originated the contract call. This account bears the admin role (for the granted role). Expected in cases where the role was granted using the internal {AccessControl-_grantRole}."
					},
					"RoleRevoked(bytes32,address,address)": {
						"details": "Emitted when `account` is revoked `role`. `sender` is the account that originated the contract call:   - if using `revokeRole`, it is the admin role bearer   - if using `renounceRole`, it is the role bearer (i.e. `account`)"
					},
					"Unpaused(address)": {
						"details": "Emitted when the pause is lifted by `account`."
					},
					"Upgraded(address)": {
						"details": "Emitted when the implementation is upgraded."
					}
				},
				"kind": "dev",
				"methods": {
					"getRoleAdmin(bytes32)": {
						"details": "Returns the admin role that controls `role`. See {grantRole} and {revokeRole}. To change a role's admin, use {_setRoleAdmin}."
					},
					"grantRole(bytes32,address)": {
						"details": "Grants `role` to `account`. If `account` had not been already granted `role`, emits a {RoleGranted} event. Requirements: - the caller must have ``role``'s admin role. May emit a {RoleGranted} event."
					},
					"hasRole(bytes32,address)": {
						"details": "Returns `true` if `account` has been granted `role`."
					},
					"paused()": {
						"details": "Returns true if the contract is paused, and false otherwise."
					},
					"proxiableUUID()": {
						"details": "Implementation of the ERC-1822 {proxiableUUID} function. This returns the storage slot used by the implementation. It is used to validate the implementation's compatibility when performing an upgrade. IMPORTANT: A proxy pointing at a proxiable contract should not be considered proxiable itself, because this risks bricking a proxy that upgrades to it, by delegating to itself until out of gas. Thus it is critical that this function revert if invoked through a proxy. This is guaranteed by the `notDelegated` modifier."
					},
					"renounceRole(bytes32,address)": {
						"details": "Revokes `role` from the calling account. Roles are often managed via {grantRole} and {revokeRole}: this function's purpose is to provide a mechanism for accounts to lose their privileges if they are compromised (such as when a trusted device is misplaced). If the calling account had been revoked `role`, emits a {RoleRevoked} event. Requirements: - the caller must be `callerConfirmation`. May emit a {RoleRevoked} event."
					},
					"revokeRole(bytes32,address)": {
						"details": "Revokes `role` from `account`. If `account` had been granted `role`, emits a {RoleRevoked} event. Requirements: - the caller must have ``role``'s admin role. May emit a {RoleRevoked} event."
					},
					"supportsInterface(bytes4)": {
						"details": "Returns true if this contract implements the interface defined by `interfaceId`. See the corresponding https://eips.ethereum.org/EIPS/eip-165#how-interfaces-are-identified[ERC section] to learn more about how these ids are created. This function call must use less than 30 000 gas."
					},
					"upgradeToAndCall(address,bytes)": {
						"custom:oz-upgrades-unsafe-allow-reachable": "delegatecall",
						"details": "Upgrade the implementation of the proxy to `newImplementation`, and subsequently execute the function call encoded in `data`. Calls {_authorizeUpgrade}. Emits an {Upgraded} event."
					}
				},
				"version": 1
			},
			"evm": {
				"assembly": "    /* \"contracts/rough.sol\":468:7787  contract Secure is Initializable, AccessControlUpgradeable, PausableUpgradeable, ReentrancyGuardUpgradeable, UUPSUpgradeable {... */\n  mstore(0x40, 0xa0)\n    /* \"@openzeppelin/contracts-upgradeable/proxy/utils/UUPSUpgradeable.sol\":1171:1175  this */\n  address\n    /* \"@openzeppelin/contracts-upgradeable/proxy/utils/UUPSUpgradeable.sol\":1128:1176  address private immutable __self = address(this) */\n  0xffffffffffffffffffffffffffffffffffffffff\n  and\n  0x80\n  swap1\n  0xffffffffffffffffffffffffffffffffffffffff\n  and\n  dup2\n  mstore\n  pop\n    /* \"contracts/rough.sol\":468:7787  contract Secure is Initializable, AccessControlUpgradeable, PausableUpgradeable, ReentrancyGuardUpgradeable, UUPSUpgradeable {... */\n  callvalue\n  dup1\n  iszero\n  tag_1\n  jumpi\n  revert(0x00, 0x00)\ntag_1:\n  pop\n  mload(0x80)\n  codecopy(0x00, dataOffset(sub_0), dataSize(sub_0))\n  0x00\n  assignImmutable(\"0x5c73c1625c83d1301828e85a68d45ccb1f0a38b46459cc89b6f79138eacdc2d9\")\n  return(0x00, dataSize(sub_0))\nstop\n\nsub_0: assembly {\n        /* \"contracts/rough.sol\":468:7787  contract Secure is Initializable, AccessControlUpgradeable, PausableUpgradeable, ReentrancyGuardUpgradeable, UUPSUpgradeable {... */\n      mstore(0x40, 0x80)\n      jumpi(tag_1, lt(calldatasize, 0x04))\n      shr(0xe0, calldataload(0x00))\n      dup1\n      0x75b238fc\n      gt\n      tag_32\n      jumpi\n      dup1\n      0xbe32b3f8\n      gt\n      tag_33\n      jumpi\n      dup1\n      0xdb2e21bc\n      gt\n      tag_34\n      jumpi\n      dup1\n      0xdb2e21bc\n      eq\n      tag_28\n      jumpi\n      dup1\n      0xe43252d7\n      eq\n      tag_29\n      jumpi\n      dup1\n      0xfe575a87\n      eq\n      tag_30\n      jumpi\n      dup1\n      0xff2f97a3\n      eq\n      tag_31\n      jumpi\n      jump(tag_2)\n    tag_34:\n      dup1\n      0xbe32b3f8\n      eq\n      tag_24\n      jumpi\n      dup1\n      0xcd6dc687\n      eq\n      tag_25\n      jumpi\n      dup1\n      0xd0e30db0\n      eq\n      tag_26\n      jumpi\n      dup1\n      0xd547741f\n      eq\n      tag_27\n      jumpi\n      jump(tag_2)\n    tag_33:\n      dup1\n      0x8ab1d681\n      gt\n      tag_35\n      jumpi\n      dup1\n      0x8ab1d681\n      eq\n      tag_20\n      jumpi\n      dup1\n      0x91d14854\n      eq\n      tag_21\n      jumpi\n      dup1\n      0xa217fddf\n      eq\n      tag_22\n      jumpi\n      dup1\n      0xad3cb1cc\n      eq\n      tag_23\n      jumpi\n      jump(tag_2)\n    tag_35:\n      dup1\n      0x75b238fc\n      eq\n      tag_17\n      jumpi\n      dup1\n      0x83a9b785\n      eq\n      tag_18\n      jumpi\n      dup1\n      0x8456cb59\n      eq\n      tag_19\n      jumpi\n      jump(tag_2)\n    tag_32:\n      dup1\n      0x3f4ba83a\n      gt\n      tag_36\n      jumpi\n      dup1\n      0x52d1902d\n      gt\n      tag_37\n      jumpi\n      dup1\n      0x52d1902d\n      eq\n      tag_13\n      jumpi\n      dup1\n      0x537df3b6\n      eq\n      tag_14\n      jumpi\n      dup1\n      0x5c975abb\n      eq\n      tag_15\n      jumpi\n      dup1\n      0x70a08231\n      eq\n      tag_16\n      jumpi\n      jump(tag_2)\n    tag_37:\n      dup1\n      0x3f4ba83a\n      eq\n      tag_10\n      jumpi\n      dup1\n      0x44337ea1\n      eq\n      tag_11\n      jumpi\n      dup1\n      0x4f1ef286\n      eq\n      tag_12\n      jumpi\n      jump(tag_2)\n    tag_36:\n      dup1\n      0x248a9ca3\n      gt\n      tag_38\n      jumpi\n      dup1\n      0x248a9ca3\n      eq\n      tag_6\n      jumpi\n      dup1\n      0x2f2ff15d\n      eq\n      tag_7\n      jumpi\n      dup1\n      0x36568abe\n      eq\n      tag_8\n      jumpi\n      dup1\n      0x3af32abf\n      eq\n      tag_9\n      jumpi\n      jump(tag_2)\n    tag_38:\n      dup1\n      0x01ffc9a7\n      eq\n      tag_3\n      jumpi\n      dup1\n      0x0905f560\n      eq\n      tag_4\n      jumpi\n      dup1\n      0x19058c15\n      eq\n      tag_5\n      jumpi\n      jump(tag_2)\n    tag_1:\n      jumpi(tag_2, calldatasize)\n        /* \"contracts/rough.sol\":7735:7744  msg.value */\n      callvalue\n        /* \"contracts/rough.sol\":7711:7719  balances */\n      0x66\n        /* \"contracts/rough.sol\":7711:7731  balances[msg.sender] */\n      0x00\n        /* \"contracts/rough.sol\":7720:7730  msg.sender */\n      caller\n        /* \"contracts/rough.sol\":7711:7731  balances[msg.sender] */\n      0xffffffffffffffffffffffffffffffffffffffff\n      and\n      0xffffffffffffffffffffffffffffffffffffffff\n      and\n      dup2\n      mstore\n      0x20\n      add\n      swap1\n      dup2\n      mstore\n      0x20\n      add\n      0x00\n      keccak256\n      0x00\n        /* \"contracts/rough.sol\":7711:7744  balances[msg.sender] += msg.value */\n      dup3\n      dup3\n      sload\n      tag_41\n      swap2\n      swap1\n      tag_42\n      jump\t// in\n    tag_41:\n      swap3\n      pop\n      pop\n      dup2\n      swap1\n      sstore\n      pop\n        /* \"contracts/rough.sol\":7759:7769  msg.sender */\n      caller\n        /* \"contracts/rough.sol\":7751:7781  Deposit(msg.sender, msg.value) */\n      0xffffffffffffffffffffffffffffffffffffffff\n      and\n      0xe1fffcc4923d04b559f4d29a8bfc6cda04eb5b0d3c460751c2402c5c5cc9109c\n        /* \"contracts/rough.sol\":7771:7780  msg.value */\n      callvalue\n        /* \"contracts/rough.sol\":7751:7781  Deposit(msg.sender, msg.value) */\n      mload(0x40)\n      tag_43\n      swap2\n      swap1\n      tag_44\n      jump\t// in\n    tag_43:\n      mload(0x40)\n      dup1\n      swap2\n      sub\n      swap1\n      log2\n        /* \"contracts/rough.sol\":468:7787  contract Secure is Initializable, AccessControlUpgradeable, PausableUpgradeable, ReentrancyGuardUpgradeable, UUPSUpgradeable {... */\n      stop\n    tag_2:\n      revert(0x00, 0x00)\n        /* \"contracts/rough.sol\":7503:7674  function supportsInterface(bytes4 interfaceId) public view override(AccessControlUpgradeable) returns (bool) {... */\n    tag_3:\n      callvalue\n      dup1\n      iszero\n      tag_45\n      jumpi\n      revert(0x00, 0x00)\n    tag_45:\n      pop\n      tag_46\n      0x04\n      dup1\n      calldatasize\n      sub\n      dup2\n      add\n      swap1\n      tag_47\n      swap2\n      swap1\n      tag_48\n      jump\t// in\n    tag_47:\n      tag_49\n      jump\t// in\n    tag_46:\n      mload(0x40)\n      tag_50\n      swap2\n      swap1\n      tag_51\n      jump\t// in\n    tag_50:\n      mload(0x40)\n      dup1\n      swap2\n      sub\n      swap1\n      return\n        /* \"contracts/rough.sol\":1368:1393  bool public emergencyMode */\n    tag_4:\n      callvalue\n      dup1\n      iszero\n      tag_52\n      jumpi\n      revert(0x00, 0x00)\n    tag_52:\n      pop\n      tag_53\n      tag_54\n      jump\t// in\n    tag_53:\n      mload(0x40)\n      tag_55\n      swap2\n      swap1\n      tag_51\n      jump\t// in\n    tag_55:\n      mload(0x40)\n      dup1\n      swap2\n      sub\n      swap1\n      return\n        /* \"contracts/rough.sol\":5790:6661  function secureWithdraw(uint256 amount) external virtual nonReentrant whenNotPaused notBlacklisted onlyWhitelisted {... */\n    tag_5:\n      callvalue\n      dup1\n      iszero\n      tag_56\n      jumpi\n      revert(0x00, 0x00)\n    tag_56:\n      pop\n      tag_57\n      0x04\n      dup1\n      calldatasize\n      sub\n      dup2\n      add\n      swap1\n      tag_58\n      swap2\n      swap1\n      tag_59\n      jump\t// in\n    tag_58:\n      tag_60\n      jump\t// in\n    tag_57:\n      stop\n        /* \"@openzeppelin/contracts-upgradeable/access/AccessControlUpgradeable.sol\":4807:4998  function getRoleAdmin(bytes32 role) public view virtual returns (bytes32) {... */\n    tag_6:\n      callvalue\n      dup1\n      iszero\n      tag_61\n      jumpi\n      revert(0x00, 0x00)\n    tag_61:\n      pop\n      tag_62\n      0x04\n      dup1\n      calldatasize\n      sub\n      dup2\n      add\n      swap1\n      tag_63\n      swap2\n      swap1\n      tag_64\n      jump\t// in\n    tag_63:\n      tag_65\n      jump\t// in\n    tag_62:\n      mload(0x40)\n      tag_66\n      swap2\n      swap1\n      tag_67\n      jump\t// in\n    tag_66:\n      mload(0x40)\n      dup1\n      swap2\n      sub\n      swap1\n      return\n        /* \"@openzeppelin/contracts-upgradeable/access/AccessControlUpgradeable.sol\":5294:5430  function grantRole(bytes32 role, address account) public virtual onlyRole(getRoleAdmin(role)) {... */\n    tag_7:\n      callvalue\n      dup1\n      iszero\n      tag_68\n      jumpi\n      revert(0x00, 0x00)\n    tag_68:\n      pop\n      tag_69\n      0x04\n      dup1\n      calldatasize\n      sub\n      dup2\n      add\n      swap1\n      tag_70\n      swap2\n      swap1\n      tag_71\n      jump\t// in\n    tag_70:\n      tag_72\n      jump\t// in\n    tag_69:\n      stop\n        /* \"@openzeppelin/contracts-upgradeable/access/AccessControlUpgradeable.sol\":6396:6641  function renounceRole(bytes32 role, address callerConfirmation) public virtual {... */\n    tag_8:\n      callvalue\n      dup1\n      iszero\n      tag_73\n      jumpi\n      revert(0x00, 0x00)\n    tag_73:\n      pop\n      tag_74\n      0x04\n      dup1\n      calldatasize\n      sub\n      dup2\n      add\n      swap1\n      tag_75\n      swap2\n      swap1\n      tag_71\n      jump\t// in\n    tag_75:\n      tag_76\n      jump\t// in\n    tag_74:\n      stop\n        /* \"contracts/rough.sol\":7188:7287  function isWhitelisted(address account) external view returns (bool) { return whitelist[account]; } */\n    tag_9:\n      callvalue\n      dup1\n      iszero\n      tag_77\n      jumpi\n      revert(0x00, 0x00)\n    tag_77:\n      pop\n      tag_78\n      0x04\n      dup1\n      calldatasize\n      sub\n      dup2\n      add\n      swap1\n      tag_79\n      swap2\n      swap1\n      tag_80\n      jump\t// in\n    tag_79:\n      tag_81\n      jump\t// in\n    tag_78:\n      mload(0x40)\n      tag_82\n      swap2\n      swap1\n      tag_51\n      jump\t// in\n    tag_82:\n      mload(0x40)\n      dup1\n      swap2\n      sub\n      swap1\n      return\n        /* \"contracts/rough.sol\":5372:5458  function unpause() external virtual onlyRole(ADMIN_ROLE) {... */\n    tag_10:\n      callvalue\n      dup1\n      iszero\n      tag_83\n      jumpi\n      revert(0x00, 0x00)\n    tag_83:\n      pop\n      tag_84\n      tag_85\n      jump\t// in\n    tag_84:\n      stop\n        /* \"contracts/rough.sol\":4231:4597  function addToBlacklist(address account) external virtual onlyRole(ADMIN_ROLE) whenNotPaused {... */\n    tag_11:\n      callvalue\n      dup1\n      iszero\n      tag_86\n      jumpi\n      revert(0x00, 0x00)\n    tag_86:\n      pop\n      tag_87\n      0x04\n      dup1\n      calldatasize\n      sub\n      dup2\n      add\n      swap1\n      tag_88\n      swap2\n      swap1\n      tag_80\n      jump\t// in\n    tag_88:\n      tag_89\n      jump\t// in\n    tag_87:\n      stop\n        /* \"@openzeppelin/contracts-upgradeable/proxy/utils/UUPSUpgradeable.sol\":4161:4375  function upgradeToAndCall(address newImplementation, bytes memory data) public payable virtual onlyProxy {... */\n    tag_12:\n      tag_90\n      0x04\n      dup1\n      calldatasize\n      sub\n      dup2\n      add\n      swap1\n      tag_91\n      swap2\n      swap1\n      tag_92\n      jump\t// in\n    tag_91:\n      tag_93\n      jump\t// in\n    tag_90:\n      stop\n        /* \"@openzeppelin/contracts-upgradeable/proxy/utils/UUPSUpgradeable.sol\":3708:3842  function proxiableUUID() external view virtual notDelegated returns (bytes32) {... */\n    tag_13:\n      callvalue\n      dup1\n      iszero\n      tag_94\n      jumpi\n      revert(0x00, 0x00)\n    tag_94:\n      pop\n      tag_95\n      tag_96\n      jump\t// in\n    tag_95:\n      mload(0x40)\n      tag_97\n      swap2\n      swap1\n      tag_67\n      jump\t// in\n    tag_97:\n      mload(0x40)\n      dup1\n      swap2\n      sub\n      swap1\n      return\n        /* \"contracts/rough.sol\":4605:4862  function removeFromBlacklist(address account) external virtual onlyRole(ADMIN_ROLE) whenNotPaused {... */\n    tag_14:\n      callvalue\n      dup1\n      iszero\n      tag_98\n      jumpi\n      revert(0x00, 0x00)\n    tag_98:\n      pop\n      tag_99\n      0x04\n      dup1\n      calldatasize\n      sub\n      dup2\n      add\n      swap1\n      tag_100\n      swap2\n      swap1\n      tag_80\n      jump\t// in\n    tag_100:\n      tag_101\n      jump\t// in\n    tag_99:\n      stop\n        /* \"@openzeppelin/contracts-upgradeable/security/PausableUpgradeable.sol\":1879:1963  function paused() public view virtual returns (bool) {... */\n    tag_15:\n      callvalue\n      dup1\n      iszero\n      tag_102\n      jumpi\n      revert(0x00, 0x00)\n    tag_102:\n      pop\n      tag_103\n      tag_104\n      jump\t// in\n    tag_103:\n      mload(0x40)\n      tag_105\n      swap2\n      swap1\n      tag_51\n      jump\t// in\n    tag_105:\n      mload(0x40)\n      dup1\n      swap2\n      sub\n      swap1\n      return\n        /* \"contracts/rough.sol\":7398:7495  function balanceOf(address account) external view returns (uint256) { return balances[account]; } */\n    tag_16:\n      callvalue\n      dup1\n      iszero\n      tag_106\n      jumpi\n      revert(0x00, 0x00)\n    tag_106:\n      pop\n      tag_107\n      0x04\n      dup1\n      calldatasize\n      sub\n      dup2\n      add\n      swap1\n      tag_108\n      swap2\n      swap1\n      tag_80\n      jump\t// in\n    tag_108:\n      tag_109\n      jump\t// in\n    tag_107:\n      mload(0x40)\n      tag_110\n      swap2\n      swap1\n      tag_44\n      jump\t// in\n    tag_110:\n      mload(0x40)\n      dup1\n      swap2\n      sub\n      swap1\n      return\n        /* \"contracts/rough.sol\":1083:1143  bytes32 public constant ADMIN_ROLE = keccak256(\"ADMIN_ROLE\") */\n    tag_17:\n      callvalue\n      dup1\n      iszero\n      tag_111\n      jumpi\n      revert(0x00, 0x00)\n    tag_111:\n      pop\n      tag_112\n      tag_113\n      jump\t// in\n    tag_112:\n      mload(0x40)\n      tag_114\n      swap2\n      swap1\n      tag_67\n      jump\t// in\n    tag_114:\n      mload(0x40)\n      dup1\n      swap2\n      sub\n      swap1\n      return\n        /* \"contracts/rough.sol\":5040:5274  function setMaxWithdrawalLimit(uint256 newLimit) external virtual onlyRole(ADMIN_ROLE) {... */\n    tag_18:\n      callvalue\n      dup1\n      iszero\n      tag_115\n      jumpi\n      revert(0x00, 0x00)\n    tag_115:\n      pop\n      tag_116\n      0x04\n      dup1\n      calldatasize\n      sub\n      dup2\n      add\n      swap1\n      tag_117\n      swap2\n      swap1\n      tag_59\n      jump\t// in\n    tag_117:\n      tag_118\n      jump\t// in\n    tag_116:\n      stop\n        /* \"contracts/rough.sol\":5282:5364  function pause() external virtual onlyRole(ADMIN_ROLE) {... */\n    tag_19:\n      callvalue\n      dup1\n      iszero\n      tag_119\n      jumpi\n      revert(0x00, 0x00)\n    tag_119:\n      pop\n      tag_120\n      tag_121\n      jump\t// in\n    tag_120:\n      stop\n        /* \"contracts/rough.sol\":3970:4223  function removeFromWhitelist(address account) external virtual onlyRole(ADMIN_ROLE) whenNotPaused {... */\n    tag_20:\n      callvalue\n      dup1\n      iszero\n      tag_122\n      jumpi\n      revert(0x00, 0x00)\n    tag_122:\n      pop\n      tag_123\n      0x04\n      dup1\n      calldatasize\n      sub\n      dup2\n      add\n      swap1\n      tag_124\n      swap2\n      swap1\n      tag_80\n      jump\t// in\n    tag_124:\n      tag_125\n      jump\t// in\n    tag_123:\n      stop\n        /* \"@openzeppelin/contracts-upgradeable/access/AccessControlUpgradeable.sol\":3780:3987  function hasRole(bytes32 role, address account) public view virtual returns (bool) {... */\n    tag_21:\n      callvalue\n      dup1\n      iszero\n      tag_126\n      jumpi\n      revert(0x00, 0x00)\n    tag_126:\n      pop\n      tag_127\n      0x04\n      dup1\n      calldatasize\n      sub\n      dup2\n      add\n      swap1\n      tag_128\n      swap2\n      swap1\n      tag_71\n      jump\t// in\n    tag_128:\n      tag_129\n      jump\t// in\n    tag_127:\n      mload(0x40)\n      tag_130\n      swap2\n      swap1\n      tag_51\n      jump\t// in\n    tag_130:\n      mload(0x40)\n      dup1\n      swap2\n      sub\n      swap1\n      return\n        /* \"@openzeppelin/contracts-upgradeable/access/AccessControlUpgradeable.sol\":2398:2447  bytes32 public constant DEFAULT_ADMIN_ROLE = 0x00 */\n    tag_22:\n      callvalue\n      dup1\n      iszero\n      tag_131\n      jumpi\n      revert(0x00, 0x00)\n    tag_131:\n      pop\n      tag_132\n      tag_133\n      jump\t// in\n    tag_132:\n      mload(0x40)\n      tag_134\n      swap2\n      swap1\n      tag_67\n      jump\t// in\n    tag_134:\n      mload(0x40)\n      dup1\n      swap2\n      sub\n      swap1\n      return\n        /* \"@openzeppelin/contracts-upgradeable/proxy/utils/UUPSUpgradeable.sol\":1819:1877  string public constant UPGRADE_INTERFACE_VERSION = \"5.0.0\" */\n    tag_23:\n      callvalue\n      dup1\n      iszero\n      tag_135\n      jumpi\n      revert(0x00, 0x00)\n    tag_135:\n      pop\n      tag_136\n      tag_137\n      jump\t// in\n    tag_136:\n      mload(0x40)\n      tag_138\n      swap2\n      swap1\n      tag_139\n      jump\t// in\n    tag_138:\n      mload(0x40)\n      dup1\n      swap2\n      sub\n      swap1\n      return\n        /* \"contracts/rough.sol\":4870:5032  function setEmergencyMode(bool status) external virtual onlyRole(ADMIN_ROLE) {... */\n    tag_24:\n      callvalue\n      dup1\n      iszero\n      tag_140\n      jumpi\n      revert(0x00, 0x00)\n    tag_140:\n      pop\n      tag_141\n      0x04\n      dup1\n      calldatasize\n      sub\n      dup2\n      add\n      swap1\n      tag_142\n      swap2\n      swap1\n      tag_143\n      jump\t// in\n    tag_142:\n      tag_144\n      jump\t// in\n    tag_141:\n      stop\n        /* \"contracts/rough.sol\":2367:2814  function initialize(address owner, uint256 initialMaxWithdraw) public initializer {... */\n    tag_25:\n      callvalue\n      dup1\n      iszero\n      tag_145\n      jumpi\n      revert(0x00, 0x00)\n    tag_145:\n      pop\n      tag_146\n      0x04\n      dup1\n      calldatasize\n      sub\n      dup2\n      add\n      swap1\n      tag_147\n      swap2\n      swap1\n      tag_148\n      jump\t// in\n    tag_147:\n      tag_149\n      jump\t// in\n    tag_146:\n      stop\n        /* \"contracts/rough.sol\":5466:5782  function deposit() external virtual payable whenNotPaused notBlacklisted {... */\n    tag_26:\n      tag_150\n      tag_151\n      jump\t// in\n    tag_150:\n      stop\n        /* \"@openzeppelin/contracts-upgradeable/access/AccessControlUpgradeable.sol\":5710:5848  function revokeRole(bytes32 role, address account) public virtual onlyRole(getRoleAdmin(role)) {... */\n    tag_27:\n      callvalue\n      dup1\n      iszero\n      tag_152\n      jumpi\n      revert(0x00, 0x00)\n    tag_152:\n      pop\n      tag_153\n      0x04\n      dup1\n      calldatasize\n      sub\n      dup2\n      add\n      swap1\n      tag_154\n      swap2\n      swap1\n      tag_71\n      jump\t// in\n    tag_154:\n      tag_155\n      jump\t// in\n    tag_153:\n      stop\n        /* \"contracts/rough.sol\":6669:7180  function emergencyWithdraw() external virtual nonReentrant notBlacklisted {... */\n    tag_28:\n      callvalue\n      dup1\n      iszero\n      tag_156\n      jumpi\n      revert(0x00, 0x00)\n    tag_156:\n      pop\n      tag_157\n      tag_158\n      jump\t// in\n    tag_157:\n      stop\n        /* \"contracts/rough.sol\":3662:3962  function addToWhitelist(address account) external virtual onlyRole(ADMIN_ROLE) whenNotPaused {... */\n    tag_29:\n      callvalue\n      dup1\n      iszero\n      tag_159\n      jumpi\n      revert(0x00, 0x00)\n    tag_159:\n      pop\n      tag_160\n      0x04\n      dup1\n      calldatasize\n      sub\n      dup2\n      add\n      swap1\n      tag_161\n      swap2\n      swap1\n      tag_80\n      jump\t// in\n    tag_161:\n      tag_162\n      jump\t// in\n    tag_160:\n      stop\n        /* \"contracts/rough.sol\":7293:7392  function isBlacklisted(address account) external view returns (bool) { return blacklist[account]; } */\n    tag_30:\n      callvalue\n      dup1\n      iszero\n      tag_163\n      jumpi\n      revert(0x00, 0x00)\n    tag_163:\n      pop\n      tag_164\n      0x04\n      dup1\n      calldatasize\n      sub\n      dup2\n      add\n      swap1\n      tag_165\n      swap2\n      swap1\n      tag_80\n      jump\t// in\n    tag_165:\n      tag_166\n      jump\t// in\n    tag_164:\n      mload(0x40)\n      tag_167\n      swap2\n      swap1\n      tag_51\n      jump\t// in\n    tag_167:\n      mload(0x40)\n      dup1\n      swap2\n      sub\n      swap1\n      return\n        /* \"contracts/rough.sol\":1400:1433  uint256 public maxWithdrawalLimit */\n    tag_31:\n      callvalue\n      dup1\n      iszero\n      tag_168\n      jumpi\n      revert(0x00, 0x00)\n    tag_168:\n      pop\n      tag_169\n      tag_170\n      jump\t// in\n    tag_169:\n      mload(0x40)\n      tag_171\n      swap2\n      swap1\n      tag_44\n      jump\t// in\n    tag_171:\n      mload(0x40)\n      dup1\n      swap2\n      sub\n      swap1\n      return\n        /* \"contracts/rough.sol\":7503:7674  function supportsInterface(bytes4 interfaceId) public view override(AccessControlUpgradeable) returns (bool) {... */\n    tag_49:\n        /* \"contracts/rough.sol\":7606:7610  bool */\n      0x00\n        /* \"contracts/rough.sol\":7630:7666  super.supportsInterface(interfaceId) */\n      tag_173\n        /* \"contracts/rough.sol\":7654:7665  interfaceId */\n      dup3\n        /* \"contracts/rough.sol\":7630:7653  super.supportsInterface */\n      tag_174\n        /* \"contracts/rough.sol\":7630:7666  super.supportsInterface(interfaceId) */\n      jump\t// in\n    tag_173:\n        /* \"contracts/rough.sol\":7623:7666  return super.supportsInterface(interfaceId) */\n      swap1\n      pop\n        /* \"contracts/rough.sol\":7503:7674  function supportsInterface(bytes4 interfaceId) public view override(AccessControlUpgradeable) returns (bool) {... */\n      swap2\n      swap1\n      pop\n      jump\t// out\n        /* \"contracts/rough.sol\":1368:1393  bool public emergencyMode */\n    tag_54:\n      0x68\n      0x00\n      swap1\n      sload\n      swap1\n      0x0100\n      exp\n      swap1\n      div\n      0xff\n      and\n      dup2\n      jump\t// out\n        /* \"contracts/rough.sol\":5790:6661  function secureWithdraw(uint256 amount) external virtual nonReentrant whenNotPaused notBlacklisted onlyWhitelisted {... */\n    tag_60:\n        /* \"@openzeppelin/contracts-upgradeable/security/ReentrancyGuardUpgradeable.sol\":2526:2547  _nonReentrantBefore() */\n      tag_176\n        /* \"@openzeppelin/contracts-upgradeable/security/ReentrancyGuardUpgradeable.sol\":2526:2545  _nonReentrantBefore */\n      tag_177\n        /* \"@openzeppelin/contracts-upgradeable/security/ReentrancyGuardUpgradeable.sol\":2526:2547  _nonReentrantBefore() */\n      jump\t// in\n    tag_176:\n        /* \"@openzeppelin/contracts-upgradeable/security/PausableUpgradeable.sol\":1503:1522  _requireNotPaused() */\n      tag_179\n        /* \"@openzeppelin/contracts-upgradeable/security/PausableUpgradeable.sol\":1503:1520  _requireNotPaused */\n      tag_180\n        /* \"@openzeppelin/contracts-upgradeable/security/PausableUpgradeable.sol\":1503:1522  _requireNotPaused() */\n      jump\t// in\n    tag_179:\n        /* \"contracts/rough.sol\":2863:2872  blacklist */\n      0x65\n        /* \"contracts/rough.sol\":2863:2884  blacklist[msg.sender] */\n      0x00\n        /* \"contracts/rough.sol\":2873:2883  msg.sender */\n      caller\n        /* \"contracts/rough.sol\":2863:2884  blacklist[msg.sender] */\n      0xffffffffffffffffffffffffffffffffffffffff\n      and\n      0xffffffffffffffffffffffffffffffffffffffff\n      and\n      dup2\n      mstore\n      0x20\n      add\n      swap1\n      dup2\n      mstore\n      0x20\n      add\n      0x00\n      keccak256\n      0x00\n      swap1\n      sload\n      swap1\n      0x0100\n      exp\n      swap1\n      div\n      0xff\n      and\n        /* \"contracts/rough.sol\":2859:2923  if (blacklist[msg.sender]) revert AddressBlacklisted(msg.sender) */\n      iszero\n      tag_182\n      jumpi\n        /* \"contracts/rough.sol\":2912:2922  msg.sender */\n      caller\n        /* \"contracts/rough.sol\":2893:2923  AddressBlacklisted(msg.sender) */\n      mload(0x40)\n      0xdaf49ab900000000000000000000000000000000000000000000000000000000\n      dup2\n      mstore\n      0x04\n      add\n      tag_183\n      swap2\n      swap1\n      tag_184\n      jump\t// in\n    tag_183:\n      mload(0x40)\n      dup1\n      swap2\n      sub\n      swap1\n      revert\n        /* \"contracts/rough.sol\":2859:2923  if (blacklist[msg.sender]) revert AddressBlacklisted(msg.sender) */\n    tag_182:\n        /* \"contracts/rough.sol\":2994:3003  whitelist */\n      0x64\n        /* \"contracts/rough.sol\":2994:3015  whitelist[msg.sender] */\n      0x00\n        /* \"contracts/rough.sol\":3004:3014  msg.sender */\n      caller\n        /* \"contracts/rough.sol\":2994:3015  whitelist[msg.sender] */\n      0xffffffffffffffffffffffffffffffffffffffff\n      and\n      0xffffffffffffffffffffffffffffffffffffffff\n      and\n      dup2\n      mstore\n      0x20\n      add\n      swap1\n      dup2\n      mstore\n      0x20\n      add\n      0x00\n      keccak256\n      0x00\n      swap1\n      sload\n      swap1\n      0x0100\n      exp\n      swap1\n      div\n      0xff\n      and\n        /* \"contracts/rough.sol\":2989:3050  if (!whitelist[msg.sender]) revert NotWhitelisted(msg.sender) */\n      tag_186\n      jumpi\n        /* \"contracts/rough.sol\":3039:3049  msg.sender */\n      caller\n        /* \"contracts/rough.sol\":3024:3050  NotWhitelisted(msg.sender) */\n      mload(0x40)\n      0xdf17e31600000000000000000000000000000000000000000000000000000000\n      dup2\n      mstore\n      0x04\n      add\n      tag_187\n      swap2\n      swap1\n      tag_184\n      jump\t// in\n    tag_187:\n      mload(0x40)\n      dup1\n      swap2\n      sub\n      swap1\n      revert\n        /* \"contracts/rough.sol\":2989:3050  if (!whitelist[msg.sender]) revert NotWhitelisted(msg.sender) */\n    tag_186:\n        /* \"contracts/rough.sol\":5930:5931  0 */\n      0x00\n        /* \"contracts/rough.sol\":5920:5926  amount */\n      dup2\n        /* \"contracts/rough.sol\":5920:5931  amount == 0 */\n      sub\n        /* \"contracts/rough.sol\":5916:5952  if (amount == 0) revert AmountZero() */\n      tag_189\n      jumpi\n        /* \"contracts/rough.sol\":5940:5952  AmountZero() */\n      mload(0x40)\n      0xcbca5aa200000000000000000000000000000000000000000000000000000000\n      dup2\n      mstore\n      0x04\n      add\n      mload(0x40)\n      dup1\n      swap2\n      sub\n      swap1\n      revert\n        /* \"contracts/rough.sol\":5916:5952  if (amount == 0) revert AmountZero() */\n    tag_189:\n        /* \"contracts/rough.sol\":5976:5994  maxWithdrawalLimit */\n      sload(0x69)\n        /* \"contracts/rough.sol\":5967:5973  amount */\n      dup2\n        /* \"contracts/rough.sol\":5967:5994  amount > maxWithdrawalLimit */\n      gt\n        /* \"contracts/rough.sol\":5963:6043  if (amount > maxWithdrawalLimit) revert ExceedsLimit(amount, maxWithdrawalLimit) */\n      iszero\n      tag_190\n      jumpi\n        /* \"contracts/rough.sol\":6016:6022  amount */\n      dup1\n        /* \"contracts/rough.sol\":6024:6042  maxWithdrawalLimit */\n      sload(0x69)\n        /* \"contracts/rough.sol\":6003:6043  ExceedsLimit(amount, maxWithdrawalLimit) */\n      mload(0x40)\n      0x89fe1d9200000000000000000000000000000000000000000000000000000000\n      dup2\n      mstore\n      0x04\n      add\n      tag_191\n      swap3\n      swap2\n      swap1\n      tag_192\n      jump\t// in\n    tag_191:\n      mload(0x40)\n      dup1\n      swap2\n      sub\n      swap1\n      revert\n        /* \"contracts/rough.sol\":5963:6043  if (amount > maxWithdrawalLimit) revert ExceedsLimit(amount, maxWithdrawalLimit) */\n    tag_190:\n        /* \"contracts/rough.sol\":6058:6071  emergencyMode */\n      0x68\n      0x00\n      swap1\n      sload\n      swap1\n      0x0100\n      exp\n      swap1\n      div\n      0xff\n      and\n        /* \"contracts/rough.sol\":6054:6097  if (emergencyMode) revert EmergencyActive() */\n      iszero\n      tag_193\n      jumpi\n        /* \"contracts/rough.sol\":6080:6097  EmergencyActive() */\n      mload(0x40)\n      0xd08164e300000000000000000000000000000000000000000000000000000000\n      dup2\n      mstore\n      0x04\n      add\n      mload(0x40)\n      dup1\n      swap2\n      sub\n      swap1\n      revert\n        /* \"contracts/rough.sol\":6054:6097  if (emergencyMode) revert EmergencyActive() */\n    tag_193:\n        /* \"contracts/rough.sol\":6146:6158  block.number */\n      number\n        /* \"contracts/rough.sol\":6112:6130  lastBlockWithdrawn */\n      0x67\n        /* \"contracts/rough.sol\":6112:6142  lastBlockWithdrawn[msg.sender] */\n      0x00\n        /* \"contracts/rough.sol\":6131:6141  msg.sender */\n      caller\n        /* \"contracts/rough.sol\":6112:6142  lastBlockWithdrawn[msg.sender] */\n      0xffffffffffffffffffffffffffffffffffffffff\n      and\n      0xffffffffffffffffffffffffffffffffffffffff\n      and\n      dup2\n      mstore\n      0x20\n      add\n      swap1\n      dup2\n      mstore\n      0x20\n      add\n      0x00\n      keccak256\n      sload\n        /* \"contracts/rough.sol\":6112:6158  lastBlockWithdrawn[msg.sender] >= block.number */\n      lt\n        /* \"contracts/rough.sol\":6108:6183  if (lastBlockWithdrawn[msg.sender] >= block.number) revert CooldownActive() */\n      tag_194\n      jumpi\n        /* \"contracts/rough.sol\":6167:6183  CooldownActive() */\n      mload(0x40)\n      0xaa9a98df00000000000000000000000000000000000000000000000000000000\n      dup2\n      mstore\n      0x04\n      add\n      mload(0x40)\n      dup1\n      swap2\n      sub\n      swap1\n      revert\n        /* \"contracts/rough.sol\":6108:6183  if (lastBlockWithdrawn[msg.sender] >= block.number) revert CooldownActive() */\n    tag_194:\n        /* \"contracts/rough.sol\":6194:6205  uint256 bal */\n      0x00\n        /* \"contracts/rough.sol\":6208:6216  balances */\n      0x66\n        /* \"contracts/rough.sol\":6208:6228  balances[msg.sender] */\n      0x00\n        /* \"contracts/rough.sol\":6217:6227  msg.sender */\n      caller\n        /* \"contracts/rough.sol\":6208:6228  balances[msg.sender] */\n      0xffffffffffffffffffffffffffffffffffffffff\n      and\n      0xffffffffffffffffffffffffffffffffffffffff\n      and\n      dup2\n      mstore\n      0x20\n      add\n      swap1\n      dup2\n      mstore\n      0x20\n      add\n      0x00\n      keccak256\n      sload\n        /* \"contracts/rough.sol\":6194:6228  uint256 bal = balances[msg.sender] */\n      swap1\n      pop\n        /* \"contracts/rough.sol\":6249:6255  amount */\n      dup2\n        /* \"contracts/rough.sol\":6243:6246  bal */\n      dup2\n        /* \"contracts/rough.sol\":6243:6255  bal < amount */\n      lt\n        /* \"contracts/rough.sol\":6239:6296  if (bal < amount) revert InsufficientBalance(bal, amount) */\n      iszero\n      tag_195\n      jumpi\n        /* \"contracts/rough.sol\":6284:6287  bal */\n      dup1\n        /* \"contracts/rough.sol\":6289:6295  amount */\n      dup3\n        /* \"contracts/rough.sol\":6264:6296  InsufficientBalance(bal, amount) */\n      mload(0x40)\n      0xcf47918100000000000000000000000000000000000000000000000000000000\n      dup2\n      mstore\n      0x04\n      add\n      tag_196\n      swap3\n      swap2\n      swap1\n      tag_192\n      jump\t// in\n    tag_196:\n      mload(0x40)\n      dup1\n      swap2\n      sub\n      swap1\n      revert\n        /* \"contracts/rough.sol\":6239:6296  if (bal < amount) revert InsufficientBalance(bal, amount) */\n    tag_195:\n        /* \"contracts/rough.sol\":6307:6348  _beforeSecureWithdraw(msg.sender, amount) */\n      tag_197\n        /* \"contracts/rough.sol\":6329:6339  msg.sender */\n      caller\n        /* \"contracts/rough.sol\":6341:6347  amount */\n      dup4\n        /* \"contracts/rough.sol\":6307:6328  _beforeSecureWithdraw */\n      tag_198\n        /* \"contracts/rough.sol\":6307:6348  _beforeSecureWithdraw(msg.sender, amount) */\n      jump\t// in\n    tag_197:\n        /* \"contracts/rough.sol\":6388:6394  amount */\n      dup2\n        /* \"contracts/rough.sol\":6382:6385  bal */\n      dup2\n        /* \"contracts/rough.sol\":6382:6394  bal - amount */\n      tag_199\n      swap2\n      swap1\n      tag_200\n      jump\t// in\n    tag_199:\n        /* \"contracts/rough.sol\":6359:6367  balances */\n      0x66\n        /* \"contracts/rough.sol\":6359:6379  balances[msg.sender] */\n      0x00\n        /* \"contracts/rough.sol\":6368:6378  msg.sender */\n      caller\n        /* \"contracts/rough.sol\":6359:6379  balances[msg.sender] */\n      0xffffffffffffffffffffffffffffffffffffffff\n      and\n      0xffffffffffffffffffffffffffffffffffffffff\n      and\n      dup2\n      mstore\n      0x20\n      add\n      swap1\n      dup2\n      mstore\n      0x20\n      add\n      0x00\n      keccak256\n        /* \"contracts/rough.sol\":6359:6394  balances[msg.sender] = bal - amount */\n      dup2\n      swap1\n      sstore\n      pop\n        /* \"contracts/rough.sol\":6438:6450  block.number */\n      number\n        /* \"contracts/rough.sol\":6405:6423  lastBlockWithdrawn */\n      0x67\n        /* \"contracts/rough.sol\":6405:6435  lastBlockWithdrawn[msg.sender] */\n      0x00\n        /* \"contracts/rough.sol\":6424:6434  msg.sender */\n      caller\n        /* \"contracts/rough.sol\":6405:6435  lastBlockWithdrawn[msg.sender] */\n      0xffffffffffffffffffffffffffffffffffffffff\n      and\n      0xffffffffffffffffffffffffffffffffffffffff\n      and\n      dup2\n      mstore\n      0x20\n      add\n      swap1\n      dup2\n      mstore\n      0x20\n      add\n      0x00\n      keccak256\n        /* \"contracts/rough.sol\":6405:6450  lastBlockWithdrawn[msg.sender] = block.number */\n      dup2\n      swap1\n      sstore\n      pop\n        /* \"contracts/rough.sol\":6462:6469  bool ok */\n      0x00\n        /* \"contracts/rough.sol\":6483:6493  msg.sender */\n      caller\n        /* \"contracts/rough.sol\":6475:6499  payable(msg.sender).call */\n      0xffffffffffffffffffffffffffffffffffffffff\n      and\n        /* \"contracts/rough.sol\":6507:6513  amount */\n      dup4\n        /* \"contracts/rough.sol\":6475:6518  payable(msg.sender).call{value: amount}(\"\") */\n      mload(0x40)\n      tag_201\n      swap1\n      tag_202\n      jump\t// in\n    tag_201:\n      0x00\n      mload(0x40)\n      dup1\n      dup4\n      sub\n      dup2\n      dup6\n      dup8\n      gas\n      call\n      swap3\n      pop\n      pop\n      pop\n      returndatasize\n      dup1\n      0x00\n      dup2\n      eq\n      tag_205\n      jumpi\n      mload(0x40)\n      swap2\n      pop\n      and(add(returndatasize, 0x3f), not(0x1f))\n      dup3\n      add\n      0x40\n      mstore\n      returndatasize\n      dup3\n      mstore\n      returndatasize\n      0x00\n      0x20\n      dup5\n      add\n      returndatacopy\n      jump(tag_204)\n    tag_205:\n      0x60\n      swap2\n      pop\n    tag_204:\n      pop\n        /* \"contracts/rough.sol\":6461:6518  (bool ok, ) = payable(msg.sender).call{value: amount}(\"\") */\n      pop\n      swap1\n      pop\n        /* \"contracts/rough.sol\":6525:6527  ok */\n      dup1\n        /* \"contracts/rough.sol\":6520:6552  if (!ok) revert TransferFailed() */\n      tag_206\n      jumpi\n        /* \"contracts/rough.sol\":6536:6552  TransferFailed() */\n      mload(0x40)\n      0x90b8ec1800000000000000000000000000000000000000000000000000000000\n      dup2\n      mstore\n      0x04\n      add\n      mload(0x40)\n      dup1\n      swap2\n      sub\n      swap1\n      revert\n        /* \"contracts/rough.sol\":6520:6552  if (!ok) revert TransferFailed() */\n    tag_206:\n        /* \"contracts/rough.sol\":6583:6593  msg.sender */\n      caller\n        /* \"contracts/rough.sol\":6568:6602  SecureWithdraw(msg.sender, amount) */\n      0xffffffffffffffffffffffffffffffffffffffff\n      and\n      0x71be1378c49e2fbc5c210c1ce7e618f56aa4022f5bd4776f339956c43b55a975\n        /* \"contracts/rough.sol\":6595:6601  amount */\n      dup5\n        /* \"contracts/rough.sol\":6568:6602  SecureWithdraw(msg.sender, amount) */\n      mload(0x40)\n      tag_207\n      swap2\n      swap1\n      tag_44\n      jump\t// in\n    tag_207:\n      mload(0x40)\n      dup1\n      swap2\n      sub\n      swap1\n      log2\n        /* \"contracts/rough.sol\":6613:6653  _afterSecureWithdraw(msg.sender, amount) */\n      tag_208\n        /* \"contracts/rough.sol\":6634:6644  msg.sender */\n      caller\n        /* \"contracts/rough.sol\":6646:6652  amount */\n      dup5\n        /* \"contracts/rough.sol\":6613:6633  _afterSecureWithdraw */\n      tag_209\n        /* \"contracts/rough.sol\":6613:6653  _afterSecureWithdraw(msg.sender, amount) */\n      jump\t// in\n    tag_208:\n        /* \"contracts/rough.sol\":5905:6661  {... */\n      pop\n      pop\n        /* \"@openzeppelin/contracts-upgradeable/security/ReentrancyGuardUpgradeable.sol\":2568:2588  _nonReentrantAfter() */\n      tag_210\n        /* \"@openzeppelin/contracts-upgradeable/security/ReentrancyGuardUpgradeable.sol\":2568:2586  _nonReentrantAfter */\n      tag_211\n        /* \"@openzeppelin/contracts-upgradeable/security/ReentrancyGuardUpgradeable.sol\":2568:2588  _nonReentrantAfter() */\n      jump\t// in\n    tag_210:\n        /* \"contracts/rough.sol\":5790:6661  function secureWithdraw(uint256 amount) external virtual nonReentrant whenNotPaused notBlacklisted onlyWhitelisted {... */\n      pop\n      jump\t// out\n        /* \"@openzeppelin/contracts-upgradeable/access/AccessControlUpgradeable.sol\":4807:4998  function getRoleAdmin(bytes32 role) public view virtual returns (bytes32) {... */\n    tag_65:\n        /* \"@openzeppelin/contracts-upgradeable/access/AccessControlUpgradeable.sol\":4872:4879  bytes32 */\n      0x00\n        /* \"@openzeppelin/contracts-upgradeable/access/AccessControlUpgradeable.sol\":4891:4921  AccessControlStorage storage $ */\n      0x00\n        /* \"@openzeppelin/contracts-upgradeable/access/AccessControlUpgradeable.sol\":4924:4950  _getAccessControlStorage() */\n      tag_213\n        /* \"@openzeppelin/contracts-upgradeable/access/AccessControlUpgradeable.sol\":4924:4948  _getAccessControlStorage */\n      tag_214\n        /* \"@openzeppelin/contracts-upgradeable/access/AccessControlUpgradeable.sol\":4924:4950  _getAccessControlStorage() */\n      jump\t// in\n    tag_213:\n        /* \"@openzeppelin/contracts-upgradeable/access/AccessControlUpgradeable.sol\":4891:4950  AccessControlStorage storage $ = _getAccessControlStorage() */\n      swap1\n      pop\n        /* \"@openzeppelin/contracts-upgradeable/access/AccessControlUpgradeable.sol\":4967:4968  $ */\n      dup1\n        /* \"@openzeppelin/contracts-upgradeable/access/AccessControlUpgradeable.sol\":4967:4975  $._roles */\n      0x00\n      add\n        /* \"@openzeppelin/contracts-upgradeable/access/AccessControlUpgradeable.sol\":4967:4981  $._roles[role] */\n      0x00\n        /* \"@openzeppelin/contracts-upgradeable/access/AccessControlUpgradeable.sol\":4976:4980  role */\n      dup5\n        /* \"@openzeppelin/contracts-upgradeable/access/AccessControlUpgradeable.sol\":4967:4981  $._roles[role] */\n      dup2\n      mstore\n      0x20\n      add\n      swap1\n      dup2\n      mstore\n      0x20\n      add\n      0x00\n      keccak256\n        /* \"@openzeppelin/contracts-upgradeable/access/AccessControlUpgradeable.sol\":4967:4991  $._roles[role].adminRole */\n      0x01\n      add\n      sload\n        /* \"@openzeppelin/contracts-upgradeable/access/AccessControlUpgradeable.sol\":4960:4991  return $._roles[role].adminRole */\n      swap2\n      pop\n      pop\n        /* \"@openzeppelin/contracts-upgradeable/access/AccessControlUpgradeable.sol\":4807:4998  function getRoleAdmin(bytes32 role) public view virtual returns (bytes32) {... */\n      swap2\n      swap1\n      pop\n      jump\t// out\n        /* \"@openzeppelin/contracts-upgradeable/access/AccessControlUpgradeable.sol\":5294:5430  function grantRole(bytes32 role, address account) public virtual onlyRole(getRoleAdmin(role)) {... */\n    tag_72:\n        /* \"@openzeppelin/contracts-upgradeable/access/AccessControlUpgradeable.sol\":5368:5386  getRoleAdmin(role) */\n      tag_215\n        /* \"@openzeppelin/contracts-upgradeable/access/AccessControlUpgradeable.sol\":5381:5385  role */\n      dup3\n        /* \"@openzeppelin/contracts-upgradeable/access/AccessControlUpgradeable.sol\":5368:5380  getRoleAdmin */\n      tag_65\n        /* \"@openzeppelin/contracts-upgradeable/access/AccessControlUpgradeable.sol\":5368:5386  getRoleAdmin(role) */\n      jump\t// in\n    tag_215:\n        /* \"@openzeppelin/contracts-upgradeable/access/AccessControlUpgradeable.sol\":3272:3288  _checkRole(role) */\n      tag_217\n        /* \"@openzeppelin/contracts-upgradeable/access/AccessControlUpgradeable.sol\":3283:3287  role */\n      dup2\n        /* \"@openzeppelin/contracts-upgradeable/access/AccessControlUpgradeable.sol\":3272:3282  _checkRole */\n      tag_218\n        /* \"@openzeppelin/contracts-upgradeable/access/AccessControlUpgradeable.sol\":3272:3288  _checkRole(role) */\n      jump\t// in\n    tag_217:\n        /* \"@openzeppelin/contracts-upgradeable/access/AccessControlUpgradeable.sol\":5398:5423  _grantRole(role, account) */\n      tag_220\n        /* \"@openzeppelin/contracts-upgradeable/access/AccessControlUpgradeable.sol\":5409:5413  role */\n      dup4\n        /* \"@openzeppelin/contracts-upgradeable/access/AccessControlUpgradeable.sol\":5415:5422  account */\n      dup4\n        /* \"@openzeppelin/contracts-upgradeable/access/AccessControlUpgradeable.sol\":5398:5408  _grantRole */\n      tag_221\n        /* \"@openzeppelin/contracts-upgradeable/access/AccessControlUpgradeable.sol\":5398:5423  _grantRole(role, account) */\n      jump\t// in\n    tag_220:\n      pop\n        /* \"@openzeppelin/contracts-upgradeable/access/AccessControlUpgradeable.sol\":5294:5430  function grantRole(bytes32 role, address account) public virtual onlyRole(getRoleAdmin(role)) {... */\n      pop\n      pop\n      pop\n      jump\t// out\n        /* \"@openzeppelin/contracts-upgradeable/access/AccessControlUpgradeable.sol\":6396:6641  function renounceRole(bytes32 role, address callerConfirmation) public virtual {... */\n    tag_76:\n        /* \"@openzeppelin/contracts-upgradeable/access/AccessControlUpgradeable.sol\":6511:6523  _msgSender() */\n      tag_223\n        /* \"@openzeppelin/contracts-upgradeable/access/AccessControlUpgradeable.sol\":6511:6521  _msgSender */\n      tag_224\n        /* \"@openzeppelin/contracts-upgradeable/access/AccessControlUpgradeable.sol\":6511:6523  _msgSender() */\n      jump\t// in\n    tag_223:\n        /* \"@openzeppelin/contracts-upgradeable/access/AccessControlUpgradeable.sol\":6489:6523  callerConfirmation != _msgSender() */\n      0xffffffffffffffffffffffffffffffffffffffff\n      and\n        /* \"@openzeppelin/contracts-upgradeable/access/AccessControlUpgradeable.sol\":6489:6507  callerConfirmation */\n      dup2\n        /* \"@openzeppelin/contracts-upgradeable/access/AccessControlUpgradeable.sol\":6489:6523  callerConfirmation != _msgSender() */\n      0xffffffffffffffffffffffffffffffffffffffff\n      and\n      eq\n        /* \"@openzeppelin/contracts-upgradeable/access/AccessControlUpgradeable.sol\":6485:6587  if (callerConfirmation != _msgSender()) {... */\n      tag_225\n      jumpi\n        /* \"@openzeppelin/contracts-upgradeable/access/AccessControlUpgradeable.sol\":6546:6576  AccessControlBadConfirmation() */\n      mload(0x40)\n      0x6697b23200000000000000000000000000000000000000000000000000000000\n      dup2\n      mstore\n      0x04\n      add\n      mload(0x40)\n      dup1\n      swap2\n      sub\n      swap1\n      revert\n        /* \"@openzeppelin/contracts-upgradeable/access/AccessControlUpgradeable.sol\":6485:6587  if (callerConfirmation != _msgSender()) {... */\n    tag_225:\n        /* \"@openzeppelin/contracts-upgradeable/access/AccessControlUpgradeable.sol\":6597:6634  _revokeRole(role, callerConfirmation) */\n      tag_226\n        /* \"@openzeppelin/contracts-upgradeable/access/AccessControlUpgradeable.sol\":6609:6613  role */\n      dup3\n        /* \"@openzeppelin/contracts-upgradeable/access/AccessControlUpgradeable.sol\":6615:6633  callerConfirmation */\n      dup3\n        /* \"@openzeppelin/contracts-upgradeable/access/AccessControlUpgradeable.sol\":6597:6608  _revokeRole */\n      tag_227\n        /* \"@openzeppelin/contracts-upgradeable/access/AccessControlUpgradeable.sol\":6597:6634  _revokeRole(role, callerConfirmation) */\n      jump\t// in\n    tag_226:\n      pop\n        /* \"@openzeppelin/contracts-upgradeable/access/AccessControlUpgradeable.sol\":6396:6641  function renounceRole(bytes32 role, address callerConfirmation) public virtual {... */\n      pop\n      pop\n      jump\t// out\n        /* \"contracts/rough.sol\":7188:7287  function isWhitelisted(address account) external view returns (bool) { return whitelist[account]; } */\n    tag_81:\n        /* \"contracts/rough.sol\":7251:7255  bool */\n      0x00\n        /* \"contracts/rough.sol\":7266:7275  whitelist */\n      0x64\n        /* \"contracts/rough.sol\":7266:7284  whitelist[account] */\n      0x00\n        /* \"contracts/rough.sol\":7276:7283  account */\n      dup4\n        /* \"contracts/rough.sol\":7266:7284  whitelist[account] */\n      0xffffffffffffffffffffffffffffffffffffffff\n      and\n      0xffffffffffffffffffffffffffffffffffffffff\n      and\n      dup2\n      mstore\n      0x20\n      add\n      swap1\n      dup2\n      mstore\n      0x20\n      add\n      0x00\n      keccak256\n      0x00\n      swap1\n      sload\n      swap1\n      0x0100\n      exp\n      swap1\n      div\n      0xff\n      and\n        /* \"contracts/rough.sol\":7259:7284  return whitelist[account] */\n      swap1\n      pop\n        /* \"contracts/rough.sol\":7188:7287  function isWhitelisted(address account) external view returns (bool) { return whitelist[account]; } */\n      swap2\n      swap1\n      pop\n      jump\t// out\n        /* \"contracts/rough.sol\":5372:5458  function unpause() external virtual onlyRole(ADMIN_ROLE) {... */\n    tag_85:\n        /* \"contracts/rough.sol\":1120:1143  keccak256(\"ADMIN_ROLE\") */\n      0xa49807205ce4d355092ef5a8a18f56e8913cf4a201fbe287825b095693c21775\n        /* \"@openzeppelin/contracts-upgradeable/access/AccessControlUpgradeable.sol\":3272:3288  _checkRole(role) */\n      tag_230\n        /* \"@openzeppelin/contracts-upgradeable/access/AccessControlUpgradeable.sol\":3283:3287  role */\n      dup2\n        /* \"@openzeppelin/contracts-upgradeable/access/AccessControlUpgradeable.sol\":3272:3282  _checkRole */\n      tag_218\n        /* \"@openzeppelin/contracts-upgradeable/access/AccessControlUpgradeable.sol\":3272:3288  _checkRole(role) */\n      jump\t// in\n    tag_230:\n        /* \"contracts/rough.sol\":5440:5450  _unpause() */\n      tag_232\n        /* \"contracts/rough.sol\":5440:5448  _unpause */\n      tag_233\n        /* \"contracts/rough.sol\":5440:5450  _unpause() */\n      jump\t// in\n    tag_232:\n        /* \"contracts/rough.sol\":5372:5458  function unpause() external virtual onlyRole(ADMIN_ROLE) {... */\n      pop\n      jump\t// out\n        /* \"contracts/rough.sol\":4231:4597  function addToBlacklist(address account) external virtual onlyRole(ADMIN_ROLE) whenNotPaused {... */\n    tag_89:\n        /* \"contracts/rough.sol\":1120:1143  keccak256(\"ADMIN_ROLE\") */\n      0xa49807205ce4d355092ef5a8a18f56e8913cf4a201fbe287825b095693c21775\n        /* \"@openzeppelin/contracts-upgradeable/access/AccessControlUpgradeable.sol\":3272:3288  _checkRole(role) */\n      tag_235\n        /* \"@openzeppelin/contracts-upgradeable/access/AccessControlUpgradeable.sol\":3283:3287  role */\n      dup2\n        /* \"@openzeppelin/contracts-upgradeable/access/AccessControlUpgradeable.sol\":3272:3282  _checkRole */\n      tag_218\n        /* \"@openzeppelin/contracts-upgradeable/access/AccessControlUpgradeable.sol\":3272:3288  _checkRole(role) */\n      jump\t// in\n    tag_235:\n        /* \"@openzeppelin/contracts-upgradeable/security/PausableUpgradeable.sol\":1503:1522  _requireNotPaused() */\n      tag_237\n        /* \"@openzeppelin/contracts-upgradeable/security/PausableUpgradeable.sol\":1503:1520  _requireNotPaused */\n      tag_180\n        /* \"@openzeppelin/contracts-upgradeable/security/PausableUpgradeable.sol\":1503:1522  _requireNotPaused() */\n      jump\t// in\n    tag_237:\n        /* \"contracts/rough.sol\":4358:4359  0 */\n      0x00\n        /* \"contracts/rough.sol\":4339:4360  account == address(0) */\n      0xffffffffffffffffffffffffffffffffffffffff\n      and\n        /* \"contracts/rough.sol\":4339:4346  account */\n      dup3\n        /* \"contracts/rough.sol\":4339:4360  account == address(0) */\n      0xffffffffffffffffffffffffffffffffffffffff\n      and\n      sub\n        /* \"contracts/rough.sol\":4335:4382  if (account == address(0)) revert ZeroAddress() */\n      tag_239\n      jumpi\n        /* \"contracts/rough.sol\":4369:4382  ZeroAddress() */\n      mload(0x40)\n      0xd92e233d00000000000000000000000000000000000000000000000000000000\n      dup2\n      mstore\n      0x04\n      add\n      mload(0x40)\n      dup1\n      swap2\n      sub\n      swap1\n      revert\n        /* \"contracts/rough.sol\":4335:4382  if (account == address(0)) revert ZeroAddress() */\n    tag_239:\n        /* \"contracts/rough.sol\":4397:4406  whitelist */\n      0x64\n        /* \"contracts/rough.sol\":4397:4415  whitelist[account] */\n      0x00\n        /* \"contracts/rough.sol\":4407:4414  account */\n      dup4\n        /* \"contracts/rough.sol\":4397:4415  whitelist[account] */\n      0xffffffffffffffffffffffffffffffffffffffff\n      and\n      0xffffffffffffffffffffffffffffffffffffffff\n      and\n      dup2\n      mstore\n      0x20\n      add\n      swap1\n      dup2\n      mstore\n      0x20\n      add\n      0x00\n      keccak256\n      0x00\n      swap1\n      sload\n      swap1\n      0x0100\n      exp\n      swap1\n      div\n      0xff\n      and\n        /* \"contracts/rough.sol\":4393:4518  if (whitelist[account]) {... */\n      iszero\n      tag_240\n      jumpi\n        /* \"contracts/rough.sol\":4439:4448  whitelist */\n      0x64\n        /* \"contracts/rough.sol\":4439:4457  whitelist[account] */\n      0x00\n        /* \"contracts/rough.sol\":4449:4456  account */\n      dup4\n        /* \"contracts/rough.sol\":4439:4457  whitelist[account] */\n      0xffffffffffffffffffffffffffffffffffffffff\n      and\n      0xffffffffffffffffffffffffffffffffffffffff\n      and\n      dup2\n      mstore\n      0x20\n      add\n      swap1\n      dup2\n      mstore\n      0x20\n      add\n      0x00\n      keccak256\n      0x00\n        /* \"contracts/rough.sol\":4432:4457  delete whitelist[account] */\n      0x0100\n      exp\n      dup2\n      sload\n      swap1\n      0xff\n      mul\n      not\n      and\n      swap1\n      sstore\n        /* \"contracts/rough.sol\":4498:4505  account */\n      dup2\n        /* \"contracts/rough.sol\":4477:4506  RemovedFromWhitelist(account) */\n      0xffffffffffffffffffffffffffffffffffffffff\n      and\n      0xcdd2e9b91a56913d370075169cefa1602ba36be5301664f752192bb1709df757\n      mload(0x40)\n      mload(0x40)\n      dup1\n      swap2\n      sub\n      swap1\n      log2\n        /* \"contracts/rough.sol\":4393:4518  if (whitelist[account]) {... */\n    tag_240:\n        /* \"contracts/rough.sol\":4549:4553  true */\n      0x01\n        /* \"contracts/rough.sol\":4528:4537  blacklist */\n      0x65\n        /* \"contracts/rough.sol\":4528:4546  blacklist[account] */\n      0x00\n        /* \"contracts/rough.sol\":4538:4545  account */\n      dup5\n        /* \"contracts/rough.sol\":4528:4546  blacklist[account] */\n      0xffffffffffffffffffffffffffffffffffffffff\n      and\n      0xffffffffffffffffffffffffffffffffffffffff\n      and\n      dup2\n      mstore\n      0x20\n      add\n      swap1\n      dup2\n      mstore\n      0x20\n      add\n      0x00\n      keccak256\n      0x00\n        /* \"contracts/rough.sol\":4528:4553  blacklist[account] = true */\n      0x0100\n      exp\n      dup2\n      sload\n      dup2\n      0xff\n      mul\n      not\n      and\n      swap1\n      dup4\n      iszero\n      iszero\n      mul\n      or\n      swap1\n      sstore\n      pop\n        /* \"contracts/rough.sol\":4581:4588  account */\n      dup2\n        /* \"contracts/rough.sol\":4569:4589  Blacklisted(account) */\n      0xffffffffffffffffffffffffffffffffffffffff\n      and\n      0xffa4e6181777692565cf28528fc88fd1516ea86b56da075235fa575af6a4b855\n      mload(0x40)\n      mload(0x40)\n      dup1\n      swap2\n      sub\n      swap1\n      log2\n        /* \"contracts/rough.sol\":4231:4597  function addToBlacklist(address account) external virtual onlyRole(ADMIN_ROLE) whenNotPaused {... */\n      pop\n      pop\n      jump\t// out\n        /* \"@openzeppelin/contracts-upgradeable/proxy/utils/UUPSUpgradeable.sol\":4161:4375  function upgradeToAndCall(address newImplementation, bytes memory data) public payable virtual onlyProxy {... */\n    tag_93:\n        /* \"@openzeppelin/contracts-upgradeable/proxy/utils/UUPSUpgradeable.sol\":2655:2668  _checkProxy() */\n      tag_242\n        /* \"@openzeppelin/contracts-upgradeable/proxy/utils/UUPSUpgradeable.sol\":2655:2666  _checkProxy */\n      tag_243\n        /* \"@openzeppelin/contracts-upgradeable/proxy/utils/UUPSUpgradeable.sol\":2655:2668  _checkProxy() */\n      jump\t// in\n    tag_242:\n        /* \"@openzeppelin/contracts-upgradeable/proxy/utils/UUPSUpgradeable.sol\":4276:4312  _authorizeUpgrade(newImplementation) */\n      tag_245\n        /* \"@openzeppelin/contracts-upgradeable/proxy/utils/UUPSUpgradeable.sol\":4294:4311  newImplementation */\n      dup3\n        /* \"@openzeppelin/contracts-upgradeable/proxy/utils/UUPSUpgradeable.sol\":4276:4293  _authorizeUpgrade */\n      tag_246\n        /* \"@openzeppelin/contracts-upgradeable/proxy/utils/UUPSUpgradeable.sol\":4276:4312  _authorizeUpgrade(newImplementation) */\n      jump\t// in\n    tag_245:\n        /* \"@openzeppelin/contracts-upgradeable/proxy/utils/UUPSUpgradeable.sol\":4322:4368  _upgradeToAndCallUUPS(newImplementation, data) */\n      tag_247\n        /* \"@openzeppelin/contracts-upgradeable/proxy/utils/UUPSUpgradeable.sol\":4344:4361  newImplementation */\n      dup3\n        /* \"@openzeppelin/contracts-upgradeable/proxy/utils/UUPSUpgradeable.sol\":4363:4367  data */\n      dup3\n        /* \"@openzeppelin/contracts-upgradeable/proxy/utils/UUPSUpgradeable.sol\":4322:4343  _upgradeToAndCallUUPS */\n      tag_248\n        /* \"@openzeppelin/contracts-upgradeable/proxy/utils/UUPSUpgradeable.sol\":4322:4368  _upgradeToAndCallUUPS(newImplementation, data) */\n      jump\t// in\n    tag_247:\n        /* \"@openzeppelin/contracts-upgradeable/proxy/utils/UUPSUpgradeable.sol\":4161:4375  function upgradeToAndCall(address newImplementation, bytes memory data) public payable virtual onlyProxy {... */\n      pop\n      pop\n      jump\t// out\n        /* \"@openzeppelin/contracts-upgradeable/proxy/utils/UUPSUpgradeable.sol\":3708:3842  function proxiableUUID() external view virtual notDelegated returns (bytes32) {... */\n    tag_96:\n        /* \"@openzeppelin/contracts-upgradeable/proxy/utils/UUPSUpgradeable.sol\":3777:3784  bytes32 */\n      0x00\n        /* \"@openzeppelin/contracts-upgradeable/proxy/utils/UUPSUpgradeable.sol\":2926:2946  _checkNotDelegated() */\n      tag_250\n        /* \"@openzeppelin/contracts-upgradeable/proxy/utils/UUPSUpgradeable.sol\":2926:2944  _checkNotDelegated */\n      tag_251\n        /* \"@openzeppelin/contracts-upgradeable/proxy/utils/UUPSUpgradeable.sol\":2926:2946  _checkNotDelegated() */\n      jump\t// in\n    tag_250:\n        /* \"@openzeppelin/contracts/proxy/ERC1967/ERC1967Utils.sol\":811:877  0x360894a13ba1a3210667c828492db98dca3e2076cc3735a920a3ca505d382bbc */\n      0x360894a13ba1a3210667c828492db98dca3e2076cc3735a920a3ca505d382bbc\n        /* \"@openzeppelin/contracts-upgradeable/proxy/utils/UUPSUpgradeable.sol\":3803:3835  ERC1967Utils.IMPLEMENTATION_SLOT */\n      0x00\n      shl\n        /* \"@openzeppelin/contracts-upgradeable/proxy/utils/UUPSUpgradeable.sol\":3796:3835  return ERC1967Utils.IMPLEMENTATION_SLOT */\n      swap1\n      pop\n        /* \"@openzeppelin/contracts-upgradeable/proxy/utils/UUPSUpgradeable.sol\":3708:3842  function proxiableUUID() external view virtual notDelegated returns (bytes32) {... */\n      swap1\n      jump\t// out\n        /* \"contracts/rough.sol\":4605:4862  function removeFromBlacklist(address account) external virtual onlyRole(ADMIN_ROLE) whenNotPaused {... */\n    tag_101:\n        /* \"contracts/rough.sol\":1120:1143  keccak256(\"ADMIN_ROLE\") */\n      0xa49807205ce4d355092ef5a8a18f56e8913cf4a201fbe287825b095693c21775\n        /* \"@openzeppelin/contracts-upgradeable/access/AccessControlUpgradeable.sol\":3272:3288  _checkRole(role) */\n      tag_254\n        /* \"@openzeppelin/contracts-upgradeable/access/AccessControlUpgradeable.sol\":3283:3287  role */\n      dup2\n        /* \"@openzeppelin/contracts-upgradeable/access/AccessControlUpgradeable.sol\":3272:3282  _checkRole */\n      tag_218\n        /* \"@openzeppelin/contracts-upgradeable/access/AccessControlUpgradeable.sol\":3272:3288  _checkRole(role) */\n      jump\t// in\n    tag_254:\n        /* \"@openzeppelin/contracts-upgradeable/security/PausableUpgradeable.sol\":1503:1522  _requireNotPaused() */\n      tag_256\n        /* \"@openzeppelin/contracts-upgradeable/security/PausableUpgradeable.sol\":1503:1520  _requireNotPaused */\n      tag_180\n        /* \"@openzeppelin/contracts-upgradeable/security/PausableUpgradeable.sol\":1503:1522  _requireNotPaused() */\n      jump\t// in\n    tag_256:\n        /* \"contracts/rough.sol\":4719:4728  blacklist */\n      0x65\n        /* \"contracts/rough.sol\":4719:4737  blacklist[account] */\n      0x00\n        /* \"contracts/rough.sol\":4729:4736  account */\n      dup4\n        /* \"contracts/rough.sol\":4719:4737  blacklist[account] */\n      0xffffffffffffffffffffffffffffffffffffffff\n      and\n      0xffffffffffffffffffffffffffffffffffffffff\n      and\n      dup2\n      mstore\n      0x20\n      add\n      swap1\n      dup2\n      mstore\n      0x20\n      add\n      0x00\n      keccak256\n      0x00\n      swap1\n      sload\n      swap1\n      0x0100\n      exp\n      swap1\n      div\n      0xff\n      and\n        /* \"contracts/rough.sol\":4714:4773  if (!blacklist[account]) revert AddressBlacklisted(account) */\n      tag_258\n      jumpi\n        /* \"contracts/rough.sol\":4765:4772  account */\n      dup2\n        /* \"contracts/rough.sol\":4746:4773  AddressBlacklisted(account) */\n      mload(0x40)\n      0xdaf49ab900000000000000000000000000000000000000000000000000000000\n      dup2\n      mstore\n      0x04\n      add\n      tag_259\n      swap2\n      swap1\n      tag_184\n      jump\t// in\n    tag_259:\n      mload(0x40)\n      dup1\n      swap2\n      sub\n      swap1\n      revert\n        /* \"contracts/rough.sol\":4714:4773  if (!blacklist[account]) revert AddressBlacklisted(account) */\n    tag_258:\n        /* \"contracts/rough.sol\":4791:4800  blacklist */\n      0x65\n        /* \"contracts/rough.sol\":4791:4809  blacklist[account] */\n      0x00\n        /* \"contracts/rough.sol\":4801:4808  account */\n      dup4\n        /* \"contracts/rough.sol\":4791:4809  blacklist[account] */\n      0xffffffffffffffffffffffffffffffffffffffff\n      and\n      0xffffffffffffffffffffffffffffffffffffffff\n      and\n      dup2\n      mstore\n      0x20\n      add\n      swap1\n      dup2\n      mstore\n      0x20\n      add\n      0x00\n      keccak256\n      0x00\n        /* \"contracts/rough.sol\":4784:4809  delete blacklist[account] */\n      0x0100\n      exp\n      dup2\n      sload\n      swap1\n      0xff\n      mul\n      not\n      and\n      swap1\n      sstore\n        /* \"contracts/rough.sol\":4846:4853  account */\n      dup2\n        /* \"contracts/rough.sol\":4825:4854  RemovedFromBlacklist(account) */\n      0xffffffffffffffffffffffffffffffffffffffff\n      and\n      0x2b6bf71b58b3583add364b3d9060ebf8019650f65f5be35f5464b9cb3e4ba2d4\n      mload(0x40)\n      mload(0x40)\n      dup1\n      swap2\n      sub\n      swap1\n      log2\n        /* \"contracts/rough.sol\":4605:4862  function removeFromBlacklist(address account) external virtual onlyRole(ADMIN_ROLE) whenNotPaused {... */\n      pop\n      pop\n      jump\t// out\n        /* \"@openzeppelin/contracts-upgradeable/security/PausableUpgradeable.sol\":1879:1963  function paused() public view virtual returns (bool) {... */\n    tag_104:\n        /* \"@openzeppelin/contracts-upgradeable/security/PausableUpgradeable.sol\":1926:1930  bool */\n      0x00\n        /* \"@openzeppelin/contracts-upgradeable/security/PausableUpgradeable.sol\":1949:1956  _paused */\n      0x00\n      0x00\n      swap1\n      sload\n      swap1\n      0x0100\n      exp\n      swap1\n      div\n      0xff\n      and\n        /* \"@openzeppelin/contracts-upgradeable/security/PausableUpgradeable.sol\":1942:1956  return _paused */\n      swap1\n      pop\n        /* \"@openzeppelin/contracts-upgradeable/security/PausableUpgradeable.sol\":1879:1963  function paused() public view virtual returns (bool) {... */\n      swap1\n      jump\t// out\n        /* \"contracts/rough.sol\":7398:7495  function balanceOf(address account) external view returns (uint256) { return balances[account]; } */\n    tag_109:\n        /* \"contracts/rough.sol\":7457:7464  uint256 */\n      0x00\n        /* \"contracts/rough.sol\":7475:7483  balances */\n      0x66\n        /* \"contracts/rough.sol\":7475:7492  balances[account] */\n      0x00\n        /* \"contracts/rough.sol\":7484:7491  account */\n      dup4\n        /* \"contracts/rough.sol\":7475:7492  balances[account] */\n      0xffffffffffffffffffffffffffffffffffffffff\n      and\n      0xffffffffffffffffffffffffffffffffffffffff\n      and\n      dup2\n      mstore\n      0x20\n      add\n      swap1\n      dup2\n      mstore\n      0x20\n      add\n      0x00\n      keccak256\n      sload\n        /* \"contracts/rough.sol\":7468:7492  return balances[account] */\n      swap1\n      pop\n        /* \"contracts/rough.sol\":7398:7495  function balanceOf(address account) external view returns (uint256) { return balances[account]; } */\n      swap2\n      swap1\n      pop\n      jump\t// out\n        /* \"contracts/rough.sol\":1083:1143  bytes32 public constant ADMIN_ROLE = keccak256(\"ADMIN_ROLE\") */\n    tag_113:\n        /* \"contracts/rough.sol\":1120:1143  keccak256(\"ADMIN_ROLE\") */\n      0xa49807205ce4d355092ef5a8a18f56e8913cf4a201fbe287825b095693c21775\n        /* \"contracts/rough.sol\":1083:1143  bytes32 public constant ADMIN_ROLE = keccak256(\"ADMIN_ROLE\") */\n      dup2\n      jump\t// out\n        /* \"contracts/rough.sol\":5040:5274  function setMaxWithdrawalLimit(uint256 newLimit) external virtual onlyRole(ADMIN_ROLE) {... */\n    tag_118:\n        /* \"contracts/rough.sol\":1120:1143  keccak256(\"ADMIN_ROLE\") */\n      0xa49807205ce4d355092ef5a8a18f56e8913cf4a201fbe287825b095693c21775\n        /* \"@openzeppelin/contracts-upgradeable/access/AccessControlUpgradeable.sol\":3272:3288  _checkRole(role) */\n      tag_263\n        /* \"@openzeppelin/contracts-upgradeable/access/AccessControlUpgradeable.sol\":3283:3287  role */\n      dup2\n        /* \"@openzeppelin/contracts-upgradeable/access/AccessControlUpgradeable.sol\":3272:3282  _checkRole */\n      tag_218\n        /* \"@openzeppelin/contracts-upgradeable/access/AccessControlUpgradeable.sol\":3272:3288  _checkRole(role) */\n      jump\t// in\n    tag_263:\n        /* \"contracts/rough.sol\":5154:5155  0 */\n      0x00\n        /* \"contracts/rough.sol\":5142:5150  newLimit */\n      dup3\n        /* \"contracts/rough.sol\":5142:5155  newLimit == 0 */\n      sub\n        /* \"contracts/rough.sol\":5138:5175  if (newLimit == 0) revert LimitZero() */\n      tag_265\n      jumpi\n        /* \"contracts/rough.sol\":5164:5175  LimitZero() */\n      mload(0x40)\n      0x7f11a96200000000000000000000000000000000000000000000000000000000\n      dup2\n      mstore\n      0x04\n      add\n      mload(0x40)\n      dup1\n      swap2\n      sub\n      swap1\n      revert\n        /* \"contracts/rough.sol\":5138:5175  if (newLimit == 0) revert LimitZero() */\n    tag_265:\n        /* \"contracts/rough.sol\":5207:5215  newLimit */\n      dup2\n        /* \"contracts/rough.sol\":5186:5204  maxWithdrawalLimit */\n      0x69\n        /* \"contracts/rough.sol\":5186:5215  maxWithdrawalLimit = newLimit */\n      dup2\n      swap1\n      sstore\n      pop\n        /* \"contracts/rough.sol\":5231:5266  MaxWithdrawalLimitUpdated(newLimit) */\n      0x973cce1b2a663004358d1fe9f49f3a76491ba147835396138b452bef464b7f67\n        /* \"contracts/rough.sol\":5257:5265  newLimit */\n      dup3\n        /* \"contracts/rough.sol\":5231:5266  MaxWithdrawalLimitUpdated(newLimit) */\n      mload(0x40)\n      tag_266\n      swap2\n      swap1\n      tag_44\n      jump\t// in\n    tag_266:\n      mload(0x40)\n      dup1\n      swap2\n      sub\n      swap1\n      log1\n        /* \"contracts/rough.sol\":5040:5274  function setMaxWithdrawalLimit(uint256 newLimit) external virtual onlyRole(ADMIN_ROLE) {... */\n      pop\n      pop\n      jump\t// out\n        /* \"contracts/rough.sol\":5282:5364  function pause() external virtual onlyRole(ADMIN_ROLE) {... */\n    tag_121:\n        /* \"contracts/rough.sol\":1120:1143  keccak256(\"ADMIN_ROLE\") */\n      0xa49807205ce4d355092ef5a8a18f56e8913cf4a201fbe287825b095693c21775\n        /* \"@openzeppelin/contracts-upgradeable/access/AccessControlUpgradeable.sol\":3272:3288  _checkRole(role) */\n      tag_268\n        /* \"@openzeppelin/contracts-upgradeable/access/AccessControlUpgradeable.sol\":3283:3287  role */\n      dup2\n        /* \"@openzeppelin/contracts-upgradeable/access/AccessControlUpgradeable.sol\":3272:3282  _checkRole */\n      tag_218\n        /* \"@openzeppelin/contracts-upgradeable/access/AccessControlUpgradeable.sol\":3272:3288  _checkRole(role) */\n      jump\t// in\n    tag_268:\n        /* \"contracts/rough.sol\":5348:5356  _pause() */\n      tag_270\n        /* \"contracts/rough.sol\":5348:5354  _pause */\n      tag_271\n        /* \"contracts/rough.sol\":5348:5356  _pause() */\n      jump\t// in\n    tag_270:\n        /* \"contracts/rough.sol\":5282:5364  function pause() external virtual onlyRole(ADMIN_ROLE) {... */\n      pop\n      jump\t// out\n        /* \"contracts/rough.sol\":3970:4223  function removeFromWhitelist(address account) external virtual onlyRole(ADMIN_ROLE) whenNotPaused {... */\n    tag_125:\n        /* \"contracts/rough.sol\":1120:1143  keccak256(\"ADMIN_ROLE\") */\n      0xa49807205ce4d355092ef5a8a18f56e8913cf4a201fbe287825b095693c21775\n        /* \"@openzeppelin/contracts-upgradeable/access/AccessControlUpgradeable.sol\":3272:3288  _checkRole(role) */\n      tag_273\n        /* \"@openzeppelin/contracts-upgradeable/access/AccessControlUpgradeable.sol\":3283:3287  role */\n      dup2\n        /* \"@openzeppelin/contracts-upgradeable/access/AccessControlUpgradeable.sol\":3272:3282  _checkRole */\n      tag_218\n        /* \"@openzeppelin/contracts-upgradeable/access/AccessControlUpgradeable.sol\":3272:3288  _checkRole(role) */\n      jump\t// in\n    tag_273:\n        /* \"@openzeppelin/contracts-upgradeable/security/PausableUpgradeable.sol\":1503:1522  _requireNotPaused() */\n      tag_275\n        /* \"@openzeppelin/contracts-upgradeable/security/PausableUpgradeable.sol\":1503:1520  _requireNotPaused */\n      tag_180\n        /* \"@openzeppelin/contracts-upgradeable/security/PausableUpgradeable.sol\":1503:1522  _requireNotPaused() */\n      jump\t// in\n    tag_275:\n        /* \"contracts/rough.sol\":4084:4093  whitelist */\n      0x64\n        /* \"contracts/rough.sol\":4084:4102  whitelist[account] */\n      0x00\n        /* \"contracts/rough.sol\":4094:4101  account */\n      dup4\n        /* \"contracts/rough.sol\":4084:4102  whitelist[account] */\n      0xffffffffffffffffffffffffffffffffffffffff\n      and\n      0xffffffffffffffffffffffffffffffffffffffff\n      and\n      dup2\n      mstore\n      0x20\n      add\n      swap1\n      dup2\n      mstore\n      0x20\n      add\n      0x00\n      keccak256\n      0x00\n      swap1\n      sload\n      swap1\n      0x0100\n      exp\n      swap1\n      div\n      0xff\n      and\n        /* \"contracts/rough.sol\":4079:4134  if (!whitelist[account]) revert NotWhitelisted(account) */\n      tag_277\n      jumpi\n        /* \"contracts/rough.sol\":4126:4133  account */\n      dup2\n        /* \"contracts/rough.sol\":4111:4134  NotWhitelisted(account) */\n      mload(0x40)\n      0xdf17e31600000000000000000000000000000000000000000000000000000000\n      dup2\n      mstore\n      0x04\n      add\n      tag_278\n      swap2\n      swap1\n      tag_184\n      jump\t// in\n    tag_278:\n      mload(0x40)\n      dup1\n      swap2\n      sub\n      swap1\n      revert\n        /* \"contracts/rough.sol\":4079:4134  if (!whitelist[account]) revert NotWhitelisted(account) */\n    tag_277:\n        /* \"contracts/rough.sol\":4152:4161  whitelist */\n      0x64\n        /* \"contracts/rough.sol\":4152:4170  whitelist[account] */\n      0x00\n        /* \"contracts/rough.sol\":4162:4169  account */\n      dup4\n        /* \"contracts/rough.sol\":4152:4170  whitelist[account] */\n      0xffffffffffffffffffffffffffffffffffffffff\n      and\n      0xffffffffffffffffffffffffffffffffffffffff\n      and\n      dup2\n      mstore\n      0x20\n      add\n      swap1\n      dup2\n      mstore\n      0x20\n      add\n      0x00\n      keccak256\n      0x00\n        /* \"contracts/rough.sol\":4145:4170  delete whitelist[account] */\n      0x0100\n      exp\n      dup2\n      sload\n      swap1\n      0xff\n      mul\n      not\n      and\n      swap1\n      sstore\n        /* \"contracts/rough.sol\":4207:4214  account */\n      dup2\n        /* \"contracts/rough.sol\":4186:4215  RemovedFromWhitelist(account) */\n      0xffffffffffffffffffffffffffffffffffffffff\n      and\n      0xcdd2e9b91a56913d370075169cefa1602ba36be5301664f752192bb1709df757\n      mload(0x40)\n      mload(0x40)\n      dup1\n      swap2\n      sub\n      swap1\n      log2\n        /* \"contracts/rough.sol\":3970:4223  function removeFromWhitelist(address account) external virtual onlyRole(ADMIN_ROLE) whenNotPaused {... */\n      pop\n      pop\n      jump\t// out\n        /* \"@openzeppelin/contracts-upgradeable/access/AccessControlUpgradeable.sol\":3780:3987  function hasRole(bytes32 role, address account) public view virtual returns (bool) {... */\n    tag_129:\n        /* \"@openzeppelin/contracts-upgradeable/access/AccessControlUpgradeable.sol\":3857:3861  bool */\n      0x00\n        /* \"@openzeppelin/contracts-upgradeable/access/AccessControlUpgradeable.sol\":3873:3903  AccessControlStorage storage $ */\n      0x00\n        /* \"@openzeppelin/contracts-upgradeable/access/AccessControlUpgradeable.sol\":3906:3932  _getAccessControlStorage() */\n      tag_280\n        /* \"@openzeppelin/contracts-upgradeable/access/AccessControlUpgradeable.sol\":3906:3930  _getAccessControlStorage */\n      tag_214\n        /* \"@openzeppelin/contracts-upgradeable/access/AccessControlUpgradeable.sol\":3906:3932  _getAccessControlStorage() */\n      jump\t// in\n    tag_280:\n        /* \"@openzeppelin/contracts-upgradeable/access/AccessControlUpgradeable.sol\":3873:3932  AccessControlStorage storage $ = _getAccessControlStorage() */\n      swap1\n      pop\n        /* \"@openzeppelin/contracts-upgradeable/access/AccessControlUpgradeable.sol\":3949:3950  $ */\n      dup1\n        /* \"@openzeppelin/contracts-upgradeable/access/AccessControlUpgradeable.sol\":3949:3957  $._roles */\n      0x00\n      add\n        /* \"@openzeppelin/contracts-upgradeable/access/AccessControlUpgradeable.sol\":3949:3963  $._roles[role] */\n      0x00\n        /* \"@openzeppelin/contracts-upgradeable/access/AccessControlUpgradeable.sol\":3958:3962  role */\n      dup6\n        /* \"@openzeppelin/contracts-upgradeable/access/AccessControlUpgradeable.sol\":3949:3963  $._roles[role] */\n      dup2\n      mstore\n      0x20\n      add\n      swap1\n      dup2\n      mstore\n      0x20\n      add\n      0x00\n      keccak256\n        /* \"@openzeppelin/contracts-upgradeable/access/AccessControlUpgradeable.sol\":3949:3971  $._roles[role].hasRole */\n      0x00\n      add\n        /* \"@openzeppelin/contracts-upgradeable/access/AccessControlUpgradeable.sol\":3949:3980  $._roles[role].hasRole[account] */\n      0x00\n        /* \"@openzeppelin/contracts-upgradeable/access/AccessControlUpgradeable.sol\":3972:3979  account */\n      dup5\n        /* \"@openzeppelin/contracts-upgradeable/access/AccessControlUpgradeable.sol\":3949:3980  $._roles[role].hasRole[account] */\n      0xffffffffffffffffffffffffffffffffffffffff\n      and\n      0xffffffffffffffffffffffffffffffffffffffff\n      and\n      dup2\n      mstore\n      0x20\n      add\n      swap1\n      dup2\n      mstore\n      0x20\n      add\n      0x00\n      keccak256\n      0x00\n      swap1\n      sload\n      swap1\n      0x0100\n      exp\n      swap1\n      div\n      0xff\n      and\n        /* \"@openzeppelin/contracts-upgradeable/access/AccessControlUpgradeable.sol\":3942:3980  return $._roles[role].hasRole[account] */\n      swap2\n      pop\n      pop\n        /* \"@openzeppelin/contracts-upgradeable/access/AccessControlUpgradeable.sol\":3780:3987  function hasRole(bytes32 role, address account) public view virtual returns (bool) {... */\n      swap3\n      swap2\n      pop\n      pop\n      jump\t// out\n        /* \"@openzeppelin/contracts-upgradeable/access/AccessControlUpgradeable.sol\":2398:2447  bytes32 public constant DEFAULT_ADMIN_ROLE = 0x00 */\n    tag_133:\n        /* \"@openzeppelin/contracts-upgradeable/access/AccessControlUpgradeable.sol\":2443:2447  0x00 */\n      0x00\n        /* \"@openzeppelin/contracts-upgradeable/access/AccessControlUpgradeable.sol\":2398:2447  bytes32 public constant DEFAULT_ADMIN_ROLE = 0x00 */\n      0x00\n      shl\n      dup2\n      jump\t// out\n        /* \"@openzeppelin/contracts-upgradeable/proxy/utils/UUPSUpgradeable.sol\":1819:1877  string public constant UPGRADE_INTERFACE_VERSION = \"5.0.0\" */\n    tag_137:\n      mload(0x40)\n      dup1\n      0x40\n      add\n      0x40\n      mstore\n      dup1\n      0x05\n      dup2\n      mstore\n      0x20\n      add\n      0x352e302e30000000000000000000000000000000000000000000000000000000\n      dup2\n      mstore\n      pop\n      dup2\n      jump\t// out\n        /* \"contracts/rough.sol\":4870:5032  function setEmergencyMode(bool status) external virtual onlyRole(ADMIN_ROLE) {... */\n    tag_144:\n        /* \"contracts/rough.sol\":1120:1143  keccak256(\"ADMIN_ROLE\") */\n      0xa49807205ce4d355092ef5a8a18f56e8913cf4a201fbe287825b095693c21775\n        /* \"@openzeppelin/contracts-upgradeable/access/AccessControlUpgradeable.sol\":3272:3288  _checkRole(role) */\n      tag_282\n        /* \"@openzeppelin/contracts-upgradeable/access/AccessControlUpgradeable.sol\":3283:3287  role */\n      dup2\n        /* \"@openzeppelin/contracts-upgradeable/access/AccessControlUpgradeable.sol\":3272:3282  _checkRole */\n      tag_218\n        /* \"@openzeppelin/contracts-upgradeable/access/AccessControlUpgradeable.sol\":3272:3288  _checkRole(role) */\n      jump\t// in\n    tag_282:\n        /* \"contracts/rough.sol\":4974:4980  status */\n      dup2\n        /* \"contracts/rough.sol\":4958:4971  emergencyMode */\n      0x68\n      0x00\n        /* \"contracts/rough.sol\":4958:4980  emergencyMode = status */\n      0x0100\n      exp\n      dup2\n      sload\n      dup2\n      0xff\n      mul\n      not\n      and\n      swap1\n      dup4\n      iszero\n      iszero\n      mul\n      or\n      swap1\n      sstore\n      pop\n        /* \"contracts/rough.sol\":4996:5024  EmergencyModeUpdated(status) */\n      0x2e5a1930def2f974808cd3dd28f6606d8d2cb5d7adb78f6761ea31062ced1a33\n        /* \"contracts/rough.sol\":5017:5023  status */\n      dup3\n        /* \"contracts/rough.sol\":4996:5024  EmergencyModeUpdated(status) */\n      mload(0x40)\n      tag_284\n      swap2\n      swap1\n      tag_51\n      jump\t// in\n    tag_284:\n      mload(0x40)\n      dup1\n      swap2\n      sub\n      swap1\n      log1\n        /* \"contracts/rough.sol\":4870:5032  function setEmergencyMode(bool status) external virtual onlyRole(ADMIN_ROLE) {... */\n      pop\n      pop\n      jump\t// out\n        /* \"contracts/rough.sol\":2367:2814  function initialize(address owner, uint256 initialMaxWithdraw) public initializer {... */\n    tag_149:\n        /* \"@openzeppelin/contracts-upgradeable/proxy/utils/Initializable.sol\":4158:4188  InitializableStorage storage $ */\n      0x00\n        /* \"@openzeppelin/contracts-upgradeable/proxy/utils/Initializable.sol\":4191:4217  _getInitializableStorage() */\n      tag_286\n        /* \"@openzeppelin/contracts-upgradeable/proxy/utils/Initializable.sol\":4191:4215  _getInitializableStorage */\n      tag_287\n        /* \"@openzeppelin/contracts-upgradeable/proxy/utils/Initializable.sol\":4191:4217  _getInitializableStorage() */\n      jump\t// in\n    tag_286:\n        /* \"@openzeppelin/contracts-upgradeable/proxy/utils/Initializable.sol\":4158:4217  InitializableStorage storage $ = _getInitializableStorage() */\n      swap1\n      pop\n        /* \"@openzeppelin/contracts-upgradeable/proxy/utils/Initializable.sol\":4279:4298  bool isTopLevelCall */\n      0x00\n        /* \"@openzeppelin/contracts-upgradeable/proxy/utils/Initializable.sol\":4302:4303  $ */\n      dup2\n        /* \"@openzeppelin/contracts-upgradeable/proxy/utils/Initializable.sol\":4302:4317  $._initializing */\n      0x00\n      add\n      0x08\n      swap1\n      sload\n      swap1\n      0x0100\n      exp\n      swap1\n      div\n      0xff\n      and\n        /* \"@openzeppelin/contracts-upgradeable/proxy/utils/Initializable.sol\":4301:4317  !$._initializing */\n      iszero\n        /* \"@openzeppelin/contracts-upgradeable/proxy/utils/Initializable.sol\":4279:4317  bool isTopLevelCall = !$._initializing */\n      swap1\n      pop\n        /* \"@openzeppelin/contracts-upgradeable/proxy/utils/Initializable.sol\":4327:4345  uint64 initialized */\n      0x00\n        /* \"@openzeppelin/contracts-upgradeable/proxy/utils/Initializable.sol\":4348:4349  $ */\n      dup3\n        /* \"@openzeppelin/contracts-upgradeable/proxy/utils/Initializable.sol\":4348:4362  $._initialized */\n      0x00\n      add\n      0x00\n      swap1\n      sload\n      swap1\n      0x0100\n      exp\n      swap1\n      div\n      0xffffffffffffffff\n      and\n        /* \"@openzeppelin/contracts-upgradeable/proxy/utils/Initializable.sol\":4327:4362  uint64 initialized = $._initialized */\n      swap1\n      pop\n        /* \"@openzeppelin/contracts-upgradeable/proxy/utils/Initializable.sol\":4704:4721  bool initialSetup */\n      0x00\n        /* \"@openzeppelin/contracts-upgradeable/proxy/utils/Initializable.sol\":4739:4740  0 */\n      0x00\n        /* \"@openzeppelin/contracts-upgradeable/proxy/utils/Initializable.sol\":4724:4735  initialized */\n      dup3\n        /* \"@openzeppelin/contracts-upgradeable/proxy/utils/Initializable.sol\":4724:4740  initialized == 0 */\n      0xffffffffffffffff\n      and\n      eq\n        /* \"@openzeppelin/contracts-upgradeable/proxy/utils/Initializable.sol\":4724:4758  initialized == 0 && isTopLevelCall */\n      dup1\n      iszero\n      tag_288\n      jumpi\n      pop\n        /* \"@openzeppelin/contracts-upgradeable/proxy/utils/Initializable.sol\":4744:4758  isTopLevelCall */\n      dup3\n        /* \"@openzeppelin/contracts-upgradeable/proxy/utils/Initializable.sol\":4724:4758  initialized == 0 && isTopLevelCall */\n    tag_288:\n        /* \"@openzeppelin/contracts-upgradeable/proxy/utils/Initializable.sol\":4704:4758  bool initialSetup = initialized == 0 && isTopLevelCall */\n      swap1\n      pop\n        /* \"@openzeppelin/contracts-upgradeable/proxy/utils/Initializable.sol\":4768:4785  bool construction */\n      0x00\n        /* \"@openzeppelin/contracts-upgradeable/proxy/utils/Initializable.sol\":4803:4804  1 */\n      0x01\n        /* \"@openzeppelin/contracts-upgradeable/proxy/utils/Initializable.sol\":4788:4799  initialized */\n      dup4\n        /* \"@openzeppelin/contracts-upgradeable/proxy/utils/Initializable.sol\":4788:4804  initialized == 1 */\n      0xffffffffffffffff\n      and\n      eq\n        /* \"@openzeppelin/contracts-upgradeable/proxy/utils/Initializable.sol\":4788:4838  initialized == 1 && address(this).code.length == 0 */\n      dup1\n      iszero\n      tag_289\n      jumpi\n      pop\n        /* \"@openzeppelin/contracts-upgradeable/proxy/utils/Initializable.sol\":4837:4838  0 */\n      0x00\n        /* \"@openzeppelin/contracts-upgradeable/proxy/utils/Initializable.sol\":4816:4820  this */\n      address\n        /* \"@openzeppelin/contracts-upgradeable/proxy/utils/Initializable.sol\":4808:4833  address(this).code.length */\n      0xffffffffffffffffffffffffffffffffffffffff\n      and\n      extcodesize\n        /* \"@openzeppelin/contracts-upgradeable/proxy/utils/Initializable.sol\":4808:4838  address(this).code.length == 0 */\n      eq\n        /* \"@openzeppelin/contracts-upgradeable/proxy/utils/Initializable.sol\":4788:4838  initialized == 1 && address(this).code.length == 0 */\n    tag_289:\n        /* \"@openzeppelin/contracts-upgradeable/proxy/utils/Initializable.sol\":4768:4838  bool construction = initialized == 1 && address(this).code.length == 0 */\n      swap1\n      pop\n        /* \"@openzeppelin/contracts-upgradeable/proxy/utils/Initializable.sol\":4854:4866  initialSetup */\n      dup2\n        /* \"@openzeppelin/contracts-upgradeable/proxy/utils/Initializable.sol\":4853:4866  !initialSetup */\n      iszero\n        /* \"@openzeppelin/contracts-upgradeable/proxy/utils/Initializable.sol\":4853:4883  !initialSetup && !construction */\n      dup1\n      iszero\n      tag_290\n      jumpi\n      pop\n        /* \"@openzeppelin/contracts-upgradeable/proxy/utils/Initializable.sol\":4871:4883  construction */\n      dup1\n        /* \"@openzeppelin/contracts-upgradeable/proxy/utils/Initializable.sol\":4870:4883  !construction */\n      iszero\n        /* \"@openzeppelin/contracts-upgradeable/proxy/utils/Initializable.sol\":4853:4883  !initialSetup && !construction */\n    tag_290:\n        /* \"@openzeppelin/contracts-upgradeable/proxy/utils/Initializable.sol\":4849:4940  if (!initialSetup && !construction) {... */\n      iszero\n      tag_291\n      jumpi\n        /* \"@openzeppelin/contracts-upgradeable/proxy/utils/Initializable.sol\":4906:4929  InvalidInitialization() */\n      mload(0x40)\n      0xf92ee8a900000000000000000000000000000000000000000000000000000000\n      dup2\n      mstore\n      0x04\n      add\n      mload(0x40)\n      dup1\n      swap2\n      sub\n      swap1\n      revert\n        /* \"@openzeppelin/contracts-upgradeable/proxy/utils/Initializable.sol\":4849:4940  if (!initialSetup && !construction) {... */\n    tag_291:\n        /* \"@openzeppelin/contracts-upgradeable/proxy/utils/Initializable.sol\":4966:4967  1 */\n      0x01\n        /* \"@openzeppelin/contracts-upgradeable/proxy/utils/Initializable.sol\":4949:4950  $ */\n      dup6\n        /* \"@openzeppelin/contracts-upgradeable/proxy/utils/Initializable.sol\":4949:4963  $._initialized */\n      0x00\n      add\n      0x00\n        /* \"@openzeppelin/contracts-upgradeable/proxy/utils/Initializable.sol\":4949:4967  $._initialized = 1 */\n      0x0100\n      exp\n      dup2\n      sload\n      dup2\n      0xffffffffffffffff\n      mul\n      not\n      and\n      swap1\n      dup4\n      0xffffffffffffffff\n      and\n      mul\n      or\n      swap1\n      sstore\n      pop\n        /* \"@openzeppelin/contracts-upgradeable/proxy/utils/Initializable.sol\":4981:4995  isTopLevelCall */\n      dup4\n        /* \"@openzeppelin/contracts-upgradeable/proxy/utils/Initializable.sol\":4977:5044  if (isTopLevelCall) {... */\n      iszero\n      tag_292\n      jumpi\n        /* \"@openzeppelin/contracts-upgradeable/proxy/utils/Initializable.sol\":5029:5033  true */\n      0x01\n        /* \"@openzeppelin/contracts-upgradeable/proxy/utils/Initializable.sol\":5011:5012  $ */\n      dup6\n        /* \"@openzeppelin/contracts-upgradeable/proxy/utils/Initializable.sol\":5011:5026  $._initializing */\n      0x00\n      add\n      0x08\n        /* \"@openzeppelin/contracts-upgradeable/proxy/utils/Initializable.sol\":5011:5033  $._initializing = true */\n      0x0100\n      exp\n      dup2\n      sload\n      dup2\n      0xff\n      mul\n      not\n      and\n      swap1\n      dup4\n      iszero\n      iszero\n      mul\n      or\n      swap1\n      sstore\n      pop\n        /* \"@openzeppelin/contracts-upgradeable/proxy/utils/Initializable.sol\":4977:5044  if (isTopLevelCall) {... */\n    tag_292:\n        /* \"contracts/rough.sol\":2481:2482  0 */\n      0x00\n        /* \"contracts/rough.sol\":2464:2483  owner == address(0) */\n      0xffffffffffffffffffffffffffffffffffffffff\n      and\n        /* \"contracts/rough.sol\":2464:2469  owner */\n      dup8\n        /* \"contracts/rough.sol\":2464:2483  owner == address(0) */\n      0xffffffffffffffffffffffffffffffffffffffff\n      and\n      sub\n        /* \"contracts/rough.sol\":2460:2505  if (owner == address(0)) revert ZeroAddress() */\n      tag_294\n      jumpi\n        /* \"contracts/rough.sol\":2492:2505  ZeroAddress() */\n      mload(0x40)\n      0xd92e233d00000000000000000000000000000000000000000000000000000000\n      dup2\n      mstore\n      0x04\n      add\n      mload(0x40)\n      dup1\n      swap2\n      sub\n      swap1\n      revert\n        /* \"contracts/rough.sol\":2460:2505  if (owner == address(0)) revert ZeroAddress() */\n    tag_294:\n        /* \"contracts/rough.sol\":2516:2538  __AccessControl_init() */\n      tag_295\n        /* \"contracts/rough.sol\":2516:2536  __AccessControl_init */\n      tag_296\n        /* \"contracts/rough.sol\":2516:2538  __AccessControl_init() */\n      jump\t// in\n    tag_295:\n        /* \"contracts/rough.sol\":2549:2566  __Pausable_init() */\n      tag_297\n        /* \"contracts/rough.sol\":2549:2564  __Pausable_init */\n      tag_298\n        /* \"contracts/rough.sol\":2549:2566  __Pausable_init() */\n      jump\t// in\n    tag_297:\n        /* \"contracts/rough.sol\":2577:2601  __ReentrancyGuard_init() */\n      tag_299\n        /* \"contracts/rough.sol\":2577:2599  __ReentrancyGuard_init */\n      tag_300\n        /* \"contracts/rough.sol\":2577:2601  __ReentrancyGuard_init() */\n      jump\t// in\n    tag_299:\n        /* \"contracts/rough.sol\":2612:2636  __UUPSUpgradeable_init() */\n      tag_301\n        /* \"contracts/rough.sol\":2612:2634  __UUPSUpgradeable_init */\n      tag_302\n        /* \"contracts/rough.sol\":2612:2636  __UUPSUpgradeable_init() */\n      jump\t// in\n    tag_301:\n        /* \"contracts/rough.sol\":2647:2684  _grantRole(DEFAULT_ADMIN_ROLE, owner) */\n      tag_303\n        /* \"@openzeppelin/contracts-upgradeable/access/AccessControlUpgradeable.sol\":2443:2447  0x00 */\n      0x00\n        /* \"contracts/rough.sol\":2658:2676  DEFAULT_ADMIN_ROLE */\n      0x00\n      shl\n        /* \"contracts/rough.sol\":2678:2683  owner */\n      dup9\n        /* \"contracts/rough.sol\":2647:2657  _grantRole */\n      tag_221\n        /* \"contracts/rough.sol\":2647:2684  _grantRole(DEFAULT_ADMIN_ROLE, owner) */\n      jump\t// in\n    tag_303:\n      pop\n        /* \"contracts/rough.sol\":2695:2724  _grantRole(ADMIN_ROLE, owner) */\n      tag_304\n        /* \"contracts/rough.sol\":1120:1143  keccak256(\"ADMIN_ROLE\") */\n      0xa49807205ce4d355092ef5a8a18f56e8913cf4a201fbe287825b095693c21775\n        /* \"contracts/rough.sol\":2718:2723  owner */\n      dup9\n        /* \"contracts/rough.sol\":2695:2705  _grantRole */\n      tag_221\n        /* \"contracts/rough.sol\":2695:2724  _grantRole(ADMIN_ROLE, owner) */\n      jump\t// in\n    tag_304:\n      pop\n        /* \"contracts/rough.sol\":2756:2774  initialMaxWithdraw */\n      dup6\n        /* \"contracts/rough.sol\":2735:2753  maxWithdrawalLimit */\n      0x69\n        /* \"contracts/rough.sol\":2735:2774  maxWithdrawalLimit = initialMaxWithdraw */\n      dup2\n      swap1\n      sstore\n      pop\n        /* \"contracts/rough.sol\":2801:2806  false */\n      0x00\n        /* \"contracts/rough.sol\":2785:2798  emergencyMode */\n      0x68\n      0x00\n        /* \"contracts/rough.sol\":2785:2806  emergencyMode = false */\n      0x0100\n      exp\n      dup2\n      sload\n      dup2\n      0xff\n      mul\n      not\n      and\n      swap1\n      dup4\n      iszero\n      iszero\n      mul\n      or\n      swap1\n      sstore\n      pop\n        /* \"@openzeppelin/contracts-upgradeable/proxy/utils/Initializable.sol\":5068:5082  isTopLevelCall */\n      dup4\n        /* \"@openzeppelin/contracts-upgradeable/proxy/utils/Initializable.sol\":5064:5165  if (isTopLevelCall) {... */\n      iszero\n      tag_305\n      jumpi\n        /* \"@openzeppelin/contracts-upgradeable/proxy/utils/Initializable.sol\":5116:5121  false */\n      0x00\n        /* \"@openzeppelin/contracts-upgradeable/proxy/utils/Initializable.sol\":5098:5099  $ */\n      dup6\n        /* \"@openzeppelin/contracts-upgradeable/proxy/utils/Initializable.sol\":5098:5113  $._initializing */\n      0x00\n      add\n      0x08\n        /* \"@openzeppelin/contracts-upgradeable/proxy/utils/Initializable.sol\":5098:5121  $._initializing = false */\n      0x0100\n      exp\n      dup2\n      sload\n      dup2\n      0xff\n      mul\n      not\n      and\n      swap1\n      dup4\n      iszero\n      iszero\n      mul\n      or\n      swap1\n      sstore\n      pop\n        /* \"@openzeppelin/contracts-upgradeable/proxy/utils/Initializable.sol\":5140:5154  Initialized(1) */\n      0xc7f505b2f371ae2175ee4913f4499e1f2633a7b5936321eed1cdaeb6115181d2\n        /* \"@openzeppelin/contracts-upgradeable/proxy/utils/Initializable.sol\":5152:5153  1 */\n      0x01\n        /* \"@openzeppelin/contracts-upgradeable/proxy/utils/Initializable.sol\":5140:5154  Initialized(1) */\n      mload(0x40)\n      tag_306\n      swap2\n      swap1\n      tag_307\n      jump\t// in\n    tag_306:\n      mload(0x40)\n      dup1\n      swap2\n      sub\n      swap1\n      log1\n        /* \"@openzeppelin/contracts-upgradeable/proxy/utils/Initializable.sol\":5064:5165  if (isTopLevelCall) {... */\n    tag_305:\n        /* \"@openzeppelin/contracts-upgradeable/proxy/utils/Initializable.sol\":4092:5171  {... */\n      pop\n      pop\n      pop\n      pop\n      pop\n        /* \"contracts/rough.sol\":2367:2814  function initialize(address owner, uint256 initialMaxWithdraw) public initializer {... */\n      pop\n      pop\n      jump\t// out\n        /* \"contracts/rough.sol\":5466:5782  function deposit() external virtual payable whenNotPaused notBlacklisted {... */\n    tag_151:\n        /* \"@openzeppelin/contracts-upgradeable/security/PausableUpgradeable.sol\":1503:1522  _requireNotPaused() */\n      tag_309\n        /* \"@openzeppelin/contracts-upgradeable/security/PausableUpgradeable.sol\":1503:1520  _requireNotPaused */\n      tag_180\n        /* \"@openzeppelin/contracts-upgradeable/security/PausableUpgradeable.sol\":1503:1522  _requireNotPaused() */\n      jump\t// in\n    tag_309:\n        /* \"contracts/rough.sol\":2863:2872  blacklist */\n      0x65\n        /* \"contracts/rough.sol\":2863:2884  blacklist[msg.sender] */\n      0x00\n        /* \"contracts/rough.sol\":2873:2883  msg.sender */\n      caller\n        /* \"contracts/rough.sol\":2863:2884  blacklist[msg.sender] */\n      0xffffffffffffffffffffffffffffffffffffffff\n      and\n      0xffffffffffffffffffffffffffffffffffffffff\n      and\n      dup2\n      mstore\n      0x20\n      add\n      swap1\n      dup2\n      mstore\n      0x20\n      add\n      0x00\n      keccak256\n      0x00\n      swap1\n      sload\n      swap1\n      0x0100\n      exp\n      swap1\n      div\n      0xff\n      and\n        /* \"contracts/rough.sol\":2859:2923  if (blacklist[msg.sender]) revert AddressBlacklisted(msg.sender) */\n      iszero\n      tag_311\n      jumpi\n        /* \"contracts/rough.sol\":2912:2922  msg.sender */\n      caller\n        /* \"contracts/rough.sol\":2893:2923  AddressBlacklisted(msg.sender) */\n      mload(0x40)\n      0xdaf49ab900000000000000000000000000000000000000000000000000000000\n      dup2\n      mstore\n      0x04\n      add\n      tag_312\n      swap2\n      swap1\n      tag_184\n      jump\t// in\n    tag_312:\n      mload(0x40)\n      dup1\n      swap2\n      sub\n      swap1\n      revert\n        /* \"contracts/rough.sol\":2859:2923  if (blacklist[msg.sender]) revert AddressBlacklisted(msg.sender) */\n    tag_311:\n        /* \"contracts/rough.sol\":5567:5568  0 */\n      0x00\n        /* \"contracts/rough.sol\":5554:5563  msg.value */\n      callvalue\n        /* \"contracts/rough.sol\":5554:5568  msg.value == 0 */\n      sub\n        /* \"contracts/rough.sol\":5550:5589  if (msg.value == 0) revert AmountZero() */\n      tag_314\n      jumpi\n        /* \"contracts/rough.sol\":5577:5589  AmountZero() */\n      mload(0x40)\n      0xcbca5aa200000000000000000000000000000000000000000000000000000000\n      dup2\n      mstore\n      0x04\n      add\n      mload(0x40)\n      dup1\n      swap2\n      sub\n      swap1\n      revert\n        /* \"contracts/rough.sol\":5550:5589  if (msg.value == 0) revert AmountZero() */\n    tag_314:\n        /* \"contracts/rough.sol\":5600:5637  _beforeDeposit(msg.sender, msg.value) */\n      tag_315\n        /* \"contracts/rough.sol\":5615:5625  msg.sender */\n      caller\n        /* \"contracts/rough.sol\":5627:5636  msg.value */\n      callvalue\n        /* \"contracts/rough.sol\":5600:5614  _beforeDeposit */\n      tag_316\n        /* \"contracts/rough.sol\":5600:5637  _beforeDeposit(msg.sender, msg.value) */\n      jump\t// in\n    tag_315:\n        /* \"contracts/rough.sol\":5672:5681  msg.value */\n      callvalue\n        /* \"contracts/rough.sol\":5648:5656  balances */\n      0x66\n        /* \"contracts/rough.sol\":5648:5668  balances[msg.sender] */\n      0x00\n        /* \"contracts/rough.sol\":5657:5667  msg.sender */\n      caller\n        /* \"contracts/rough.sol\":5648:5668  balances[msg.sender] */\n      0xffffffffffffffffffffffffffffffffffffffff\n      and\n      0xffffffffffffffffffffffffffffffffffffffff\n      and\n      dup2\n      mstore\n      0x20\n      add\n      swap1\n      dup2\n      mstore\n      0x20\n      add\n      0x00\n      keccak256\n      0x00\n        /* \"contracts/rough.sol\":5648:5681  balances[msg.sender] += msg.value */\n      dup3\n      dup3\n      sload\n      tag_317\n      swap2\n      swap1\n      tag_42\n      jump\t// in\n    tag_317:\n      swap3\n      pop\n      pop\n      dup2\n      swap1\n      sstore\n      pop\n        /* \"contracts/rough.sol\":5705:5715  msg.sender */\n      caller\n        /* \"contracts/rough.sol\":5697:5727  Deposit(msg.sender, msg.value) */\n      0xffffffffffffffffffffffffffffffffffffffff\n      and\n      0xe1fffcc4923d04b559f4d29a8bfc6cda04eb5b0d3c460751c2402c5c5cc9109c\n        /* \"contracts/rough.sol\":5717:5726  msg.value */\n      callvalue\n        /* \"contracts/rough.sol\":5697:5727  Deposit(msg.sender, msg.value) */\n      mload(0x40)\n      tag_318\n      swap2\n      swap1\n      tag_44\n      jump\t// in\n    tag_318:\n      mload(0x40)\n      dup1\n      swap2\n      sub\n      swap1\n      log2\n        /* \"contracts/rough.sol\":5738:5774  _afterDeposit(msg.sender, msg.value) */\n      tag_319\n        /* \"contracts/rough.sol\":5752:5762  msg.sender */\n      caller\n        /* \"contracts/rough.sol\":5764:5773  msg.value */\n      callvalue\n        /* \"contracts/rough.sol\":5738:5751  _afterDeposit */\n      tag_320\n        /* \"contracts/rough.sol\":5738:5774  _afterDeposit(msg.sender, msg.value) */\n      jump\t// in\n    tag_319:\n        /* \"contracts/rough.sol\":5466:5782  function deposit() external virtual payable whenNotPaused notBlacklisted {... */\n      jump\t// out\n        /* \"@openzeppelin/contracts-upgradeable/access/AccessControlUpgradeable.sol\":5710:5848  function revokeRole(bytes32 role, address account) public virtual onlyRole(getRoleAdmin(role)) {... */\n    tag_155:\n        /* \"@openzeppelin/contracts-upgradeable/access/AccessControlUpgradeable.sol\":5785:5803  getRoleAdmin(role) */\n      tag_321\n        /* \"@openzeppelin/contracts-upgradeable/access/AccessControlUpgradeable.sol\":5798:5802  role */\n      dup3\n        /* \"@openzeppelin/contracts-upgradeable/access/AccessControlUpgradeable.sol\":5785:5797  getRoleAdmin */\n      tag_65\n        /* \"@openzeppelin/contracts-upgradeable/access/AccessControlUpgradeable.sol\":5785:5803  getRoleAdmin(role) */\n      jump\t// in\n    tag_321:\n        /* \"@openzeppelin/contracts-upgradeable/access/AccessControlUpgradeable.sol\":3272:3288  _checkRole(role) */\n      tag_323\n        /* \"@openzeppelin/contracts-upgradeable/access/AccessControlUpgradeable.sol\":3283:3287  role */\n      dup2\n        /* \"@openzeppelin/contracts-upgradeable/access/AccessControlUpgradeable.sol\":3272:3282  _checkRole */\n      tag_218\n        /* \"@openzeppelin/contracts-upgradeable/access/AccessControlUpgradeable.sol\":3272:3288  _checkRole(role) */\n      jump\t// in\n    tag_323:\n        /* \"@openzeppelin/contracts-upgradeable/access/AccessControlUpgradeable.sol\":5815:5841  _revokeRole(role, account) */\n      tag_325\n        /* \"@openzeppelin/contracts-upgradeable/access/AccessControlUpgradeable.sol\":5827:5831  role */\n      dup4\n        /* \"@openzeppelin/contracts-upgradeable/access/AccessControlUpgradeable.sol\":5833:5840  account */\n      dup4\n        /* \"@openzeppelin/contracts-upgradeable/access/AccessControlUpgradeable.sol\":5815:5826  _revokeRole */\n      tag_227\n        /* \"@openzeppelin/contracts-upgradeable/access/AccessControlUpgradeable.sol\":5815:5841  _revokeRole(role, account) */\n      jump\t// in\n    tag_325:\n      pop\n        /* \"@openzeppelin/contracts-upgradeable/access/AccessControlUpgradeable.sol\":5710:5848  function revokeRole(bytes32 role, address account) public virtual onlyRole(getRoleAdmin(role)) {... */\n      pop\n      pop\n      pop\n      jump\t// out\n        /* \"contracts/rough.sol\":6669:7180  function emergencyWithdraw() external virtual nonReentrant notBlacklisted {... */\n    tag_158:\n        /* \"@openzeppelin/contracts-upgradeable/security/ReentrancyGuardUpgradeable.sol\":2526:2547  _nonReentrantBefore() */\n      tag_327\n        /* \"@openzeppelin/contracts-upgradeable/security/ReentrancyGuardUpgradeable.sol\":2526:2545  _nonReentrantBefore */\n      tag_177\n        /* \"@openzeppelin/contracts-upgradeable/security/ReentrancyGuardUpgradeable.sol\":2526:2547  _nonReentrantBefore() */\n      jump\t// in\n    tag_327:\n        /* \"contracts/rough.sol\":2863:2872  blacklist */\n      0x65\n        /* \"contracts/rough.sol\":2863:2884  blacklist[msg.sender] */\n      0x00\n        /* \"contracts/rough.sol\":2873:2883  msg.sender */\n      caller\n        /* \"contracts/rough.sol\":2863:2884  blacklist[msg.sender] */\n      0xffffffffffffffffffffffffffffffffffffffff\n      and\n      0xffffffffffffffffffffffffffffffffffffffff\n      and\n      dup2\n      mstore\n      0x20\n      add\n      swap1\n      dup2\n      mstore\n      0x20\n      add\n      0x00\n      keccak256\n      0x00\n      swap1\n      sload\n      swap1\n      0x0100\n      exp\n      swap1\n      div\n      0xff\n      and\n        /* \"contracts/rough.sol\":2859:2923  if (blacklist[msg.sender]) revert AddressBlacklisted(msg.sender) */\n      iszero\n      tag_329\n      jumpi\n        /* \"contracts/rough.sol\":2912:2922  msg.sender */\n      caller\n        /* \"contracts/rough.sol\":2893:2923  AddressBlacklisted(msg.sender) */\n      mload(0x40)\n      0xdaf49ab900000000000000000000000000000000000000000000000000000000\n      dup2\n      mstore\n      0x04\n      add\n      tag_330\n      swap2\n      swap1\n      tag_184\n      jump\t// in\n    tag_330:\n      mload(0x40)\n      dup1\n      swap2\n      sub\n      swap1\n      revert\n        /* \"contracts/rough.sol\":2859:2923  if (blacklist[msg.sender]) revert AddressBlacklisted(msg.sender) */\n    tag_329:\n        /* \"contracts/rough.sol\":6759:6772  emergencyMode */\n      0x68\n      0x00\n      swap1\n      sload\n      swap1\n      0x0100\n      exp\n      swap1\n      div\n      0xff\n      and\n        /* \"contracts/rough.sol\":6754:6797  if (!emergencyMode) revert NotInEmergency() */\n      tag_332\n      jumpi\n        /* \"contracts/rough.sol\":6781:6797  NotInEmergency() */\n      mload(0x40)\n      0xec73ce5c00000000000000000000000000000000000000000000000000000000\n      dup2\n      mstore\n      0x04\n      add\n      mload(0x40)\n      dup1\n      swap2\n      sub\n      swap1\n      revert\n        /* \"contracts/rough.sol\":6754:6797  if (!emergencyMode) revert NotInEmergency() */\n    tag_332:\n        /* \"contracts/rough.sol\":6808:6819  uint256 bal */\n      0x00\n        /* \"contracts/rough.sol\":6822:6830  balances */\n      0x66\n        /* \"contracts/rough.sol\":6822:6842  balances[msg.sender] */\n      0x00\n        /* \"contracts/rough.sol\":6831:6841  msg.sender */\n      caller\n        /* \"contracts/rough.sol\":6822:6842  balances[msg.sender] */\n      0xffffffffffffffffffffffffffffffffffffffff\n      and\n      0xffffffffffffffffffffffffffffffffffffffff\n      and\n      dup2\n      mstore\n      0x20\n      add\n      swap1\n      dup2\n      mstore\n      0x20\n      add\n      0x00\n      keccak256\n      sload\n        /* \"contracts/rough.sol\":6808:6842  uint256 bal = balances[msg.sender] */\n      swap1\n      pop\n        /* \"contracts/rough.sol\":6864:6865  0 */\n      0x00\n        /* \"contracts/rough.sol\":6857:6860  bal */\n      dup2\n        /* \"contracts/rough.sol\":6857:6865  bal == 0 */\n      sub\n        /* \"contracts/rough.sol\":6853:6885  if (bal == 0) revert NoBalance() */\n      tag_333\n      jumpi\n        /* \"contracts/rough.sol\":6874:6885  NoBalance() */\n      mload(0x40)\n      0xc2caa2a600000000000000000000000000000000000000000000000000000000\n      dup2\n      mstore\n      0x04\n      add\n      mload(0x40)\n      dup1\n      swap2\n      sub\n      swap1\n      revert\n        /* \"contracts/rough.sol\":6853:6885  if (bal == 0) revert NoBalance() */\n    tag_333:\n        /* \"contracts/rough.sol\":6896:6937  _beforeEmergencyWithdraw(msg.sender, bal) */\n      tag_334\n        /* \"contracts/rough.sol\":6921:6931  msg.sender */\n      caller\n        /* \"contracts/rough.sol\":6933:6936  bal */\n      dup3\n        /* \"contracts/rough.sol\":6896:6920  _beforeEmergencyWithdraw */\n      tag_335\n        /* \"contracts/rough.sol\":6896:6937  _beforeEmergencyWithdraw(msg.sender, bal) */\n      jump\t// in\n    tag_334:\n        /* \"contracts/rough.sol\":6971:6972  0 */\n      0x00\n        /* \"contracts/rough.sol\":6948:6956  balances */\n      0x66\n        /* \"contracts/rough.sol\":6948:6968  balances[msg.sender] */\n      0x00\n        /* \"contracts/rough.sol\":6957:6967  msg.sender */\n      caller\n        /* \"contracts/rough.sol\":6948:6968  balances[msg.sender] */\n      0xffffffffffffffffffffffffffffffffffffffff\n      and\n      0xffffffffffffffffffffffffffffffffffffffff\n      and\n      dup2\n      mstore\n      0x20\n      add\n      swap1\n      dup2\n      mstore\n      0x20\n      add\n      0x00\n      keccak256\n        /* \"contracts/rough.sol\":6948:6972  balances[msg.sender] = 0 */\n      dup2\n      swap1\n      sstore\n      pop\n        /* \"contracts/rough.sol\":6984:6991  bool ok */\n      0x00\n        /* \"contracts/rough.sol\":7005:7015  msg.sender */\n      caller\n        /* \"contracts/rough.sol\":6997:7021  payable(msg.sender).call */\n      0xffffffffffffffffffffffffffffffffffffffff\n      and\n        /* \"contracts/rough.sol\":7029:7032  bal */\n      dup3\n        /* \"contracts/rough.sol\":6997:7037  payable(msg.sender).call{value: bal}(\"\") */\n      mload(0x40)\n      tag_336\n      swap1\n      tag_202\n      jump\t// in\n    tag_336:\n      0x00\n      mload(0x40)\n      dup1\n      dup4\n      sub\n      dup2\n      dup6\n      dup8\n      gas\n      call\n      swap3\n      pop\n      pop\n      pop\n      returndatasize\n      dup1\n      0x00\n      dup2\n      eq\n      tag_339\n      jumpi\n      mload(0x40)\n      swap2\n      pop\n      and(add(returndatasize, 0x3f), not(0x1f))\n      dup3\n      add\n      0x40\n      mstore\n      returndatasize\n      dup3\n      mstore\n      returndatasize\n      0x00\n      0x20\n      dup5\n      add\n      returndatacopy\n      jump(tag_338)\n    tag_339:\n      0x60\n      swap2\n      pop\n    tag_338:\n      pop\n        /* \"contracts/rough.sol\":6983:7037  (bool ok, ) = payable(msg.sender).call{value: bal}(\"\") */\n      pop\n      swap1\n      pop\n        /* \"contracts/rough.sol\":7044:7046  ok */\n      dup1\n        /* \"contracts/rough.sol\":7039:7071  if (!ok) revert TransferFailed() */\n      tag_340\n      jumpi\n        /* \"contracts/rough.sol\":7055:7071  TransferFailed() */\n      mload(0x40)\n      0x90b8ec1800000000000000000000000000000000000000000000000000000000\n      dup2\n      mstore\n      0x04\n      add\n      mload(0x40)\n      dup1\n      swap2\n      sub\n      swap1\n      revert\n        /* \"contracts/rough.sol\":7039:7071  if (!ok) revert TransferFailed() */\n    tag_340:\n        /* \"contracts/rough.sol\":7105:7115  msg.sender */\n      caller\n        /* \"contracts/rough.sol\":7087:7121  EmergencyWithdraw(msg.sender, bal) */\n      0xffffffffffffffffffffffffffffffffffffffff\n      and\n      0x5fafa99d0643513820be26656b45130b01e1c03062e1266bf36f88cbd3bd9695\n        /* \"contracts/rough.sol\":7117:7120  bal */\n      dup4\n        /* \"contracts/rough.sol\":7087:7121  EmergencyWithdraw(msg.sender, bal) */\n      mload(0x40)\n      tag_341\n      swap2\n      swap1\n      tag_44\n      jump\t// in\n    tag_341:\n      mload(0x40)\n      dup1\n      swap2\n      sub\n      swap1\n      log2\n        /* \"contracts/rough.sol\":7132:7172  _afterEmergencyWithdraw(msg.sender, bal) */\n      tag_342\n        /* \"contracts/rough.sol\":7156:7166  msg.sender */\n      caller\n        /* \"contracts/rough.sol\":7168:7171  bal */\n      dup4\n        /* \"contracts/rough.sol\":7132:7155  _afterEmergencyWithdraw */\n      tag_343\n        /* \"contracts/rough.sol\":7132:7172  _afterEmergencyWithdraw(msg.sender, bal) */\n      jump\t// in\n    tag_342:\n        /* \"contracts/rough.sol\":6743:7180  {... */\n      pop\n      pop\n        /* \"@openzeppelin/contracts-upgradeable/security/ReentrancyGuardUpgradeable.sol\":2568:2588  _nonReentrantAfter() */\n      tag_344\n        /* \"@openzeppelin/contracts-upgradeable/security/ReentrancyGuardUpgradeable.sol\":2568:2586  _nonReentrantAfter */\n      tag_211\n        /* \"@openzeppelin/contracts-upgradeable/security/ReentrancyGuardUpgradeable.sol\":2568:2588  _nonReentrantAfter() */\n      jump\t// in\n    tag_344:\n        /* \"contracts/rough.sol\":6669:7180  function emergencyWithdraw() external virtual nonReentrant notBlacklisted {... */\n      jump\t// out\n        /* \"contracts/rough.sol\":3662:3962  function addToWhitelist(address account) external virtual onlyRole(ADMIN_ROLE) whenNotPaused {... */\n    tag_162:\n        /* \"contracts/rough.sol\":1120:1143  keccak256(\"ADMIN_ROLE\") */\n      0xa49807205ce4d355092ef5a8a18f56e8913cf4a201fbe287825b095693c21775\n        /* \"@openzeppelin/contracts-upgradeable/access/AccessControlUpgradeable.sol\":3272:3288  _checkRole(role) */\n      tag_346\n        /* \"@openzeppelin/contracts-upgradeable/access/AccessControlUpgradeable.sol\":3283:3287  role */\n      dup2\n        /* \"@openzeppelin/contracts-upgradeable/access/AccessControlUpgradeable.sol\":3272:3282  _checkRole */\n      tag_218\n        /* \"@openzeppelin/contracts-upgradeable/access/AccessControlUpgradeable.sol\":3272:3288  _checkRole(role) */\n      jump\t// in\n    tag_346:\n        /* \"@openzeppelin/contracts-upgradeable/security/PausableUpgradeable.sol\":1503:1522  _requireNotPaused() */\n      tag_348\n        /* \"@openzeppelin/contracts-upgradeable/security/PausableUpgradeable.sol\":1503:1520  _requireNotPaused */\n      tag_180\n        /* \"@openzeppelin/contracts-upgradeable/security/PausableUpgradeable.sol\":1503:1522  _requireNotPaused() */\n      jump\t// in\n    tag_348:\n        /* \"contracts/rough.sol\":3789:3790  0 */\n      0x00\n        /* \"contracts/rough.sol\":3770:3791  account == address(0) */\n      0xffffffffffffffffffffffffffffffffffffffff\n      and\n        /* \"contracts/rough.sol\":3770:3777  account */\n      dup3\n        /* \"contracts/rough.sol\":3770:3791  account == address(0) */\n      0xffffffffffffffffffffffffffffffffffffffff\n      and\n      sub\n        /* \"contracts/rough.sol\":3766:3813  if (account == address(0)) revert ZeroAddress() */\n      tag_350\n      jumpi\n        /* \"contracts/rough.sol\":3800:3813  ZeroAddress() */\n      mload(0x40)\n      0xd92e233d00000000000000000000000000000000000000000000000000000000\n      dup2\n      mstore\n      0x04\n      add\n      mload(0x40)\n      dup1\n      swap2\n      sub\n      swap1\n      revert\n        /* \"contracts/rough.sol\":3766:3813  if (account == address(0)) revert ZeroAddress() */\n    tag_350:\n        /* \"contracts/rough.sol\":3828:3837  blacklist */\n      0x65\n        /* \"contracts/rough.sol\":3828:3846  blacklist[account] */\n      0x00\n        /* \"contracts/rough.sol\":3838:3845  account */\n      dup4\n        /* \"contracts/rough.sol\":3828:3846  blacklist[account] */\n      0xffffffffffffffffffffffffffffffffffffffff\n      and\n      0xffffffffffffffffffffffffffffffffffffffff\n      and\n      dup2\n      mstore\n      0x20\n      add\n      swap1\n      dup2\n      mstore\n      0x20\n      add\n      0x00\n      keccak256\n      0x00\n      swap1\n      sload\n      swap1\n      0x0100\n      exp\n      swap1\n      div\n      0xff\n      and\n        /* \"contracts/rough.sol\":3824:3882  if (blacklist[account]) revert AlreadyBlacklisted(account) */\n      iszero\n      tag_351\n      jumpi\n        /* \"contracts/rough.sol\":3874:3881  account */\n      dup2\n        /* \"contracts/rough.sol\":3855:3882  AlreadyBlacklisted(account) */\n      mload(0x40)\n      0xb1ac0d9800000000000000000000000000000000000000000000000000000000\n      dup2\n      mstore\n      0x04\n      add\n      tag_352\n      swap2\n      swap1\n      tag_184\n      jump\t// in\n    tag_352:\n      mload(0x40)\n      dup1\n      swap2\n      sub\n      swap1\n      revert\n        /* \"contracts/rough.sol\":3824:3882  if (blacklist[account]) revert AlreadyBlacklisted(account) */\n    tag_351:\n        /* \"contracts/rough.sol\":3914:3918  true */\n      0x01\n        /* \"contracts/rough.sol\":3893:3902  whitelist */\n      0x64\n        /* \"contracts/rough.sol\":3893:3911  whitelist[account] */\n      0x00\n        /* \"contracts/rough.sol\":3903:3910  account */\n      dup5\n        /* \"contracts/rough.sol\":3893:3911  whitelist[account] */\n      0xffffffffffffffffffffffffffffffffffffffff\n      and\n      0xffffffffffffffffffffffffffffffffffffffff\n      and\n      dup2\n      mstore\n      0x20\n      add\n      swap1\n      dup2\n      mstore\n      0x20\n      add\n      0x00\n      keccak256\n      0x00\n        /* \"contracts/rough.sol\":3893:3918  whitelist[account] = true */\n      0x0100\n      exp\n      dup2\n      sload\n      dup2\n      0xff\n      mul\n      not\n      and\n      swap1\n      dup4\n      iszero\n      iszero\n      mul\n      or\n      swap1\n      sstore\n      pop\n        /* \"contracts/rough.sol\":3946:3953  account */\n      dup2\n        /* \"contracts/rough.sol\":3934:3954  Whitelisted(account) */\n      0xffffffffffffffffffffffffffffffffffffffff\n      and\n      0xaab7954e9d246b167ef88aeddad35209ca2489d95a8aeb59e288d9b19fae5a54\n      mload(0x40)\n      mload(0x40)\n      dup1\n      swap2\n      sub\n      swap1\n      log2\n        /* \"contracts/rough.sol\":3662:3962  function addToWhitelist(address account) external virtual onlyRole(ADMIN_ROLE) whenNotPaused {... */\n      pop\n      pop\n      jump\t// out\n        /* \"contracts/rough.sol\":7293:7392  function isBlacklisted(address account) external view returns (bool) { return blacklist[account]; } */\n    tag_166:\n        /* \"contracts/rough.sol\":7356:7360  bool */\n      0x00\n        /* \"contracts/rough.sol\":7371:7380  blacklist */\n      0x65\n        /* \"contracts/rough.sol\":7371:7389  blacklist[account] */\n      0x00\n        /* \"contracts/rough.sol\":7381:7388  account */\n      dup4\n        /* \"contracts/rough.sol\":7371:7389  blacklist[account] */\n      0xffffffffffffffffffffffffffffffffffffffff\n      and\n      0xffffffffffffffffffffffffffffffffffffffff\n      and\n      dup2\n      mstore\n      0x20\n      add\n      swap1\n      dup2\n      mstore\n      0x20\n      add\n      0x00\n      keccak256\n      0x00\n      swap1\n      sload\n      swap1\n      0x0100\n      exp\n      swap1\n      div\n      0xff\n      and\n        /* \"contracts/rough.sol\":7364:7389  return blacklist[account] */\n      swap1\n      pop\n        /* \"contracts/rough.sol\":7293:7392  function isBlacklisted(address account) external view returns (bool) { return blacklist[account]; } */\n      swap2\n      swap1\n      pop\n      jump\t// out\n        /* \"contracts/rough.sol\":1400:1433  uint256 public maxWithdrawalLimit */\n    tag_170:\n      sload(0x69)\n      dup2\n      jump\t// out\n        /* \"@openzeppelin/contracts-upgradeable/access/AccessControlUpgradeable.sol\":3491:3693  function supportsInterface(bytes4 interfaceId) public view virtual override returns (bool) {... */\n    tag_174:\n        /* \"@openzeppelin/contracts-upgradeable/access/AccessControlUpgradeable.sol\":3576:3580  bool */\n      0x00\n        /* \"@openzeppelin/contracts-upgradeable/access/AccessControlUpgradeable.sol\":3614:3646  type(IAccessControl).interfaceId */\n      0x7965db0b00000000000000000000000000000000000000000000000000000000\n        /* \"@openzeppelin/contracts-upgradeable/access/AccessControlUpgradeable.sol\":3599:3646  interfaceId == type(IAccessControl).interfaceId */\n      not(0xffffffffffffffffffffffffffffffffffffffffffffffffffffffff)\n      and\n        /* \"@openzeppelin/contracts-upgradeable/access/AccessControlUpgradeable.sol\":3599:3610  interfaceId */\n      dup3\n        /* \"@openzeppelin/contracts-upgradeable/access/AccessControlUpgradeable.sol\":3599:3646  interfaceId == type(IAccessControl).interfaceId */\n      not(0xffffffffffffffffffffffffffffffffffffffffffffffffffffffff)\n      and\n      eq\n        /* \"@openzeppelin/contracts-upgradeable/access/AccessControlUpgradeable.sol\":3599:3686  interfaceId == type(IAccessControl).interfaceId || super.supportsInterface(interfaceId) */\n      dup1\n      tag_355\n      jumpi\n      pop\n        /* \"@openzeppelin/contracts-upgradeable/access/AccessControlUpgradeable.sol\":3650:3686  super.supportsInterface(interfaceId) */\n      tag_356\n        /* \"@openzeppelin/contracts-upgradeable/access/AccessControlUpgradeable.sol\":3674:3685  interfaceId */\n      dup3\n        /* \"@openzeppelin/contracts-upgradeable/access/AccessControlUpgradeable.sol\":3650:3673  super.supportsInterface */\n      tag_357\n        /* \"@openzeppelin/contracts-upgradeable/access/AccessControlUpgradeable.sol\":3650:3686  super.supportsInterface(interfaceId) */\n      jump\t// in\n    tag_356:\n        /* \"@openzeppelin/contracts-upgradeable/access/AccessControlUpgradeable.sol\":3599:3686  interfaceId == type(IAccessControl).interfaceId || super.supportsInterface(interfaceId) */\n    tag_355:\n        /* \"@openzeppelin/contracts-upgradeable/access/AccessControlUpgradeable.sol\":3592:3686  return interfaceId == type(IAccessControl).interfaceId || super.supportsInterface(interfaceId) */\n      swap1\n      pop\n        /* \"@openzeppelin/contracts-upgradeable/access/AccessControlUpgradeable.sol\":3491:3693  function supportsInterface(bytes4 interfaceId) public view virtual override returns (bool) {... */\n      swap2\n      swap1\n      pop\n      jump\t// out\n        /* \"@openzeppelin/contracts-upgradeable/security/ReentrancyGuardUpgradeable.sol\":2601:2888  function _nonReentrantBefore() private {... */\n    tag_177:\n        /* \"@openzeppelin/contracts-upgradeable/security/ReentrancyGuardUpgradeable.sol\":1851:1852  2 */\n      0x02\n        /* \"@openzeppelin/contracts-upgradeable/security/ReentrancyGuardUpgradeable.sol\":2733:2740  _status */\n      sload(0x32)\n        /* \"@openzeppelin/contracts-upgradeable/security/ReentrancyGuardUpgradeable.sol\":2733:2752  _status != _ENTERED */\n      sub\n        /* \"@openzeppelin/contracts-upgradeable/security/ReentrancyGuardUpgradeable.sol\":2725:2788  require(_status != _ENTERED, \"ReentrancyGuard: reentrant call\") */\n      tag_359\n      jumpi\n      mload(0x40)\n      0x08c379a000000000000000000000000000000000000000000000000000000000\n      dup2\n      mstore\n      0x04\n      add\n      tag_360\n      swap1\n      tag_361\n      jump\t// in\n    tag_360:\n      mload(0x40)\n      dup1\n      swap2\n      sub\n      swap1\n      revert\n    tag_359:\n        /* \"@openzeppelin/contracts-upgradeable/security/ReentrancyGuardUpgradeable.sol\":1851:1852  2 */\n      0x02\n        /* \"@openzeppelin/contracts-upgradeable/security/ReentrancyGuardUpgradeable.sol\":2863:2870  _status */\n      0x32\n        /* \"@openzeppelin/contracts-upgradeable/security/ReentrancyGuardUpgradeable.sol\":2863:2881  _status = _ENTERED */\n      dup2\n      swap1\n      sstore\n      pop\n        /* \"@openzeppelin/contracts-upgradeable/security/ReentrancyGuardUpgradeable.sol\":2601:2888  function _nonReentrantBefore() private {... */\n      jump\t// out\n        /* \"@openzeppelin/contracts-upgradeable/security/PausableUpgradeable.sol\":2031:2137  function _requireNotPaused() internal view virtual {... */\n    tag_180:\n        /* \"@openzeppelin/contracts-upgradeable/security/PausableUpgradeable.sol\":2101:2109  paused() */\n      tag_363\n        /* \"@openzeppelin/contracts-upgradeable/security/PausableUpgradeable.sol\":2101:2107  paused */\n      tag_104\n        /* \"@openzeppelin/contracts-upgradeable/security/PausableUpgradeable.sol\":2101:2109  paused() */\n      jump\t// in\n    tag_363:\n        /* \"@openzeppelin/contracts-upgradeable/security/PausableUpgradeable.sol\":2100:2109  !paused() */\n      iszero\n        /* \"@openzeppelin/contracts-upgradeable/security/PausableUpgradeable.sol\":2092:2130  require(!paused(), \"Pausable: paused\") */\n      tag_364\n      jumpi\n      mload(0x40)\n      0x08c379a000000000000000000000000000000000000000000000000000000000\n      dup2\n      mstore\n      0x04\n      add\n      tag_365\n      swap1\n      tag_366\n      jump\t// in\n    tag_365:\n      mload(0x40)\n      dup1\n      swap2\n      sub\n      swap1\n      revert\n    tag_364:\n        /* \"@openzeppelin/contracts-upgradeable/security/PausableUpgradeable.sol\":2031:2137  function _requireNotPaused() internal view virtual {... */\n      jump\t// out\n        /* \"contracts/rough.sol\":3320:3398  function _beforeSecureWithdraw(address to, uint256 amount) internal virtual {} */\n    tag_198:\n      pop\n      pop\n      jump\t// out\n        /* \"contracts/rough.sol\":3404:3481  function _afterSecureWithdraw(address to, uint256 amount) internal virtual {} */\n    tag_209:\n      pop\n      pop\n      jump\t// out\n        /* \"@openzeppelin/contracts-upgradeable/security/ReentrancyGuardUpgradeable.sol\":2894:3103  function _nonReentrantAfter() private {... */\n    tag_211:\n        /* \"@openzeppelin/contracts-upgradeable/security/ReentrancyGuardUpgradeable.sol\":1808:1809  1 */\n      0x01\n        /* \"@openzeppelin/contracts-upgradeable/security/ReentrancyGuardUpgradeable.sol\":3074:3081  _status */\n      0x32\n        /* \"@openzeppelin/contracts-upgradeable/security/ReentrancyGuardUpgradeable.sol\":3074:3096  _status = _NOT_ENTERED */\n      dup2\n      swap1\n      sstore\n      pop\n        /* \"@openzeppelin/contracts-upgradeable/security/ReentrancyGuardUpgradeable.sol\":2894:3103  function _nonReentrantAfter() private {... */\n      jump\t// out\n        /* \"@openzeppelin/contracts-upgradeable/access/AccessControlUpgradeable.sol\":2868:3045  function _getAccessControlStorage() private pure returns (AccessControlStorage storage $) {... */\n    tag_214:\n        /* \"@openzeppelin/contracts-upgradeable/access/AccessControlUpgradeable.sol\":2926:2956  AccessControlStorage storage $ */\n      0x00\n        /* \"@openzeppelin/contracts-upgradeable/access/AccessControlUpgradeable.sol\":3001:3029  AccessControlStorageLocation */\n      0x02dd7bc7dec4dceedda775e58dd541e08a116c6c53815c0bd028192f7b626800\n        /* \"@openzeppelin/contracts-upgradeable/access/AccessControlUpgradeable.sol\":2991:3029  $.slot := AccessControlStorageLocation */\n      swap1\n      pop\n        /* \"@openzeppelin/contracts-upgradeable/access/AccessControlUpgradeable.sol\":2868:3045  function _getAccessControlStorage() private pure returns (AccessControlStorage storage $) {... */\n      swap1\n      jump\t// out\n        /* \"@openzeppelin/contracts-upgradeable/access/AccessControlUpgradeable.sol\":4196:4299  function _checkRole(bytes32 role) internal view virtual {... */\n    tag_218:\n        /* \"@openzeppelin/contracts-upgradeable/access/AccessControlUpgradeable.sol\":4262:4292  _checkRole(role, _msgSender()) */\n      tag_372\n        /* \"@openzeppelin/contracts-upgradeable/access/AccessControlUpgradeable.sol\":4273:4277  role */\n      dup2\n        /* \"@openzeppelin/contracts-upgradeable/access/AccessControlUpgradeable.sol\":4279:4291  _msgSender() */\n      tag_373\n        /* \"@openzeppelin/contracts-upgradeable/access/AccessControlUpgradeable.sol\":4279:4289  _msgSender */\n      tag_224\n        /* \"@openzeppelin/contracts-upgradeable/access/AccessControlUpgradeable.sol\":4279:4291  _msgSender() */\n      jump\t// in\n    tag_373:\n        /* \"@openzeppelin/contracts-upgradeable/access/AccessControlUpgradeable.sol\":4262:4272  _checkRole */\n      tag_374\n        /* \"@openzeppelin/contracts-upgradeable/access/AccessControlUpgradeable.sol\":4262:4292  _checkRole(role, _msgSender()) */\n      jump\t// in\n    tag_372:\n        /* \"@openzeppelin/contracts-upgradeable/access/AccessControlUpgradeable.sol\":4196:4299  function _checkRole(bytes32 role) internal view virtual {... */\n      pop\n      jump\t// out\n        /* \"@openzeppelin/contracts-upgradeable/access/AccessControlUpgradeable.sol\":7318:7705  function _grantRole(bytes32 role, address account) internal virtual returns (bool) {... */\n    tag_221:\n        /* \"@openzeppelin/contracts-upgradeable/access/AccessControlUpgradeable.sol\":7395:7399  bool */\n      0x00\n        /* \"@openzeppelin/contracts-upgradeable/access/AccessControlUpgradeable.sol\":7411:7441  AccessControlStorage storage $ */\n      0x00\n        /* \"@openzeppelin/contracts-upgradeable/access/AccessControlUpgradeable.sol\":7444:7470  _getAccessControlStorage() */\n      tag_376\n        /* \"@openzeppelin/contracts-upgradeable/access/AccessControlUpgradeable.sol\":7444:7468  _getAccessControlStorage */\n      tag_214\n        /* \"@openzeppelin/contracts-upgradeable/access/AccessControlUpgradeable.sol\":7444:7470  _getAccessControlStorage() */\n      jump\t// in\n    tag_376:\n        /* \"@openzeppelin/contracts-upgradeable/access/AccessControlUpgradeable.sol\":7411:7470  AccessControlStorage storage $ = _getAccessControlStorage() */\n      swap1\n      pop\n        /* \"@openzeppelin/contracts-upgradeable/access/AccessControlUpgradeable.sol\":7485:7507  hasRole(role, account) */\n      tag_377\n        /* \"@openzeppelin/contracts-upgradeable/access/AccessControlUpgradeable.sol\":7493:7497  role */\n      dup5\n        /* \"@openzeppelin/contracts-upgradeable/access/AccessControlUpgradeable.sol\":7499:7506  account */\n      dup5\n        /* \"@openzeppelin/contracts-upgradeable/access/AccessControlUpgradeable.sol\":7485:7492  hasRole */\n      tag_129\n        /* \"@openzeppelin/contracts-upgradeable/access/AccessControlUpgradeable.sol\":7485:7507  hasRole(role, account) */\n      jump\t// in\n    tag_377:\n        /* \"@openzeppelin/contracts-upgradeable/access/AccessControlUpgradeable.sol\":7480:7699  if (!hasRole(role, account)) {... */\n      tag_378\n      jumpi\n        /* \"@openzeppelin/contracts-upgradeable/access/AccessControlUpgradeable.sol\":7557:7561  true */\n      0x01\n        /* \"@openzeppelin/contracts-upgradeable/access/AccessControlUpgradeable.sol\":7523:7524  $ */\n      dup2\n        /* \"@openzeppelin/contracts-upgradeable/access/AccessControlUpgradeable.sol\":7523:7531  $._roles */\n      0x00\n      add\n        /* \"@openzeppelin/contracts-upgradeable/access/AccessControlUpgradeable.sol\":7523:7537  $._roles[role] */\n      0x00\n        /* \"@openzeppelin/contracts-upgradeable/access/AccessControlUpgradeable.sol\":7532:7536  role */\n      dup7\n        /* \"@openzeppelin/contracts-upgradeable/access/AccessControlUpgradeable.sol\":7523:7537  $._roles[role] */\n      dup2\n      mstore\n      0x20\n      add\n      swap1\n      dup2\n      mstore\n      0x20\n      add\n      0x00\n      keccak256\n        /* \"@openzeppelin/contracts-upgradeable/access/AccessControlUpgradeable.sol\":7523:7545  $._roles[role].hasRole */\n      0x00\n      add\n        /* \"@openzeppelin/contracts-upgradeable/access/AccessControlUpgradeable.sol\":7523:7554  $._roles[role].hasRole[account] */\n      0x00\n        /* \"@openzeppelin/contracts-upgradeable/access/AccessControlUpgradeable.sol\":7546:7553  account */\n      dup6\n        /* \"@openzeppelin/contracts-upgradeable/access/AccessControlUpgradeable.sol\":7523:7554  $._roles[role].hasRole[account] */\n      0xffffffffffffffffffffffffffffffffffffffff\n      and\n      0xffffffffffffffffffffffffffffffffffffffff\n      and\n      dup2\n      mstore\n      0x20\n      add\n      swap1\n      dup2\n      mstore\n      0x20\n      add\n      0x00\n      keccak256\n      0x00\n        /* \"@openzeppelin/contracts-upgradeable/access/AccessControlUpgradeable.sol\":7523:7561  $._roles[role].hasRole[account] = true */\n      0x0100\n      exp\n      dup2\n      sload\n      dup2\n      0xff\n      mul\n      not\n      and\n      swap1\n      dup4\n      iszero\n      iszero\n      mul\n      or\n      swap1\n      sstore\n      pop\n        /* \"@openzeppelin/contracts-upgradeable/access/AccessControlUpgradeable.sol\":7607:7619  _msgSender() */\n      tag_379\n        /* \"@openzeppelin/contracts-upgradeable/access/AccessControlUpgradeable.sol\":7607:7617  _msgSender */\n      tag_224\n        /* \"@openzeppelin/contracts-upgradeable/access/AccessControlUpgradeable.sol\":7607:7619  _msgSender() */\n      jump\t// in\n    tag_379:\n        /* \"@openzeppelin/contracts-upgradeable/access/AccessControlUpgradeable.sol\":7580:7620  RoleGranted(role, account, _msgSender()) */\n      0xffffffffffffffffffffffffffffffffffffffff\n      and\n        /* \"@openzeppelin/contracts-upgradeable/access/AccessControlUpgradeable.sol\":7598:7605  account */\n      dup4\n        /* \"@openzeppelin/contracts-upgradeable/access/AccessControlUpgradeable.sol\":7580:7620  RoleGranted(role, account, _msgSender()) */\n      0xffffffffffffffffffffffffffffffffffffffff\n      and\n        /* \"@openzeppelin/contracts-upgradeable/access/AccessControlUpgradeable.sol\":7592:7596  role */\n      dup6\n        /* \"@openzeppelin/contracts-upgradeable/access/AccessControlUpgradeable.sol\":7580:7620  RoleGranted(role, account, _msgSender()) */\n      0x2f8788117e7eff1d82e926ec794901d17c78024a50270940304540a733656f0d\n      mload(0x40)\n      mload(0x40)\n      dup1\n      swap2\n      sub\n      swap1\n      log4\n        /* \"@openzeppelin/contracts-upgradeable/access/AccessControlUpgradeable.sol\":7641:7645  true */\n      0x01\n        /* \"@openzeppelin/contracts-upgradeable/access/AccessControlUpgradeable.sol\":7634:7645  return true */\n      swap2\n      pop\n      pop\n      jump(tag_375)\n        /* \"@openzeppelin/contracts-upgradeable/access/AccessControlUpgradeable.sol\":7480:7699  if (!hasRole(role, account)) {... */\n    tag_378:\n        /* \"@openzeppelin/contracts-upgradeable/access/AccessControlUpgradeable.sol\":7683:7688  false */\n      0x00\n        /* \"@openzeppelin/contracts-upgradeable/access/AccessControlUpgradeable.sol\":7676:7688  return false */\n      swap2\n      pop\n      pop\n        /* \"@openzeppelin/contracts-upgradeable/access/AccessControlUpgradeable.sol\":7318:7705  function _grantRole(bytes32 role, address account) internal virtual returns (bool) {... */\n    tag_375:\n      swap3\n      swap2\n      pop\n      pop\n      jump\t// out\n        /* \"@openzeppelin/contracts-upgradeable/utils/ContextUpgradeable.sol\":887:983  function _msgSender() internal view virtual returns (address) {... */\n    tag_224:\n        /* \"@openzeppelin/contracts-upgradeable/utils/ContextUpgradeable.sol\":940:947  address */\n      0x00\n        /* \"@openzeppelin/contracts-upgradeable/utils/ContextUpgradeable.sol\":966:976  msg.sender */\n      caller\n        /* \"@openzeppelin/contracts-upgradeable/utils/ContextUpgradeable.sol\":959:976  return msg.sender */\n      swap1\n      pop\n        /* \"@openzeppelin/contracts-upgradeable/utils/ContextUpgradeable.sol\":887:983  function _msgSender() internal view virtual returns (address) {... */\n      swap1\n      jump\t// out\n        /* \"@openzeppelin/contracts-upgradeable/access/AccessControlUpgradeable.sol\":7942:8330  function _revokeRole(bytes32 role, address account) internal virtual returns (bool) {... */\n    tag_227:\n        /* \"@openzeppelin/contracts-upgradeable/access/AccessControlUpgradeable.sol\":8020:8024  bool */\n      0x00\n        /* \"@openzeppelin/contracts-upgradeable/access/AccessControlUpgradeable.sol\":8036:8066  AccessControlStorage storage $ */\n      0x00\n        /* \"@openzeppelin/contracts-upgradeable/access/AccessControlUpgradeable.sol\":8069:8095  _getAccessControlStorage() */\n      tag_383\n        /* \"@openzeppelin/contracts-upgradeable/access/AccessControlUpgradeable.sol\":8069:8093  _getAccessControlStorage */\n      tag_214\n        /* \"@openzeppelin/contracts-upgradeable/access/AccessControlUpgradeable.sol\":8069:8095  _getAccessControlStorage() */\n      jump\t// in\n    tag_383:\n        /* \"@openzeppelin/contracts-upgradeable/access/AccessControlUpgradeable.sol\":8036:8095  AccessControlStorage storage $ = _getAccessControlStorage() */\n      swap1\n      pop\n        /* \"@openzeppelin/contracts-upgradeable/access/AccessControlUpgradeable.sol\":8109:8131  hasRole(role, account) */\n      tag_384\n        /* \"@openzeppelin/contracts-upgradeable/access/AccessControlUpgradeable.sol\":8117:8121  role */\n      dup5\n        /* \"@openzeppelin/contracts-upgradeable/access/AccessControlUpgradeable.sol\":8123:8130  account */\n      dup5\n        /* \"@openzeppelin/contracts-upgradeable/access/AccessControlUpgradeable.sol\":8109:8116  hasRole */\n      tag_129\n        /* \"@openzeppelin/contracts-upgradeable/access/AccessControlUpgradeable.sol\":8109:8131  hasRole(role, account) */\n      jump\t// in\n    tag_384:\n        /* \"@openzeppelin/contracts-upgradeable/access/AccessControlUpgradeable.sol\":8105:8324  if (hasRole(role, account)) {... */\n      iszero\n      tag_385\n      jumpi\n        /* \"@openzeppelin/contracts-upgradeable/access/AccessControlUpgradeable.sol\":8181:8186  false */\n      0x00\n        /* \"@openzeppelin/contracts-upgradeable/access/AccessControlUpgradeable.sol\":8147:8148  $ */\n      dup2\n        /* \"@openzeppelin/contracts-upgradeable/access/AccessControlUpgradeable.sol\":8147:8155  $._roles */\n      0x00\n      add\n        /* \"@openzeppelin/contracts-upgradeable/access/AccessControlUpgradeable.sol\":8147:8161  $._roles[role] */\n      0x00\n        /* \"@openzeppelin/contracts-upgradeable/access/AccessControlUpgradeable.sol\":8156:8160  role */\n      dup7\n        /* \"@openzeppelin/contracts-upgradeable/access/AccessControlUpgradeable.sol\":8147:8161  $._roles[role] */\n      dup2\n      mstore\n      0x20\n      add\n      swap1\n      dup2\n      mstore\n      0x20\n      add\n      0x00\n      keccak256\n        /* \"@openzeppelin/contracts-upgradeable/access/AccessControlUpgradeable.sol\":8147:8169  $._roles[role].hasRole */\n      0x00\n      add\n        /* \"@openzeppelin/contracts-upgradeable/access/AccessControlUpgradeable.sol\":8147:8178  $._roles[role].hasRole[account] */\n      0x00\n        /* \"@openzeppelin/contracts-upgradeable/access/AccessControlUpgradeable.sol\":8170:8177  account */\n      dup6\n        /* \"@openzeppelin/contracts-upgradeable/access/AccessControlUpgradeable.sol\":8147:8178  $._roles[role].hasRole[account] */\n      0xffffffffffffffffffffffffffffffffffffffff\n      and\n      0xffffffffffffffffffffffffffffffffffffffff\n      and\n      dup2\n      mstore\n      0x20\n      add\n      swap1\n      dup2\n      mstore\n      0x20\n      add\n      0x00\n      keccak256\n      0x00\n        /* \"@openzeppelin/contracts-upgradeable/access/AccessControlUpgradeable.sol\":8147:8186  $._roles[role].hasRole[account] = false */\n      0x0100\n      exp\n      dup2\n      sload\n      dup2\n      0xff\n      mul\n      not\n      and\n      swap1\n      dup4\n      iszero\n      iszero\n      mul\n      or\n      swap1\n      sstore\n      pop\n        /* \"@openzeppelin/contracts-upgradeable/access/AccessControlUpgradeable.sol\":8232:8244  _msgSender() */\n      tag_386\n        /* \"@openzeppelin/contracts-upgradeable/access/AccessControlUpgradeable.sol\":8232:8242  _msgSender */\n      tag_224\n        /* \"@openzeppelin/contracts-upgradeable/access/AccessControlUpgradeable.sol\":8232:8244  _msgSender() */\n      jump\t// in\n    tag_386:\n        /* \"@openzeppelin/contracts-upgradeable/access/AccessControlUpgradeable.sol\":8205:8245  RoleRevoked(role, account, _msgSender()) */\n      0xffffffffffffffffffffffffffffffffffffffff\n      and\n        /* \"@openzeppelin/contracts-upgradeable/access/AccessControlUpgradeable.sol\":8223:8230  account */\n      dup4\n        /* \"@openzeppelin/contracts-upgradeable/access/AccessControlUpgradeable.sol\":8205:8245  RoleRevoked(role, account, _msgSender()) */\n      0xffffffffffffffffffffffffffffffffffffffff\n      and\n        /* \"@openzeppelin/contracts-upgradeable/access/AccessControlUpgradeable.sol\":8217:8221  role */\n      dup6\n        /* \"@openzeppelin/contracts-upgradeable/access/AccessControlUpgradeable.sol\":8205:8245  RoleRevoked(role, account, _msgSender()) */\n      0xf6391f5c32d9c69d2a47ea670b442974b53935d1edc7fd64eb21e047a839171b\n      mload(0x40)\n      mload(0x40)\n      dup1\n      swap2\n      sub\n      swap1\n      log4\n        /* \"@openzeppelin/contracts-upgradeable/access/AccessControlUpgradeable.sol\":8266:8270  true */\n      0x01\n        /* \"@openzeppelin/contracts-upgradeable/access/AccessControlUpgradeable.sol\":8259:8270  return true */\n      swap2\n      pop\n      pop\n      jump(tag_382)\n        /* \"@openzeppelin/contracts-upgradeable/access/AccessControlUpgradeable.sol\":8105:8324  if (hasRole(role, account)) {... */\n    tag_385:\n        /* \"@openzeppelin/contracts-upgradeable/access/AccessControlUpgradeable.sol\":8308:8313  false */\n      0x00\n        /* \"@openzeppelin/contracts-upgradeable/access/AccessControlUpgradeable.sol\":8301:8313  return false */\n      swap2\n      pop\n      pop\n        /* \"@openzeppelin/contracts-upgradeable/access/AccessControlUpgradeable.sol\":7942:8330  function _revokeRole(bytes32 role, address account) internal virtual returns (bool) {... */\n    tag_382:\n      swap3\n      swap2\n      pop\n      pop\n      jump\t// out\n        /* \"@openzeppelin/contracts-upgradeable/security/PausableUpgradeable.sol\":2697:2814  function _unpause() internal virtual whenPaused {... */\n    tag_233:\n        /* \"@openzeppelin/contracts-upgradeable/security/PausableUpgradeable.sol\":1750:1766  _requirePaused() */\n      tag_389\n        /* \"@openzeppelin/contracts-upgradeable/security/PausableUpgradeable.sol\":1750:1764  _requirePaused */\n      tag_390\n        /* \"@openzeppelin/contracts-upgradeable/security/PausableUpgradeable.sol\":1750:1766  _requirePaused() */\n      jump\t// in\n    tag_389:\n        /* \"@openzeppelin/contracts-upgradeable/security/PausableUpgradeable.sol\":2765:2770  false */\n      0x00\n        /* \"@openzeppelin/contracts-upgradeable/security/PausableUpgradeable.sol\":2755:2762  _paused */\n      0x00\n      0x00\n        /* \"@openzeppelin/contracts-upgradeable/security/PausableUpgradeable.sol\":2755:2770  _paused = false */\n      0x0100\n      exp\n      dup2\n      sload\n      dup2\n      0xff\n      mul\n      not\n      and\n      swap1\n      dup4\n      iszero\n      iszero\n      mul\n      or\n      swap1\n      sstore\n      pop\n        /* \"@openzeppelin/contracts-upgradeable/security/PausableUpgradeable.sol\":2785:2807  Unpaused(_msgSender()) */\n      0x5db9ee0a495bf2e6ff9c91a7834c1ba4fdd244a5e8aa4e537bd38aeae4b073aa\n        /* \"@openzeppelin/contracts-upgradeable/security/PausableUpgradeable.sol\":2794:2806  _msgSender() */\n      tag_392\n        /* \"@openzeppelin/contracts-upgradeable/security/PausableUpgradeable.sol\":2794:2804  _msgSender */\n      tag_224\n        /* \"@openzeppelin/contracts-upgradeable/security/PausableUpgradeable.sol\":2794:2806  _msgSender() */\n      jump\t// in\n    tag_392:\n        /* \"@openzeppelin/contracts-upgradeable/security/PausableUpgradeable.sol\":2785:2807  Unpaused(_msgSender()) */\n      mload(0x40)\n      tag_393\n      swap2\n      swap1\n      tag_184\n      jump\t// in\n    tag_393:\n      mload(0x40)\n      dup1\n      swap2\n      sub\n      swap1\n      log1\n        /* \"@openzeppelin/contracts-upgradeable/security/PausableUpgradeable.sol\":2697:2814  function _unpause() internal virtual whenPaused {... */\n      jump\t// out\n        /* \"@openzeppelin/contracts-upgradeable/proxy/utils/UUPSUpgradeable.sol\":4578:4890  function _checkProxy() internal view virtual {... */\n    tag_243:\n        /* \"@openzeppelin/contracts-upgradeable/proxy/utils/UUPSUpgradeable.sol\":4667:4673  __self */\n      immutable(\"0x5c73c1625c83d1301828e85a68d45ccb1f0a38b46459cc89b6f79138eacdc2d9\")\n        /* \"@openzeppelin/contracts-upgradeable/proxy/utils/UUPSUpgradeable.sol\":4650:4673  address(this) == __self */\n      0xffffffffffffffffffffffffffffffffffffffff\n      and\n        /* \"@openzeppelin/contracts-upgradeable/proxy/utils/UUPSUpgradeable.sol\":4658:4662  this */\n      address\n        /* \"@openzeppelin/contracts-upgradeable/proxy/utils/UUPSUpgradeable.sol\":4650:4673  address(this) == __self */\n      0xffffffffffffffffffffffffffffffffffffffff\n      and\n      eq\n        /* \"@openzeppelin/contracts-upgradeable/proxy/utils/UUPSUpgradeable.sol\":4650:4770  address(this) == __self || // Must be called through delegatecall... */\n      dup1\n      tag_395\n      jumpi\n      pop\n        /* \"@openzeppelin/contracts-upgradeable/proxy/utils/UUPSUpgradeable.sol\":4764:4770  __self */\n      immutable(\"0x5c73c1625c83d1301828e85a68d45ccb1f0a38b46459cc89b6f79138eacdc2d9\")\n        /* \"@openzeppelin/contracts-upgradeable/proxy/utils/UUPSUpgradeable.sol\":4728:4770  ERC1967Utils.getImplementation() != __self */\n      0xffffffffffffffffffffffffffffffffffffffff\n      and\n        /* \"@openzeppelin/contracts-upgradeable/proxy/utils/UUPSUpgradeable.sol\":4728:4760  ERC1967Utils.getImplementation() */\n      tag_396\n        /* \"@openzeppelin/contracts-upgradeable/proxy/utils/UUPSUpgradeable.sol\":4728:4758  ERC1967Utils.getImplementation */\n      tag_397\n        /* \"@openzeppelin/contracts-upgradeable/proxy/utils/UUPSUpgradeable.sol\":4728:4760  ERC1967Utils.getImplementation() */\n      jump\t// in\n    tag_396:\n        /* \"@openzeppelin/contracts-upgradeable/proxy/utils/UUPSUpgradeable.sol\":4728:4770  ERC1967Utils.getImplementation() != __self */\n      0xffffffffffffffffffffffffffffffffffffffff\n      and\n      eq\n      iszero\n        /* \"@openzeppelin/contracts-upgradeable/proxy/utils/UUPSUpgradeable.sol\":4650:4770  address(this) == __self || // Must be called through delegatecall... */\n    tag_395:\n        /* \"@openzeppelin/contracts-upgradeable/proxy/utils/UUPSUpgradeable.sol\":4633:4884  if (... */\n      iszero\n      tag_398\n      jumpi\n        /* \"@openzeppelin/contracts-upgradeable/proxy/utils/UUPSUpgradeable.sol\":4844:4873  UUPSUnauthorizedCallContext() */\n      mload(0x40)\n      0xe07c8dba00000000000000000000000000000000000000000000000000000000\n      dup2\n      mstore\n      0x04\n      add\n      mload(0x40)\n      dup1\n      swap2\n      sub\n      swap1\n      revert\n        /* \"@openzeppelin/contracts-upgradeable/proxy/utils/UUPSUpgradeable.sol\":4633:4884  if (... */\n    tag_398:\n        /* \"@openzeppelin/contracts-upgradeable/proxy/utils/UUPSUpgradeable.sol\":4578:4890  function _checkProxy() internal view virtual {... */\n      jump\t// out\n        /* \"contracts/rough.sol\":3078:3155  function _authorizeUpgrade(address) internal override onlyRole(ADMIN_ROLE) {} */\n    tag_246:\n        /* \"contracts/rough.sol\":1120:1143  keccak256(\"ADMIN_ROLE\") */\n      0xa49807205ce4d355092ef5a8a18f56e8913cf4a201fbe287825b095693c21775\n        /* \"@openzeppelin/contracts-upgradeable/access/AccessControlUpgradeable.sol\":3272:3288  _checkRole(role) */\n      tag_400\n        /* \"@openzeppelin/contracts-upgradeable/access/AccessControlUpgradeable.sol\":3283:3287  role */\n      dup2\n        /* \"@openzeppelin/contracts-upgradeable/access/AccessControlUpgradeable.sol\":3272:3282  _checkRole */\n      tag_218\n        /* \"@openzeppelin/contracts-upgradeable/access/AccessControlUpgradeable.sol\":3272:3288  _checkRole(role) */\n      jump\t// in\n    tag_400:\n        /* \"contracts/rough.sol\":3078:3155  function _authorizeUpgrade(address) internal override onlyRole(ADMIN_ROLE) {} */\n      pop\n      pop\n      jump\t// out\n        /* \"@openzeppelin/contracts-upgradeable/proxy/utils/UUPSUpgradeable.sol\":6032:6570  function _upgradeToAndCallUUPS(address newImplementation, bytes memory data) private {... */\n    tag_248:\n        /* \"@openzeppelin/contracts-upgradeable/proxy/utils/UUPSUpgradeable.sol\":6149:6166  newImplementation */\n      dup2\n        /* \"@openzeppelin/contracts-upgradeable/proxy/utils/UUPSUpgradeable.sol\":6131:6181  IERC1822Proxiable(newImplementation).proxiableUUID */\n      0xffffffffffffffffffffffffffffffffffffffff\n      and\n      0x52d1902d\n        /* \"@openzeppelin/contracts-upgradeable/proxy/utils/UUPSUpgradeable.sol\":6131:6183  IERC1822Proxiable(newImplementation).proxiableUUID() */\n      mload(0x40)\n      dup2\n      0xffffffff\n      and\n      0xe0\n      shl\n      dup2\n      mstore\n      0x04\n      add\n      0x20\n      mload(0x40)\n      dup1\n      dup4\n      sub\n      dup2\n      dup7\n      gas\n      staticcall\n      swap3\n      pop\n      pop\n      pop\n      dup1\n      iszero\n      tag_403\n      jumpi\n      pop\n      mload(0x40)\n      returndatasize\n      not(0x1f)\n      0x1f\n      dup3\n      add\n      and\n      dup3\n      add\n      dup1\n      0x40\n      mstore\n      pop\n      dup2\n      add\n      swap1\n      tag_404\n      swap2\n      swap1\n      tag_405\n      jump\t// in\n    tag_404:\n      0x01\n    tag_403:\n        /* \"@openzeppelin/contracts-upgradeable/proxy/utils/UUPSUpgradeable.sol\":6127:6564  try IERC1822Proxiable(newImplementation).proxiableUUID() returns (bytes32 slot) {... */\n      tag_406\n      jumpi\n        /* \"@openzeppelin/contracts-upgradeable/proxy/utils/UUPSUpgradeable.sol\":6535:6552  newImplementation */\n      dup2\n        /* \"@openzeppelin/contracts-upgradeable/proxy/utils/UUPSUpgradeable.sol\":6493:6553  ERC1967Utils.ERC1967InvalidImplementation(newImplementation) */\n      mload(0x40)\n      0x4c9c8ce300000000000000000000000000000000000000000000000000000000\n      dup2\n      mstore\n      0x04\n      add\n      tag_410\n      swap2\n      swap1\n      tag_184\n      jump\t// in\n    tag_410:\n      mload(0x40)\n      dup1\n      swap2\n      sub\n      swap1\n      revert\n        /* \"@openzeppelin/contracts-upgradeable/proxy/utils/UUPSUpgradeable.sol\":6127:6564  try IERC1822Proxiable(newImplementation).proxiableUUID() returns (bytes32 slot) {... */\n    tag_406:\n        /* \"@openzeppelin/contracts/proxy/ERC1967/ERC1967Utils.sol\":811:877  0x360894a13ba1a3210667c828492db98dca3e2076cc3735a920a3ca505d382bbc */\n      0x360894a13ba1a3210667c828492db98dca3e2076cc3735a920a3ca505d382bbc\n        /* \"@openzeppelin/contracts-upgradeable/proxy/utils/UUPSUpgradeable.sol\":6233:6265  ERC1967Utils.IMPLEMENTATION_SLOT */\n      0x00\n      shl\n        /* \"@openzeppelin/contracts-upgradeable/proxy/utils/UUPSUpgradeable.sol\":6225:6229  slot */\n      dup2\n        /* \"@openzeppelin/contracts-upgradeable/proxy/utils/UUPSUpgradeable.sol\":6225:6265  slot != ERC1967Utils.IMPLEMENTATION_SLOT */\n      eq\n        /* \"@openzeppelin/contracts-upgradeable/proxy/utils/UUPSUpgradeable.sol\":6221:6341  if (slot != ERC1967Utils.IMPLEMENTATION_SLOT) {... */\n      tag_412\n      jumpi\n        /* \"@openzeppelin/contracts-upgradeable/proxy/utils/UUPSUpgradeable.sol\":6321:6325  slot */\n      dup1\n        /* \"@openzeppelin/contracts-upgradeable/proxy/utils/UUPSUpgradeable.sol\":6292:6326  UUPSUnsupportedProxiableUUID(slot) */\n      mload(0x40)\n      0xaa1d49a400000000000000000000000000000000000000000000000000000000\n      dup2\n      mstore\n      0x04\n      add\n      tag_413\n      swap2\n      swap1\n      tag_67\n      jump\t// in\n    tag_413:\n      mload(0x40)\n      dup1\n      swap2\n      sub\n      swap1\n      revert\n        /* \"@openzeppelin/contracts-upgradeable/proxy/utils/UUPSUpgradeable.sol\":6221:6341  if (slot != ERC1967Utils.IMPLEMENTATION_SLOT) {... */\n    tag_412:\n        /* \"@openzeppelin/contracts-upgradeable/proxy/utils/UUPSUpgradeable.sol\":6354:6408  ERC1967Utils.upgradeToAndCall(newImplementation, data) */\n      tag_414\n        /* \"@openzeppelin/contracts-upgradeable/proxy/utils/UUPSUpgradeable.sol\":6384:6401  newImplementation */\n      dup4\n        /* \"@openzeppelin/contracts-upgradeable/proxy/utils/UUPSUpgradeable.sol\":6403:6407  data */\n      dup4\n        /* \"@openzeppelin/contracts-upgradeable/proxy/utils/UUPSUpgradeable.sol\":6354:6383  ERC1967Utils.upgradeToAndCall */\n      tag_415\n        /* \"@openzeppelin/contracts-upgradeable/proxy/utils/UUPSUpgradeable.sol\":6354:6408  ERC1967Utils.upgradeToAndCall(newImplementation, data) */\n      jump\t// in\n    tag_414:\n        /* \"@openzeppelin/contracts-upgradeable/proxy/utils/UUPSUpgradeable.sol\":6184:6419  returns (bytes32 slot) {... */\n      pop\n        /* \"@openzeppelin/contracts-upgradeable/proxy/utils/UUPSUpgradeable.sol\":6032:6570  function _upgradeToAndCallUUPS(address newImplementation, bytes memory data) private {... */\n      pop\n      pop\n      jump\t// out\n        /* \"@openzeppelin/contracts-upgradeable/proxy/utils/UUPSUpgradeable.sol\":5007:5220  function _checkNotDelegated() internal view virtual {... */\n    tag_251:\n        /* \"@openzeppelin/contracts-upgradeable/proxy/utils/UUPSUpgradeable.sol\":5090:5096  __self */\n      immutable(\"0x5c73c1625c83d1301828e85a68d45ccb1f0a38b46459cc89b6f79138eacdc2d9\")\n        /* \"@openzeppelin/contracts-upgradeable/proxy/utils/UUPSUpgradeable.sol\":5073:5096  address(this) != __self */\n      0xffffffffffffffffffffffffffffffffffffffff\n      and\n        /* \"@openzeppelin/contracts-upgradeable/proxy/utils/UUPSUpgradeable.sol\":5081:5085  this */\n      address\n        /* \"@openzeppelin/contracts-upgradeable/proxy/utils/UUPSUpgradeable.sol\":5073:5096  address(this) != __self */\n      0xffffffffffffffffffffffffffffffffffffffff\n      and\n      eq\n        /* \"@openzeppelin/contracts-upgradeable/proxy/utils/UUPSUpgradeable.sol\":5069:5214  if (address(this) != __self) {... */\n      tag_417\n      jumpi\n        /* \"@openzeppelin/contracts-upgradeable/proxy/utils/UUPSUpgradeable.sol\":5174:5203  UUPSUnauthorizedCallContext() */\n      mload(0x40)\n      0xe07c8dba00000000000000000000000000000000000000000000000000000000\n      dup2\n      mstore\n      0x04\n      add\n      mload(0x40)\n      dup1\n      swap2\n      sub\n      swap1\n      revert\n        /* \"@openzeppelin/contracts-upgradeable/proxy/utils/UUPSUpgradeable.sol\":5069:5214  if (address(this) != __self) {... */\n    tag_417:\n        /* \"@openzeppelin/contracts-upgradeable/proxy/utils/UUPSUpgradeable.sol\":5007:5220  function _checkNotDelegated() internal view virtual {... */\n      jump\t// out\n        /* \"@openzeppelin/contracts-upgradeable/security/PausableUpgradeable.sol\":2450:2565  function _pause() internal virtual whenNotPaused {... */\n    tag_271:\n        /* \"@openzeppelin/contracts-upgradeable/security/PausableUpgradeable.sol\":1503:1522  _requireNotPaused() */\n      tag_419\n        /* \"@openzeppelin/contracts-upgradeable/security/PausableUpgradeable.sol\":1503:1520  _requireNotPaused */\n      tag_180\n        /* \"@openzeppelin/contracts-upgradeable/security/PausableUpgradeable.sol\":1503:1522  _requireNotPaused() */\n      jump\t// in\n    tag_419:\n        /* \"@openzeppelin/contracts-upgradeable/security/PausableUpgradeable.sol\":2519:2523  true */\n      0x01\n        /* \"@openzeppelin/contracts-upgradeable/security/PausableUpgradeable.sol\":2509:2516  _paused */\n      0x00\n      0x00\n        /* \"@openzeppelin/contracts-upgradeable/security/PausableUpgradeable.sol\":2509:2523  _paused = true */\n      0x0100\n      exp\n      dup2\n      sload\n      dup2\n      0xff\n      mul\n      not\n      and\n      swap1\n      dup4\n      iszero\n      iszero\n      mul\n      or\n      swap1\n      sstore\n      pop\n        /* \"@openzeppelin/contracts-upgradeable/security/PausableUpgradeable.sol\":2538:2558  Paused(_msgSender()) */\n      0x62e78cea01bee320cd4e420270b5ea74000d11b0c9f74754ebdbfc544b05a258\n        /* \"@openzeppelin/contracts-upgradeable/security/PausableUpgradeable.sol\":2545:2557  _msgSender() */\n      tag_421\n        /* \"@openzeppelin/contracts-upgradeable/security/PausableUpgradeable.sol\":2545:2555  _msgSender */\n      tag_224\n        /* \"@openzeppelin/contracts-upgradeable/security/PausableUpgradeable.sol\":2545:2557  _msgSender() */\n      jump\t// in\n    tag_421:\n        /* \"@openzeppelin/contracts-upgradeable/security/PausableUpgradeable.sol\":2538:2558  Paused(_msgSender()) */\n      mload(0x40)\n      tag_422\n      swap2\n      swap1\n      tag_184\n      jump\t// in\n    tag_422:\n      mload(0x40)\n      dup1\n      swap2\n      sub\n      swap1\n      log1\n        /* \"@openzeppelin/contracts-upgradeable/security/PausableUpgradeable.sol\":2450:2565  function _pause() internal virtual whenNotPaused {... */\n      jump\t// out\n        /* \"@openzeppelin/contracts-upgradeable/proxy/utils/Initializable.sol\":9071:9276  function _getInitializableStorage() private pure returns (InitializableStorage storage $) {... */\n    tag_287:\n        /* \"@openzeppelin/contracts-upgradeable/proxy/utils/Initializable.sol\":9129:9159  InitializableStorage storage $ */\n      0x00\n        /* \"@openzeppelin/contracts-upgradeable/proxy/utils/Initializable.sol\":9171:9183  bytes32 slot */\n      0x00\n        /* \"@openzeppelin/contracts-upgradeable/proxy/utils/Initializable.sol\":9186:9213  _initializableStorageSlot() */\n      tag_424\n        /* \"@openzeppelin/contracts-upgradeable/proxy/utils/Initializable.sol\":9186:9211  _initializableStorageSlot */\n      tag_425\n        /* \"@openzeppelin/contracts-upgradeable/proxy/utils/Initializable.sol\":9186:9213  _initializableStorageSlot() */\n      jump\t// in\n    tag_424:\n        /* \"@openzeppelin/contracts-upgradeable/proxy/utils/Initializable.sol\":9171:9213  bytes32 slot = _initializableStorageSlot() */\n      swap1\n      pop\n        /* \"@openzeppelin/contracts-upgradeable/proxy/utils/Initializable.sol\":9256:9260  slot */\n      dup1\n        /* \"@openzeppelin/contracts-upgradeable/proxy/utils/Initializable.sol\":9246:9260  $.slot := slot */\n      swap2\n      pop\n        /* \"@openzeppelin/contracts-upgradeable/proxy/utils/Initializable.sol\":9232:9270  {... */\n      pop\n        /* \"@openzeppelin/contracts-upgradeable/proxy/utils/Initializable.sol\":9071:9276  function _getInitializableStorage() private pure returns (InitializableStorage storage $) {... */\n      swap1\n      jump\t// out\n        /* \"@openzeppelin/contracts-upgradeable/access/AccessControlUpgradeable.sol\":3312:3377  function __AccessControl_init() internal onlyInitializing {... */\n    tag_296:\n        /* \"@openzeppelin/contracts-upgradeable/proxy/utils/Initializable.sol\":6929:6949  _checkInitializing() */\n      tag_427\n        /* \"@openzeppelin/contracts-upgradeable/proxy/utils/Initializable.sol\":6929:6947  _checkInitializing */\n      tag_428\n        /* \"@openzeppelin/contracts-upgradeable/proxy/utils/Initializable.sol\":6929:6949  _checkInitializing() */\n      jump\t// in\n    tag_427:\n        /* \"@openzeppelin/contracts-upgradeable/access/AccessControlUpgradeable.sol\":3312:3377  function __AccessControl_init() internal onlyInitializing {... */\n      jump\t// out\n        /* \"@openzeppelin/contracts-upgradeable/security/PausableUpgradeable.sol\":1084:1181  function __Pausable_init() internal onlyInitializing {... */\n    tag_298:\n        /* \"@openzeppelin/contracts-upgradeable/proxy/utils/Initializable.sol\":6929:6949  _checkInitializing() */\n      tag_431\n        /* \"@openzeppelin/contracts-upgradeable/proxy/utils/Initializable.sol\":6929:6947  _checkInitializing */\n      tag_428\n        /* \"@openzeppelin/contracts-upgradeable/proxy/utils/Initializable.sol\":6929:6949  _checkInitializing() */\n      jump\t// in\n    tag_431:\n        /* \"@openzeppelin/contracts-upgradeable/security/PausableUpgradeable.sol\":1147:1174  __Pausable_init_unchained() */\n      tag_433\n        /* \"@openzeppelin/contracts-upgradeable/security/PausableUpgradeable.sol\":1147:1172  __Pausable_init_unchained */\n      tag_434\n        /* \"@openzeppelin/contracts-upgradeable/security/PausableUpgradeable.sol\":1147:1174  __Pausable_init_unchained() */\n      jump\t// in\n    tag_433:\n        /* \"@openzeppelin/contracts-upgradeable/security/PausableUpgradeable.sol\":1084:1181  function __Pausable_init() internal onlyInitializing {... */\n      jump\t// out\n        /* \"@openzeppelin/contracts-upgradeable/security/ReentrancyGuardUpgradeable.sol\":1889:2000  function __ReentrancyGuard_init() internal onlyInitializing {... */\n    tag_300:\n        /* \"@openzeppelin/contracts-upgradeable/proxy/utils/Initializable.sol\":6929:6949  _checkInitializing() */\n      tag_436\n        /* \"@openzeppelin/contracts-upgradeable/proxy/utils/Initializable.sol\":6929:6947  _checkInitializing */\n      tag_428\n        /* \"@openzeppelin/contracts-upgradeable/proxy/utils/Initializable.sol\":6929:6949  _checkInitializing() */\n      jump\t// in\n    tag_436:\n        /* \"@openzeppelin/contracts-upgradeable/security/ReentrancyGuardUpgradeable.sol\":1959:1993  __ReentrancyGuard_init_unchained() */\n      tag_438\n        /* \"@openzeppelin/contracts-upgradeable/security/ReentrancyGuardUpgradeable.sol\":1959:1991  __ReentrancyGuard_init_unchained */\n      tag_439\n        /* \"@openzeppelin/contracts-upgradeable/security/ReentrancyGuardUpgradeable.sol\":1959:1993  __ReentrancyGuard_init_unchained() */\n      jump\t// in\n    tag_438:\n        /* \"@openzeppelin/contracts-upgradeable/security/ReentrancyGuardUpgradeable.sol\":1889:2000  function __ReentrancyGuard_init() internal onlyInitializing {... */\n      jump\t// out\n        /* \"@openzeppelin/contracts-upgradeable/proxy/utils/UUPSUpgradeable.sol\":2970:3037  function __UUPSUpgradeable_init() internal onlyInitializing {... */\n    tag_302:\n        /* \"@openzeppelin/contracts-upgradeable/proxy/utils/Initializable.sol\":6929:6949  _checkInitializing() */\n      tag_441\n        /* \"@openzeppelin/contracts-upgradeable/proxy/utils/Initializable.sol\":6929:6947  _checkInitializing */\n      tag_428\n        /* \"@openzeppelin/contracts-upgradeable/proxy/utils/Initializable.sol\":6929:6949  _checkInitializing() */\n      jump\t// in\n    tag_441:\n        /* \"@openzeppelin/contracts-upgradeable/proxy/utils/UUPSUpgradeable.sol\":2970:3037  function __UUPSUpgradeable_init() internal onlyInitializing {... */\n      jump\t// out\n        /* \"contracts/rough.sol\":3163:3236  function _beforeDeposit(address from, uint256 amount) internal virtual {} */\n    tag_316:\n      pop\n      pop\n      jump\t// out\n        /* \"contracts/rough.sol\":3242:3314  function _afterDeposit(address from, uint256 amount) internal virtual {} */\n    tag_320:\n      pop\n      pop\n      jump\t// out\n        /* \"contracts/rough.sol\":3487:3568  function _beforeEmergencyWithdraw(address to, uint256 amount) internal virtual {} */\n    tag_335:\n      pop\n      pop\n      jump\t// out\n        /* \"contracts/rough.sol\":3574:3654  function _afterEmergencyWithdraw(address to, uint256 amount) internal virtual {} */\n    tag_343:\n      pop\n      pop\n      jump\t// out\n        /* \"@openzeppelin/contracts-upgradeable/utils/introspection/ERC165Upgradeable.sol\":1002:1148  function supportsInterface(bytes4 interfaceId) public view virtual returns (bool) {... */\n    tag_357:\n        /* \"@openzeppelin/contracts-upgradeable/utils/introspection/ERC165Upgradeable.sol\":1078:1082  bool */\n      0x00\n        /* \"@openzeppelin/contracts-upgradeable/utils/introspection/ERC165Upgradeable.sol\":1116:1141  type(IERC165).interfaceId */\n      0x01ffc9a700000000000000000000000000000000000000000000000000000000\n        /* \"@openzeppelin/contracts-upgradeable/utils/introspection/ERC165Upgradeable.sol\":1101:1141  interfaceId == type(IERC165).interfaceId */\n      not(0xffffffffffffffffffffffffffffffffffffffffffffffffffffffff)\n      and\n        /* \"@openzeppelin/contracts-upgradeable/utils/introspection/ERC165Upgradeable.sol\":1101:1112  interfaceId */\n      dup3\n        /* \"@openzeppelin/contracts-upgradeable/utils/introspection/ERC165Upgradeable.sol\":1101:1141  interfaceId == type(IERC165).interfaceId */\n      not(0xffffffffffffffffffffffffffffffffffffffffffffffffffffffff)\n      and\n      eq\n        /* \"@openzeppelin/contracts-upgradeable/utils/introspection/ERC165Upgradeable.sol\":1094:1141  return interfaceId == type(IERC165).interfaceId */\n      swap1\n      pop\n        /* \"@openzeppelin/contracts-upgradeable/utils/introspection/ERC165Upgradeable.sol\":1002:1148  function supportsInterface(bytes4 interfaceId) public view virtual returns (bool) {... */\n      swap2\n      swap1\n      pop\n      jump\t// out\n        /* \"@openzeppelin/contracts-upgradeable/access/AccessControlUpgradeable.sol\":4429:4626  function _checkRole(bytes32 role, address account) internal view virtual {... */\n    tag_374:\n        /* \"@openzeppelin/contracts-upgradeable/access/AccessControlUpgradeable.sol\":4517:4539  hasRole(role, account) */\n      tag_449\n        /* \"@openzeppelin/contracts-upgradeable/access/AccessControlUpgradeable.sol\":4525:4529  role */\n      dup3\n        /* \"@openzeppelin/contracts-upgradeable/access/AccessControlUpgradeable.sol\":4531:4538  account */\n      dup3\n        /* \"@openzeppelin/contracts-upgradeable/access/AccessControlUpgradeable.sol\":4517:4524  hasRole */\n      tag_129\n        /* \"@openzeppelin/contracts-upgradeable/access/AccessControlUpgradeable.sol\":4517:4539  hasRole(role, account) */\n      jump\t// in\n    tag_449:\n        /* \"@openzeppelin/contracts-upgradeable/access/AccessControlUpgradeable.sol\":4512:4620  if (!hasRole(role, account)) {... */\n      tag_450\n      jumpi\n        /* \"@openzeppelin/contracts-upgradeable/access/AccessControlUpgradeable.sol\":4595:4602  account */\n      dup1\n        /* \"@openzeppelin/contracts-upgradeable/access/AccessControlUpgradeable.sol\":4604:4608  role */\n      dup3\n        /* \"@openzeppelin/contracts-upgradeable/access/AccessControlUpgradeable.sol\":4562:4609  AccessControlUnauthorizedAccount(account, role) */\n      mload(0x40)\n      0xe2517d3f00000000000000000000000000000000000000000000000000000000\n      dup2\n      mstore\n      0x04\n      add\n      tag_451\n      swap3\n      swap2\n      swap1\n      tag_452\n      jump\t// in\n    tag_451:\n      mload(0x40)\n      dup1\n      swap2\n      sub\n      swap1\n      revert\n        /* \"@openzeppelin/contracts-upgradeable/access/AccessControlUpgradeable.sol\":4512:4620  if (!hasRole(role, account)) {... */\n    tag_450:\n        /* \"@openzeppelin/contracts-upgradeable/access/AccessControlUpgradeable.sol\":4429:4626  function _checkRole(bytes32 role, address account) internal view virtual {... */\n      pop\n      pop\n      jump\t// out\n        /* \"@openzeppelin/contracts-upgradeable/security/PausableUpgradeable.sol\":2209:2315  function _requirePaused() internal view virtual {... */\n    tag_390:\n        /* \"@openzeppelin/contracts-upgradeable/security/PausableUpgradeable.sol\":2275:2283  paused() */\n      tag_454\n        /* \"@openzeppelin/contracts-upgradeable/security/PausableUpgradeable.sol\":2275:2281  paused */\n      tag_104\n        /* \"@openzeppelin/contracts-upgradeable/security/PausableUpgradeable.sol\":2275:2283  paused() */\n      jump\t// in\n    tag_454:\n        /* \"@openzeppelin/contracts-upgradeable/security/PausableUpgradeable.sol\":2267:2308  require(paused(), \"Pausable: not paused\") */\n      tag_455\n      jumpi\n      mload(0x40)\n      0x08c379a000000000000000000000000000000000000000000000000000000000\n      dup2\n      mstore\n      0x04\n      add\n      tag_456\n      swap1\n      tag_457\n      jump\t// in\n    tag_456:\n      mload(0x40)\n      dup1\n      swap2\n      sub\n      swap1\n      revert\n    tag_455:\n        /* \"@openzeppelin/contracts-upgradeable/security/PausableUpgradeable.sol\":2209:2315  function _requirePaused() internal view virtual {... */\n      jump\t// out\n        /* \"@openzeppelin/contracts/proxy/ERC1967/ERC1967Utils.sol\":1441:1579  function getImplementation() internal view returns (address) {... */\n    tag_397:\n        /* \"@openzeppelin/contracts/proxy/ERC1967/ERC1967Utils.sol\":1493:1500  address */\n      0x00\n        /* \"@openzeppelin/contracts/proxy/ERC1967/ERC1967Utils.sol\":1519:1566  StorageSlot.getAddressSlot(IMPLEMENTATION_SLOT) */\n      tag_459\n        /* \"@openzeppelin/contracts/proxy/ERC1967/ERC1967Utils.sol\":811:877  0x360894a13ba1a3210667c828492db98dca3e2076cc3735a920a3ca505d382bbc */\n      0x360894a13ba1a3210667c828492db98dca3e2076cc3735a920a3ca505d382bbc\n        /* \"@openzeppelin/contracts/proxy/ERC1967/ERC1967Utils.sol\":1546:1565  IMPLEMENTATION_SLOT */\n      0x00\n      shl\n        /* \"@openzeppelin/contracts/proxy/ERC1967/ERC1967Utils.sol\":1519:1545  StorageSlot.getAddressSlot */\n      tag_460\n        /* \"@openzeppelin/contracts/proxy/ERC1967/ERC1967Utils.sol\":1519:1566  StorageSlot.getAddressSlot(IMPLEMENTATION_SLOT) */\n      jump\t// in\n    tag_459:\n        /* \"@openzeppelin/contracts/proxy/ERC1967/ERC1967Utils.sol\":1519:1572  StorageSlot.getAddressSlot(IMPLEMENTATION_SLOT).value */\n      0x00\n      add\n      0x00\n      swap1\n      sload\n      swap1\n      0x0100\n      exp\n      swap1\n      div\n      0xffffffffffffffffffffffffffffffffffffffff\n      and\n        /* \"@openzeppelin/contracts/proxy/ERC1967/ERC1967Utils.sol\":1512:1572  return StorageSlot.getAddressSlot(IMPLEMENTATION_SLOT).value */\n      swap1\n      pop\n        /* \"@openzeppelin/contracts/proxy/ERC1967/ERC1967Utils.sol\":1441:1579  function getImplementation() internal view returns (address) {... */\n      swap1\n      jump\t// out\n        /* \"@openzeppelin/contracts/proxy/ERC1967/ERC1967Utils.sol\":2264:2608  function upgradeToAndCall(address newImplementation, bytes memory data) internal {... */\n    tag_415:\n        /* \"@openzeppelin/contracts/proxy/ERC1967/ERC1967Utils.sol\":2355:2392  _setImplementation(newImplementation) */\n      tag_462\n        /* \"@openzeppelin/contracts/proxy/ERC1967/ERC1967Utils.sol\":2374:2391  newImplementation */\n      dup3\n        /* \"@openzeppelin/contracts/proxy/ERC1967/ERC1967Utils.sol\":2355:2373  _setImplementation */\n      tag_463\n        /* \"@openzeppelin/contracts/proxy/ERC1967/ERC1967Utils.sol\":2355:2392  _setImplementation(newImplementation) */\n      jump\t// in\n    tag_462:\n        /* \"@openzeppelin/contracts/proxy/ERC1967/ERC1967Utils.sol\":2425:2442  newImplementation */\n      dup2\n        /* \"@openzeppelin/contracts/proxy/ERC1967/ERC1967Utils.sol\":2407:2443  IERC1967.Upgraded(newImplementation) */\n      0xffffffffffffffffffffffffffffffffffffffff\n      and\n      0xbc7cd75a20ee27fd9adebab32041f755214dbc6bffa90cc0225b39da2e5c2d3b\n      mload(0x40)\n      mload(0x40)\n      dup1\n      swap2\n      sub\n      swap1\n      log2\n        /* \"@openzeppelin/contracts/proxy/ERC1967/ERC1967Utils.sol\":2472:2473  0 */\n      0x00\n        /* \"@openzeppelin/contracts/proxy/ERC1967/ERC1967Utils.sol\":2458:2462  data */\n      dup2\n        /* \"@openzeppelin/contracts/proxy/ERC1967/ERC1967Utils.sol\":2458:2469  data.length */\n      mload\n        /* \"@openzeppelin/contracts/proxy/ERC1967/ERC1967Utils.sol\":2458:2473  data.length > 0 */\n      gt\n        /* \"@openzeppelin/contracts/proxy/ERC1967/ERC1967Utils.sol\":2454:2602  if (data.length > 0) {... */\n      iszero\n      tag_464\n      jumpi\n        /* \"@openzeppelin/contracts/proxy/ERC1967/ERC1967Utils.sol\":2489:2542  Address.functionDelegateCall(newImplementation, data) */\n      tag_465\n        /* \"@openzeppelin/contracts/proxy/ERC1967/ERC1967Utils.sol\":2518:2535  newImplementation */\n      dup3\n        /* \"@openzeppelin/contracts/proxy/ERC1967/ERC1967Utils.sol\":2537:2541  data */\n      dup3\n        /* \"@openzeppelin/contracts/proxy/ERC1967/ERC1967Utils.sol\":2489:2517  Address.functionDelegateCall */\n      tag_466\n        /* \"@openzeppelin/contracts/proxy/ERC1967/ERC1967Utils.sol\":2489:2542  Address.functionDelegateCall(newImplementation, data) */\n      jump\t// in\n    tag_465:\n      pop\n        /* \"@openzeppelin/contracts/proxy/ERC1967/ERC1967Utils.sol\":2454:2602  if (data.length > 0) {... */\n      jump(tag_467)\n    tag_464:\n        /* \"@openzeppelin/contracts/proxy/ERC1967/ERC1967Utils.sol\":2573:2591  _checkNonPayable() */\n      tag_468\n        /* \"@openzeppelin/contracts/proxy/ERC1967/ERC1967Utils.sol\":2573:2589  _checkNonPayable */\n      tag_469\n        /* \"@openzeppelin/contracts/proxy/ERC1967/ERC1967Utils.sol\":2573:2591  _checkNonPayable() */\n      jump\t// in\n    tag_468:\n        /* \"@openzeppelin/contracts/proxy/ERC1967/ERC1967Utils.sol\":2454:2602  if (data.length > 0) {... */\n    tag_467:\n        /* \"@openzeppelin/contracts/proxy/ERC1967/ERC1967Utils.sol\":2264:2608  function upgradeToAndCall(address newImplementation, bytes memory data) internal {... */\n      pop\n      pop\n      jump\t// out\n        /* \"@openzeppelin/contracts-upgradeable/proxy/utils/Initializable.sol\":8819:8941  function _initializableStorageSlot() internal pure virtual returns (bytes32) {... */\n    tag_425:\n        /* \"@openzeppelin/contracts-upgradeable/proxy/utils/Initializable.sol\":8887:8894  bytes32 */\n      0x00\n        /* \"@openzeppelin/contracts-upgradeable/proxy/utils/Initializable.sol\":3147:3213  0xf0c57e16840df040f15088dc2f81fe391c3923bec73e23a9662efc9c229c6a00 */\n      0xf0c57e16840df040f15088dc2f81fe391c3923bec73e23a9662efc9c229c6a00\n        /* \"@openzeppelin/contracts-upgradeable/proxy/utils/Initializable.sol\":8913:8934  INITIALIZABLE_STORAGE */\n      0x00\n      shl\n        /* \"@openzeppelin/contracts-upgradeable/proxy/utils/Initializable.sol\":8906:8934  return INITIALIZABLE_STORAGE */\n      swap1\n      pop\n        /* \"@openzeppelin/contracts-upgradeable/proxy/utils/Initializable.sol\":8819:8941  function _initializableStorageSlot() internal pure virtual returns (bytes32) {... */\n      swap1\n      jump\t// out\n        /* \"@openzeppelin/contracts-upgradeable/proxy/utils/Initializable.sol\":7082:7223  function _checkInitializing() internal view virtual {... */\n    tag_428:\n        /* \"@openzeppelin/contracts-upgradeable/proxy/utils/Initializable.sol\":7149:7166  _isInitializing() */\n      tag_472\n        /* \"@openzeppelin/contracts-upgradeable/proxy/utils/Initializable.sol\":7149:7164  _isInitializing */\n      tag_473\n        /* \"@openzeppelin/contracts-upgradeable/proxy/utils/Initializable.sol\":7149:7166  _isInitializing() */\n      jump\t// in\n    tag_472:\n        /* \"@openzeppelin/contracts-upgradeable/proxy/utils/Initializable.sol\":7144:7217  if (!_isInitializing()) {... */\n      tag_474\n      jumpi\n        /* \"@openzeppelin/contracts-upgradeable/proxy/utils/Initializable.sol\":7189:7206  NotInitializing() */\n      mload(0x40)\n      0xd7e6bcf800000000000000000000000000000000000000000000000000000000\n      dup2\n      mstore\n      0x04\n      add\n      mload(0x40)\n      dup1\n      swap2\n      sub\n      swap1\n      revert\n        /* \"@openzeppelin/contracts-upgradeable/proxy/utils/Initializable.sol\":7144:7217  if (!_isInitializing()) {... */\n    tag_474:\n        /* \"@openzeppelin/contracts-upgradeable/proxy/utils/Initializable.sol\":7082:7223  function _checkInitializing() internal view virtual {... */\n      jump\t// out\n        /* \"@openzeppelin/contracts-upgradeable/security/PausableUpgradeable.sol\":1187:1282  function __Pausable_init_unchained() internal onlyInitializing {... */\n    tag_434:\n        /* \"@openzeppelin/contracts-upgradeable/proxy/utils/Initializable.sol\":6929:6949  _checkInitializing() */\n      tag_476\n        /* \"@openzeppelin/contracts-upgradeable/proxy/utils/Initializable.sol\":6929:6947  _checkInitializing */\n      tag_428\n        /* \"@openzeppelin/contracts-upgradeable/proxy/utils/Initializable.sol\":6929:6949  _checkInitializing() */\n      jump\t// in\n    tag_476:\n        /* \"@openzeppelin/contracts-upgradeable/security/PausableUpgradeable.sol\":1270:1275  false */\n      0x00\n        /* \"@openzeppelin/contracts-upgradeable/security/PausableUpgradeable.sol\":1260:1267  _paused */\n      0x00\n      0x00\n        /* \"@openzeppelin/contracts-upgradeable/security/PausableUpgradeable.sol\":1260:1275  _paused = false */\n      0x0100\n      exp\n      dup2\n      sload\n      dup2\n      0xff\n      mul\n      not\n      and\n      swap1\n      dup4\n      iszero\n      iszero\n      mul\n      or\n      swap1\n      sstore\n      pop\n        /* \"@openzeppelin/contracts-upgradeable/security/PausableUpgradeable.sol\":1187:1282  function __Pausable_init_unchained() internal onlyInitializing {... */\n      jump\t// out\n        /* \"@openzeppelin/contracts-upgradeable/security/ReentrancyGuardUpgradeable.sol\":2006:2115  function __ReentrancyGuard_init_unchained() internal onlyInitializing {... */\n    tag_439:\n        /* \"@openzeppelin/contracts-upgradeable/proxy/utils/Initializable.sol\":6929:6949  _checkInitializing() */\n      tag_479\n        /* \"@openzeppelin/contracts-upgradeable/proxy/utils/Initializable.sol\":6929:6947  _checkInitializing */\n      tag_428\n        /* \"@openzeppelin/contracts-upgradeable/proxy/utils/Initializable.sol\":6929:6949  _checkInitializing() */\n      jump\t// in\n    tag_479:\n        /* \"@openzeppelin/contracts-upgradeable/security/ReentrancyGuardUpgradeable.sol\":1808:1809  1 */\n      0x01\n        /* \"@openzeppelin/contracts-upgradeable/security/ReentrancyGuardUpgradeable.sol\":2086:2093  _status */\n      0x32\n        /* \"@openzeppelin/contracts-upgradeable/security/ReentrancyGuardUpgradeable.sol\":2086:2108  _status = _NOT_ENTERED */\n      dup2\n      swap1\n      sstore\n      pop\n        /* \"@openzeppelin/contracts-upgradeable/security/ReentrancyGuardUpgradeable.sol\":2006:2115  function __ReentrancyGuard_init_unchained() internal onlyInitializing {... */\n      jump\t// out\n        /* \"@openzeppelin/contracts/utils/StorageSlot.sol\":1899:2062  function getAddressSlot(bytes32 slot) internal pure returns (AddressSlot storage r) {... */\n    tag_460:\n        /* \"@openzeppelin/contracts/utils/StorageSlot.sol\":1960:1981  AddressSlot storage r */\n      0x00\n        /* \"@openzeppelin/contracts/utils/StorageSlot.sol\":2042:2046  slot */\n      dup2\n        /* \"@openzeppelin/contracts/utils/StorageSlot.sol\":2032:2046  r.slot := slot */\n      swap1\n      pop\n        /* \"@openzeppelin/contracts/utils/StorageSlot.sol\":1899:2062  function getAddressSlot(bytes32 slot) internal pure returns (AddressSlot storage r) {... */\n      swap2\n      swap1\n      pop\n      jump\t// out\n        /* \"@openzeppelin/contracts/proxy/ERC1967/ERC1967Utils.sol\":1671:1952  function _setImplementation(address newImplementation) private {... */\n    tag_463:\n        /* \"@openzeppelin/contracts/proxy/ERC1967/ERC1967Utils.sol\":1781:1782  0 */\n      0x00\n        /* \"@openzeppelin/contracts/proxy/ERC1967/ERC1967Utils.sol\":1748:1765  newImplementation */\n      dup2\n        /* \"@openzeppelin/contracts/proxy/ERC1967/ERC1967Utils.sol\":1748:1777  newImplementation.code.length */\n      0xffffffffffffffffffffffffffffffffffffffff\n      and\n      extcodesize\n        /* \"@openzeppelin/contracts/proxy/ERC1967/ERC1967Utils.sol\":1748:1782  newImplementation.code.length == 0 */\n      sub\n        /* \"@openzeppelin/contracts/proxy/ERC1967/ERC1967Utils.sol\":1744:1863  if (newImplementation.code.length == 0) {... */\n      tag_483\n      jumpi\n        /* \"@openzeppelin/contracts/proxy/ERC1967/ERC1967Utils.sol\":1834:1851  newImplementation */\n      dup1\n        /* \"@openzeppelin/contracts/proxy/ERC1967/ERC1967Utils.sol\":1805:1852  ERC1967InvalidImplementation(newImplementation) */\n      mload(0x40)\n      0x4c9c8ce300000000000000000000000000000000000000000000000000000000\n      dup2\n      mstore\n      0x04\n      add\n      tag_484\n      swap2\n      swap1\n      tag_184\n      jump\t// in\n    tag_484:\n      mload(0x40)\n      dup1\n      swap2\n      sub\n      swap1\n      revert\n        /* \"@openzeppelin/contracts/proxy/ERC1967/ERC1967Utils.sol\":1744:1863  if (newImplementation.code.length == 0) {... */\n    tag_483:\n        /* \"@openzeppelin/contracts/proxy/ERC1967/ERC1967Utils.sol\":1928:1945  newImplementation */\n      dup1\n        /* \"@openzeppelin/contracts/proxy/ERC1967/ERC1967Utils.sol\":1872:1919  StorageSlot.getAddressSlot(IMPLEMENTATION_SLOT) */\n      tag_485\n        /* \"@openzeppelin/contracts/proxy/ERC1967/ERC1967Utils.sol\":811:877  0x360894a13ba1a3210667c828492db98dca3e2076cc3735a920a3ca505d382bbc */\n      0x360894a13ba1a3210667c828492db98dca3e2076cc3735a920a3ca505d382bbc\n        /* \"@openzeppelin/contracts/proxy/ERC1967/ERC1967Utils.sol\":1899:1918  IMPLEMENTATION_SLOT */\n      0x00\n      shl\n        /* \"@openzeppelin/contracts/proxy/ERC1967/ERC1967Utils.sol\":1872:1898  StorageSlot.getAddressSlot */\n      tag_460\n        /* \"@openzeppelin/contracts/proxy/ERC1967/ERC1967Utils.sol\":1872:1919  StorageSlot.getAddressSlot(IMPLEMENTATION_SLOT) */\n      jump\t// in\n    tag_485:\n        /* \"@openzeppelin/contracts/proxy/ERC1967/ERC1967Utils.sol\":1872:1925  StorageSlot.getAddressSlot(IMPLEMENTATION_SLOT).value */\n      0x00\n      add\n      0x00\n        /* \"@openzeppelin/contracts/proxy/ERC1967/ERC1967Utils.sol\":1872:1945  StorageSlot.getAddressSlot(IMPLEMENTATION_SLOT).value = newImplementation */\n      0x0100\n      exp\n      dup2\n      sload\n      dup2\n      0xffffffffffffffffffffffffffffffffffffffff\n      mul\n      not\n      and\n      swap1\n      dup4\n      0xffffffffffffffffffffffffffffffffffffffff\n      and\n      mul\n      or\n      swap1\n      sstore\n      pop\n        /* \"@openzeppelin/contracts/proxy/ERC1967/ERC1967Utils.sol\":1671:1952  function _setImplementation(address newImplementation) private {... */\n      pop\n      jump\t// out\n        /* \"@openzeppelin/contracts/utils/Address.sol\":3916:4169  function functionDelegateCall(address target, bytes memory data) internal returns (bytes memory) {... */\n    tag_466:\n        /* \"@openzeppelin/contracts/utils/Address.sol\":3999:4011  bytes memory */\n      0x60\n        /* \"@openzeppelin/contracts/utils/Address.sol\":4024:4036  bool success */\n      0x00\n        /* \"@openzeppelin/contracts/utils/Address.sol\":4038:4061  bytes memory returndata */\n      0x00\n        /* \"@openzeppelin/contracts/utils/Address.sol\":4065:4071  target */\n      dup5\n        /* \"@openzeppelin/contracts/utils/Address.sol\":4065:4084  target.delegatecall */\n      0xffffffffffffffffffffffffffffffffffffffff\n      and\n        /* \"@openzeppelin/contracts/utils/Address.sol\":4085:4089  data */\n      dup5\n        /* \"@openzeppelin/contracts/utils/Address.sol\":4065:4090  target.delegatecall(data) */\n      mload(0x40)\n      tag_487\n      swap2\n      swap1\n      tag_488\n      jump\t// in\n    tag_487:\n      0x00\n      mload(0x40)\n      dup1\n      dup4\n      sub\n      dup2\n      dup6\n      gas\n      delegatecall\n      swap2\n      pop\n      pop\n      returndatasize\n      dup1\n      0x00\n      dup2\n      eq\n      tag_491\n      jumpi\n      mload(0x40)\n      swap2\n      pop\n      and(add(returndatasize, 0x3f), not(0x1f))\n      dup3\n      add\n      0x40\n      mstore\n      returndatasize\n      dup3\n      mstore\n      returndatasize\n      0x00\n      0x20\n      dup5\n      add\n      returndatacopy\n      jump(tag_490)\n    tag_491:\n      0x60\n      swap2\n      pop\n    tag_490:\n      pop\n        /* \"@openzeppelin/contracts/utils/Address.sol\":4023:4090  (bool success, bytes memory returndata) = target.delegatecall(data) */\n      swap2\n      pop\n      swap2\n      pop\n        /* \"@openzeppelin/contracts/utils/Address.sol\":4107:4162  verifyCallResultFromTarget(target, success, returndata) */\n      tag_492\n        /* \"@openzeppelin/contracts/utils/Address.sol\":4134:4140  target */\n      dup6\n        /* \"@openzeppelin/contracts/utils/Address.sol\":4142:4149  success */\n      dup4\n        /* \"@openzeppelin/contracts/utils/Address.sol\":4151:4161  returndata */\n      dup4\n        /* \"@openzeppelin/contracts/utils/Address.sol\":4107:4133  verifyCallResultFromTarget */\n      tag_493\n        /* \"@openzeppelin/contracts/utils/Address.sol\":4107:4162  verifyCallResultFromTarget(target, success, returndata) */\n      jump\t// in\n    tag_492:\n        /* \"@openzeppelin/contracts/utils/Address.sol\":4100:4162  return verifyCallResultFromTarget(target, success, returndata) */\n      swap3\n      pop\n      pop\n      pop\n        /* \"@openzeppelin/contracts/utils/Address.sol\":3916:4169  function functionDelegateCall(address target, bytes memory data) internal returns (bytes memory) {... */\n      swap3\n      swap2\n      pop\n      pop\n      jump\t// out\n        /* \"@openzeppelin/contracts/proxy/ERC1967/ERC1967Utils.sol\":6113:6235  function _checkNonPayable() private {... */\n    tag_469:\n        /* \"@openzeppelin/contracts/proxy/ERC1967/ERC1967Utils.sol\":6175:6176  0 */\n      0x00\n        /* \"@openzeppelin/contracts/proxy/ERC1967/ERC1967Utils.sol\":6163:6172  msg.value */\n      callvalue\n        /* \"@openzeppelin/contracts/proxy/ERC1967/ERC1967Utils.sol\":6163:6176  msg.value > 0 */\n      gt\n        /* \"@openzeppelin/contracts/proxy/ERC1967/ERC1967Utils.sol\":6159:6229  if (msg.value > 0) {... */\n      iszero\n      tag_495\n      jumpi\n        /* \"@openzeppelin/contracts/proxy/ERC1967/ERC1967Utils.sol\":6199:6218  ERC1967NonPayable() */\n      mload(0x40)\n      0xb398979f00000000000000000000000000000000000000000000000000000000\n      dup2\n      mstore\n      0x04\n      add\n      mload(0x40)\n      dup1\n      swap2\n      sub\n      swap1\n      revert\n        /* \"@openzeppelin/contracts/proxy/ERC1967/ERC1967Utils.sol\":6159:6229  if (msg.value > 0) {... */\n    tag_495:\n        /* \"@openzeppelin/contracts/proxy/ERC1967/ERC1967Utils.sol\":6113:6235  function _checkNonPayable() private {... */\n      jump\t// out\n        /* \"@openzeppelin/contracts-upgradeable/proxy/utils/Initializable.sol\":8485:8605  function _isInitializing() internal view returns (bool) {... */\n    tag_473:\n        /* \"@openzeppelin/contracts-upgradeable/proxy/utils/Initializable.sol\":8535:8539  bool */\n      0x00\n        /* \"@openzeppelin/contracts-upgradeable/proxy/utils/Initializable.sol\":8558:8584  _getInitializableStorage() */\n      tag_497\n        /* \"@openzeppelin/contracts-upgradeable/proxy/utils/Initializable.sol\":8558:8582  _getInitializableStorage */\n      tag_287\n        /* \"@openzeppelin/contracts-upgradeable/proxy/utils/Initializable.sol\":8558:8584  _getInitializableStorage() */\n      jump\t// in\n    tag_497:\n        /* \"@openzeppelin/contracts-upgradeable/proxy/utils/Initializable.sol\":8558:8598  _getInitializableStorage()._initializing */\n      0x00\n      add\n      0x08\n      swap1\n      sload\n      swap1\n      0x0100\n      exp\n      swap1\n      div\n      0xff\n      and\n        /* \"@openzeppelin/contracts-upgradeable/proxy/utils/Initializable.sol\":8551:8598  return _getInitializableStorage()._initializing */\n      swap1\n      pop\n        /* \"@openzeppelin/contracts-upgradeable/proxy/utils/Initializable.sol\":8485:8605  function _isInitializing() internal view returns (bool) {... */\n      swap1\n      jump\t// out\n        /* \"@openzeppelin/contracts/utils/Address.sol\":4437:5019  function verifyCallResultFromTarget(... */\n    tag_493:\n        /* \"@openzeppelin/contracts/utils/Address.sol\":4581:4593  bytes memory */\n      0x60\n        /* \"@openzeppelin/contracts/utils/Address.sol\":4610:4617  success */\n      dup3\n        /* \"@openzeppelin/contracts/utils/Address.sol\":4605:5013  if (!success) {... */\n      tag_499\n      jumpi\n        /* \"@openzeppelin/contracts/utils/Address.sol\":4633:4652  _revert(returndata) */\n      tag_500\n        /* \"@openzeppelin/contracts/utils/Address.sol\":4641:4651  returndata */\n      dup3\n        /* \"@openzeppelin/contracts/utils/Address.sol\":4633:4640  _revert */\n      tag_501\n        /* \"@openzeppelin/contracts/utils/Address.sol\":4633:4652  _revert(returndata) */\n      jump\t// in\n    tag_500:\n        /* \"@openzeppelin/contracts/utils/Address.sol\":4605:5013  if (!success) {... */\n      jump(tag_502)\n    tag_499:\n        /* \"@openzeppelin/contracts/utils/Address.sol\":4878:4879  0 */\n      0x00\n        /* \"@openzeppelin/contracts/utils/Address.sol\":4857:4867  returndata */\n      dup3\n        /* \"@openzeppelin/contracts/utils/Address.sol\":4857:4874  returndata.length */\n      mload\n        /* \"@openzeppelin/contracts/utils/Address.sol\":4857:4879  returndata.length == 0 */\n      eq\n        /* \"@openzeppelin/contracts/utils/Address.sol\":4857:4906  returndata.length == 0 && target.code.length == 0 */\n      dup1\n      iszero\n      tag_503\n      jumpi\n      pop\n        /* \"@openzeppelin/contracts/utils/Address.sol\":4905:4906  0 */\n      0x00\n        /* \"@openzeppelin/contracts/utils/Address.sol\":4883:4889  target */\n      dup5\n        /* \"@openzeppelin/contracts/utils/Address.sol\":4883:4901  target.code.length */\n      0xffffffffffffffffffffffffffffffffffffffff\n      and\n      extcodesize\n        /* \"@openzeppelin/contracts/utils/Address.sol\":4883:4906  target.code.length == 0 */\n      eq\n        /* \"@openzeppelin/contracts/utils/Address.sol\":4857:4906  returndata.length == 0 && target.code.length == 0 */\n    tag_503:\n        /* \"@openzeppelin/contracts/utils/Address.sol\":4853:4972  if (returndata.length == 0 && target.code.length == 0) {... */\n      iszero\n      tag_504\n      jumpi\n        /* \"@openzeppelin/contracts/utils/Address.sol\":4950:4956  target */\n      dup4\n        /* \"@openzeppelin/contracts/utils/Address.sol\":4933:4957  AddressEmptyCode(target) */\n      mload(0x40)\n      0x9996b31500000000000000000000000000000000000000000000000000000000\n      dup2\n      mstore\n      0x04\n      add\n      tag_505\n      swap2\n      swap1\n      tag_184\n      jump\t// in\n    tag_505:\n      mload(0x40)\n      dup1\n      swap2\n      sub\n      swap1\n      revert\n        /* \"@openzeppelin/contracts/utils/Address.sol\":4853:4972  if (returndata.length == 0 && target.code.length == 0) {... */\n    tag_504:\n        /* \"@openzeppelin/contracts/utils/Address.sol\":4992:5002  returndata */\n      dup2\n        /* \"@openzeppelin/contracts/utils/Address.sol\":4985:5002  return returndata */\n      swap1\n      pop\n      jump(tag_498)\n        /* \"@openzeppelin/contracts/utils/Address.sol\":4605:5013  if (!success) {... */\n    tag_502:\n        /* \"@openzeppelin/contracts/utils/Address.sol\":4437:5019  function verifyCallResultFromTarget(... */\n    tag_498:\n      swap4\n      swap3\n      pop\n      pop\n      pop\n      jump\t// out\n        /* \"@openzeppelin/contracts/utils/Address.sol\":5559:5993  function _revert(bytes memory returndata) private pure {... */\n    tag_501:\n        /* \"@openzeppelin/contracts/utils/Address.sol\":5710:5711  0 */\n      0x00\n        /* \"@openzeppelin/contracts/utils/Address.sol\":5690:5700  returndata */\n      dup2\n        /* \"@openzeppelin/contracts/utils/Address.sol\":5690:5707  returndata.length */\n      mload\n        /* \"@openzeppelin/contracts/utils/Address.sol\":5690:5711  returndata.length > 0 */\n      gt\n        /* \"@openzeppelin/contracts/utils/Address.sol\":5686:5987  if (returndata.length > 0) {... */\n      iszero\n      tag_507\n      jumpi\n        /* \"@openzeppelin/contracts/utils/Address.sol\":5894:5904  returndata */\n      dup1\n        /* \"@openzeppelin/contracts/utils/Address.sol\":5888:5905  mload(returndata) */\n      mload\n        /* \"@openzeppelin/contracts/utils/Address.sol\":5881:5885  0x20 */\n      0x20\n        /* \"@openzeppelin/contracts/utils/Address.sol\":5869:5879  returndata */\n      dup3\n        /* \"@openzeppelin/contracts/utils/Address.sol\":5865:5886  add(returndata, 0x20) */\n      add\n        /* \"@openzeppelin/contracts/utils/Address.sol\":5858:5906  revert(add(returndata, 0x20), mload(returndata)) */\n      revert\n        /* \"@openzeppelin/contracts/utils/Address.sol\":5686:5987  if (returndata.length > 0) {... */\n    tag_507:\n        /* \"@openzeppelin/contracts/utils/Address.sol\":5957:5976  Errors.FailedCall() */\n      mload(0x40)\n      0xd6bda27500000000000000000000000000000000000000000000000000000000\n      dup2\n      mstore\n      0x04\n      add\n      mload(0x40)\n      dup1\n      swap2\n      sub\n      swap1\n      revert\n        /* \"#utility.yul\":7:84   */\n    tag_509:\n        /* \"#utility.yul\":44:51   */\n      0x00\n        /* \"#utility.yul\":73:78   */\n      dup2\n        /* \"#utility.yul\":62:78   */\n      swap1\n      pop\n        /* \"#utility.yul\":7:84   */\n      swap2\n      swap1\n      pop\n      jump\t// out\n        /* \"#utility.yul\":90:270   */\n    tag_510:\n        /* \"#utility.yul\":138:215   */\n      0x4e487b7100000000000000000000000000000000000000000000000000000000\n        /* \"#utility.yul\":135:136   */\n      0x00\n        /* \"#utility.yul\":128:216   */\n      mstore\n        /* \"#utility.yul\":235:239   */\n      0x11\n        /* \"#utility.yul\":232:233   */\n      0x04\n        /* \"#utility.yul\":225:240   */\n      mstore\n        /* \"#utility.yul\":259:263   */\n      0x24\n        /* \"#utility.yul\":256:257   */\n      0x00\n        /* \"#utility.yul\":249:264   */\n      revert\n        /* \"#utility.yul\":276:467   */\n    tag_42:\n        /* \"#utility.yul\":316:319   */\n      0x00\n        /* \"#utility.yul\":335:355   */\n      tag_568\n        /* \"#utility.yul\":353:354   */\n      dup3\n        /* \"#utility.yul\":335:355   */\n      tag_509\n      jump\t// in\n    tag_568:\n        /* \"#utility.yul\":330:355   */\n      swap2\n      pop\n        /* \"#utility.yul\":369:389   */\n      tag_569\n        /* \"#utility.yul\":387:388   */\n      dup4\n        /* \"#utility.yul\":369:389   */\n      tag_509\n      jump\t// in\n    tag_569:\n        /* \"#utility.yul\":364:389   */\n      swap3\n      pop\n        /* \"#utility.yul\":412:413   */\n      dup3\n        /* \"#utility.yul\":409:410   */\n      dup3\n        /* \"#utility.yul\":405:414   */\n      add\n        /* \"#utility.yul\":398:414   */\n      swap1\n      pop\n        /* \"#utility.yul\":433:436   */\n      dup1\n        /* \"#utility.yul\":430:431   */\n      dup3\n        /* \"#utility.yul\":427:437   */\n      gt\n        /* \"#utility.yul\":424:460   */\n      iszero\n      tag_570\n      jumpi\n        /* \"#utility.yul\":440:458   */\n      tag_571\n      tag_510\n      jump\t// in\n    tag_571:\n        /* \"#utility.yul\":424:460   */\n    tag_570:\n        /* \"#utility.yul\":276:467   */\n      swap3\n      swap2\n      pop\n      pop\n      jump\t// out\n        /* \"#utility.yul\":473:591   */\n    tag_511:\n        /* \"#utility.yul\":560:584   */\n      tag_573\n        /* \"#utility.yul\":578:583   */\n      dup2\n        /* \"#utility.yul\":560:584   */\n      tag_509\n      jump\t// in\n    tag_573:\n        /* \"#utility.yul\":555:558   */\n      dup3\n        /* \"#utility.yul\":548:585   */\n      mstore\n        /* \"#utility.yul\":473:591   */\n      pop\n      pop\n      jump\t// out\n        /* \"#utility.yul\":597:819   */\n    tag_44:\n        /* \"#utility.yul\":690:694   */\n      0x00\n        /* \"#utility.yul\":728:730   */\n      0x20\n        /* \"#utility.yul\":717:726   */\n      dup3\n        /* \"#utility.yul\":713:731   */\n      add\n        /* \"#utility.yul\":705:731   */\n      swap1\n      pop\n        /* \"#utility.yul\":741:812   */\n      tag_575\n        /* \"#utility.yul\":809:810   */\n      0x00\n        /* \"#utility.yul\":798:807   */\n      dup4\n        /* \"#utility.yul\":794:811   */\n      add\n        /* \"#utility.yul\":785:791   */\n      dup5\n        /* \"#utility.yul\":741:812   */\n      tag_511\n      jump\t// in\n    tag_575:\n        /* \"#utility.yul\":597:819   */\n      swap3\n      swap2\n      pop\n      pop\n      jump\t// out\n        /* \"#utility.yul\":825:900   */\n    tag_512:\n        /* \"#utility.yul\":858:864   */\n      0x00\n        /* \"#utility.yul\":891:893   */\n      0x40\n        /* \"#utility.yul\":885:894   */\n      mload\n        /* \"#utility.yul\":875:894   */\n      swap1\n      pop\n        /* \"#utility.yul\":825:900   */\n      swap1\n      jump\t// out\n        /* \"#utility.yul\":906:1023   */\n    tag_513:\n        /* \"#utility.yul\":1015:1016   */\n      0x00\n        /* \"#utility.yul\":1012:1013   */\n      0x00\n        /* \"#utility.yul\":1005:1017   */\n      revert\n        /* \"#utility.yul\":1029:1146   */\n    tag_514:\n        /* \"#utility.yul\":1138:1139   */\n      0x00\n        /* \"#utility.yul\":1135:1136   */\n      0x00\n        /* \"#utility.yul\":1128:1140   */\n      revert\n        /* \"#utility.yul\":1152:1301   */\n    tag_515:\n        /* \"#utility.yul\":1188:1195   */\n      0x00\n        /* \"#utility.yul\":1228:1294   */\n      0xffffffff00000000000000000000000000000000000000000000000000000000\n        /* \"#utility.yul\":1221:1226   */\n      dup3\n        /* \"#utility.yul\":1217:1295   */\n      and\n        /* \"#utility.yul\":1206:1295   */\n      swap1\n      pop\n        /* \"#utility.yul\":1152:1301   */\n      swap2\n      swap1\n      pop\n      jump\t// out\n        /* \"#utility.yul\":1307:1427   */\n    tag_516:\n        /* \"#utility.yul\":1379:1402   */\n      tag_581\n        /* \"#utility.yul\":1396:1401   */\n      dup2\n        /* \"#utility.yul\":1379:1402   */\n      tag_515\n      jump\t// in\n    tag_581:\n        /* \"#utility.yul\":1372:1377   */\n      dup2\n        /* \"#utility.yul\":1369:1403   */\n      eq\n        /* \"#utility.yul\":1359:1421   */\n      tag_582\n      jumpi\n        /* \"#utility.yul\":1417:1418   */\n      0x00\n        /* \"#utility.yul\":1414:1415   */\n      0x00\n        /* \"#utility.yul\":1407:1419   */\n      revert\n        /* \"#utility.yul\":1359:1421   */\n    tag_582:\n        /* \"#utility.yul\":1307:1427   */\n      pop\n      jump\t// out\n        /* \"#utility.yul\":1433:1570   */\n    tag_517:\n        /* \"#utility.yul\":1478:1483   */\n      0x00\n        /* \"#utility.yul\":1516:1522   */\n      dup2\n        /* \"#utility.yul\":1503:1523   */\n      calldataload\n        /* \"#utility.yul\":1494:1523   */\n      swap1\n      pop\n        /* \"#utility.yul\":1532:1564   */\n      tag_584\n        /* \"#utility.yul\":1558:1563   */\n      dup2\n        /* \"#utility.yul\":1532:1564   */\n      tag_516\n      jump\t// in\n    tag_584:\n        /* \"#utility.yul\":1433:1570   */\n      swap3\n      swap2\n      pop\n      pop\n      jump\t// out\n        /* \"#utility.yul\":1576:1903   */\n    tag_48:\n        /* \"#utility.yul\":1634:1640   */\n      0x00\n        /* \"#utility.yul\":1683:1685   */\n      0x20\n        /* \"#utility.yul\":1671:1680   */\n      dup3\n        /* \"#utility.yul\":1662:1669   */\n      dup5\n        /* \"#utility.yul\":1658:1681   */\n      sub\n        /* \"#utility.yul\":1654:1686   */\n      slt\n        /* \"#utility.yul\":1651:1770   */\n      iszero\n      tag_586\n      jumpi\n        /* \"#utility.yul\":1689:1768   */\n      tag_587\n      tag_513\n      jump\t// in\n    tag_587:\n        /* \"#utility.yul\":1651:1770   */\n    tag_586:\n        /* \"#utility.yul\":1809:1810   */\n      0x00\n        /* \"#utility.yul\":1834:1886   */\n      tag_588\n        /* \"#utility.yul\":1878:1885   */\n      dup5\n        /* \"#utility.yul\":1869:1875   */\n      dup3\n        /* \"#utility.yul\":1858:1867   */\n      dup6\n        /* \"#utility.yul\":1854:1876   */\n      add\n        /* \"#utility.yul\":1834:1886   */\n      tag_517\n      jump\t// in\n    tag_588:\n        /* \"#utility.yul\":1824:1886   */\n      swap2\n      pop\n        /* \"#utility.yul\":1780:1896   */\n      pop\n        /* \"#utility.yul\":1576:1903   */\n      swap3\n      swap2\n      pop\n      pop\n      jump\t// out\n        /* \"#utility.yul\":1909:1999   */\n    tag_518:\n        /* \"#utility.yul\":1943:1950   */\n      0x00\n        /* \"#utility.yul\":1986:1991   */\n      dup2\n        /* \"#utility.yul\":1979:1992   */\n      iszero\n        /* \"#utility.yul\":1972:1993   */\n      iszero\n        /* \"#utility.yul\":1961:1993   */\n      swap1\n      pop\n        /* \"#utility.yul\":1909:1999   */\n      swap2\n      swap1\n      pop\n      jump\t// out\n        /* \"#utility.yul\":2005:2114   */\n    tag_519:\n        /* \"#utility.yul\":2086:2107   */\n      tag_591\n        /* \"#utility.yul\":2101:2106   */\n      dup2\n        /* \"#utility.yul\":2086:2107   */\n      tag_518\n      jump\t// in\n    tag_591:\n        /* \"#utility.yul\":2081:2084   */\n      dup3\n        /* \"#utility.yul\":2074:2108   */\n      mstore\n        /* \"#utility.yul\":2005:2114   */\n      pop\n      pop\n      jump\t// out\n        /* \"#utility.yul\":2120:2330   */\n    tag_51:\n        /* \"#utility.yul\":2207:2211   */\n      0x00\n        /* \"#utility.yul\":2245:2247   */\n      0x20\n        /* \"#utility.yul\":2234:2243   */\n      dup3\n        /* \"#utility.yul\":2230:2248   */\n      add\n        /* \"#utility.yul\":2222:2248   */\n      swap1\n      pop\n        /* \"#utility.yul\":2258:2323   */\n      tag_593\n        /* \"#utility.yul\":2320:2321   */\n      0x00\n        /* \"#utility.yul\":2309:2318   */\n      dup4\n        /* \"#utility.yul\":2305:2322   */\n      add\n        /* \"#utility.yul\":2296:2302   */\n      dup5\n        /* \"#utility.yul\":2258:2323   */\n      tag_519\n      jump\t// in\n    tag_593:\n        /* \"#utility.yul\":2120:2330   */\n      swap3\n      swap2\n      pop\n      pop\n      jump\t// out\n        /* \"#utility.yul\":2336:2458   */\n    tag_520:\n        /* \"#utility.yul\":2409:2433   */\n      tag_595\n        /* \"#utility.yul\":2427:2432   */\n      dup2\n        /* \"#utility.yul\":2409:2433   */\n      tag_509\n      jump\t// in\n    tag_595:\n        /* \"#utility.yul\":2402:2407   */\n      dup2\n        /* \"#utility.yul\":2399:2434   */\n      eq\n        /* \"#utility.yul\":2389:2452   */\n      tag_596\n      jumpi\n        /* \"#utility.yul\":2448:2449   */\n      0x00\n        /* \"#utility.yul\":2445:2446   */\n      0x00\n        /* \"#utility.yul\":2438:2450   */\n      revert\n        /* \"#utility.yul\":2389:2452   */\n    tag_596:\n        /* \"#utility.yul\":2336:2458   */\n      pop\n      jump\t// out\n        /* \"#utility.yul\":2464:2603   */\n    tag_521:\n        /* \"#utility.yul\":2510:2515   */\n      0x00\n        /* \"#utility.yul\":2548:2554   */\n      dup2\n        /* \"#utility.yul\":2535:2555   */\n      calldataload\n        /* \"#utility.yul\":2526:2555   */\n      swap1\n      pop\n        /* \"#utility.yul\":2564:2597   */\n      tag_598\n        /* \"#utility.yul\":2591:2596   */\n      dup2\n        /* \"#utility.yul\":2564:2597   */\n      tag_520\n      jump\t// in\n    tag_598:\n        /* \"#utility.yul\":2464:2603   */\n      swap3\n      swap2\n      pop\n      pop\n      jump\t// out\n        /* \"#utility.yul\":2609:2938   */\n    tag_59:\n        /* \"#utility.yul\":2668:2674   */\n      0x00\n        /* \"#utility.yul\":2717:2719   */\n      0x20\n        /* \"#utility.yul\":2705:2714   */\n      dup3\n        /* \"#utility.yul\":2696:2703   */\n      dup5\n        /* \"#utility.yul\":2692:2715   */\n      sub\n        /* \"#utility.yul\":2688:2720   */\n      slt\n        /* \"#utility.yul\":2685:2804   */\n      iszero\n      tag_600\n      jumpi\n        /* \"#utility.yul\":2723:2802   */\n      tag_601\n      tag_513\n      jump\t// in\n    tag_601:\n        /* \"#utility.yul\":2685:2804   */\n    tag_600:\n        /* \"#utility.yul\":2843:2844   */\n      0x00\n        /* \"#utility.yul\":2868:2921   */\n      tag_602\n        /* \"#utility.yul\":2913:2920   */\n      dup5\n        /* \"#utility.yul\":2904:2910   */\n      dup3\n        /* \"#utility.yul\":2893:2902   */\n      dup6\n        /* \"#utility.yul\":2889:2911   */\n      add\n        /* \"#utility.yul\":2868:2921   */\n      tag_521\n      jump\t// in\n    tag_602:\n        /* \"#utility.yul\":2858:2921   */\n      swap2\n      pop\n        /* \"#utility.yul\":2814:2931   */\n      pop\n        /* \"#utility.yul\":2609:2938   */\n      swap3\n      swap2\n      pop\n      pop\n      jump\t// out\n        /* \"#utility.yul\":2944:3021   */\n    tag_522:\n        /* \"#utility.yul\":2981:2988   */\n      0x00\n        /* \"#utility.yul\":3010:3015   */\n      dup2\n        /* \"#utility.yul\":2999:3015   */\n      swap1\n      pop\n        /* \"#utility.yul\":2944:3021   */\n      swap2\n      swap1\n      pop\n      jump\t// out\n        /* \"#utility.yul\":3027:3149   */\n    tag_523:\n        /* \"#utility.yul\":3100:3124   */\n      tag_605\n        /* \"#utility.yul\":3118:3123   */\n      dup2\n        /* \"#utility.yul\":3100:3124   */\n      tag_522\n      jump\t// in\n    tag_605:\n        /* \"#utility.yul\":3093:3098   */\n      dup2\n        /* \"#utility.yul\":3090:3125   */\n      eq\n        /* \"#utility.yul\":3080:3143   */\n      tag_606\n      jumpi\n        /* \"#utility.yul\":3139:3140   */\n      0x00\n        /* \"#utility.yul\":3136:3137   */\n      0x00\n        /* \"#utility.yul\":3129:3141   */\n      revert\n        /* \"#utility.yul\":3080:3143   */\n    tag_606:\n        /* \"#utility.yul\":3027:3149   */\n      pop\n      jump\t// out\n        /* \"#utility.yul\":3155:3294   */\n    tag_524:\n        /* \"#utility.yul\":3201:3206   */\n      0x00\n        /* \"#utility.yul\":3239:3245   */\n      dup2\n        /* \"#utility.yul\":3226:3246   */\n      calldataload\n        /* \"#utility.yul\":3217:3246   */\n      swap1\n      pop\n        /* \"#utility.yul\":3255:3288   */\n      tag_608\n        /* \"#utility.yul\":3282:3287   */\n      dup2\n        /* \"#utility.yul\":3255:3288   */\n      tag_523\n      jump\t// in\n    tag_608:\n        /* \"#utility.yul\":3155:3294   */\n      swap3\n      swap2\n      pop\n      pop\n      jump\t// out\n        /* \"#utility.yul\":3300:3629   */\n    tag_64:\n        /* \"#utility.yul\":3359:3365   */\n      0x00\n        /* \"#utility.yul\":3408:3410   */\n      0x20\n        /* \"#utility.yul\":3396:3405   */\n      dup3\n        /* \"#utility.yul\":3387:3394   */\n      dup5\n        /* \"#utility.yul\":3383:3406   */\n      sub\n        /* \"#utility.yul\":3379:3411   */\n      slt\n        /* \"#utility.yul\":3376:3495   */\n      iszero\n      tag_610\n      jumpi\n        /* \"#utility.yul\":3414:3493   */\n      tag_611\n      tag_513\n      jump\t// in\n    tag_611:\n        /* \"#utility.yul\":3376:3495   */\n    tag_610:\n        /* \"#utility.yul\":3534:3535   */\n      0x00\n        /* \"#utility.yul\":3559:3612   */\n      tag_612\n        /* \"#utility.yul\":3604:3611   */\n      dup5\n        /* \"#utility.yul\":3595:3601   */\n      dup3\n        /* \"#utility.yul\":3584:3593   */\n      dup6\n        /* \"#utility.yul\":3580:3602   */\n      add\n        /* \"#utility.yul\":3559:3612   */\n      tag_524\n      jump\t// in\n    tag_612:\n        /* \"#utility.yul\":3549:3612   */\n      swap2\n      pop\n        /* \"#utility.yul\":3505:3622   */\n      pop\n        /* \"#utility.yul\":3300:3629   */\n      swap3\n      swap2\n      pop\n      pop\n      jump\t// out\n        /* \"#utility.yul\":3635:3753   */\n    tag_525:\n        /* \"#utility.yul\":3722:3746   */\n      tag_614\n        /* \"#utility.yul\":3740:3745   */\n      dup2\n        /* \"#utility.yul\":3722:3746   */\n      tag_522\n      jump\t// in\n    tag_614:\n        /* \"#utility.yul\":3717:3720   */\n      dup3\n        /* \"#utility.yul\":3710:3747   */\n      mstore\n        /* \"#utility.yul\":3635:3753   */\n      pop\n      pop\n      jump\t// out\n        /* \"#utility.yul\":3759:3981   */\n    tag_67:\n        /* \"#utility.yul\":3852:3856   */\n      0x00\n        /* \"#utility.yul\":3890:3892   */\n      0x20\n        /* \"#utility.yul\":3879:3888   */\n      dup3\n        /* \"#utility.yul\":3875:3893   */\n      add\n        /* \"#utility.yul\":3867:3893   */\n      swap1\n      pop\n        /* \"#utility.yul\":3903:3974   */\n      tag_616\n        /* \"#utility.yul\":3971:3972   */\n      0x00\n        /* \"#utility.yul\":3960:3969   */\n      dup4\n        /* \"#utility.yul\":3956:3973   */\n      add\n        /* \"#utility.yul\":3947:3953   */\n      dup5\n        /* \"#utility.yul\":3903:3974   */\n      tag_525\n      jump\t// in\n    tag_616:\n        /* \"#utility.yul\":3759:3981   */\n      swap3\n      swap2\n      pop\n      pop\n      jump\t// out\n        /* \"#utility.yul\":3987:4113   */\n    tag_526:\n        /* \"#utility.yul\":4024:4031   */\n      0x00\n        /* \"#utility.yul\":4064:4106   */\n      0xffffffffffffffffffffffffffffffffffffffff\n        /* \"#utility.yul\":4057:4062   */\n      dup3\n        /* \"#utility.yul\":4053:4107   */\n      and\n        /* \"#utility.yul\":4042:4107   */\n      swap1\n      pop\n        /* \"#utility.yul\":3987:4113   */\n      swap2\n      swap1\n      pop\n      jump\t// out\n        /* \"#utility.yul\":4119:4215   */\n    tag_527:\n        /* \"#utility.yul\":4156:4163   */\n      0x00\n        /* \"#utility.yul\":4185:4209   */\n      tag_619\n        /* \"#utility.yul\":4203:4208   */\n      dup3\n        /* \"#utility.yul\":4185:4209   */\n      tag_526\n      jump\t// in\n    tag_619:\n        /* \"#utility.yul\":4174:4209   */\n      swap1\n      pop\n        /* \"#utility.yul\":4119:4215   */\n      swap2\n      swap1\n      pop\n      jump\t// out\n        /* \"#utility.yul\":4221:4343   */\n    tag_528:\n        /* \"#utility.yul\":4294:4318   */\n      tag_621\n        /* \"#utility.yul\":4312:4317   */\n      dup2\n        /* \"#utility.yul\":4294:4318   */\n      tag_527\n      jump\t// in\n    tag_621:\n        /* \"#utility.yul\":4287:4292   */\n      dup2\n        /* \"#utility.yul\":4284:4319   */\n      eq\n        /* \"#utility.yul\":4274:4337   */\n      tag_622\n      jumpi\n        /* \"#utility.yul\":4333:4334   */\n      0x00\n        /* \"#utility.yul\":4330:4331   */\n      0x00\n        /* \"#utility.yul\":4323:4335   */\n      revert\n        /* \"#utility.yul\":4274:4337   */\n    tag_622:\n        /* \"#utility.yul\":4221:4343   */\n      pop\n      jump\t// out\n        /* \"#utility.yul\":4349:4488   */\n    tag_529:\n        /* \"#utility.yul\":4395:4400   */\n      0x00\n        /* \"#utility.yul\":4433:4439   */\n      dup2\n        /* \"#utility.yul\":4420:4440   */\n      calldataload\n        /* \"#utility.yul\":4411:4440   */\n      swap1\n      pop\n        /* \"#utility.yul\":4449:4482   */\n      tag_624\n        /* \"#utility.yul\":4476:4481   */\n      dup2\n        /* \"#utility.yul\":4449:4482   */\n      tag_528\n      jump\t// in\n    tag_624:\n        /* \"#utility.yul\":4349:4488   */\n      swap3\n      swap2\n      pop\n      pop\n      jump\t// out\n        /* \"#utility.yul\":4494:4968   */\n    tag_71:\n        /* \"#utility.yul\":4562:4568   */\n      0x00\n        /* \"#utility.yul\":4570:4576   */\n      0x00\n        /* \"#utility.yul\":4619:4621   */\n      0x40\n        /* \"#utility.yul\":4607:4616   */\n      dup4\n        /* \"#utility.yul\":4598:4605   */\n      dup6\n        /* \"#utility.yul\":4594:4617   */\n      sub\n        /* \"#utility.yul\":4590:4622   */\n      slt\n        /* \"#utility.yul\":4587:4706   */\n      iszero\n      tag_626\n      jumpi\n        /* \"#utility.yul\":4625:4704   */\n      tag_627\n      tag_513\n      jump\t// in\n    tag_627:\n        /* \"#utility.yul\":4587:4706   */\n    tag_626:\n        /* \"#utility.yul\":4745:4746   */\n      0x00\n        /* \"#utility.yul\":4770:4823   */\n      tag_628\n        /* \"#utility.yul\":4815:4822   */\n      dup6\n        /* \"#utility.yul\":4806:4812   */\n      dup3\n        /* \"#utility.yul\":4795:4804   */\n      dup7\n        /* \"#utility.yul\":4791:4813   */\n      add\n        /* \"#utility.yul\":4770:4823   */\n      tag_524\n      jump\t// in\n    tag_628:\n        /* \"#utility.yul\":4760:4823   */\n      swap3\n      pop\n        /* \"#utility.yul\":4716:4833   */\n      pop\n        /* \"#utility.yul\":4872:4874   */\n      0x20\n        /* \"#utility.yul\":4898:4951   */\n      tag_629\n        /* \"#utility.yul\":4943:4950   */\n      dup6\n        /* \"#utility.yul\":4934:4940   */\n      dup3\n        /* \"#utility.yul\":4923:4932   */\n      dup7\n        /* \"#utility.yul\":4919:4941   */\n      add\n        /* \"#utility.yul\":4898:4951   */\n      tag_529\n      jump\t// in\n    tag_629:\n        /* \"#utility.yul\":4888:4951   */\n      swap2\n      pop\n        /* \"#utility.yul\":4843:4961   */\n      pop\n        /* \"#utility.yul\":4494:4968   */\n      swap3\n      pop\n      swap3\n      swap1\n      pop\n      jump\t// out\n        /* \"#utility.yul\":4974:5303   */\n    tag_80:\n        /* \"#utility.yul\":5033:5039   */\n      0x00\n        /* \"#utility.yul\":5082:5084   */\n      0x20\n        /* \"#utility.yul\":5070:5079   */\n      dup3\n        /* \"#utility.yul\":5061:5068   */\n      dup5\n        /* \"#utility.yul\":5057:5080   */\n      sub\n        /* \"#utility.yul\":5053:5085   */\n      slt\n        /* \"#utility.yul\":5050:5169   */\n      iszero\n      tag_631\n      jumpi\n        /* \"#utility.yul\":5088:5167   */\n      tag_632\n      tag_513\n      jump\t// in\n    tag_632:\n        /* \"#utility.yul\":5050:5169   */\n    tag_631:\n        /* \"#utility.yul\":5208:5209   */\n      0x00\n        /* \"#utility.yul\":5233:5286   */\n      tag_633\n        /* \"#utility.yul\":5278:5285   */\n      dup5\n        /* \"#utility.yul\":5269:5275   */\n      dup3\n        /* \"#utility.yul\":5258:5267   */\n      dup6\n        /* \"#utility.yul\":5254:5276   */\n      add\n        /* \"#utility.yul\":5233:5286   */\n      tag_529\n      jump\t// in\n    tag_633:\n        /* \"#utility.yul\":5223:5286   */\n      swap2\n      pop\n        /* \"#utility.yul\":5179:5296   */\n      pop\n        /* \"#utility.yul\":4974:5303   */\n      swap3\n      swap2\n      pop\n      pop\n      jump\t// out\n        /* \"#utility.yul\":5309:5426   */\n    tag_530:\n        /* \"#utility.yul\":5418:5419   */\n      0x00\n        /* \"#utility.yul\":5415:5416   */\n      0x00\n        /* \"#utility.yul\":5408:5420   */\n      revert\n        /* \"#utility.yul\":5432:5549   */\n    tag_531:\n        /* \"#utility.yul\":5541:5542   */\n      0x00\n        /* \"#utility.yul\":5538:5539   */\n      0x00\n        /* \"#utility.yul\":5531:5543   */\n      revert\n        /* \"#utility.yul\":5555:5657   */\n    tag_532:\n        /* \"#utility.yul\":5596:5602   */\n      0x00\n        /* \"#utility.yul\":5647:5649   */\n      0x1f\n        /* \"#utility.yul\":5643:5650   */\n      not\n        /* \"#utility.yul\":5638:5640   */\n      0x1f\n        /* \"#utility.yul\":5631:5636   */\n      dup4\n        /* \"#utility.yul\":5627:5641   */\n      add\n        /* \"#utility.yul\":5623:5651   */\n      and\n        /* \"#utility.yul\":5613:5651   */\n      swap1\n      pop\n        /* \"#utility.yul\":5555:5657   */\n      swap2\n      swap1\n      pop\n      jump\t// out\n        /* \"#utility.yul\":5663:5843   */\n    tag_533:\n        /* \"#utility.yul\":5711:5788   */\n      0x4e487b7100000000000000000000000000000000000000000000000000000000\n        /* \"#utility.yul\":5708:5709   */\n      0x00\n        /* \"#utility.yul\":5701:5789   */\n      mstore\n        /* \"#utility.yul\":5808:5812   */\n      0x41\n        /* \"#utility.yul\":5805:5806   */\n      0x04\n        /* \"#utility.yul\":5798:5813   */\n      mstore\n        /* \"#utility.yul\":5832:5836   */\n      0x24\n        /* \"#utility.yul\":5829:5830   */\n      0x00\n        /* \"#utility.yul\":5822:5837   */\n      revert\n        /* \"#utility.yul\":5849:6130   */\n    tag_534:\n        /* \"#utility.yul\":5932:5959   */\n      tag_639\n        /* \"#utility.yul\":5954:5958   */\n      dup3\n        /* \"#utility.yul\":5932:5959   */\n      tag_532\n      jump\t// in\n    tag_639:\n        /* \"#utility.yul\":5924:5930   */\n      dup2\n        /* \"#utility.yul\":5920:5960   */\n      add\n        /* \"#utility.yul\":6062:6068   */\n      dup2\n        /* \"#utility.yul\":6050:6060   */\n      dup2\n        /* \"#utility.yul\":6047:6069   */\n      lt\n        /* \"#utility.yul\":6026:6044   */\n      0xffffffffffffffff\n        /* \"#utility.yul\":6014:6024   */\n      dup3\n        /* \"#utility.yul\":6011:6045   */\n      gt\n        /* \"#utility.yul\":6008:6070   */\n      or\n        /* \"#utility.yul\":6005:6093   */\n      iszero\n      tag_640\n      jumpi\n        /* \"#utility.yul\":6073:6091   */\n      tag_641\n      tag_533\n      jump\t// in\n    tag_641:\n        /* \"#utility.yul\":6005:6093   */\n    tag_640:\n        /* \"#utility.yul\":6113:6123   */\n      dup1\n        /* \"#utility.yul\":6109:6111   */\n      0x40\n        /* \"#utility.yul\":6102:6124   */\n      mstore\n        /* \"#utility.yul\":5892:6130   */\n      pop\n        /* \"#utility.yul\":5849:6130   */\n      pop\n      pop\n      jump\t// out\n        /* \"#utility.yul\":6136:6265   */\n    tag_535:\n        /* \"#utility.yul\":6170:6176   */\n      0x00\n        /* \"#utility.yul\":6197:6217   */\n      tag_643\n      tag_512\n      jump\t// in\n    tag_643:\n        /* \"#utility.yul\":6187:6217   */\n      swap1\n      pop\n        /* \"#utility.yul\":6226:6259   */\n      tag_644\n        /* \"#utility.yul\":6254:6258   */\n      dup3\n        /* \"#utility.yul\":6246:6252   */\n      dup3\n        /* \"#utility.yul\":6226:6259   */\n      tag_534\n      jump\t// in\n    tag_644:\n        /* \"#utility.yul\":6136:6265   */\n      swap2\n      swap1\n      pop\n      jump\t// out\n        /* \"#utility.yul\":6271:6578   */\n    tag_536:\n        /* \"#utility.yul\":6332:6336   */\n      0x00\n        /* \"#utility.yul\":6422:6440   */\n      0xffffffffffffffff\n        /* \"#utility.yul\":6414:6420   */\n      dup3\n        /* \"#utility.yul\":6411:6441   */\n      gt\n        /* \"#utility.yul\":6408:6464   */\n      iszero\n      tag_646\n      jumpi\n        /* \"#utility.yul\":6444:6462   */\n      tag_647\n      tag_533\n      jump\t// in\n    tag_647:\n        /* \"#utility.yul\":6408:6464   */\n    tag_646:\n        /* \"#utility.yul\":6482:6511   */\n      tag_648\n        /* \"#utility.yul\":6504:6510   */\n      dup3\n        /* \"#utility.yul\":6482:6511   */\n      tag_532\n      jump\t// in\n    tag_648:\n        /* \"#utility.yul\":6474:6511   */\n      swap1\n      pop\n        /* \"#utility.yul\":6566:6570   */\n      0x20\n        /* \"#utility.yul\":6560:6564   */\n      dup2\n        /* \"#utility.yul\":6556:6571   */\n      add\n        /* \"#utility.yul\":6548:6571   */\n      swap1\n      pop\n        /* \"#utility.yul\":6271:6578   */\n      swap2\n      swap1\n      pop\n      jump\t// out\n        /* \"#utility.yul\":6584:6732   */\n    tag_537:\n        /* \"#utility.yul\":6682:6688   */\n      dup3\n        /* \"#utility.yul\":6677:6680   */\n      dup2\n        /* \"#utility.yul\":6672:6675   */\n      dup4\n        /* \"#utility.yul\":6659:6689   */\n      calldatacopy\n        /* \"#utility.yul\":6723:6724   */\n      0x00\n        /* \"#utility.yul\":6714:6720   */\n      dup4\n        /* \"#utility.yul\":6709:6712   */\n      dup4\n        /* \"#utility.yul\":6705:6721   */\n      add\n        /* \"#utility.yul\":6698:6725   */\n      mstore\n        /* \"#utility.yul\":6584:6732   */\n      pop\n      pop\n      pop\n      jump\t// out\n        /* \"#utility.yul\":6738:7161   */\n    tag_538:\n        /* \"#utility.yul\":6815:6820   */\n      0x00\n        /* \"#utility.yul\":6840:6905   */\n      tag_651\n        /* \"#utility.yul\":6856:6904   */\n      tag_652\n        /* \"#utility.yul\":6897:6903   */\n      dup5\n        /* \"#utility.yul\":6856:6904   */\n      tag_536\n      jump\t// in\n    tag_652:\n        /* \"#utility.yul\":6840:6905   */\n      tag_535\n      jump\t// in\n    tag_651:\n        /* \"#utility.yul\":6831:6905   */\n      swap1\n      pop\n        /* \"#utility.yul\":6928:6934   */\n      dup3\n        /* \"#utility.yul\":6921:6926   */\n      dup2\n        /* \"#utility.yul\":6914:6935   */\n      mstore\n        /* \"#utility.yul\":6966:6970   */\n      0x20\n        /* \"#utility.yul\":6959:6964   */\n      dup2\n        /* \"#utility.yul\":6955:6971   */\n      add\n        /* \"#utility.yul\":7004:7007   */\n      dup5\n        /* \"#utility.yul\":6995:7001   */\n      dup5\n        /* \"#utility.yul\":6990:6993   */\n      dup5\n        /* \"#utility.yul\":6986:7002   */\n      add\n        /* \"#utility.yul\":6983:7008   */\n      gt\n        /* \"#utility.yul\":6980:7092   */\n      iszero\n      tag_653\n      jumpi\n        /* \"#utility.yul\":7011:7090   */\n      tag_654\n      tag_531\n      jump\t// in\n    tag_654:\n        /* \"#utility.yul\":6980:7092   */\n    tag_653:\n        /* \"#utility.yul\":7101:7155   */\n      tag_655\n        /* \"#utility.yul\":7148:7154   */\n      dup5\n        /* \"#utility.yul\":7143:7146   */\n      dup3\n        /* \"#utility.yul\":7138:7141   */\n      dup6\n        /* \"#utility.yul\":7101:7155   */\n      tag_537\n      jump\t// in\n    tag_655:\n        /* \"#utility.yul\":6821:7161   */\n      pop\n        /* \"#utility.yul\":6738:7161   */\n      swap4\n      swap3\n      pop\n      pop\n      pop\n      jump\t// out\n        /* \"#utility.yul\":7180:7518   */\n    tag_539:\n        /* \"#utility.yul\":7235:7240   */\n      0x00\n        /* \"#utility.yul\":7284:7287   */\n      dup3\n        /* \"#utility.yul\":7277:7281   */\n      0x1f\n        /* \"#utility.yul\":7269:7275   */\n      dup4\n        /* \"#utility.yul\":7265:7282   */\n      add\n        /* \"#utility.yul\":7261:7288   */\n      slt\n        /* \"#utility.yul\":7251:7373   */\n      tag_657\n      jumpi\n        /* \"#utility.yul\":7292:7371   */\n      tag_658\n      tag_530\n      jump\t// in\n    tag_658:\n        /* \"#utility.yul\":7251:7373   */\n    tag_657:\n        /* \"#utility.yul\":7409:7415   */\n      dup2\n        /* \"#utility.yul\":7396:7416   */\n      calldataload\n        /* \"#utility.yul\":7434:7512   */\n      tag_659\n        /* \"#utility.yul\":7508:7511   */\n      dup5\n        /* \"#utility.yul\":7500:7506   */\n      dup3\n        /* \"#utility.yul\":7493:7497   */\n      0x20\n        /* \"#utility.yul\":7485:7491   */\n      dup7\n        /* \"#utility.yul\":7481:7498   */\n      add\n        /* \"#utility.yul\":7434:7512   */\n      tag_538\n      jump\t// in\n    tag_659:\n        /* \"#utility.yul\":7425:7512   */\n      swap2\n      pop\n        /* \"#utility.yul\":7241:7518   */\n      pop\n        /* \"#utility.yul\":7180:7518   */\n      swap3\n      swap2\n      pop\n      pop\n      jump\t// out\n        /* \"#utility.yul\":7524:8176   */\n    tag_92:\n        /* \"#utility.yul\":7601:7607   */\n      0x00\n        /* \"#utility.yul\":7609:7615   */\n      0x00\n        /* \"#utility.yul\":7658:7660   */\n      0x40\n        /* \"#utility.yul\":7646:7655   */\n      dup4\n        /* \"#utility.yul\":7637:7644   */\n      dup6\n        /* \"#utility.yul\":7633:7656   */\n      sub\n        /* \"#utility.yul\":7629:7661   */\n      slt\n        /* \"#utility.yul\":7626:7745   */\n      iszero\n      tag_661\n      jumpi\n        /* \"#utility.yul\":7664:7743   */\n      tag_662\n      tag_513\n      jump\t// in\n    tag_662:\n        /* \"#utility.yul\":7626:7745   */\n    tag_661:\n        /* \"#utility.yul\":7784:7785   */\n      0x00\n        /* \"#utility.yul\":7809:7862   */\n      tag_663\n        /* \"#utility.yul\":7854:7861   */\n      dup6\n        /* \"#utility.yul\":7845:7851   */\n      dup3\n        /* \"#utility.yul\":7834:7843   */\n      dup7\n        /* \"#utility.yul\":7830:7852   */\n      add\n        /* \"#utility.yul\":7809:7862   */\n      tag_529\n      jump\t// in\n    tag_663:\n        /* \"#utility.yul\":7799:7862   */\n      swap3\n      pop\n        /* \"#utility.yul\":7755:7872   */\n      pop\n        /* \"#utility.yul\":7939:7941   */\n      0x20\n        /* \"#utility.yul\":7928:7937   */\n      dup4\n        /* \"#utility.yul\":7924:7942   */\n      add\n        /* \"#utility.yul\":7911:7943   */\n      calldataload\n        /* \"#utility.yul\":7970:7988   */\n      0xffffffffffffffff\n        /* \"#utility.yul\":7962:7968   */\n      dup2\n        /* \"#utility.yul\":7959:7989   */\n      gt\n        /* \"#utility.yul\":7956:8073   */\n      iszero\n      tag_664\n      jumpi\n        /* \"#utility.yul\":7992:8071   */\n      tag_665\n      tag_514\n      jump\t// in\n    tag_665:\n        /* \"#utility.yul\":7956:8073   */\n    tag_664:\n        /* \"#utility.yul\":8097:8159   */\n      tag_666\n        /* \"#utility.yul\":8151:8158   */\n      dup6\n        /* \"#utility.yul\":8142:8148   */\n      dup3\n        /* \"#utility.yul\":8131:8140   */\n      dup7\n        /* \"#utility.yul\":8127:8149   */\n      add\n        /* \"#utility.yul\":8097:8159   */\n      tag_539\n      jump\t// in\n    tag_666:\n        /* \"#utility.yul\":8087:8159   */\n      swap2\n      pop\n        /* \"#utility.yul\":7882:8169   */\n      pop\n        /* \"#utility.yul\":7524:8176   */\n      swap3\n      pop\n      swap3\n      swap1\n      pop\n      jump\t// out\n        /* \"#utility.yul\":8182:8281   */\n    tag_540:\n        /* \"#utility.yul\":8234:8240   */\n      0x00\n        /* \"#utility.yul\":8268:8273   */\n      dup2\n        /* \"#utility.yul\":8262:8274   */\n      mload\n        /* \"#utility.yul\":8252:8274   */\n      swap1\n      pop\n        /* \"#utility.yul\":8182:8281   */\n      swap2\n      swap1\n      pop\n      jump\t// out\n        /* \"#utility.yul\":8287:8456   */\n    tag_541:\n        /* \"#utility.yul\":8371:8382   */\n      0x00\n        /* \"#utility.yul\":8405:8411   */\n      dup3\n        /* \"#utility.yul\":8400:8403   */\n      dup3\n        /* \"#utility.yul\":8393:8412   */\n      mstore\n        /* \"#utility.yul\":8445:8449   */\n      0x20\n        /* \"#utility.yul\":8440:8443   */\n      dup3\n        /* \"#utility.yul\":8436:8450   */\n      add\n        /* \"#utility.yul\":8421:8450   */\n      swap1\n      pop\n        /* \"#utility.yul\":8287:8456   */\n      swap3\n      swap2\n      pop\n      pop\n      jump\t// out\n        /* \"#utility.yul\":8462:8601   */\n    tag_542:\n        /* \"#utility.yul\":8551:8557   */\n      dup3\n        /* \"#utility.yul\":8546:8549   */\n      dup2\n        /* \"#utility.yul\":8541:8544   */\n      dup4\n        /* \"#utility.yul\":8535:8558   */\n      mcopy\n        /* \"#utility.yul\":8592:8593   */\n      0x00\n        /* \"#utility.yul\":8583:8589   */\n      dup4\n        /* \"#utility.yul\":8578:8581   */\n      dup4\n        /* \"#utility.yul\":8574:8590   */\n      add\n        /* \"#utility.yul\":8567:8594   */\n      mstore\n        /* \"#utility.yul\":8462:8601   */\n      pop\n      pop\n      pop\n      jump\t// out\n        /* \"#utility.yul\":8607:8984   */\n    tag_543:\n        /* \"#utility.yul\":8695:8698   */\n      0x00\n        /* \"#utility.yul\":8723:8762   */\n      tag_671\n        /* \"#utility.yul\":8756:8761   */\n      dup3\n        /* \"#utility.yul\":8723:8762   */\n      tag_540\n      jump\t// in\n    tag_671:\n        /* \"#utility.yul\":8778:8849   */\n      tag_672\n        /* \"#utility.yul\":8842:8848   */\n      dup2\n        /* \"#utility.yul\":8837:8840   */\n      dup6\n        /* \"#utility.yul\":8778:8849   */\n      tag_541\n      jump\t// in\n    tag_672:\n        /* \"#utility.yul\":8771:8849   */\n      swap4\n      pop\n        /* \"#utility.yul\":8858:8923   */\n      tag_673\n        /* \"#utility.yul\":8916:8922   */\n      dup2\n        /* \"#utility.yul\":8911:8914   */\n      dup6\n        /* \"#utility.yul\":8904:8908   */\n      0x20\n        /* \"#utility.yul\":8897:8902   */\n      dup7\n        /* \"#utility.yul\":8893:8909   */\n      add\n        /* \"#utility.yul\":8858:8923   */\n      tag_542\n      jump\t// in\n    tag_673:\n        /* \"#utility.yul\":8948:8977   */\n      tag_674\n        /* \"#utility.yul\":8970:8976   */\n      dup2\n        /* \"#utility.yul\":8948:8977   */\n      tag_532\n      jump\t// in\n    tag_674:\n        /* \"#utility.yul\":8943:8946   */\n      dup5\n        /* \"#utility.yul\":8939:8978   */\n      add\n        /* \"#utility.yul\":8932:8978   */\n      swap2\n      pop\n        /* \"#utility.yul\":8699:8984   */\n      pop\n        /* \"#utility.yul\":8607:8984   */\n      swap3\n      swap2\n      pop\n      pop\n      jump\t// out\n        /* \"#utility.yul\":8990:9303   */\n    tag_139:\n        /* \"#utility.yul\":9103:9107   */\n      0x00\n        /* \"#utility.yul\":9141:9143   */\n      0x20\n        /* \"#utility.yul\":9130:9139   */\n      dup3\n        /* \"#utility.yul\":9126:9144   */\n      add\n        /* \"#utility.yul\":9118:9144   */\n      swap1\n      pop\n        /* \"#utility.yul\":9190:9199   */\n      dup2\n        /* \"#utility.yul\":9184:9188   */\n      dup2\n        /* \"#utility.yul\":9180:9200   */\n      sub\n        /* \"#utility.yul\":9176:9177   */\n      0x00\n        /* \"#utility.yul\":9165:9174   */\n      dup4\n        /* \"#utility.yul\":9161:9178   */\n      add\n        /* \"#utility.yul\":9154:9201   */\n      mstore\n        /* \"#utility.yul\":9218:9296   */\n      tag_676\n        /* \"#utility.yul\":9291:9295   */\n      dup2\n        /* \"#utility.yul\":9282:9288   */\n      dup5\n        /* \"#utility.yul\":9218:9296   */\n      tag_543\n      jump\t// in\n    tag_676:\n        /* \"#utility.yul\":9210:9296   */\n      swap1\n      pop\n        /* \"#utility.yul\":8990:9303   */\n      swap3\n      swap2\n      pop\n      pop\n      jump\t// out\n        /* \"#utility.yul\":9309:9425   */\n    tag_544:\n        /* \"#utility.yul\":9379:9400   */\n      tag_678\n        /* \"#utility.yul\":9394:9399   */\n      dup2\n        /* \"#utility.yul\":9379:9400   */\n      tag_518\n      jump\t// in\n    tag_678:\n        /* \"#utility.yul\":9372:9377   */\n      dup2\n        /* \"#utility.yul\":9369:9401   */\n      eq\n        /* \"#utility.yul\":9359:9419   */\n      tag_679\n      jumpi\n        /* \"#utility.yul\":9415:9416   */\n      0x00\n        /* \"#utility.yul\":9412:9413   */\n      0x00\n        /* \"#utility.yul\":9405:9417   */\n      revert\n        /* \"#utility.yul\":9359:9419   */\n    tag_679:\n        /* \"#utility.yul\":9309:9425   */\n      pop\n      jump\t// out\n        /* \"#utility.yul\":9431:9564   */\n    tag_545:\n        /* \"#utility.yul\":9474:9479   */\n      0x00\n        /* \"#utility.yul\":9512:9518   */\n      dup2\n        /* \"#utility.yul\":9499:9519   */\n      calldataload\n        /* \"#utility.yul\":9490:9519   */\n      swap1\n      pop\n        /* \"#utility.yul\":9528:9558   */\n      tag_681\n        /* \"#utility.yul\":9552:9557   */\n      dup2\n        /* \"#utility.yul\":9528:9558   */\n      tag_544\n      jump\t// in\n    tag_681:\n        /* \"#utility.yul\":9431:9564   */\n      swap3\n      swap2\n      pop\n      pop\n      jump\t// out\n        /* \"#utility.yul\":9570:9893   */\n    tag_143:\n        /* \"#utility.yul\":9626:9632   */\n      0x00\n        /* \"#utility.yul\":9675:9677   */\n      0x20\n        /* \"#utility.yul\":9663:9672   */\n      dup3\n        /* \"#utility.yul\":9654:9661   */\n      dup5\n        /* \"#utility.yul\":9650:9673   */\n      sub\n        /* \"#utility.yul\":9646:9678   */\n      slt\n        /* \"#utility.yul\":9643:9762   */\n      iszero\n      tag_683\n      jumpi\n        /* \"#utility.yul\":9681:9760   */\n      tag_684\n      tag_513\n      jump\t// in\n    tag_684:\n        /* \"#utility.yul\":9643:9762   */\n    tag_683:\n        /* \"#utility.yul\":9801:9802   */\n      0x00\n        /* \"#utility.yul\":9826:9876   */\n      tag_685\n        /* \"#utility.yul\":9868:9875   */\n      dup5\n        /* \"#utility.yul\":9859:9865   */\n      dup3\n        /* \"#utility.yul\":9848:9857   */\n      dup6\n        /* \"#utility.yul\":9844:9866   */\n      add\n        /* \"#utility.yul\":9826:9876   */\n      tag_545\n      jump\t// in\n    tag_685:\n        /* \"#utility.yul\":9816:9876   */\n      swap2\n      pop\n        /* \"#utility.yul\":9772:9886   */\n      pop\n        /* \"#utility.yul\":9570:9893   */\n      swap3\n      swap2\n      pop\n      pop\n      jump\t// out\n        /* \"#utility.yul\":9899:10373   */\n    tag_148:\n        /* \"#utility.yul\":9967:9973   */\n      0x00\n        /* \"#utility.yul\":9975:9981   */\n      0x00\n        /* \"#utility.yul\":10024:10026   */\n      0x40\n        /* \"#utility.yul\":10012:10021   */\n      dup4\n        /* \"#utility.yul\":10003:10010   */\n      dup6\n        /* \"#utility.yul\":9999:10022   */\n      sub\n        /* \"#utility.yul\":9995:10027   */\n      slt\n        /* \"#utility.yul\":9992:10111   */\n      iszero\n      tag_687\n      jumpi\n        /* \"#utility.yul\":10030:10109   */\n      tag_688\n      tag_513\n      jump\t// in\n    tag_688:\n        /* \"#utility.yul\":9992:10111   */\n    tag_687:\n        /* \"#utility.yul\":10150:10151   */\n      0x00\n        /* \"#utility.yul\":10175:10228   */\n      tag_689\n        /* \"#utility.yul\":10220:10227   */\n      dup6\n        /* \"#utility.yul\":10211:10217   */\n      dup3\n        /* \"#utility.yul\":10200:10209   */\n      dup7\n        /* \"#utility.yul\":10196:10218   */\n      add\n        /* \"#utility.yul\":10175:10228   */\n      tag_529\n      jump\t// in\n    tag_689:\n        /* \"#utility.yul\":10165:10228   */\n      swap3\n      pop\n        /* \"#utility.yul\":10121:10238   */\n      pop\n        /* \"#utility.yul\":10277:10279   */\n      0x20\n        /* \"#utility.yul\":10303:10356   */\n      tag_690\n        /* \"#utility.yul\":10348:10355   */\n      dup6\n        /* \"#utility.yul\":10339:10345   */\n      dup3\n        /* \"#utility.yul\":10328:10337   */\n      dup7\n        /* \"#utility.yul\":10324:10346   */\n      add\n        /* \"#utility.yul\":10303:10356   */\n      tag_521\n      jump\t// in\n    tag_690:\n        /* \"#utility.yul\":10293:10356   */\n      swap2\n      pop\n        /* \"#utility.yul\":10248:10366   */\n      pop\n        /* \"#utility.yul\":9899:10373   */\n      swap3\n      pop\n      swap3\n      swap1\n      pop\n      jump\t// out\n        /* \"#utility.yul\":10379:10497   */\n    tag_546:\n        /* \"#utility.yul\":10466:10490   */\n      tag_692\n        /* \"#utility.yul\":10484:10489   */\n      dup2\n        /* \"#utility.yul\":10466:10490   */\n      tag_527\n      jump\t// in\n    tag_692:\n        /* \"#utility.yul\":10461:10464   */\n      dup3\n        /* \"#utility.yul\":10454:10491   */\n      mstore\n        /* \"#utility.yul\":10379:10497   */\n      pop\n      pop\n      jump\t// out\n        /* \"#utility.yul\":10503:10725   */\n    tag_184:\n        /* \"#utility.yul\":10596:10600   */\n      0x00\n        /* \"#utility.yul\":10634:10636   */\n      0x20\n        /* \"#utility.yul\":10623:10632   */\n      dup3\n        /* \"#utility.yul\":10619:10637   */\n      add\n        /* \"#utility.yul\":10611:10637   */\n      swap1\n      pop\n        /* \"#utility.yul\":10647:10718   */\n      tag_694\n        /* \"#utility.yul\":10715:10716   */\n      0x00\n        /* \"#utility.yul\":10704:10713   */\n      dup4\n        /* \"#utility.yul\":10700:10717   */\n      add\n        /* \"#utility.yul\":10691:10697   */\n      dup5\n        /* \"#utility.yul\":10647:10718   */\n      tag_546\n      jump\t// in\n    tag_694:\n        /* \"#utility.yul\":10503:10725   */\n      swap3\n      swap2\n      pop\n      pop\n      jump\t// out\n        /* \"#utility.yul\":10731:11063   */\n    tag_192:\n        /* \"#utility.yul\":10852:10856   */\n      0x00\n        /* \"#utility.yul\":10890:10892   */\n      0x40\n        /* \"#utility.yul\":10879:10888   */\n      dup3\n        /* \"#utility.yul\":10875:10893   */\n      add\n        /* \"#utility.yul\":10867:10893   */\n      swap1\n      pop\n        /* \"#utility.yul\":10903:10974   */\n      tag_696\n        /* \"#utility.yul\":10971:10972   */\n      0x00\n        /* \"#utility.yul\":10960:10969   */\n      dup4\n        /* \"#utility.yul\":10956:10973   */\n      add\n        /* \"#utility.yul\":10947:10953   */\n      dup6\n        /* \"#utility.yul\":10903:10974   */\n      tag_511\n      jump\t// in\n    tag_696:\n        /* \"#utility.yul\":10984:11056   */\n      tag_697\n        /* \"#utility.yul\":11052:11054   */\n      0x20\n        /* \"#utility.yul\":11041:11050   */\n      dup4\n        /* \"#utility.yul\":11037:11055   */\n      add\n        /* \"#utility.yul\":11028:11034   */\n      dup5\n        /* \"#utility.yul\":10984:11056   */\n      tag_511\n      jump\t// in\n    tag_697:\n        /* \"#utility.yul\":10731:11063   */\n      swap4\n      swap3\n      pop\n      pop\n      pop\n      jump\t// out\n        /* \"#utility.yul\":11069:11263   */\n    tag_200:\n        /* \"#utility.yul\":11109:11113   */\n      0x00\n        /* \"#utility.yul\":11129:11149   */\n      tag_699\n        /* \"#utility.yul\":11147:11148   */\n      dup3\n        /* \"#utility.yul\":11129:11149   */\n      tag_509\n      jump\t// in\n    tag_699:\n        /* \"#utility.yul\":11124:11149   */\n      swap2\n      pop\n        /* \"#utility.yul\":11163:11183   */\n      tag_700\n        /* \"#utility.yul\":11181:11182   */\n      dup4\n        /* \"#utility.yul\":11163:11183   */\n      tag_509\n      jump\t// in\n    tag_700:\n        /* \"#utility.yul\":11158:11183   */\n      swap3\n      pop\n        /* \"#utility.yul\":11207:11208   */\n      dup3\n        /* \"#utility.yul\":11204:11205   */\n      dup3\n        /* \"#utility.yul\":11200:11209   */\n      sub\n        /* \"#utility.yul\":11192:11209   */\n      swap1\n      pop\n        /* \"#utility.yul\":11231:11232   */\n      dup2\n        /* \"#utility.yul\":11225:11229   */\n      dup2\n        /* \"#utility.yul\":11222:11233   */\n      gt\n        /* \"#utility.yul\":11219:11256   */\n      iszero\n      tag_701\n      jumpi\n        /* \"#utility.yul\":11236:11254   */\n      tag_702\n      tag_510\n      jump\t// in\n    tag_702:\n        /* \"#utility.yul\":11219:11256   */\n    tag_701:\n        /* \"#utility.yul\":11069:11263   */\n      swap3\n      swap2\n      pop\n      pop\n      jump\t// out\n        /* \"#utility.yul\":11269:11416   */\n    tag_547:\n        /* \"#utility.yul\":11370:11381   */\n      0x00\n        /* \"#utility.yul\":11407:11410   */\n      dup2\n        /* \"#utility.yul\":11392:11410   */\n      swap1\n      pop\n        /* \"#utility.yul\":11269:11416   */\n      swap3\n      swap2\n      pop\n      pop\n      jump\t// out\n        /* \"#utility.yul\":11422:11536   */\n    tag_548:\n      pop\n      jump\t// out\n        /* \"#utility.yul\":11542:11940   */\n    tag_549:\n        /* \"#utility.yul\":11701:11704   */\n      0x00\n        /* \"#utility.yul\":11722:11805   */\n      tag_706\n        /* \"#utility.yul\":11803:11804   */\n      0x00\n        /* \"#utility.yul\":11798:11801   */\n      dup4\n        /* \"#utility.yul\":11722:11805   */\n      tag_547\n      jump\t// in\n    tag_706:\n        /* \"#utility.yul\":11715:11805   */\n      swap2\n      pop\n        /* \"#utility.yul\":11814:11907   */\n      tag_707\n        /* \"#utility.yul\":11903:11906   */\n      dup3\n        /* \"#utility.yul\":11814:11907   */\n      tag_548\n      jump\t// in\n    tag_707:\n        /* \"#utility.yul\":11932:11933   */\n      0x00\n        /* \"#utility.yul\":11927:11930   */\n      dup3\n        /* \"#utility.yul\":11923:11934   */\n      add\n        /* \"#utility.yul\":11916:11934   */\n      swap1\n      pop\n        /* \"#utility.yul\":11542:11940   */\n      swap2\n      swap1\n      pop\n      jump\t// out\n        /* \"#utility.yul\":11946:12325   */\n    tag_202:\n        /* \"#utility.yul\":12130:12133   */\n      0x00\n        /* \"#utility.yul\":12152:12299   */\n      tag_709\n        /* \"#utility.yul\":12295:12298   */\n      dup3\n        /* \"#utility.yul\":12152:12299   */\n      tag_549\n      jump\t// in\n    tag_709:\n        /* \"#utility.yul\":12145:12299   */\n      swap2\n      pop\n        /* \"#utility.yul\":12316:12319   */\n      dup2\n        /* \"#utility.yul\":12309:12319   */\n      swap1\n      pop\n        /* \"#utility.yul\":11946:12325   */\n      swap2\n      swap1\n      pop\n      jump\t// out\n        /* \"#utility.yul\":12331:12416   */\n    tag_550:\n        /* \"#utility.yul\":12376:12383   */\n      0x00\n        /* \"#utility.yul\":12405:12410   */\n      dup2\n        /* \"#utility.yul\":12394:12410   */\n      swap1\n      pop\n        /* \"#utility.yul\":12331:12416   */\n      swap2\n      swap1\n      pop\n      jump\t// out\n        /* \"#utility.yul\":12422:12523   */\n    tag_551:\n        /* \"#utility.yul\":12458:12465   */\n      0x00\n        /* \"#utility.yul\":12498:12516   */\n      0xffffffffffffffff\n        /* \"#utility.yul\":12491:12496   */\n      dup3\n        /* \"#utility.yul\":12487:12517   */\n      and\n        /* \"#utility.yul\":12476:12517   */\n      swap1\n      pop\n        /* \"#utility.yul\":12422:12523   */\n      swap2\n      swap1\n      pop\n      jump\t// out\n        /* \"#utility.yul\":12529:12589   */\n    tag_552:\n        /* \"#utility.yul\":12557:12560   */\n      0x00\n        /* \"#utility.yul\":12578:12583   */\n      dup2\n        /* \"#utility.yul\":12571:12583   */\n      swap1\n      pop\n        /* \"#utility.yul\":12529:12589   */\n      swap2\n      swap1\n      pop\n      jump\t// out\n        /* \"#utility.yul\":12595:12751   */\n    tag_553:\n        /* \"#utility.yul\":12652:12661   */\n      0x00\n        /* \"#utility.yul\":12685:12745   */\n      tag_714\n        /* \"#utility.yul\":12702:12744   */\n      tag_715\n        /* \"#utility.yul\":12711:12743   */\n      tag_716\n        /* \"#utility.yul\":12737:12742   */\n      dup5\n        /* \"#utility.yul\":12711:12743   */\n      tag_550\n      jump\t// in\n    tag_716:\n        /* \"#utility.yul\":12702:12744   */\n      tag_552\n      jump\t// in\n    tag_715:\n        /* \"#utility.yul\":12685:12745   */\n      tag_551\n      jump\t// in\n    tag_714:\n        /* \"#utility.yul\":12672:12745   */\n      swap1\n      pop\n        /* \"#utility.yul\":12595:12751   */\n      swap2\n      swap1\n      pop\n      jump\t// out\n        /* \"#utility.yul\":12757:12902   */\n    tag_554:\n        /* \"#utility.yul\":12851:12895   */\n      tag_718\n        /* \"#utility.yul\":12889:12894   */\n      dup2\n        /* \"#utility.yul\":12851:12895   */\n      tag_553\n      jump\t// in\n    tag_718:\n        /* \"#utility.yul\":12846:12849   */\n      dup3\n        /* \"#utility.yul\":12839:12896   */\n      mstore\n        /* \"#utility.yul\":12757:12902   */\n      pop\n      pop\n      jump\t// out\n        /* \"#utility.yul\":12908:13144   */\n    tag_307:\n        /* \"#utility.yul\":13008:13012   */\n      0x00\n        /* \"#utility.yul\":13046:13048   */\n      0x20\n        /* \"#utility.yul\":13035:13044   */\n      dup3\n        /* \"#utility.yul\":13031:13049   */\n      add\n        /* \"#utility.yul\":13023:13049   */\n      swap1\n      pop\n        /* \"#utility.yul\":13059:13137   */\n      tag_720\n        /* \"#utility.yul\":13134:13135   */\n      0x00\n        /* \"#utility.yul\":13123:13132   */\n      dup4\n        /* \"#utility.yul\":13119:13136   */\n      add\n        /* \"#utility.yul\":13110:13116   */\n      dup5\n        /* \"#utility.yul\":13059:13137   */\n      tag_554\n      jump\t// in\n    tag_720:\n        /* \"#utility.yul\":12908:13144   */\n      swap3\n      swap2\n      pop\n      pop\n      jump\t// out\n        /* \"#utility.yul\":13150:13331   */\n    tag_555:\n        /* \"#utility.yul\":13290:13323   */\n      0x5265656e7472616e637947756172643a207265656e7472616e742063616c6c00\n        /* \"#utility.yul\":13286:13287   */\n      0x00\n        /* \"#utility.yul\":13278:13284   */\n      dup3\n        /* \"#utility.yul\":13274:13288   */\n      add\n        /* \"#utility.yul\":13267:13324   */\n      mstore\n        /* \"#utility.yul\":13150:13331   */\n      pop\n      jump\t// out\n        /* \"#utility.yul\":13337:13703   */\n    tag_556:\n        /* \"#utility.yul\":13479:13482   */\n      0x00\n        /* \"#utility.yul\":13500:13567   */\n      tag_723\n        /* \"#utility.yul\":13564:13566   */\n      0x1f\n        /* \"#utility.yul\":13559:13562   */\n      dup4\n        /* \"#utility.yul\":13500:13567   */\n      tag_541\n      jump\t// in\n    tag_723:\n        /* \"#utility.yul\":13493:13567   */\n      swap2\n      pop\n        /* \"#utility.yul\":13576:13669   */\n      tag_724\n        /* \"#utility.yul\":13665:13668   */\n      dup3\n        /* \"#utility.yul\":13576:13669   */\n      tag_555\n      jump\t// in\n    tag_724:\n        /* \"#utility.yul\":13694:13696   */\n      0x20\n        /* \"#utility.yul\":13689:13692   */\n      dup3\n        /* \"#utility.yul\":13685:13697   */\n      add\n        /* \"#utility.yul\":13678:13697   */\n      swap1\n      pop\n        /* \"#utility.yul\":13337:13703   */\n      swap2\n      swap1\n      pop\n      jump\t// out\n        /* \"#utility.yul\":13709:14128   */\n    tag_361:\n        /* \"#utility.yul\":13875:13879   */\n      0x00\n        /* \"#utility.yul\":13913:13915   */\n      0x20\n        /* \"#utility.yul\":13902:13911   */\n      dup3\n        /* \"#utility.yul\":13898:13916   */\n      add\n        /* \"#utility.yul\":13890:13916   */\n      swap1\n      pop\n        /* \"#utility.yul\":13962:13971   */\n      dup2\n        /* \"#utility.yul\":13956:13960   */\n      dup2\n        /* \"#utility.yul\":13952:13972   */\n      sub\n        /* \"#utility.yul\":13948:13949   */\n      0x00\n        /* \"#utility.yul\":13937:13946   */\n      dup4\n        /* \"#utility.yul\":13933:13950   */\n      add\n        /* \"#utility.yul\":13926:13973   */\n      mstore\n        /* \"#utility.yul\":13990:14121   */\n      tag_726\n        /* \"#utility.yul\":14116:14120   */\n      dup2\n        /* \"#utility.yul\":13990:14121   */\n      tag_556\n      jump\t// in\n    tag_726:\n        /* \"#utility.yul\":13982:14121   */\n      swap1\n      pop\n        /* \"#utility.yul\":13709:14128   */\n      swap2\n      swap1\n      pop\n      jump\t// out\n        /* \"#utility.yul\":14134:14300   */\n    tag_557:\n        /* \"#utility.yul\":14274:14292   */\n      0x5061757361626c653a2070617573656400000000000000000000000000000000\n        /* \"#utility.yul\":14270:14271   */\n      0x00\n        /* \"#utility.yul\":14262:14268   */\n      dup3\n        /* \"#utility.yul\":14258:14272   */\n      add\n        /* \"#utility.yul\":14251:14293   */\n      mstore\n        /* \"#utility.yul\":14134:14300   */\n      pop\n      jump\t// out\n        /* \"#utility.yul\":14306:14672   */\n    tag_558:\n        /* \"#utility.yul\":14448:14451   */\n      0x00\n        /* \"#utility.yul\":14469:14536   */\n      tag_729\n        /* \"#utility.yul\":14533:14535   */\n      0x10\n        /* \"#utility.yul\":14528:14531   */\n      dup4\n        /* \"#utility.yul\":14469:14536   */\n      tag_541\n      jump\t// in\n    tag_729:\n        /* \"#utility.yul\":14462:14536   */\n      swap2\n      pop\n        /* \"#utility.yul\":14545:14638   */\n      tag_730\n        /* \"#utility.yul\":14634:14637   */\n      dup3\n        /* \"#utility.yul\":14545:14638   */\n      tag_557\n      jump\t// in\n    tag_730:\n        /* \"#utility.yul\":14663:14665   */\n      0x20\n        /* \"#utility.yul\":14658:14661   */\n      dup3\n        /* \"#utility.yul\":14654:14666   */\n      add\n        /* \"#utility.yul\":14647:14666   */\n      swap1\n      pop\n        /* \"#utility.yul\":14306:14672   */\n      swap2\n      swap1\n      pop\n      jump\t// out\n        /* \"#utility.yul\":14678:15097   */\n    tag_366:\n        /* \"#utility.yul\":14844:14848   */\n      0x00\n        /* \"#utility.yul\":14882:14884   */\n      0x20\n        /* \"#utility.yul\":14871:14880   */\n      dup3\n        /* \"#utility.yul\":14867:14885   */\n      add\n        /* \"#utility.yul\":14859:14885   */\n      swap1\n      pop\n        /* \"#utility.yul\":14931:14940   */\n      dup2\n        /* \"#utility.yul\":14925:14929   */\n      dup2\n        /* \"#utility.yul\":14921:14941   */\n      sub\n        /* \"#utility.yul\":14917:14918   */\n      0x00\n        /* \"#utility.yul\":14906:14915   */\n      dup4\n        /* \"#utility.yul\":14902:14919   */\n      add\n        /* \"#utility.yul\":14895:14942   */\n      mstore\n        /* \"#utility.yul\":14959:15090   */\n      tag_732\n        /* \"#utility.yul\":15085:15089   */\n      dup2\n        /* \"#utility.yul\":14959:15090   */\n      tag_558\n      jump\t// in\n    tag_732:\n        /* \"#utility.yul\":14951:15090   */\n      swap1\n      pop\n        /* \"#utility.yul\":14678:15097   */\n      swap2\n      swap1\n      pop\n      jump\t// out\n        /* \"#utility.yul\":15103:15246   */\n    tag_559:\n        /* \"#utility.yul\":15160:15165   */\n      0x00\n        /* \"#utility.yul\":15191:15197   */\n      dup2\n        /* \"#utility.yul\":15185:15198   */\n      mload\n        /* \"#utility.yul\":15176:15198   */\n      swap1\n      pop\n        /* \"#utility.yul\":15207:15240   */\n      tag_734\n        /* \"#utility.yul\":15234:15239   */\n      dup2\n        /* \"#utility.yul\":15207:15240   */\n      tag_523\n      jump\t// in\n    tag_734:\n        /* \"#utility.yul\":15103:15246   */\n      swap3\n      swap2\n      pop\n      pop\n      jump\t// out\n        /* \"#utility.yul\":15252:15603   */\n    tag_405:\n        /* \"#utility.yul\":15322:15328   */\n      0x00\n        /* \"#utility.yul\":15371:15373   */\n      0x20\n        /* \"#utility.yul\":15359:15368   */\n      dup3\n        /* \"#utility.yul\":15350:15357   */\n      dup5\n        /* \"#utility.yul\":15346:15369   */\n      sub\n        /* \"#utility.yul\":15342:15374   */\n      slt\n        /* \"#utility.yul\":15339:15458   */\n      iszero\n      tag_736\n      jumpi\n        /* \"#utility.yul\":15377:15456   */\n      tag_737\n      tag_513\n      jump\t// in\n    tag_737:\n        /* \"#utility.yul\":15339:15458   */\n    tag_736:\n        /* \"#utility.yul\":15497:15498   */\n      0x00\n        /* \"#utility.yul\":15522:15586   */\n      tag_738\n        /* \"#utility.yul\":15578:15585   */\n      dup5\n        /* \"#utility.yul\":15569:15575   */\n      dup3\n        /* \"#utility.yul\":15558:15567   */\n      dup6\n        /* \"#utility.yul\":15554:15576   */\n      add\n        /* \"#utility.yul\":15522:15586   */\n      tag_559\n      jump\t// in\n    tag_738:\n        /* \"#utility.yul\":15512:15586   */\n      swap2\n      pop\n        /* \"#utility.yul\":15468:15596   */\n      pop\n        /* \"#utility.yul\":15252:15603   */\n      swap3\n      swap2\n      pop\n      pop\n      jump\t// out\n        /* \"#utility.yul\":15609:15941   */\n    tag_452:\n        /* \"#utility.yul\":15730:15734   */\n      0x00\n        /* \"#utility.yul\":15768:15770   */\n      0x40\n        /* \"#utility.yul\":15757:15766   */\n      dup3\n        /* \"#utility.yul\":15753:15771   */\n      add\n        /* \"#utility.yul\":15745:15771   */\n      swap1\n      pop\n        /* \"#utility.yul\":15781:15852   */\n      tag_740\n        /* \"#utility.yul\":15849:15850   */\n      0x00\n        /* \"#utility.yul\":15838:15847   */\n      dup4\n        /* \"#utility.yul\":15834:15851   */\n      add\n        /* \"#utility.yul\":15825:15831   */\n      dup6\n        /* \"#utility.yul\":15781:15852   */\n      tag_546\n      jump\t// in\n    tag_740:\n        /* \"#utility.yul\":15862:15934   */\n      tag_741\n        /* \"#utility.yul\":15930:15932   */\n      0x20\n        /* \"#utility.yul\":15919:15928   */\n      dup4\n        /* \"#utility.yul\":15915:15933   */\n      add\n        /* \"#utility.yul\":15906:15912   */\n      dup5\n        /* \"#utility.yul\":15862:15934   */\n      tag_525\n      jump\t// in\n    tag_741:\n        /* \"#utility.yul\":15609:15941   */\n      swap4\n      swap3\n      pop\n      pop\n      pop\n      jump\t// out\n        /* \"#utility.yul\":15947:16117   */\n    tag_560:\n        /* \"#utility.yul\":16087:16109   */\n      0x5061757361626c653a206e6f7420706175736564000000000000000000000000\n        /* \"#utility.yul\":16083:16084   */\n      0x00\n        /* \"#utility.yul\":16075:16081   */\n      dup3\n        /* \"#utility.yul\":16071:16085   */\n      add\n        /* \"#utility.yul\":16064:16110   */\n      mstore\n        /* \"#utility.yul\":15947:16117   */\n      pop\n      jump\t// out\n        /* \"#utility.yul\":16123:16489   */\n    tag_561:\n        /* \"#utility.yul\":16265:16268   */\n      0x00\n        /* \"#utility.yul\":16286:16353   */\n      tag_744\n        /* \"#utility.yul\":16350:16352   */\n      0x14\n        /* \"#utility.yul\":16345:16348   */\n      dup4\n        /* \"#utility.yul\":16286:16353   */\n      tag_541\n      jump\t// in\n    tag_744:\n        /* \"#utility.yul\":16279:16353   */\n      swap2\n      pop\n        /* \"#utility.yul\":16362:16455   */\n      tag_745\n        /* \"#utility.yul\":16451:16454   */\n      dup3\n        /* \"#utility.yul\":16362:16455   */\n      tag_560\n      jump\t// in\n    tag_745:\n        /* \"#utility.yul\":16480:16482   */\n      0x20\n        /* \"#utility.yul\":16475:16478   */\n      dup3\n        /* \"#utility.yul\":16471:16483   */\n      add\n        /* \"#utility.yul\":16464:16483   */\n      swap1\n      pop\n        /* \"#utility.yul\":16123:16489   */\n      swap2\n      swap1\n      pop\n      jump\t// out\n        /* \"#utility.yul\":16495:16914   */\n    tag_457:\n        /* \"#utility.yul\":16661:16665   */\n      0x00\n        /* \"#utility.yul\":16699:16701   */\n      0x20\n        /* \"#utility.yul\":16688:16697   */\n      dup3\n        /* \"#utility.yul\":16684:16702   */\n      add\n        /* \"#utility.yul\":16676:16702   */\n      swap1\n      pop\n        /* \"#utility.yul\":16748:16757   */\n      dup2\n        /* \"#utility.yul\":16742:16746   */\n      dup2\n        /* \"#utility.yul\":16738:16758   */\n      sub\n        /* \"#utility.yul\":16734:16735   */\n      0x00\n        /* \"#utility.yul\":16723:16732   */\n      dup4\n        /* \"#utility.yul\":16719:16736   */\n      add\n        /* \"#utility.yul\":16712:16759   */\n      mstore\n        /* \"#utility.yul\":16776:16907   */\n      tag_747\n        /* \"#utility.yul\":16902:16906   */\n      dup2\n        /* \"#utility.yul\":16776:16907   */\n      tag_561\n      jump\t// in\n    tag_747:\n        /* \"#utility.yul\":16768:16907   */\n      swap1\n      pop\n        /* \"#utility.yul\":16495:16914   */\n      swap2\n      swap1\n      pop\n      jump\t// out\n        /* \"#utility.yul\":16920:17018   */\n    tag_562:\n        /* \"#utility.yul\":16971:16977   */\n      0x00\n        /* \"#utility.yul\":17005:17010   */\n      dup2\n        /* \"#utility.yul\":16999:17011   */\n      mload\n        /* \"#utility.yul\":16989:17011   */\n      swap1\n      pop\n        /* \"#utility.yul\":16920:17018   */\n      swap2\n      swap1\n      pop\n      jump\t// out\n        /* \"#utility.yul\":17024:17410   */\n    tag_563:\n        /* \"#utility.yul\":17128:17131   */\n      0x00\n        /* \"#utility.yul\":17156:17194   */\n      tag_750\n        /* \"#utility.yul\":17188:17193   */\n      dup3\n        /* \"#utility.yul\":17156:17194   */\n      tag_562\n      jump\t// in\n    tag_750:\n        /* \"#utility.yul\":17210:17298   */\n      tag_751\n        /* \"#utility.yul\":17291:17297   */\n      dup2\n        /* \"#utility.yul\":17286:17289   */\n      dup6\n        /* \"#utility.yul\":17210:17298   */\n      tag_547\n      jump\t// in\n    tag_751:\n        /* \"#utility.yul\":17203:17298   */\n      swap4\n      pop\n        /* \"#utility.yul\":17307:17372   */\n      tag_752\n        /* \"#utility.yul\":17365:17371   */\n      dup2\n        /* \"#utility.yul\":17360:17363   */\n      dup6\n        /* \"#utility.yul\":17353:17357   */\n      0x20\n        /* \"#utility.yul\":17346:17351   */\n      dup7\n        /* \"#utility.yul\":17342:17358   */\n      add\n        /* \"#utility.yul\":17307:17372   */\n      tag_542\n      jump\t// in\n    tag_752:\n        /* \"#utility.yul\":17397:17403   */\n      dup1\n        /* \"#utility.yul\":17392:17395   */\n      dup5\n        /* \"#utility.yul\":17388:17404   */\n      add\n        /* \"#utility.yul\":17381:17404   */\n      swap2\n      pop\n        /* \"#utility.yul\":17132:17410   */\n      pop\n        /* \"#utility.yul\":17024:17410   */\n      swap3\n      swap2\n      pop\n      pop\n      jump\t// out\n        /* \"#utility.yul\":17416:17687   */\n    tag_488:\n        /* \"#utility.yul\":17546:17549   */\n      0x00\n        /* \"#utility.yul\":17568:17661   */\n      tag_754\n        /* \"#utility.yul\":17657:17660   */\n      dup3\n        /* \"#utility.yul\":17648:17654   */\n      dup5\n        /* \"#utility.yul\":17568:17661   */\n      tag_563\n      jump\t// in\n    tag_754:\n        /* \"#utility.yul\":17561:17661   */\n      swap2\n      pop\n        /* \"#utility.yul\":17678:17681   */\n      dup2\n        /* \"#utility.yul\":17671:17681   */\n      swap1\n      pop\n        /* \"#utility.yul\":17416:17687   */\n      swap3\n      swap2\n      pop\n      pop\n      jump\t// out\n\n    auxdata: 0xa26469706673582212206c66a4014f9aaabfd039af507353c9cd2d0c90d5aa9b9a6eb4658df352dea66664736f6c634300081e0033\n}\n",
				"bytecode": {
					"linkReferences": {},
					"object": "60a06040523073ffffffffffffffffffffffffffffffffffffffff1660809073ffffffffffffffffffffffffffffffffffffffff168152503480156041575f5ffd5b506080516132566100685f395f818161211101528181612166015261234301526132565ff3fe6080604052600436106101c5575f3560e01c806375b238fc116100f6578063be32b3f811610094578063db2e21bc11610063578063db2e21bc1461067b578063e43252d714610691578063fe575a87146106b9578063ff2f97a3146106f55761026d565b8063be32b3f8146105f9578063cd6dc68714610621578063d0e30db014610649578063d547741f146106535761026d565b80638ab1d681116100d05780638ab1d6811461054157806391d1485414610569578063a217fddf146105a5578063ad3cb1cc146105cf5761026d565b806375b238fc146104d957806383a9b785146105035780638456cb591461052b5761026d565b80633f4ba83a1161016357806352d1902d1161013d57806352d1902d14610421578063537df3b61461044b5780635c975abb1461047357806370a082311461049d5761026d565b80633f4ba83a146103c757806344337ea1146103dd5780634f1ef286146104055761026d565b8063248a9ca31161019f578063248a9ca3146102ff5780632f2ff15d1461033b57806336568abe146103635780633af32abf1461038b5761026d565b806301ffc9a7146102715780630905f560146102ad57806319058c15146102d75761026d565b3661026d573460665f3373ffffffffffffffffffffffffffffffffffffffff1673ffffffffffffffffffffffffffffffffffffffff1681526020019081526020015f205f828254610216919061299b565b925050819055503373ffffffffffffffffffffffffffffffffffffffff167fe1fffcc4923d04b559f4d29a8bfc6cda04eb5b0d3c460751c2402c5c5cc9109c3460405161026391906129dd565b60405180910390a2005b5f5ffd5b34801561027c575f5ffd5b5061029760048036038101906102929190612a5c565b61071f565b6040516102a49190612aa1565b60405180910390f35b3480156102b8575f5ffd5b506102c1610730565b6040516102ce9190612aa1565b60405180910390f35b3480156102e2575f5ffd5b506102fd60048036038101906102f89190612ae4565b610742565b005b34801561030a575f5ffd5b5061032560048036038101906103209190612b42565b610bce565b6040516103329190612b7c565b60405180910390f35b348015610346575f5ffd5b50610361600480360381019061035c9190612bef565b610bf8565b005b34801561036e575f5ffd5b5061038960048036038101906103849190612bef565b610c1a565b005b348015610396575f5ffd5b506103b160048036038101906103ac9190612c2d565b610c95565b6040516103be9190612aa1565b60405180910390f35b3480156103d2575f5ffd5b506103db610ce7565b005b3480156103e8575f5ffd5b5061040360048036038101906103fe9190612c2d565b610d1c565b005b61041f600480360381019061041a9190612d94565b610f2e565b005b34801561042c575f5ffd5b50610435610f4d565b6040516104429190612b7c565b60405180910390f35b348015610456575f5ffd5b50610471600480360381019061046c9190612c2d565b610f7e565b005b34801561047e575f5ffd5b506104876110ce565b6040516104949190612aa1565b60405180910390f35b3480156104a8575f5ffd5b506104c360048036038101906104be9190612c2d565b6110e2565b6040516104d091906129dd565b60405180910390f35b3480156104e4575f5ffd5b506104ed611128565b6040516104fa9190612b7c565b60405180910390f35b34801561050e575f5ffd5b5061052960048036038101906105249190612ae4565b61114c565b005b348015610536575f5ffd5b5061053f6111f1565b005b34801561054c575f5ffd5b5061056760048036038101906105629190612c2d565b611226565b005b348015610574575f5ffd5b5061058f600480360381019061058a9190612bef565b611376565b60405161059c9190612aa1565b60405180910390f35b3480156105b0575f5ffd5b506105b96113e7565b6040516105c69190612b7c565b60405180910390f35b3480156105da575f5ffd5b506105e36113ed565b6040516105f09190612e4e565b60405180910390f35b348015610604575f5ffd5b5061061f600480360381019061061a9190612e98565b611426565b005b34801561062c575f5ffd5b5061064760048036038101906106429190612ec3565b6114a4565b005b6106516116fa565b005b34801561065e575f5ffd5b5061067960048036038101906106749190612bef565b61187e565b005b348015610686575f5ffd5b5061068f6118a0565b005b34801561069c575f5ffd5b506106b760048036038101906106b29190612c2d565b611b42565b005b3480156106c4575f5ffd5b506106df60048036038101906106da9190612c2d565b611d01565b6040516106ec9190612aa1565b60405180910390f35b348015610700575f5ffd5b50610709611d53565b60405161071691906129dd565b60405180910390f35b5f61072982611d59565b9050919050565b60685f9054906101000a900460ff1681565b61074a611dd2565b610752611e21565b60655f3373ffffffffffffffffffffffffffffffffffffffff1673ffffffffffffffffffffffffffffffffffffffff1681526020019081526020015f205f9054906101000a900460ff16156107de57336040517fdaf49ab90000000000000000000000000000000000000000000000000000000081526004016107d59190612f10565b60405180910390fd5b60645f3373ffffffffffffffffffffffffffffffffffffffff1673ffffffffffffffffffffffffffffffffffffffff1681526020019081526020015f205f9054906101000a900460ff1661086957336040517fdf17e3160000000000000000000000000000000000000000000000000000000081526004016108609190612f10565b60405180910390fd5b5f81036108a2576040517fcbca5aa200000000000000000000000000000000000000000000000000000000815260040160405180910390fd5b6069548111156108ed57806069546040517f89fe1d920000000000000000000000000000000000000000000000000000000081526004016108e4929190612f29565b60405180910390fd5b60685f9054906101000a900460ff1615610933576040517fd08164e300000000000000000000000000000000000000000000000000000000815260040160405180910390fd5b4360675f3373ffffffffffffffffffffffffffffffffffffffff1673ffffffffffffffffffffffffffffffffffffffff1681526020019081526020015f2054106109a9576040517faa9a98df00000000000000000000000000000000000000000000000000000000815260040160405180910390fd5b5f60665f3373ffffffffffffffffffffffffffffffffffffffff1673ffffffffffffffffffffffffffffffffffffffff1681526020019081526020015f2054905081811015610a315780826040517fcf479181000000000000000000000000000000000000000000000000000000008152600401610a28929190612f29565b60405180910390fd5b610a3b3383611e6b565b8181610a479190612f50565b60665f3373ffffffffffffffffffffffffffffffffffffffff1673ffffffffffffffffffffffffffffffffffffffff1681526020019081526020015f20819055504360675f3373ffffffffffffffffffffffffffffffffffffffff1673ffffffffffffffffffffffffffffffffffffffff1681526020019081526020015f20819055505f3373ffffffffffffffffffffffffffffffffffffffff1683604051610aef90612fb0565b5f6040518083038185875af1925050503d805f8114610b29576040519150601f19603f3d011682016040523d82523d5f602084013e610b2e565b606091505b5050905080610b69576040517f90b8ec1800000000000000000000000000000000000000000000000000000000815260040160405180910390fd5b3373ffffffffffffffffffffffffffffffffffffffff167f71be1378c49e2fbc5c210c1ce7e618f56aa4022f5bd4776f339956c43b55a97584604051610baf91906129dd565b60405180910390a2610bc13384611e6f565b5050610bcb611e73565b50565b5f5f610bd8611e7d565b9050805f015f8481526020019081526020015f2060010154915050919050565b610c0182610bce565b610c0a81611ea4565b610c148383611eb8565b50505050565b610c22611fb0565b73ffffffffffffffffffffffffffffffffffffffff168173ffffffffffffffffffffffffffffffffffffffff1614610c86576040517f6697b23200000000000000000000000000000000000000000000000000000000815260040160405180910390fd5b610c908282611fb7565b505050565b5f60645f8373ffffffffffffffffffffffffffffffffffffffff1673ffffffffffffffffffffffffffffffffffffffff1681526020019081526020015f205f9054906101000a900460ff169050919050565b7fa49807205ce4d355092ef5a8a18f56e8913cf4a201fbe287825b095693c21775610d1181611ea4565b610d196120af565b50565b7fa49807205ce4d355092ef5a8a18f56e8913cf4a201fbe287825b095693c21775610d4681611ea4565b610d4e611e21565b5f73ffffffffffffffffffffffffffffffffffffffff168273ffffffffffffffffffffffffffffffffffffffff1603610db3576040517fd92e233d00000000000000000000000000000000000000000000000000000000815260040160405180910390fd5b60645f8373ffffffffffffffffffffffffffffffffffffffff1673ffffffffffffffffffffffffffffffffffffffff1681526020019081526020015f205f9054906101000a900460ff1615610e925760645f8373ffffffffffffffffffffffffffffffffffffffff1673ffffffffffffffffffffffffffffffffffffffff1681526020019081526020015f205f6101000a81549060ff02191690558173ffffffffffffffffffffffffffffffffffffffff167fcdd2e9b91a56913d370075169cefa1602ba36be5301664f752192bb1709df75760405160405180910390a25b600160655f8473ffffffffffffffffffffffffffffffffffffffff1673ffffffffffffffffffffffffffffffffffffffff1681526020019081526020015f205f6101000a81548160ff0219169083151502179055508173ffffffffffffffffffffffffffffffffffffffff167fffa4e6181777692565cf28528fc88fd1516ea86b56da075235fa575af6a4b85560405160405180910390a25050565b610f3661210f565b610f3f826121f5565b610f498282612223565b5050565b5f610f56612341565b7f360894a13ba1a3210667c828492db98dca3e2076cc3735a920a3ca505d382bbc5f1b905090565b7fa49807205ce4d355092ef5a8a18f56e8913cf4a201fbe287825b095693c21775610fa881611ea4565b610fb0611e21565b60655f8373ffffffffffffffffffffffffffffffffffffffff1673ffffffffffffffffffffffffffffffffffffffff1681526020019081526020015f205f9054906101000a900460ff1661103b57816040517fdaf49ab90000000000000000000000000000000000000000000000000000000081526004016110329190612f10565b60405180910390fd5b60655f8373ffffffffffffffffffffffffffffffffffffffff1673ffffffffffffffffffffffffffffffffffffffff1681526020019081526020015f205f6101000a81549060ff02191690558173ffffffffffffffffffffffffffffffffffffffff167f2b6bf71b58b3583add364b3d9060ebf8019650f65f5be35f5464b9cb3e4ba2d460405160405180910390a25050565b5f5f5f9054906101000a900460ff16905090565b5f60665f8373ffffffffffffffffffffffffffffffffffffffff1673ffffffffffffffffffffffffffffffffffffffff1681526020019081526020015f20549050919050565b7fa49807205ce4d355092ef5a8a18f56e8913cf4a201fbe287825b095693c2177581565b7fa49807205ce4d355092ef5a8a18f56e8913cf4a201fbe287825b095693c2177561117681611ea4565b5f82036111af576040517f7f11a96200000000000000000000000000000000000000000000000000000000815260040160405180910390fd5b816069819055507f973cce1b2a663004358d1fe9f49f3a76491ba147835396138b452bef464b7f67826040516111e591906129dd565b60405180910390a15050565b7fa49807205ce4d355092ef5a8a18f56e8913cf4a201fbe287825b095693c2177561121b81611ea4565b6112236123c8565b50565b7fa49807205ce4d355092ef5a8a18f56e8913cf4a201fbe287825b095693c2177561125081611ea4565b611258611e21565b60645f8373ffffffffffffffffffffffffffffffffffffffff1673ffffffffffffffffffffffffffffffffffffffff1681526020019081526020015f205f9054906101000a900460ff166112e357816040517fdf17e3160000000000000000000000000000000000000000000000000000000081526004016112da9190612f10565b60405180910390fd5b60645f8373ffffffffffffffffffffffffffffffffffffffff1673ffffffffffffffffffffffffffffffffffffffff1681526020019081526020015f205f6101000a81549060ff02191690558173ffffffffffffffffffffffffffffffffffffffff167fcdd2e9b91a56913d370075169cefa1602ba36be5301664f752192bb1709df75760405160405180910390a25050565b5f5f611380611e7d565b9050805f015f8581526020019081526020015f205f015f8473ffffffffffffffffffffffffffffffffffffffff1673ffffffffffffffffffffffffffffffffffffffff1681526020019081526020015f205f9054906101000a900460ff1691505092915050565b5f5f1b81565b6040518060400160405280600581526020017f352e302e3000000000000000000000000000000000000000000000000000000081525081565b7fa49807205ce4d355092ef5a8a18f56e8913cf4a201fbe287825b095693c2177561145081611ea4565b8160685f6101000a81548160ff0219169083151502179055507f2e5a1930def2f974808cd3dd28f6606d8d2cb5d7adb78f6761ea31062ced1a33826040516114989190612aa1565b60405180910390a15050565b5f6114ad612429565b90505f815f0160089054906101000a900460ff161590505f825f015f9054906101000a900467ffffffffffffffff1690505f5f8267ffffffffffffffff161480156114f55750825b90505f60018367ffffffffffffffff1614801561152857505f3073ffffffffffffffffffffffffffffffffffffffff163b145b905081158015611536575080155b1561156d576040517ff92ee8a900000000000000000000000000000000000000000000000000000000815260040160405180910390fd5b6001855f015f6101000a81548167ffffffffffffffff021916908367ffffffffffffffff16021790555083156115ba576001855f0160086101000a81548160ff0219169083151502179055505b5f73ffffffffffffffffffffffffffffffffffffffff168773ffffffffffffffffffffffffffffffffffffffff160361161f576040517fd92e233d00000000000000000000000000000000000000000000000000000000815260040160405180910390fd5b61162761243c565b61162f612446565b611637612458565b61163f61246a565b61164b5f5f1b88611eb8565b506116767fa49807205ce4d355092ef5a8a18f56e8913cf4a201fbe287825b095693c2177588611eb8565b50856069819055505f60685f6101000a81548160ff02191690831515021790555083156116f1575f855f0160086101000a81548160ff0219169083151502179055507fc7f505b2f371ae2175ee4913f4499e1f2633a7b5936321eed1cdaeb6115181d260016040516116e89190613019565b60405180910390a15b50505050505050565b611702611e21565b60655f3373ffffffffffffffffffffffffffffffffffffffff1673ffffffffffffffffffffffffffffffffffffffff1681526020019081526020015f205f9054906101000a900460ff161561178e57336040517fdaf49ab90000000000000000000000000000000000000000000000000000000081526004016117859190612f10565b60405180910390fd5b5f34036117c7576040517fcbca5aa200000000000000000000000000000000000000000000000000000000815260040160405180910390fd5b6117d13334612474565b3460665f3373ffffffffffffffffffffffffffffffffffffffff1673ffffffffffffffffffffffffffffffffffffffff1681526020019081526020015f205f82825461181d919061299b565b925050819055503373ffffffffffffffffffffffffffffffffffffffff167fe1fffcc4923d04b559f4d29a8bfc6cda04eb5b0d3c460751c2402c5c5cc9109c3460405161186a91906129dd565b60405180910390a261187c3334612478565b565b61188782610bce565b61189081611ea4565b61189a8383611fb7565b50505050565b6118a8611dd2565b60655f3373ffffffffffffffffffffffffffffffffffffffff1673ffffffffffffffffffffffffffffffffffffffff1681526020019081526020015f205f9054906101000a900460ff161561193457336040517fdaf49ab900000000000000000000000000000000000000000000000000000000815260040161192b9190612f10565b60405180910390fd5b60685f9054906101000a900460ff16611979576040517fec73ce5c00000000000000000000000000000000000000000000000000000000815260040160405180910390fd5b5f60665f3373ffffffffffffffffffffffffffffffffffffffff1673ffffffffffffffffffffffffffffffffffffffff1681526020019081526020015f205490505f81036119f3576040517fc2caa2a600000000000000000000000000000000000000000000000000000000815260040160405180910390fd5b6119fd338261247c565b5f60665f3373ffffffffffffffffffffffffffffffffffffffff1673ffffffffffffffffffffffffffffffffffffffff1681526020019081526020015f20819055505f3373ffffffffffffffffffffffffffffffffffffffff1682604051611a6490612fb0565b5f6040518083038185875af1925050503d805f8114611a9e576040519150601f19603f3d011682016040523d82523d5f602084013e611aa3565b606091505b5050905080611ade576040517f90b8ec1800000000000000000000000000000000000000000000000000000000815260040160405180910390fd5b3373ffffffffffffffffffffffffffffffffffffffff167f5fafa99d0643513820be26656b45130b01e1c03062e1266bf36f88cbd3bd969583604051611b2491906129dd565b60405180910390a2611b363383612480565b5050611b40611e73565b565b7fa49807205ce4d355092ef5a8a18f56e8913cf4a201fbe287825b095693c21775611b6c81611ea4565b611b74611e21565b5f73ffffffffffffffffffffffffffffffffffffffff168273ffffffffffffffffffffffffffffffffffffffff1603611bd9576040517fd92e233d00000000000000000000000000000000000000000000000000000000815260040160405180910390fd5b60655f8373ffffffffffffffffffffffffffffffffffffffff1673ffffffffffffffffffffffffffffffffffffffff1681526020019081526020015f205f9054906101000a900460ff1615611c6557816040517fb1ac0d98000000000000000000000000000000000000000000000000000000008152600401611c5c9190612f10565b60405180910390fd5b600160645f8473ffffffffffffffffffffffffffffffffffffffff1673ffffffffffffffffffffffffffffffffffffffff1681526020019081526020015f205f6101000a81548160ff0219169083151502179055508173ffffffffffffffffffffffffffffffffffffffff167faab7954e9d246b167ef88aeddad35209ca2489d95a8aeb59e288d9b19fae5a5460405160405180910390a25050565b5f60655f8373ffffffffffffffffffffffffffffffffffffffff1673ffffffffffffffffffffffffffffffffffffffff1681526020019081526020015f205f9054906101000a900460ff169050919050565b60695481565b5f7f7965db0b000000000000000000000000000000000000000000000000000000007bffffffffffffffffffffffffffffffffffffffffffffffffffffffff1916827bffffffffffffffffffffffffffffffffffffffffffffffffffffffff19161480611dcb5750611dca82612484565b5b9050919050565b600260325403611e17576040517f08c379a0000000000000000000000000000000000000000000000000000000008152600401611e0e9061307c565b60405180910390fd5b6002603281905550565b611e296110ce565b15611e69576040517f08c379a0000000000000000000000000000000000000000000000000000000008152600401611e60906130e4565b60405180910390fd5b565b5050565b5050565b6001603281905550565b5f7f02dd7bc7dec4dceedda775e58dd541e08a116c6c53815c0bd028192f7b626800905090565b611eb581611eb0611fb0565b6124ed565b50565b5f5f611ec2611e7d565b9050611ece8484611376565b611fa5576001815f015f8681526020019081526020015f205f015f8573ffffffffffffffffffffffffffffffffffffffff1673ffffffffffffffffffffffffffffffffffffffff1681526020019081526020015f205f6101000a81548160ff021916908315150217905550611f41611fb0565b73ffffffffffffffffffffffffffffffffffffffff168373ffffffffffffffffffffffffffffffffffffffff16857f2f8788117e7eff1d82e926ec794901d17c78024a50270940304540a733656f0d60405160405180910390a46001915050611faa565b5f9150505b92915050565b5f33905090565b5f5f611fc1611e7d565b9050611fcd8484611376565b156120a4575f815f015f8681526020019081526020015f205f015f8573ffffffffffffffffffffffffffffffffffffffff1673ffffffffffffffffffffffffffffffffffffffff1681526020019081526020015f205f6101000a81548160ff021916908315150217905550612040611fb0565b73ffffffffffffffffffffffffffffffffffffffff168373ffffffffffffffffffffffffffffffffffffffff16857ff6391f5c32d9c69d2a47ea670b442974b53935d1edc7fd64eb21e047a839171b60405160405180910390a460019150506120a9565b5f9150505b92915050565b6120b761253e565b5f5f5f6101000a81548160ff0219169083151502179055507f5db9ee0a495bf2e6ff9c91a7834c1ba4fdd244a5e8aa4e537bd38aeae4b073aa6120f8611fb0565b6040516121059190612f10565b60405180910390a1565b7f000000000000000000000000000000000000000000000000000000000000000073ffffffffffffffffffffffffffffffffffffffff163073ffffffffffffffffffffffffffffffffffffffff1614806121bc57507f000000000000000000000000000000000000000000000000000000000000000073ffffffffffffffffffffffffffffffffffffffff166121a3612587565b73ffffffffffffffffffffffffffffffffffffffff1614155b156121f3576040517fe07c8dba00000000000000000000000000000000000000000000000000000000815260040160405180910390fd5b565b7fa49807205ce4d355092ef5a8a18f56e8913cf4a201fbe287825b095693c2177561221f81611ea4565b5050565b8173ffffffffffffffffffffffffffffffffffffffff166352d1902d6040518163ffffffff1660e01b8152600401602060405180830381865afa92505050801561228b57506040513d601f19601f820116820180604052508101906122889190613116565b60015b6122cc57816040517f4c9c8ce30000000000000000000000000000000000000000000000000000000081526004016122c39190612f10565b60405180910390fd5b7f360894a13ba1a3210667c828492db98dca3e2076cc3735a920a3ca505d382bbc5f1b811461233257806040517faa1d49a40000000000000000000000000000000000000000000000000000000081526004016123299190612b7c565b60405180910390fd5b61233c83836125da565b505050565b7f000000000000000000000000000000000000000000000000000000000000000073ffffffffffffffffffffffffffffffffffffffff163073ffffffffffffffffffffffffffffffffffffffff16146123c6576040517fe07c8dba00000000000000000000000000000000000000000000000000000000815260040160405180910390fd5b565b6123d0611e21565b60015f5f6101000a81548160ff0219169083151502179055507f62e78cea01bee320cd4e420270b5ea74000d11b0c9f74754ebdbfc544b05a258612412611fb0565b60405161241f9190612f10565b60405180910390a1565b5f5f61243361264c565b90508091505090565b612444612675565b565b61244e612675565b6124566126b5565b565b612460612675565b6124686126d7565b565b612472612675565b565b5050565b5050565b5050565b5050565b5f7f01ffc9a7000000000000000000000000000000000000000000000000000000007bffffffffffffffffffffffffffffffffffffffffffffffffffffffff1916827bffffffffffffffffffffffffffffffffffffffffffffffffffffffff1916149050919050565b6124f78282611376565b61253a5780826040517fe2517d3f000000000000000000000000000000000000000000000000000000008152600401612531929190613141565b60405180910390fd5b5050565b6125466110ce565b612585576040517f08c379a000000000000000000000000000000000000000000000000000000000815260040161257c906131b2565b60405180910390fd5b565b5f6125b37f360894a13ba1a3210667c828492db98dca3e2076cc3735a920a3ca505d382bbc5f1b6126e9565b5f015f9054906101000a900473ffffffffffffffffffffffffffffffffffffffff16905090565b6125e3826126f2565b8173ffffffffffffffffffffffffffffffffffffffff167fbc7cd75a20ee27fd9adebab32041f755214dbc6bffa90cc0225b39da2e5c2d3b60405160405180910390a25f8151111561263f5761263982826127bb565b50612648565b61264761283b565b5b5050565b5f7ff0c57e16840df040f15088dc2f81fe391c3923bec73e23a9662efc9c229c6a005f1b905090565b61267d612877565b6126b3576040517fd7e6bcf800000000000000000000000000000000000000000000000000000000815260040160405180910390fd5b565b6126bd612675565b5f5f5f6101000a81548160ff021916908315150217905550565b6126df612675565b6001603281905550565b5f819050919050565b5f8173ffffffffffffffffffffffffffffffffffffffff163b0361274d57806040517f4c9c8ce30000000000000000000000000000000000000000000000000000000081526004016127449190612f10565b60405180910390fd5b806127797f360894a13ba1a3210667c828492db98dca3e2076cc3735a920a3ca505d382bbc5f1b6126e9565b5f015f6101000a81548173ffffffffffffffffffffffffffffffffffffffff021916908373ffffffffffffffffffffffffffffffffffffffff16021790555050565b60605f5f8473ffffffffffffffffffffffffffffffffffffffff16846040516127e4919061320a565b5f60405180830381855af49150503d805f811461281c576040519150601f19603f3d011682016040523d82523d5f602084013e612821565b606091505b5091509150612831858383612895565b9250505092915050565b5f341115612875576040517fb398979f00000000000000000000000000000000000000000000000000000000815260040160405180910390fd5b565b5f612880612429565b5f0160089054906101000a900460ff16905090565b6060826128aa576128a582612922565b61291a565b5f82511480156128d057505f8473ffffffffffffffffffffffffffffffffffffffff163b145b1561291257836040517f9996b3150000000000000000000000000000000000000000000000000000000081526004016129099190612f10565b60405180910390fd5b81905061291b565b5b9392505050565b5f8151111561293357805160208201fd5b6040517fd6bda27500000000000000000000000000000000000000000000000000000000815260040160405180910390fd5b5f819050919050565b7f4e487b71000000000000000000000000000000000000000000000000000000005f52601160045260245ffd5b5f6129a582612965565b91506129b083612965565b92508282019050808211156129c8576129c761296e565b5b92915050565b6129d781612965565b82525050565b5f6020820190506129f05f8301846129ce565b92915050565b5f604051905090565b5f5ffd5b5f5ffd5b5f7fffffffff0000000000000000000000000000000000000000000000000000000082169050919050565b612a3b81612a07565b8114612a45575f5ffd5b50565b5f81359050612a5681612a32565b92915050565b5f60208284031215612a7157612a706129ff565b5b5f612a7e84828501612a48565b91505092915050565b5f8115159050919050565b612a9b81612a87565b82525050565b5f602082019050612ab45f830184612a92565b92915050565b612ac381612965565b8114612acd575f5ffd5b50565b5f81359050612ade81612aba565b92915050565b5f60208284031215612af957612af86129ff565b5b5f612b0684828501612ad0565b91505092915050565b5f819050919050565b612b2181612b0f565b8114612b2b575f5ffd5b50565b5f81359050612b3c81612b18565b92915050565b5f60208284031215612b5757612b566129ff565b5b5f612b6484828501612b2e565b91505092915050565b612b7681612b0f565b82525050565b5f602082019050612b8f5f830184612b6d565b92915050565b5f73ffffffffffffffffffffffffffffffffffffffff82169050919050565b5f612bbe82612b95565b9050919050565b612bce81612bb4565b8114612bd8575f5ffd5b50565b5f81359050612be981612bc5565b92915050565b5f5f60408385031215612c0557612c046129ff565b5b5f612c1285828601612b2e565b9250506020612c2385828601612bdb565b9150509250929050565b5f60208284031215612c4257612c416129ff565b5b5f612c4f84828501612bdb565b91505092915050565b5f5ffd5b5f5ffd5b5f601f19601f8301169050919050565b7f4e487b71000000000000000000000000000000000000000000000000000000005f52604160045260245ffd5b612ca682612c60565b810181811067ffffffffffffffff82111715612cc557612cc4612c70565b5b80604052505050565b5f612cd76129f6565b9050612ce38282612c9d565b919050565b5f67ffffffffffffffff821115612d0257612d01612c70565b5b612d0b82612c60565b9050602081019050919050565b828183375f83830152505050565b5f612d38612d3384612ce8565b612cce565b905082815260208101848484011115612d5457612d53612c5c565b5b612d5f848285612d18565b509392505050565b5f82601f830112612d7b57612d7a612c58565b5b8135612d8b848260208601612d26565b91505092915050565b5f5f60408385031215612daa57612da96129ff565b5b5f612db785828601612bdb565b925050602083013567ffffffffffffffff811115612dd857612dd7612a03565b5b612de485828601612d67565b9150509250929050565b5f81519050919050565b5f82825260208201905092915050565b8281835e5f83830152505050565b5f612e2082612dee565b612e2a8185612df8565b9350612e3a818560208601612e08565b612e4381612c60565b840191505092915050565b5f6020820190508181035f830152612e668184612e16565b905092915050565b612e7781612a87565b8114612e81575f5ffd5b50565b5f81359050612e9281612e6e565b92915050565b5f60208284031215612ead57612eac6129ff565b5b5f612eba84828501612e84565b91505092915050565b5f5f60408385031215612ed957612ed86129ff565b5b5f612ee685828601612bdb565b9250506020612ef785828601612ad0565b9150509250929050565b612f0a81612bb4565b82525050565b5f602082019050612f235f830184612f01565b92915050565b5f604082019050612f3c5f8301856129ce565b612f4960208301846129ce565b9392505050565b5f612f5a82612965565b9150612f6583612965565b9250828203905081811115612f7d57612f7c61296e565b5b92915050565b5f81905092915050565b50565b5f612f9b5f83612f83565b9150612fa682612f8d565b5f82019050919050565b5f612fba82612f90565b9150819050919050565b5f819050919050565b5f67ffffffffffffffff82169050919050565b5f819050919050565b5f613003612ffe612ff984612fc4565b612fe0565b612fcd565b9050919050565b61301381612fe9565b82525050565b5f60208201905061302c5f83018461300a565b92915050565b7f5265656e7472616e637947756172643a207265656e7472616e742063616c6c005f82015250565b5f613066601f83612df8565b915061307182613032565b602082019050919050565b5f6020820190508181035f8301526130938161305a565b9050919050565b7f5061757361626c653a20706175736564000000000000000000000000000000005f82015250565b5f6130ce601083612df8565b91506130d98261309a565b602082019050919050565b5f6020820190508181035f8301526130fb816130c2565b9050919050565b5f8151905061311081612b18565b92915050565b5f6020828403121561312b5761312a6129ff565b5b5f61313884828501613102565b91505092915050565b5f6040820190506131545f830185612f01565b6131616020830184612b6d565b9392505050565b7f5061757361626c653a206e6f74207061757365640000000000000000000000005f82015250565b5f61319c601483612df8565b91506131a782613168565b602082019050919050565b5f6020820190508181035f8301526131c981613190565b9050919050565b5f81519050919050565b5f6131e4826131d0565b6131ee8185612f83565b93506131fe818560208601612e08565b80840191505092915050565b5f61321582846131da565b91508190509291505056fea26469706673582212206c66a4014f9aaabfd039af507353c9cd2d0c90d5aa9b9a6eb4658df352dea66664736f6c634300081e0033",
					"opcodes": "PUSH1 0xA0 PUSH1 0x40 MSTORE ADDRESS PUSH20 0xFFFFFFFFFFFFFFFFFFFFFFFFFFFFFFFFFFFFFFFF AND PUSH1 0x80 SWAP1 PUSH20 0xFFFFFFFFFFFFFFFFFFFFFFFFFFFFFFFFFFFFFFFF AND DUP2 MSTORE POP CALLVALUE DUP1 ISZERO PUSH1 0x41 JUMPI PUSH0 PUSH0 REVERT JUMPDEST POP PUSH1 0x80 MLOAD PUSH2 0x3256 PUSH2 0x68 PUSH0 CODECOPY PUSH0 DUP2 DUP2 PUSH2 0x2111 ADD MSTORE DUP2 DUP2 PUSH2 0x2166 ADD MSTORE PUSH2 0x2343 ADD MSTORE PUSH2 0x3256 PUSH0 RETURN INVALID PUSH1 0x80 PUSH1 0x40 MSTORE PUSH1 0x4 CALLDATASIZE LT PUSH2 0x1C5 JUMPI PUSH0 CALLDATALOAD PUSH1 0xE0 SHR DUP1 PUSH4 0x75B238FC GT PUSH2 0xF6 JUMPI DUP1 PUSH4 0xBE32B3F8 GT PUSH2 0x94 JUMPI DUP1 PUSH4 0xDB2E21BC GT PUSH2 0x63 JUMPI DUP1 PUSH4 0xDB2E21BC EQ PUSH2 0x67B JUMPI DUP1 PUSH4 0xE43252D7 EQ PUSH2 0x691 JUMPI DUP1 PUSH4 0xFE575A87 EQ PUSH2 0x6B9 JUMPI DUP1 PUSH4 0xFF2F97A3 EQ PUSH2 0x6F5 JUMPI PUSH2 0x26D JUMP JUMPDEST DUP1 PUSH4 0xBE32B3F8 EQ PUSH2 0x5F9 JUMPI DUP1 PUSH4 0xCD6DC687 EQ PUSH2 0x621 JUMPI DUP1 PUSH4 0xD0E30DB0 EQ PUSH2 0x649 JUMPI DUP1 PUSH4 0xD547741F EQ PUSH2 0x653 JUMPI PUSH2 0x26D JUMP JUMPDEST DUP1 PUSH4 0x8AB1D681 GT PUSH2 0xD0 JUMPI DUP1 PUSH4 0x8AB1D681 EQ PUSH2 0x541 JUMPI DUP1 PUSH4 0x91D14854 EQ PUSH2 0x569 JUMPI DUP1 PUSH4 0xA217FDDF EQ PUSH2 0x5A5 JUMPI DUP1 PUSH4 0xAD3CB1CC EQ PUSH2 0x5CF JUMPI PUSH2 0x26D JUMP JUMPDEST DUP1 PUSH4 0x75B238FC EQ PUSH2 0x4D9 JUMPI DUP1 PUSH4 0x83A9B785 EQ PUSH2 0x503 JUMPI DUP1 PUSH4 0x8456CB59 EQ PUSH2 0x52B JUMPI PUSH2 0x26D JUMP JUMPDEST DUP1 PUSH4 0x3F4BA83A GT PUSH2 0x163 JUMPI DUP1 PUSH4 0x52D1902D GT PUSH2 0x13D JUMPI DUP1 PUSH4 0x52D1902D EQ PUSH2 0x421 JUMPI DUP1 PUSH4 0x537DF3B6 EQ PUSH2 0x44B JUMPI DUP1 PUSH4 0x5C975ABB EQ PUSH2 0x473 JUMPI DUP1 PUSH4 0x70A08231 EQ PUSH2 0x49D JUMPI PUSH2 0x26D JUMP JUMPDEST DUP1 PUSH4 0x3F4BA83A EQ PUSH2 0x3C7 JUMPI DUP1 PUSH4 0x44337EA1 EQ PUSH2 0x3DD JUMPI DUP1 PUSH4 0x4F1EF286 EQ PUSH2 0x405 JUMPI PUSH2 0x26D JUMP JUMPDEST DUP1 PUSH4 0x248A9CA3 GT PUSH2 0x19F JUMPI DUP1 PUSH4 0x248A9CA3 EQ PUSH2 0x2FF JUMPI DUP1 PUSH4 0x2F2FF15D EQ PUSH2 0x33B JUMPI DUP1 PUSH4 0x36568ABE EQ PUSH2 0x363 JUMPI DUP1 PUSH4 0x3AF32ABF EQ PUSH2 0x38B JUMPI PUSH2 0x26D JUMP JUMPDEST DUP1 PUSH4 0x1FFC9A7 EQ PUSH2 0x271 JUMPI DUP1 PUSH4 0x905F560 EQ PUSH2 0x2AD JUMPI DUP1 PUSH4 0x19058C15 EQ PUSH2 0x2D7 JUMPI PUSH2 0x26D JUMP JUMPDEST CALLDATASIZE PUSH2 0x26D JUMPI CALLVALUE PUSH1 0x66 PUSH0 CALLER PUSH20 0xFFFFFFFFFFFFFFFFFFFFFFFFFFFFFFFFFFFFFFFF AND PUSH20 0xFFFFFFFFFFFFFFFFFFFFFFFFFFFFFFFFFFFFFFFF AND DUP2 MSTORE PUSH1 0x20 ADD SWAP1 DUP2 MSTORE PUSH1 0x20 ADD PUSH0 KECCAK256 PUSH0 DUP3 DUP3 SLOAD PUSH2 0x216 SWAP2 SWAP1 PUSH2 0x299B JUMP JUMPDEST SWAP3 POP POP DUP2 SWAP1 SSTORE POP CALLER PUSH20 0xFFFFFFFFFFFFFFFFFFFFFFFFFFFFFFFFFFFFFFFF AND PUSH32 0xE1FFFCC4923D04B559F4D29A8BFC6CDA04EB5B0D3C460751C2402C5C5CC9109C CALLVALUE PUSH1 0x40 MLOAD PUSH2 0x263 SWAP2 SWAP1 PUSH2 0x29DD JUMP JUMPDEST PUSH1 0x40 MLOAD DUP1 SWAP2 SUB SWAP1 LOG2 STOP JUMPDEST PUSH0 PUSH0 REVERT JUMPDEST CALLVALUE DUP1 ISZERO PUSH2 0x27C JUMPI PUSH0 PUSH0 REVERT JUMPDEST POP PUSH2 0x297 PUSH1 0x4 DUP1 CALLDATASIZE SUB DUP2 ADD SWAP1 PUSH2 0x292 SWAP2 SWAP1 PUSH2 0x2A5C JUMP JUMPDEST PUSH2 0x71F JUMP JUMPDEST PUSH1 0x40 MLOAD PUSH2 0x2A4 SWAP2 SWAP1 PUSH2 0x2AA1 JUMP JUMPDEST PUSH1 0x40 MLOAD DUP1 SWAP2 SUB SWAP1 RETURN JUMPDEST CALLVALUE DUP1 ISZERO PUSH2 0x2B8 JUMPI PUSH0 PUSH0 REVERT JUMPDEST POP PUSH2 0x2C1 PUSH2 0x730 JUMP JUMPDEST PUSH1 0x40 MLOAD PUSH2 0x2CE SWAP2 SWAP1 PUSH2 0x2AA1 JUMP JUMPDEST PUSH1 0x40 MLOAD DUP1 SWAP2 SUB SWAP1 RETURN JUMPDEST CALLVALUE DUP1 ISZERO PUSH2 0x2E2 JUMPI PUSH0 PUSH0 REVERT JUMPDEST POP PUSH2 0x2FD PUSH1 0x4 DUP1 CALLDATASIZE SUB DUP2 ADD SWAP1 PUSH2 0x2F8 SWAP2 SWAP1 PUSH2 0x2AE4 JUMP JUMPDEST PUSH2 0x742 JUMP JUMPDEST STOP JUMPDEST CALLVALUE DUP1 ISZERO PUSH2 0x30A JUMPI PUSH0 PUSH0 REVERT JUMPDEST POP PUSH2 0x325 PUSH1 0x4 DUP1 CALLDATASIZE SUB DUP2 ADD SWAP1 PUSH2 0x320 SWAP2 SWAP1 PUSH2 0x2B42 JUMP JUMPDEST PUSH2 0xBCE JUMP JUMPDEST PUSH1 0x40 MLOAD PUSH2 0x332 SWAP2 SWAP1 PUSH2 0x2B7C JUMP JUMPDEST PUSH1 0x40 MLOAD DUP1 SWAP2 SUB SWAP1 RETURN JUMPDEST CALLVALUE DUP1 ISZERO PUSH2 0x346 JUMPI PUSH0 PUSH0 REVERT JUMPDEST POP PUSH2 0x361 PUSH1 0x4 DUP1 CALLDATASIZE SUB DUP2 ADD SWAP1 PUSH2 0x35C SWAP2 SWAP1 PUSH2 0x2BEF JUMP JUMPDEST PUSH2 0xBF8 JUMP JUMPDEST STOP JUMPDEST CALLVALUE DUP1 ISZERO PUSH2 0x36E JUMPI PUSH0 PUSH0 REVERT JUMPDEST POP PUSH2 0x389 PUSH1 0x4 DUP1 CALLDATASIZE SUB DUP2 ADD SWAP1 PUSH2 0x384 SWAP2 SWAP1 PUSH2 0x2BEF JUMP JUMPDEST PUSH2 0xC1A JUMP JUMPDEST STOP JUMPDEST CALLVALUE DUP1 ISZERO PUSH2 0x396 JUMPI PUSH0 PUSH0 REVERT JUMPDEST POP PUSH2 0x3B1 PUSH1 0x4 DUP1 CALLDATASIZE SUB DUP2 ADD SWAP1 PUSH2 0x3AC SWAP2 SWAP1 PUSH2 0x2C2D JUMP JUMPDEST PUSH2 0xC95 JUMP JUMPDEST PUSH1 0x40 MLOAD PUSH2 0x3BE SWAP2 SWAP1 PUSH2 0x2AA1 JUMP JUMPDEST PUSH1 0x40 MLOAD DUP1 SWAP2 SUB SWAP1 RETURN JUMPDEST CALLVALUE DUP1 ISZERO PUSH2 0x3D2 JUMPI PUSH0 PUSH0 REVERT JUMPDEST POP PUSH2 0x3DB PUSH2 0xCE7 JUMP JUMPDEST STOP JUMPDEST CALLVALUE DUP1 ISZERO PUSH2 0x3E8 JUMPI PUSH0 PUSH0 REVERT JUMPDEST POP PUSH2 0x403 PUSH1 0x4 DUP1 CALLDATASIZE SUB DUP2 ADD SWAP1 PUSH2 0x3FE SWAP2 SWAP1 PUSH2 0x2C2D JUMP JUMPDEST PUSH2 0xD1C JUMP JUMPDEST STOP JUMPDEST PUSH2 0x41F PUSH1 0x4 DUP1 CALLDATASIZE SUB DUP2 ADD SWAP1 PUSH2 0x41A SWAP2 SWAP1 PUSH2 0x2D94 JUMP JUMPDEST PUSH2 0xF2E JUMP JUMPDEST STOP JUMPDEST CALLVALUE DUP1 ISZERO PUSH2 0x42C JUMPI PUSH0 PUSH0 REVERT JUMPDEST POP PUSH2 0x435 PUSH2 0xF4D JUMP JUMPDEST PUSH1 0x40 MLOAD PUSH2 0x442 SWAP2 SWAP1 PUSH2 0x2B7C JUMP JUMPDEST PUSH1 0x40 MLOAD DUP1 SWAP2 SUB SWAP1 RETURN JUMPDEST CALLVALUE DUP1 ISZERO PUSH2 0x456 JUMPI PUSH0 PUSH0 REVERT JUMPDEST POP PUSH2 0x471 PUSH1 0x4 DUP1 CALLDATASIZE SUB DUP2 ADD SWAP1 PUSH2 0x46C SWAP2 SWAP1 PUSH2 0x2C2D JUMP JUMPDEST PUSH2 0xF7E JUMP JUMPDEST STOP JUMPDEST CALLVALUE DUP1 ISZERO PUSH2 0x47E JUMPI PUSH0 PUSH0 REVERT JUMPDEST POP PUSH2 0x487 PUSH2 0x10CE JUMP JUMPDEST PUSH1 0x40 MLOAD PUSH2 0x494 SWAP2 SWAP1 PUSH2 0x2AA1 JUMP JUMPDEST PUSH1 0x40 MLOAD DUP1 SWAP2 SUB SWAP1 RETURN JUMPDEST CALLVALUE DUP1 ISZERO PUSH2 0x4A8 JUMPI PUSH0 PUSH0 REVERT JUMPDEST POP PUSH2 0x4C3 PUSH1 0x4 DUP1 CALLDATASIZE SUB DUP2 ADD SWAP1 PUSH2 0x4BE SWAP2 SWAP1 PUSH2 0x2C2D JUMP JUMPDEST PUSH2 0x10E2 JUMP JUMPDEST PUSH1 0x40 MLOAD PUSH2 0x4D0 SWAP2 SWAP1 PUSH2 0x29DD JUMP JUMPDEST PUSH1 0x40 MLOAD DUP1 SWAP2 SUB SWAP1 RETURN JUMPDEST CALLVALUE DUP1 ISZERO PUSH2 0x4E4 JUMPI PUSH0 PUSH0 REVERT JUMPDEST POP PUSH2 0x4ED PUSH2 0x1128 JUMP JUMPDEST PUSH1 0x40 MLOAD PUSH2 0x4FA SWAP2 SWAP1 PUSH2 0x2B7C JUMP JUMPDEST PUSH1 0x40 MLOAD DUP1 SWAP2 SUB SWAP1 RETURN JUMPDEST CALLVALUE DUP1 ISZERO PUSH2 0x50E JUMPI PUSH0 PUSH0 REVERT JUMPDEST POP PUSH2 0x529 PUSH1 0x4 DUP1 CALLDATASIZE SUB DUP2 ADD SWAP1 PUSH2 0x524 SWAP2 SWAP1 PUSH2 0x2AE4 JUMP JUMPDEST PUSH2 0x114C JUMP JUMPDEST STOP JUMPDEST CALLVALUE DUP1 ISZERO PUSH2 0x536 JUMPI PUSH0 PUSH0 REVERT JUMPDEST POP PUSH2 0x53F PUSH2 0x11F1 JUMP JUMPDEST STOP JUMPDEST CALLVALUE DUP1 ISZERO PUSH2 0x54C JUMPI PUSH0 PUSH0 REVERT JUMPDEST POP PUSH2 0x567 PUSH1 0x4 DUP1 CALLDATASIZE SUB DUP2 ADD SWAP1 PUSH2 0x562 SWAP2 SWAP1 PUSH2 0x2C2D JUMP JUMPDEST PUSH2 0x1226 JUMP JUMPDEST STOP JUMPDEST CALLVALUE DUP1 ISZERO PUSH2 0x574 JUMPI PUSH0 PUSH0 REVERT JUMPDEST POP PUSH2 0x58F PUSH1 0x4 DUP1 CALLDATASIZE SUB DUP2 ADD SWAP1 PUSH2 0x58A SWAP2 SWAP1 PUSH2 0x2BEF JUMP JUMPDEST PUSH2 0x1376 JUMP JUMPDEST PUSH1 0x40 MLOAD PUSH2 0x59C SWAP2 SWAP1 PUSH2 0x2AA1 JUMP JUMPDEST PUSH1 0x40 MLOAD DUP1 SWAP2 SUB SWAP1 RETURN JUMPDEST CALLVALUE DUP1 ISZERO PUSH2 0x5B0 JUMPI PUSH0 PUSH0 REVERT JUMPDEST POP PUSH2 0x5B9 PUSH2 0x13E7 JUMP JUMPDEST PUSH1 0x40 MLOAD PUSH2 0x5C6 SWAP2 SWAP1 PUSH2 0x2B7C JUMP JUMPDEST PUSH1 0x40 MLOAD DUP1 SWAP2 SUB SWAP1 RETURN JUMPDEST CALLVALUE DUP1 ISZERO PUSH2 0x5DA JUMPI PUSH0 PUSH0 REVERT JUMPDEST POP PUSH2 0x5E3 PUSH2 0x13ED JUMP JUMPDEST PUSH1 0x40 MLOAD PUSH2 0x5F0 SWAP2 SWAP1 PUSH2 0x2E4E JUMP JUMPDEST PUSH1 0x40 MLOAD DUP1 SWAP2 SUB SWAP1 RETURN JUMPDEST CALLVALUE DUP1 ISZERO PUSH2 0x604 JUMPI PUSH0 PUSH0 REVERT JUMPDEST POP PUSH2 0x61F PUSH1 0x4 DUP1 CALLDATASIZE SUB DUP2 ADD SWAP1 PUSH2 0x61A SWAP2 SWAP1 PUSH2 0x2E98 JUMP JUMPDEST PUSH2 0x1426 JUMP JUMPDEST STOP JUMPDEST CALLVALUE DUP1 ISZERO PUSH2 0x62C JUMPI PUSH0 PUSH0 REVERT JUMPDEST POP PUSH2 0x647 PUSH1 0x4 DUP1 CALLDATASIZE SUB DUP2 ADD SWAP1 PUSH2 0x642 SWAP2 SWAP1 PUSH2 0x2EC3 JUMP JUMPDEST PUSH2 0x14A4 JUMP JUMPDEST STOP JUMPDEST PUSH2 0x651 PUSH2 0x16FA JUMP JUMPDEST STOP JUMPDEST CALLVALUE DUP1 ISZERO PUSH2 0x65E JUMPI PUSH0 PUSH0 REVERT JUMPDEST POP PUSH2 0x679 PUSH1 0x4 DUP1 CALLDATASIZE SUB DUP2 ADD SWAP1 PUSH2 0x674 SWAP2 SWAP1 PUSH2 0x2BEF JUMP JUMPDEST PUSH2 0x187E JUMP JUMPDEST STOP JUMPDEST CALLVALUE DUP1 ISZERO PUSH2 0x686 JUMPI PUSH0 PUSH0 REVERT JUMPDEST POP PUSH2 0x68F PUSH2 0x18A0 JUMP JUMPDEST STOP JUMPDEST CALLVALUE DUP1 ISZERO PUSH2 0x69C JUMPI PUSH0 PUSH0 REVERT JUMPDEST POP PUSH2 0x6B7 PUSH1 0x4 DUP1 CALLDATASIZE SUB DUP2 ADD SWAP1 PUSH2 0x6B2 SWAP2 SWAP1 PUSH2 0x2C2D JUMP JUMPDEST PUSH2 0x1B42 JUMP JUMPDEST STOP JUMPDEST CALLVALUE DUP1 ISZERO PUSH2 0x6C4 JUMPI PUSH0 PUSH0 REVERT JUMPDEST POP PUSH2 0x6DF PUSH1 0x4 DUP1 CALLDATASIZE SUB DUP2 ADD SWAP1 PUSH2 0x6DA SWAP2 SWAP1 PUSH2 0x2C2D JUMP JUMPDEST PUSH2 0x1D01 JUMP JUMPDEST PUSH1 0x40 MLOAD PUSH2 0x6EC SWAP2 SWAP1 PUSH2 0x2AA1 JUMP JUMPDEST PUSH1 0x40 MLOAD DUP1 SWAP2 SUB SWAP1 RETURN JUMPDEST CALLVALUE DUP1 ISZERO PUSH2 0x700 JUMPI PUSH0 PUSH0 REVERT JUMPDEST POP PUSH2 0x709 PUSH2 0x1D53 JUMP JUMPDEST PUSH1 0x40 MLOAD PUSH2 0x716 SWAP2 SWAP1 PUSH2 0x29DD JUMP JUMPDEST PUSH1 0x40 MLOAD DUP1 SWAP2 SUB SWAP1 RETURN JUMPDEST PUSH0 PUSH2 0x729 DUP3 PUSH2 0x1D59 JUMP JUMPDEST SWAP1 POP SWAP2 SWAP1 POP JUMP JUMPDEST PUSH1 0x68 PUSH0 SWAP1 SLOAD SWAP1 PUSH2 0x100 EXP SWAP1 DIV PUSH1 0xFF AND DUP2 JUMP JUMPDEST PUSH2 0x74A PUSH2 0x1DD2 JUMP JUMPDEST PUSH2 0x752 PUSH2 0x1E21 JUMP JUMPDEST PUSH1 0x65 PUSH0 CALLER PUSH20 0xFFFFFFFFFFFFFFFFFFFFFFFFFFFFFFFFFFFFFFFF AND PUSH20 0xFFFFFFFFFFFFFFFFFFFFFFFFFFFFFFFFFFFFFFFF AND DUP2 MSTORE PUSH1 0x20 ADD SWAP1 DUP2 MSTORE PUSH1 0x20 ADD PUSH0 KECCAK256 PUSH0 SWAP1 SLOAD SWAP1 PUSH2 0x100 EXP SWAP1 DIV PUSH1 0xFF AND ISZERO PUSH2 0x7DE JUMPI CALLER PUSH1 0x40 MLOAD PUSH32 0xDAF49AB900000000000000000000000000000000000000000000000000000000 DUP2 MSTORE PUSH1 0x4 ADD PUSH2 0x7D5 SWAP2 SWAP1 PUSH2 0x2F10 JUMP JUMPDEST PUSH1 0x40 MLOAD DUP1 SWAP2 SUB SWAP1 REVERT JUMPDEST PUSH1 0x64 PUSH0 CALLER PUSH20 0xFFFFFFFFFFFFFFFFFFFFFFFFFFFFFFFFFFFFFFFF AND PUSH20 0xFFFFFFFFFFFFFFFFFFFFFFFFFFFFFFFFFFFFFFFF AND DUP2 MSTORE PUSH1 0x20 ADD SWAP1 DUP2 MSTORE PUSH1 0x20 ADD PUSH0 KECCAK256 PUSH0 SWAP1 SLOAD SWAP1 PUSH2 0x100 EXP SWAP1 DIV PUSH1 0xFF AND PUSH2 0x869 JUMPI CALLER PUSH1 0x40 MLOAD PUSH32 0xDF17E31600000000000000000000000000000000000000000000000000000000 DUP2 MSTORE PUSH1 0x4 ADD PUSH2 0x860 SWAP2 SWAP1 PUSH2 0x2F10 JUMP JUMPDEST PUSH1 0x40 MLOAD DUP1 SWAP2 SUB SWAP1 REVERT JUMPDEST PUSH0 DUP2 SUB PUSH2 0x8A2 JUMPI PUSH1 0x40 MLOAD PUSH32 0xCBCA5AA200000000000000000000000000000000000000000000000000000000 DUP2 MSTORE PUSH1 0x4 ADD PUSH1 0x40 MLOAD DUP1 SWAP2 SUB SWAP1 REVERT JUMPDEST PUSH1 0x69 SLOAD DUP2 GT ISZERO PUSH2 0x8ED JUMPI DUP1 PUSH1 0x69 SLOAD PUSH1 0x40 MLOAD PUSH32 0x89FE1D9200000000000000000000000000000000000000000000000000000000 DUP2 MSTORE PUSH1 0x4 ADD PUSH2 0x8E4 SWAP3 SWAP2 SWAP1 PUSH2 0x2F29 JUMP JUMPDEST PUSH1 0x40 MLOAD DUP1 SWAP2 SUB SWAP1 REVERT JUMPDEST PUSH1 0x68 PUSH0 SWAP1 SLOAD SWAP1 PUSH2 0x100 EXP SWAP1 DIV PUSH1 0xFF AND ISZERO PUSH2 0x933 JUMPI PUSH1 0x40 MLOAD PUSH32 0xD08164E300000000000000000000000000000000000000000000000000000000 DUP2 MSTORE PUSH1 0x4 ADD PUSH1 0x40 MLOAD DUP1 SWAP2 SUB SWAP1 REVERT JUMPDEST NUMBER PUSH1 0x67 PUSH0 CALLER PUSH20 0xFFFFFFFFFFFFFFFFFFFFFFFFFFFFFFFFFFFFFFFF AND PUSH20 0xFFFFFFFFFFFFFFFFFFFFFFFFFFFFFFFFFFFFFFFF AND DUP2 MSTORE PUSH1 0x20 ADD SWAP1 DUP2 MSTORE PUSH1 0x20 ADD PUSH0 KECCAK256 SLOAD LT PUSH2 0x9A9 JUMPI PUSH1 0x40 MLOAD PUSH32 0xAA9A98DF00000000000000000000000000000000000000000000000000000000 DUP2 MSTORE PUSH1 0x4 ADD PUSH1 0x40 MLOAD DUP1 SWAP2 SUB SWAP1 REVERT JUMPDEST PUSH0 PUSH1 0x66 PUSH0 CALLER PUSH20 0xFFFFFFFFFFFFFFFFFFFFFFFFFFFFFFFFFFFFFFFF AND PUSH20 0xFFFFFFFFFFFFFFFFFFFFFFFFFFFFFFFFFFFFFFFF AND DUP2 MSTORE PUSH1 0x20 ADD SWAP1 DUP2 MSTORE PUSH1 0x20 ADD PUSH0 KECCAK256 SLOAD SWAP1 POP DUP2 DUP2 LT ISZERO PUSH2 0xA31 JUMPI DUP1 DUP3 PUSH1 0x40 MLOAD PUSH32 0xCF47918100000000000000000000000000000000000000000000000000000000 DUP2 MSTORE PUSH1 0x4 ADD PUSH2 0xA28 SWAP3 SWAP2 SWAP1 PUSH2 0x2F29 JUMP JUMPDEST PUSH1 0x40 MLOAD DUP1 SWAP2 SUB SWAP1 REVERT JUMPDEST PUSH2 0xA3B CALLER DUP4 PUSH2 0x1E6B JUMP JUMPDEST DUP2 DUP2 PUSH2 0xA47 SWAP2 SWAP1 PUSH2 0x2F50 JUMP JUMPDEST PUSH1 0x66 PUSH0 CALLER PUSH20 0xFFFFFFFFFFFFFFFFFFFFFFFFFFFFFFFFFFFFFFFF AND PUSH20 0xFFFFFFFFFFFFFFFFFFFFFFFFFFFFFFFFFFFFFFFF AND DUP2 MSTORE PUSH1 0x20 ADD SWAP1 DUP2 MSTORE PUSH1 0x20 ADD PUSH0 KECCAK256 DUP2 SWAP1 SSTORE POP NUMBER PUSH1 0x67 PUSH0 CALLER PUSH20 0xFFFFFFFFFFFFFFFFFFFFFFFFFFFFFFFFFFFFFFFF AND PUSH20 0xFFFFFFFFFFFFFFFFFFFFFFFFFFFFFFFFFFFFFFFF AND DUP2 MSTORE PUSH1 0x20 ADD SWAP1 DUP2 MSTORE PUSH1 0x20 ADD PUSH0 KECCAK256 DUP2 SWAP1 SSTORE POP PUSH0 CALLER PUSH20 0xFFFFFFFFFFFFFFFFFFFFFFFFFFFFFFFFFFFFFFFF AND DUP4 PUSH1 0x40 MLOAD PUSH2 0xAEF SWAP1 PUSH2 0x2FB0 JUMP JUMPDEST PUSH0 PUSH1 0x40 MLOAD DUP1 DUP4 SUB DUP2 DUP6 DUP8 GAS CALL SWAP3 POP POP POP RETURNDATASIZE DUP1 PUSH0 DUP2 EQ PUSH2 0xB29 JUMPI PUSH1 0x40 MLOAD SWAP2 POP PUSH1 0x1F NOT PUSH1 0x3F RETURNDATASIZE ADD AND DUP3 ADD PUSH1 0x40 MSTORE RETURNDATASIZE DUP3 MSTORE RETURNDATASIZE PUSH0 PUSH1 0x20 DUP5 ADD RETURNDATACOPY PUSH2 0xB2E JUMP JUMPDEST PUSH1 0x60 SWAP2 POP JUMPDEST POP POP SWAP1 POP DUP1 PUSH2 0xB69 JUMPI PUSH1 0x40 MLOAD PUSH32 0x90B8EC1800000000000000000000000000000000000000000000000000000000 DUP2 MSTORE PUSH1 0x4 ADD PUSH1 0x40 MLOAD DUP1 SWAP2 SUB SWAP1 REVERT JUMPDEST CALLER PUSH20 0xFFFFFFFFFFFFFFFFFFFFFFFFFFFFFFFFFFFFFFFF AND PUSH32 0x71BE1378C49E2FBC5C210C1CE7E618F56AA4022F5BD4776F339956C43B55A975 DUP5 PUSH1 0x40 MLOAD PUSH2 0xBAF SWAP2 SWAP1 PUSH2 0x29DD JUMP JUMPDEST PUSH1 0x40 MLOAD DUP1 SWAP2 SUB SWAP1 LOG2 PUSH2 0xBC1 CALLER DUP5 PUSH2 0x1E6F JUMP JUMPDEST POP POP PUSH2 0xBCB PUSH2 0x1E73 JUMP JUMPDEST POP JUMP JUMPDEST PUSH0 PUSH0 PUSH2 0xBD8 PUSH2 0x1E7D JUMP JUMPDEST SWAP1 POP DUP1 PUSH0 ADD PUSH0 DUP5 DUP2 MSTORE PUSH1 0x20 ADD SWAP1 DUP2 MSTORE PUSH1 0x20 ADD PUSH0 KECCAK256 PUSH1 0x1 ADD SLOAD SWAP2 POP POP SWAP2 SWAP1 POP JUMP JUMPDEST PUSH2 0xC01 DUP3 PUSH2 0xBCE JUMP JUMPDEST PUSH2 0xC0A DUP2 PUSH2 0x1EA4 JUMP JUMPDEST PUSH2 0xC14 DUP4 DUP4 PUSH2 0x1EB8 JUMP JUMPDEST POP POP POP POP JUMP JUMPDEST PUSH2 0xC22 PUSH2 0x1FB0 JUMP JUMPDEST PUSH20 0xFFFFFFFFFFFFFFFFFFFFFFFFFFFFFFFFFFFFFFFF AND DUP2 PUSH20 0xFFFFFFFFFFFFFFFFFFFFFFFFFFFFFFFFFFFFFFFF AND EQ PUSH2 0xC86 JUMPI PUSH1 0x40 MLOAD PUSH32 0x6697B23200000000000000000000000000000000000000000000000000000000 DUP2 MSTORE PUSH1 0x4 ADD PUSH1 0x40 MLOAD DUP1 SWAP2 SUB SWAP1 REVERT JUMPDEST PUSH2 0xC90 DUP3 DUP3 PUSH2 0x1FB7 JUMP JUMPDEST POP POP POP JUMP JUMPDEST PUSH0 PUSH1 0x64 PUSH0 DUP4 PUSH20 0xFFFFFFFFFFFFFFFFFFFFFFFFFFFFFFFFFFFFFFFF AND PUSH20 0xFFFFFFFFFFFFFFFFFFFFFFFFFFFFFFFFFFFFFFFF AND DUP2 MSTORE PUSH1 0x20 ADD SWAP1 DUP2 MSTORE PUSH1 0x20 ADD PUSH0 KECCAK256 PUSH0 SWAP1 SLOAD SWAP1 PUSH2 0x100 EXP SWAP1 DIV PUSH1 0xFF AND SWAP1 POP SWAP2 SWAP1 POP JUMP JUMPDEST PUSH32 0xA49807205CE4D355092EF5A8A18F56E8913CF4A201FBE287825B095693C21775 PUSH2 0xD11 DUP2 PUSH2 0x1EA4 JUMP JUMPDEST PUSH2 0xD19 PUSH2 0x20AF JUMP JUMPDEST POP JUMP JUMPDEST PUSH32 0xA49807205CE4D355092EF5A8A18F56E8913CF4A201FBE287825B095693C21775 PUSH2 0xD46 DUP2 PUSH2 0x1EA4 JUMP JUMPDEST PUSH2 0xD4E PUSH2 0x1E21 JUMP JUMPDEST PUSH0 PUSH20 0xFFFFFFFFFFFFFFFFFFFFFFFFFFFFFFFFFFFFFFFF AND DUP3 PUSH20 0xFFFFFFFFFFFFFFFFFFFFFFFFFFFFFFFFFFFFFFFF AND SUB PUSH2 0xDB3 JUMPI PUSH1 0x40 MLOAD PUSH32 0xD92E233D00000000000000000000000000000000000000000000000000000000 DUP2 MSTORE PUSH1 0x4 ADD PUSH1 0x40 MLOAD DUP1 SWAP2 SUB SWAP1 REVERT JUMPDEST PUSH1 0x64 PUSH0 DUP4 PUSH20 0xFFFFFFFFFFFFFFFFFFFFFFFFFFFFFFFFFFFFFFFF AND PUSH20 0xFFFFFFFFFFFFFFFFFFFFFFFFFFFFFFFFFFFFFFFF AND DUP2 MSTORE PUSH1 0x20 ADD SWAP1 DUP2 MSTORE PUSH1 0x20 ADD PUSH0 KECCAK256 PUSH0 SWAP1 SLOAD SWAP1 PUSH2 0x100 EXP SWAP1 DIV PUSH1 0xFF AND ISZERO PUSH2 0xE92 JUMPI PUSH1 0x64 PUSH0 DUP4 PUSH20 0xFFFFFFFFFFFFFFFFFFFFFFFFFFFFFFFFFFFFFFFF AND PUSH20 0xFFFFFFFFFFFFFFFFFFFFFFFFFFFFFFFFFFFFFFFF AND DUP2 MSTORE PUSH1 0x20 ADD SWAP1 DUP2 MSTORE PUSH1 0x20 ADD PUSH0 KECCAK256 PUSH0 PUSH2 0x100 EXP DUP2 SLOAD SWAP1 PUSH1 0xFF MUL NOT AND SWAP1 SSTORE DUP2 PUSH20 0xFFFFFFFFFFFFFFFFFFFFFFFFFFFFFFFFFFFFFFFF AND PUSH32 0xCDD2E9B91A56913D370075169CEFA1602BA36BE5301664F752192BB1709DF757 PUSH1 0x40 MLOAD PUSH1 0x40 MLOAD DUP1 SWAP2 SUB SWAP1 LOG2 JUMPDEST PUSH1 0x1 PUSH1 0x65 PUSH0 DUP5 PUSH20 0xFFFFFFFFFFFFFFFFFFFFFFFFFFFFFFFFFFFFFFFF AND PUSH20 0xFFFFFFFFFFFFFFFFFFFFFFFFFFFFFFFFFFFFFFFF AND DUP2 MSTORE PUSH1 0x20 ADD SWAP1 DUP2 MSTORE PUSH1 0x20 ADD PUSH0 KECCAK256 PUSH0 PUSH2 0x100 EXP DUP2 SLOAD DUP2 PUSH1 0xFF MUL NOT AND SWAP1 DUP4 ISZERO ISZERO MUL OR SWAP1 SSTORE POP DUP2 PUSH20 0xFFFFFFFFFFFFFFFFFFFFFFFFFFFFFFFFFFFFFFFF AND PUSH32 0xFFA4E6181777692565CF28528FC88FD1516EA86B56DA075235FA575AF6A4B855 PUSH1 0x40 MLOAD PUSH1 0x40 MLOAD DUP1 SWAP2 SUB SWAP1 LOG2 POP POP JUMP JUMPDEST PUSH2 0xF36 PUSH2 0x210F JUMP JUMPDEST PUSH2 0xF3F DUP3 PUSH2 0x21F5 JUMP JUMPDEST PUSH2 0xF49 DUP3 DUP3 PUSH2 0x2223 JUMP JUMPDEST POP POP JUMP JUMPDEST PUSH0 PUSH2 0xF56 PUSH2 0x2341 JUMP JUMPDEST PUSH32 0x360894A13BA1A3210667C828492DB98DCA3E2076CC3735A920A3CA505D382BBC PUSH0 SHL SWAP1 POP SWAP1 JUMP JUMPDEST PUSH32 0xA49807205CE4D355092EF5A8A18F56E8913CF4A201FBE287825B095693C21775 PUSH2 0xFA8 DUP2 PUSH2 0x1EA4 JUMP JUMPDEST PUSH2 0xFB0 PUSH2 0x1E21 JUMP JUMPDEST PUSH1 0x65 PUSH0 DUP4 PUSH20 0xFFFFFFFFFFFFFFFFFFFFFFFFFFFFFFFFFFFFFFFF AND PUSH20 0xFFFFFFFFFFFFFFFFFFFFFFFFFFFFFFFFFFFFFFFF AND DUP2 MSTORE PUSH1 0x20 ADD SWAP1 DUP2 MSTORE PUSH1 0x20 ADD PUSH0 KECCAK256 PUSH0 SWAP1 SLOAD SWAP1 PUSH2 0x100 EXP SWAP1 DIV PUSH1 0xFF AND PUSH2 0x103B JUMPI DUP2 PUSH1 0x40 MLOAD PUSH32 0xDAF49AB900000000000000000000000000000000000000000000000000000000 DUP2 MSTORE PUSH1 0x4 ADD PUSH2 0x1032 SWAP2 SWAP1 PUSH2 0x2F10 JUMP JUMPDEST PUSH1 0x40 MLOAD DUP1 SWAP2 SUB SWAP1 REVERT JUMPDEST PUSH1 0x65 PUSH0 DUP4 PUSH20 0xFFFFFFFFFFFFFFFFFFFFFFFFFFFFFFFFFFFFFFFF AND PUSH20 0xFFFFFFFFFFFFFFFFFFFFFFFFFFFFFFFFFFFFFFFF AND DUP2 MSTORE PUSH1 0x20 ADD SWAP1 DUP2 MSTORE PUSH1 0x20 ADD PUSH0 KECCAK256 PUSH0 PUSH2 0x100 EXP DUP2 SLOAD SWAP1 PUSH1 0xFF MUL NOT AND SWAP1 SSTORE DUP2 PUSH20 0xFFFFFFFFFFFFFFFFFFFFFFFFFFFFFFFFFFFFFFFF AND PUSH32 0x2B6BF71B58B3583ADD364B3D9060EBF8019650F65F5BE35F5464B9CB3E4BA2D4 PUSH1 0x40 MLOAD PUSH1 0x40 MLOAD DUP1 SWAP2 SUB SWAP1 LOG2 POP POP JUMP JUMPDEST PUSH0 PUSH0 PUSH0 SWAP1 SLOAD SWAP1 PUSH2 0x100 EXP SWAP1 DIV PUSH1 0xFF AND SWAP1 POP SWAP1 JUMP JUMPDEST PUSH0 PUSH1 0x66 PUSH0 DUP4 PUSH20 0xFFFFFFFFFFFFFFFFFFFFFFFFFFFFFFFFFFFFFFFF AND PUSH20 0xFFFFFFFFFFFFFFFFFFFFFFFFFFFFFFFFFFFFFFFF AND DUP2 MSTORE PUSH1 0x20 ADD SWAP1 DUP2 MSTORE PUSH1 0x20 ADD PUSH0 KECCAK256 SLOAD SWAP1 POP SWAP2 SWAP1 POP JUMP JUMPDEST PUSH32 0xA49807205CE4D355092EF5A8A18F56E8913CF4A201FBE287825B095693C21775 DUP2 JUMP JUMPDEST PUSH32 0xA49807205CE4D355092EF5A8A18F56E8913CF4A201FBE287825B095693C21775 PUSH2 0x1176 DUP2 PUSH2 0x1EA4 JUMP JUMPDEST PUSH0 DUP3 SUB PUSH2 0x11AF JUMPI PUSH1 0x40 MLOAD PUSH32 0x7F11A96200000000000000000000000000000000000000000000000000000000 DUP2 MSTORE PUSH1 0x4 ADD PUSH1 0x40 MLOAD DUP1 SWAP2 SUB SWAP1 REVERT JUMPDEST DUP2 PUSH1 0x69 DUP2 SWAP1 SSTORE POP PUSH32 0x973CCE1B2A663004358D1FE9F49F3A76491BA147835396138B452BEF464B7F67 DUP3 PUSH1 0x40 MLOAD PUSH2 0x11E5 SWAP2 SWAP1 PUSH2 0x29DD JUMP JUMPDEST PUSH1 0x40 MLOAD DUP1 SWAP2 SUB SWAP1 LOG1 POP POP JUMP JUMPDEST PUSH32 0xA49807205CE4D355092EF5A8A18F56E8913CF4A201FBE287825B095693C21775 PUSH2 0x121B DUP2 PUSH2 0x1EA4 JUMP JUMPDEST PUSH2 0x1223 PUSH2 0x23C8 JUMP JUMPDEST POP JUMP JUMPDEST PUSH32 0xA49807205CE4D355092EF5A8A18F56E8913CF4A201FBE287825B095693C21775 PUSH2 0x1250 DUP2 PUSH2 0x1EA4 JUMP JUMPDEST PUSH2 0x1258 PUSH2 0x1E21 JUMP JUMPDEST PUSH1 0x64 PUSH0 DUP4 PUSH20 0xFFFFFFFFFFFFFFFFFFFFFFFFFFFFFFFFFFFFFFFF AND PUSH20 0xFFFFFFFFFFFFFFFFFFFFFFFFFFFFFFFFFFFFFFFF AND DUP2 MSTORE PUSH1 0x20 ADD SWAP1 DUP2 MSTORE PUSH1 0x20 ADD PUSH0 KECCAK256 PUSH0 SWAP1 SLOAD SWAP1 PUSH2 0x100 EXP SWAP1 DIV PUSH1 0xFF AND PUSH2 0x12E3 JUMPI DUP2 PUSH1 0x40 MLOAD PUSH32 0xDF17E31600000000000000000000000000000000000000000000000000000000 DUP2 MSTORE PUSH1 0x4 ADD PUSH2 0x12DA SWAP2 SWAP1 PUSH2 0x2F10 JUMP JUMPDEST PUSH1 0x40 MLOAD DUP1 SWAP2 SUB SWAP1 REVERT JUMPDEST PUSH1 0x64 PUSH0 DUP4 PUSH20 0xFFFFFFFFFFFFFFFFFFFFFFFFFFFFFFFFFFFFFFFF AND PUSH20 0xFFFFFFFFFFFFFFFFFFFFFFFFFFFFFFFFFFFFFFFF AND DUP2 MSTORE PUSH1 0x20 ADD SWAP1 DUP2 MSTORE PUSH1 0x20 ADD PUSH0 KECCAK256 PUSH0 PUSH2 0x100 EXP DUP2 SLOAD SWAP1 PUSH1 0xFF MUL NOT AND SWAP1 SSTORE DUP2 PUSH20 0xFFFFFFFFFFFFFFFFFFFFFFFFFFFFFFFFFFFFFFFF AND PUSH32 0xCDD2E9B91A56913D370075169CEFA1602BA36BE5301664F752192BB1709DF757 PUSH1 0x40 MLOAD PUSH1 0x40 MLOAD DUP1 SWAP2 SUB SWAP1 LOG2 POP POP JUMP JUMPDEST PUSH0 PUSH0 PUSH2 0x1380 PUSH2 0x1E7D JUMP JUMPDEST SWAP1 POP DUP1 PUSH0 ADD PUSH0 DUP6 DUP2 MSTORE PUSH1 0x20 ADD SWAP1 DUP2 MSTORE PUSH1 0x20 ADD PUSH0 KECCAK256 PUSH0 ADD PUSH0 DUP5 PUSH20 0xFFFFFFFFFFFFFFFFFFFFFFFFFFFFFFFFFFFFFFFF AND PUSH20 0xFFFFFFFFFFFFFFFFFFFFFFFFFFFFFFFFFFFFFFFF AND DUP2 MSTORE PUSH1 0x20 ADD SWAP1 DUP2 MSTORE PUSH1 0x20 ADD PUSH0 KECCAK256 PUSH0 SWAP1 SLOAD SWAP1 PUSH2 0x100 EXP SWAP1 DIV PUSH1 0xFF AND SWAP2 POP POP SWAP3 SWAP2 POP POP JUMP JUMPDEST PUSH0 PUSH0 SHL DUP2 JUMP JUMPDEST PUSH1 0x40 MLOAD DUP1 PUSH1 0x40 ADD PUSH1 0x40 MSTORE DUP1 PUSH1 0x5 DUP2 MSTORE PUSH1 0x20 ADD PUSH32 0x352E302E30000000000000000000000000000000000000000000000000000000 DUP2 MSTORE POP DUP2 JUMP JUMPDEST PUSH32 0xA49807205CE4D355092EF5A8A18F56E8913CF4A201FBE287825B095693C21775 PUSH2 0x1450 DUP2 PUSH2 0x1EA4 JUMP JUMPDEST DUP2 PUSH1 0x68 PUSH0 PUSH2 0x100 EXP DUP2 SLOAD DUP2 PUSH1 0xFF MUL NOT AND SWAP1 DUP4 ISZERO ISZERO MUL OR SWAP1 SSTORE POP PUSH32 0x2E5A1930DEF2F974808CD3DD28F6606D8D2CB5D7ADB78F6761EA31062CED1A33 DUP3 PUSH1 0x40 MLOAD PUSH2 0x1498 SWAP2 SWAP1 PUSH2 0x2AA1 JUMP JUMPDEST PUSH1 0x40 MLOAD DUP1 SWAP2 SUB SWAP1 LOG1 POP POP JUMP JUMPDEST PUSH0 PUSH2 0x14AD PUSH2 0x2429 JUMP JUMPDEST SWAP1 POP PUSH0 DUP2 PUSH0 ADD PUSH1 0x8 SWAP1 SLOAD SWAP1 PUSH2 0x100 EXP SWAP1 DIV PUSH1 0xFF AND ISZERO SWAP1 POP PUSH0 DUP3 PUSH0 ADD PUSH0 SWAP1 SLOAD SWAP1 PUSH2 0x100 EXP SWAP1 DIV PUSH8 0xFFFFFFFFFFFFFFFF AND SWAP1 POP PUSH0 PUSH0 DUP3 PUSH8 0xFFFFFFFFFFFFFFFF AND EQ DUP1 ISZERO PUSH2 0x14F5 JUMPI POP DUP3 JUMPDEST SWAP1 POP PUSH0 PUSH1 0x1 DUP4 PUSH8 0xFFFFFFFFFFFFFFFF AND EQ DUP1 ISZERO PUSH2 0x1528 JUMPI POP PUSH0 ADDRESS PUSH20 0xFFFFFFFFFFFFFFFFFFFFFFFFFFFFFFFFFFFFFFFF AND EXTCODESIZE EQ JUMPDEST SWAP1 POP DUP2 ISZERO DUP1 ISZERO PUSH2 0x1536 JUMPI POP DUP1 ISZERO JUMPDEST ISZERO PUSH2 0x156D JUMPI PUSH1 0x40 MLOAD PUSH32 0xF92EE8A900000000000000000000000000000000000000000000000000000000 DUP2 MSTORE PUSH1 0x4 ADD PUSH1 0x40 MLOAD DUP1 SWAP2 SUB SWAP1 REVERT JUMPDEST PUSH1 0x1 DUP6 PUSH0 ADD PUSH0 PUSH2 0x100 EXP DUP2 SLOAD DUP2 PUSH8 0xFFFFFFFFFFFFFFFF MUL NOT AND SWAP1 DUP4 PUSH8 0xFFFFFFFFFFFFFFFF AND MUL OR SWAP1 SSTORE POP DUP4 ISZERO PUSH2 0x15BA JUMPI PUSH1 0x1 DUP6 PUSH0 ADD PUSH1 0x8 PUSH2 0x100 EXP DUP2 SLOAD DUP2 PUSH1 0xFF MUL NOT AND SWAP1 DUP4 ISZERO ISZERO MUL OR SWAP1 SSTORE POP JUMPDEST PUSH0 PUSH20 0xFFFFFFFFFFFFFFFFFFFFFFFFFFFFFFFFFFFFFFFF AND DUP8 PUSH20 0xFFFFFFFFFFFFFFFFFFFFFFFFFFFFFFFFFFFFFFFF AND SUB PUSH2 0x161F JUMPI PUSH1 0x40 MLOAD PUSH32 0xD92E233D00000000000000000000000000000000000000000000000000000000 DUP2 MSTORE PUSH1 0x4 ADD PUSH1 0x40 MLOAD DUP1 SWAP2 SUB SWAP1 REVERT JUMPDEST PUSH2 0x1627 PUSH2 0x243C JUMP JUMPDEST PUSH2 0x162F PUSH2 0x2446 JUMP JUMPDEST PUSH2 0x1637 PUSH2 0x2458 JUMP JUMPDEST PUSH2 0x163F PUSH2 0x246A JUMP JUMPDEST PUSH2 0x164B PUSH0 PUSH0 SHL DUP9 PUSH2 0x1EB8 JUMP JUMPDEST POP PUSH2 0x1676 PUSH32 0xA49807205CE4D355092EF5A8A18F56E8913CF4A201FBE287825B095693C21775 DUP9 PUSH2 0x1EB8 JUMP JUMPDEST POP DUP6 PUSH1 0x69 DUP2 SWAP1 SSTORE POP PUSH0 PUSH1 0x68 PUSH0 PUSH2 0x100 EXP DUP2 SLOAD DUP2 PUSH1 0xFF MUL NOT AND SWAP1 DUP4 ISZERO ISZERO MUL OR SWAP1 SSTORE POP DUP4 ISZERO PUSH2 0x16F1 JUMPI PUSH0 DUP6 PUSH0 ADD PUSH1 0x8 PUSH2 0x100 EXP DUP2 SLOAD DUP2 PUSH1 0xFF MUL NOT AND SWAP1 DUP4 ISZERO ISZERO MUL OR SWAP1 SSTORE POP PUSH32 0xC7F505B2F371AE2175EE4913F4499E1F2633A7B5936321EED1CDAEB6115181D2 PUSH1 0x1 PUSH1 0x40 MLOAD PUSH2 0x16E8 SWAP2 SWAP1 PUSH2 0x3019 JUMP JUMPDEST PUSH1 0x40 MLOAD DUP1 SWAP2 SUB SWAP1 LOG1 JUMPDEST POP POP POP POP POP POP POP JUMP JUMPDEST PUSH2 0x1702 PUSH2 0x1E21 JUMP JUMPDEST PUSH1 0x65 PUSH0 CALLER PUSH20 0xFFFFFFFFFFFFFFFFFFFFFFFFFFFFFFFFFFFFFFFF AND PUSH20 0xFFFFFFFFFFFFFFFFFFFFFFFFFFFFFFFFFFFFFFFF AND DUP2 MSTORE PUSH1 0x20 ADD SWAP1 DUP2 MSTORE PUSH1 0x20 ADD PUSH0 KECCAK256 PUSH0 SWAP1 SLOAD SWAP1 PUSH2 0x100 EXP SWAP1 DIV PUSH1 0xFF AND ISZERO PUSH2 0x178E JUMPI CALLER PUSH1 0x40 MLOAD PUSH32 0xDAF49AB900000000000000000000000000000000000000000000000000000000 DUP2 MSTORE PUSH1 0x4 ADD PUSH2 0x1785 SWAP2 SWAP1 PUSH2 0x2F10 JUMP JUMPDEST PUSH1 0x40 MLOAD DUP1 SWAP2 SUB SWAP1 REVERT JUMPDEST PUSH0 CALLVALUE SUB PUSH2 0x17C7 JUMPI PUSH1 0x40 MLOAD PUSH32 0xCBCA5AA200000000000000000000000000000000000000000000000000000000 DUP2 MSTORE PUSH1 0x4 ADD PUSH1 0x40 MLOAD DUP1 SWAP2 SUB SWAP1 REVERT JUMPDEST PUSH2 0x17D1 CALLER CALLVALUE PUSH2 0x2474 JUMP JUMPDEST CALLVALUE PUSH1 0x66 PUSH0 CALLER PUSH20 0xFFFFFFFFFFFFFFFFFFFFFFFFFFFFFFFFFFFFFFFF AND PUSH20 0xFFFFFFFFFFFFFFFFFFFFFFFFFFFFFFFFFFFFFFFF AND DUP2 MSTORE PUSH1 0x20 ADD SWAP1 DUP2 MSTORE PUSH1 0x20 ADD PUSH0 KECCAK256 PUSH0 DUP3 DUP3 SLOAD PUSH2 0x181D SWAP2 SWAP1 PUSH2 0x299B JUMP JUMPDEST SWAP3 POP POP DUP2 SWAP1 SSTORE POP CALLER PUSH20 0xFFFFFFFFFFFFFFFFFFFFFFFFFFFFFFFFFFFFFFFF AND PUSH32 0xE1FFFCC4923D04B559F4D29A8BFC6CDA04EB5B0D3C460751C2402C5C5CC9109C CALLVALUE PUSH1 0x40 MLOAD PUSH2 0x186A SWAP2 SWAP1 PUSH2 0x29DD JUMP JUMPDEST PUSH1 0x40 MLOAD DUP1 SWAP2 SUB SWAP1 LOG2 PUSH2 0x187C CALLER CALLVALUE PUSH2 0x2478 JUMP JUMPDEST JUMP JUMPDEST PUSH2 0x1887 DUP3 PUSH2 0xBCE JUMP JUMPDEST PUSH2 0x1890 DUP2 PUSH2 0x1EA4 JUMP JUMPDEST PUSH2 0x189A DUP4 DUP4 PUSH2 0x1FB7 JUMP JUMPDEST POP POP POP POP JUMP JUMPDEST PUSH2 0x18A8 PUSH2 0x1DD2 JUMP JUMPDEST PUSH1 0x65 PUSH0 CALLER PUSH20 0xFFFFFFFFFFFFFFFFFFFFFFFFFFFFFFFFFFFFFFFF AND PUSH20 0xFFFFFFFFFFFFFFFFFFFFFFFFFFFFFFFFFFFFFFFF AND DUP2 MSTORE PUSH1 0x20 ADD SWAP1 DUP2 MSTORE PUSH1 0x20 ADD PUSH0 KECCAK256 PUSH0 SWAP1 SLOAD SWAP1 PUSH2 0x100 EXP SWAP1 DIV PUSH1 0xFF AND ISZERO PUSH2 0x1934 JUMPI CALLER PUSH1 0x40 MLOAD PUSH32 0xDAF49AB900000000000000000000000000000000000000000000000000000000 DUP2 MSTORE PUSH1 0x4 ADD PUSH2 0x192B SWAP2 SWAP1 PUSH2 0x2F10 JUMP JUMPDEST PUSH1 0x40 MLOAD DUP1 SWAP2 SUB SWAP1 REVERT JUMPDEST PUSH1 0x68 PUSH0 SWAP1 SLOAD SWAP1 PUSH2 0x100 EXP SWAP1 DIV PUSH1 0xFF AND PUSH2 0x1979 JUMPI PUSH1 0x40 MLOAD PUSH32 0xEC73CE5C00000000000000000000000000000000000000000000000000000000 DUP2 MSTORE PUSH1 0x4 ADD PUSH1 0x40 MLOAD DUP1 SWAP2 SUB SWAP1 REVERT JUMPDEST PUSH0 PUSH1 0x66 PUSH0 CALLER PUSH20 0xFFFFFFFFFFFFFFFFFFFFFFFFFFFFFFFFFFFFFFFF AND PUSH20 0xFFFFFFFFFFFFFFFFFFFFFFFFFFFFFFFFFFFFFFFF AND DUP2 MSTORE PUSH1 0x20 ADD SWAP1 DUP2 MSTORE PUSH1 0x20 ADD PUSH0 KECCAK256 SLOAD SWAP1 POP PUSH0 DUP2 SUB PUSH2 0x19F3 JUMPI PUSH1 0x40 MLOAD PUSH32 0xC2CAA2A600000000000000000000000000000000000000000000000000000000 DUP2 MSTORE PUSH1 0x4 ADD PUSH1 0x40 MLOAD DUP1 SWAP2 SUB SWAP1 REVERT JUMPDEST PUSH2 0x19FD CALLER DUP3 PUSH2 0x247C JUMP JUMPDEST PUSH0 PUSH1 0x66 PUSH0 CALLER PUSH20 0xFFFFFFFFFFFFFFFFFFFFFFFFFFFFFFFFFFFFFFFF AND PUSH20 0xFFFFFFFFFFFFFFFFFFFFFFFFFFFFFFFFFFFFFFFF AND DUP2 MSTORE PUSH1 0x20 ADD SWAP1 DUP2 MSTORE PUSH1 0x20 ADD PUSH0 KECCAK256 DUP2 SWAP1 SSTORE POP PUSH0 CALLER PUSH20 0xFFFFFFFFFFFFFFFFFFFFFFFFFFFFFFFFFFFFFFFF AND DUP3 PUSH1 0x40 MLOAD PUSH2 0x1A64 SWAP1 PUSH2 0x2FB0 JUMP JUMPDEST PUSH0 PUSH1 0x40 MLOAD DUP1 DUP4 SUB DUP2 DUP6 DUP8 GAS CALL SWAP3 POP POP POP RETURNDATASIZE DUP1 PUSH0 DUP2 EQ PUSH2 0x1A9E JUMPI PUSH1 0x40 MLOAD SWAP2 POP PUSH1 0x1F NOT PUSH1 0x3F RETURNDATASIZE ADD AND DUP3 ADD PUSH1 0x40 MSTORE RETURNDATASIZE DUP3 MSTORE RETURNDATASIZE PUSH0 PUSH1 0x20 DUP5 ADD RETURNDATACOPY PUSH2 0x1AA3 JUMP JUMPDEST PUSH1 0x60 SWAP2 POP JUMPDEST POP POP SWAP1 POP DUP1 PUSH2 0x1ADE JUMPI PUSH1 0x40 MLOAD PUSH32 0x90B8EC1800000000000000000000000000000000000000000000000000000000 DUP2 MSTORE PUSH1 0x4 ADD PUSH1 0x40 MLOAD DUP1 SWAP2 SUB SWAP1 REVERT JUMPDEST CALLER PUSH20 0xFFFFFFFFFFFFFFFFFFFFFFFFFFFFFFFFFFFFFFFF AND PUSH32 0x5FAFA99D0643513820BE26656B45130B01E1C03062E1266BF36F88CBD3BD9695 DUP4 PUSH1 0x40 MLOAD PUSH2 0x1B24 SWAP2 SWAP1 PUSH2 0x29DD JUMP JUMPDEST PUSH1 0x40 MLOAD DUP1 SWAP2 SUB SWAP1 LOG2 PUSH2 0x1B36 CALLER DUP4 PUSH2 0x2480 JUMP JUMPDEST POP POP PUSH2 0x1B40 PUSH2 0x1E73 JUMP JUMPDEST JUMP JUMPDEST PUSH32 0xA49807205CE4D355092EF5A8A18F56E8913CF4A201FBE287825B095693C21775 PUSH2 0x1B6C DUP2 PUSH2 0x1EA4 JUMP JUMPDEST PUSH2 0x1B74 PUSH2 0x1E21 JUMP JUMPDEST PUSH0 PUSH20 0xFFFFFFFFFFFFFFFFFFFFFFFFFFFFFFFFFFFFFFFF AND DUP3 PUSH20 0xFFFFFFFFFFFFFFFFFFFFFFFFFFFFFFFFFFFFFFFF AND SUB PUSH2 0x1BD9 JUMPI PUSH1 0x40 MLOAD PUSH32 0xD92E233D00000000000000000000000000000000000000000000000000000000 DUP2 MSTORE PUSH1 0x4 ADD PUSH1 0x40 MLOAD DUP1 SWAP2 SUB SWAP1 REVERT JUMPDEST PUSH1 0x65 PUSH0 DUP4 PUSH20 0xFFFFFFFFFFFFFFFFFFFFFFFFFFFFFFFFFFFFFFFF AND PUSH20 0xFFFFFFFFFFFFFFFFFFFFFFFFFFFFFFFFFFFFFFFF AND DUP2 MSTORE PUSH1 0x20 ADD SWAP1 DUP2 MSTORE PUSH1 0x20 ADD PUSH0 KECCAK256 PUSH0 SWAP1 SLOAD SWAP1 PUSH2 0x100 EXP SWAP1 DIV PUSH1 0xFF AND ISZERO PUSH2 0x1C65 JUMPI DUP2 PUSH1 0x40 MLOAD PUSH32 0xB1AC0D9800000000000000000000000000000000000000000000000000000000 DUP2 MSTORE PUSH1 0x4 ADD PUSH2 0x1C5C SWAP2 SWAP1 PUSH2 0x2F10 JUMP JUMPDEST PUSH1 0x40 MLOAD DUP1 SWAP2 SUB SWAP1 REVERT JUMPDEST PUSH1 0x1 PUSH1 0x64 PUSH0 DUP5 PUSH20 0xFFFFFFFFFFFFFFFFFFFFFFFFFFFFFFFFFFFFFFFF AND PUSH20 0xFFFFFFFFFFFFFFFFFFFFFFFFFFFFFFFFFFFFFFFF AND DUP2 MSTORE PUSH1 0x20 ADD SWAP1 DUP2 MSTORE PUSH1 0x20 ADD PUSH0 KECCAK256 PUSH0 PUSH2 0x100 EXP DUP2 SLOAD DUP2 PUSH1 0xFF MUL NOT AND SWAP1 DUP4 ISZERO ISZERO MUL OR SWAP1 SSTORE POP DUP2 PUSH20 0xFFFFFFFFFFFFFFFFFFFFFFFFFFFFFFFFFFFFFFFF AND PUSH32 0xAAB7954E9D246B167EF88AEDDAD35209CA2489D95A8AEB59E288D9B19FAE5A54 PUSH1 0x40 MLOAD PUSH1 0x40 MLOAD DUP1 SWAP2 SUB SWAP1 LOG2 POP POP JUMP JUMPDEST PUSH0 PUSH1 0x65 PUSH0 DUP4 PUSH20 0xFFFFFFFFFFFFFFFFFFFFFFFFFFFFFFFFFFFFFFFF AND PUSH20 0xFFFFFFFFFFFFFFFFFFFFFFFFFFFFFFFFFFFFFFFF AND DUP2 MSTORE PUSH1 0x20 ADD SWAP1 DUP2 MSTORE PUSH1 0x20 ADD PUSH0 KECCAK256 PUSH0 SWAP1 SLOAD SWAP1 PUSH2 0x100 EXP SWAP1 DIV PUSH1 0xFF AND SWAP1 POP SWAP2 SWAP1 POP JUMP JUMPDEST PUSH1 0x69 SLOAD DUP2 JUMP JUMPDEST PUSH0 PUSH32 0x7965DB0B00000000000000000000000000000000000000000000000000000000 PUSH28 0xFFFFFFFFFFFFFFFFFFFFFFFFFFFFFFFFFFFFFFFFFFFFFFFFFFFFFFFF NOT AND DUP3 PUSH28 0xFFFFFFFFFFFFFFFFFFFFFFFFFFFFFFFFFFFFFFFFFFFFFFFFFFFFFFFF NOT AND EQ DUP1 PUSH2 0x1DCB JUMPI POP PUSH2 0x1DCA DUP3 PUSH2 0x2484 JUMP JUMPDEST JUMPDEST SWAP1 POP SWAP2 SWAP1 POP JUMP JUMPDEST PUSH1 0x2 PUSH1 0x32 SLOAD SUB PUSH2 0x1E17 JUMPI PUSH1 0x40 MLOAD PUSH32 0x8C379A000000000000000000000000000000000000000000000000000000000 DUP2 MSTORE PUSH1 0x4 ADD PUSH2 0x1E0E SWAP1 PUSH2 0x307C JUMP JUMPDEST PUSH1 0x40 MLOAD DUP1 SWAP2 SUB SWAP1 REVERT JUMPDEST PUSH1 0x2 PUSH1 0x32 DUP2 SWAP1 SSTORE POP JUMP JUMPDEST PUSH2 0x1E29 PUSH2 0x10CE JUMP JUMPDEST ISZERO PUSH2 0x1E69 JUMPI PUSH1 0x40 MLOAD PUSH32 0x8C379A000000000000000000000000000000000000000000000000000000000 DUP2 MSTORE PUSH1 0x4 ADD PUSH2 0x1E60 SWAP1 PUSH2 0x30E4 JUMP JUMPDEST PUSH1 0x40 MLOAD DUP1 SWAP2 SUB SWAP1 REVERT JUMPDEST JUMP JUMPDEST POP POP JUMP JUMPDEST POP POP JUMP JUMPDEST PUSH1 0x1 PUSH1 0x32 DUP2 SWAP1 SSTORE POP JUMP JUMPDEST PUSH0 PUSH32 0x2DD7BC7DEC4DCEEDDA775E58DD541E08A116C6C53815C0BD028192F7B626800 SWAP1 POP SWAP1 JUMP JUMPDEST PUSH2 0x1EB5 DUP2 PUSH2 0x1EB0 PUSH2 0x1FB0 JUMP JUMPDEST PUSH2 0x24ED JUMP JUMPDEST POP JUMP JUMPDEST PUSH0 PUSH0 PUSH2 0x1EC2 PUSH2 0x1E7D JUMP JUMPDEST SWAP1 POP PUSH2 0x1ECE DUP5 DUP5 PUSH2 0x1376 JUMP JUMPDEST PUSH2 0x1FA5 JUMPI PUSH1 0x1 DUP2 PUSH0 ADD PUSH0 DUP7 DUP2 MSTORE PUSH1 0x20 ADD SWAP1 DUP2 MSTORE PUSH1 0x20 ADD PUSH0 KECCAK256 PUSH0 ADD PUSH0 DUP6 PUSH20 0xFFFFFFFFFFFFFFFFFFFFFFFFFFFFFFFFFFFFFFFF AND PUSH20 0xFFFFFFFFFFFFFFFFFFFFFFFFFFFFFFFFFFFFFFFF AND DUP2 MSTORE PUSH1 0x20 ADD SWAP1 DUP2 MSTORE PUSH1 0x20 ADD PUSH0 KECCAK256 PUSH0 PUSH2 0x100 EXP DUP2 SLOAD DUP2 PUSH1 0xFF MUL NOT AND SWAP1 DUP4 ISZERO ISZERO MUL OR SWAP1 SSTORE POP PUSH2 0x1F41 PUSH2 0x1FB0 JUMP JUMPDEST PUSH20 0xFFFFFFFFFFFFFFFFFFFFFFFFFFFFFFFFFFFFFFFF AND DUP4 PUSH20 0xFFFFFFFFFFFFFFFFFFFFFFFFFFFFFFFFFFFFFFFF AND DUP6 PUSH32 0x2F8788117E7EFF1D82E926EC794901D17C78024A50270940304540A733656F0D PUSH1 0x40 MLOAD PUSH1 0x40 MLOAD DUP1 SWAP2 SUB SWAP1 LOG4 PUSH1 0x1 SWAP2 POP POP PUSH2 0x1FAA JUMP JUMPDEST PUSH0 SWAP2 POP POP JUMPDEST SWAP3 SWAP2 POP POP JUMP JUMPDEST PUSH0 CALLER SWAP1 POP SWAP1 JUMP JUMPDEST PUSH0 PUSH0 PUSH2 0x1FC1 PUSH2 0x1E7D JUMP JUMPDEST SWAP1 POP PUSH2 0x1FCD DUP5 DUP5 PUSH2 0x1376 JUMP JUMPDEST ISZERO PUSH2 0x20A4 JUMPI PUSH0 DUP2 PUSH0 ADD PUSH0 DUP7 DUP2 MSTORE PUSH1 0x20 ADD SWAP1 DUP2 MSTORE PUSH1 0x20 ADD PUSH0 KECCAK256 PUSH0 ADD PUSH0 DUP6 PUSH20 0xFFFFFFFFFFFFFFFFFFFFFFFFFFFFFFFFFFFFFFFF AND PUSH20 0xFFFFFFFFFFFFFFFFFFFFFFFFFFFFFFFFFFFFFFFF AND DUP2 MSTORE PUSH1 0x20 ADD SWAP1 DUP2 MSTORE PUSH1 0x20 ADD PUSH0 KECCAK256 PUSH0 PUSH2 0x100 EXP DUP2 SLOAD DUP2 PUSH1 0xFF MUL NOT AND SWAP1 DUP4 ISZERO ISZERO MUL OR SWAP1 SSTORE POP PUSH2 0x2040 PUSH2 0x1FB0 JUMP JUMPDEST PUSH20 0xFFFFFFFFFFFFFFFFFFFFFFFFFFFFFFFFFFFFFFFF AND DUP4 PUSH20 0xFFFFFFFFFFFFFFFFFFFFFFFFFFFFFFFFFFFFFFFF AND DUP6 PUSH32 0xF6391F5C32D9C69D2A47EA670B442974B53935D1EDC7FD64EB21E047A839171B PUSH1 0x40 MLOAD PUSH1 0x40 MLOAD DUP1 SWAP2 SUB SWAP1 LOG4 PUSH1 0x1 SWAP2 POP POP PUSH2 0x20A9 JUMP JUMPDEST PUSH0 SWAP2 POP POP JUMPDEST SWAP3 SWAP2 POP POP JUMP JUMPDEST PUSH2 0x20B7 PUSH2 0x253E JUMP JUMPDEST PUSH0 PUSH0 PUSH0 PUSH2 0x100 EXP DUP2 SLOAD DUP2 PUSH1 0xFF MUL NOT AND SWAP1 DUP4 ISZERO ISZERO MUL OR SWAP1 SSTORE POP PUSH32 0x5DB9EE0A495BF2E6FF9C91A7834C1BA4FDD244A5E8AA4E537BD38AEAE4B073AA PUSH2 0x20F8 PUSH2 0x1FB0 JUMP JUMPDEST PUSH1 0x40 MLOAD PUSH2 0x2105 SWAP2 SWAP1 PUSH2 0x2F10 JUMP JUMPDEST PUSH1 0x40 MLOAD DUP1 SWAP2 SUB SWAP1 LOG1 JUMP JUMPDEST PUSH32 0x0 PUSH20 0xFFFFFFFFFFFFFFFFFFFFFFFFFFFFFFFFFFFFFFFF AND ADDRESS PUSH20 0xFFFFFFFFFFFFFFFFFFFFFFFFFFFFFFFFFFFFFFFF AND EQ DUP1 PUSH2 0x21BC JUMPI POP PUSH32 0x0 PUSH20 0xFFFFFFFFFFFFFFFFFFFFFFFFFFFFFFFFFFFFFFFF AND PUSH2 0x21A3 PUSH2 0x2587 JUMP JUMPDEST PUSH20 0xFFFFFFFFFFFFFFFFFFFFFFFFFFFFFFFFFFFFFFFF AND EQ ISZERO JUMPDEST ISZERO PUSH2 0x21F3 JUMPI PUSH1 0x40 MLOAD PUSH32 0xE07C8DBA00000000000000000000000000000000000000000000000000000000 DUP2 MSTORE PUSH1 0x4 ADD PUSH1 0x40 MLOAD DUP1 SWAP2 SUB SWAP1 REVERT JUMPDEST JUMP JUMPDEST PUSH32 0xA49807205CE4D355092EF5A8A18F56E8913CF4A201FBE287825B095693C21775 PUSH2 0x221F DUP2 PUSH2 0x1EA4 JUMP JUMPDEST POP POP JUMP JUMPDEST DUP2 PUSH20 0xFFFFFFFFFFFFFFFFFFFFFFFFFFFFFFFFFFFFFFFF AND PUSH4 0x52D1902D PUSH1 0x40 MLOAD DUP2 PUSH4 0xFFFFFFFF AND PUSH1 0xE0 SHL DUP2 MSTORE PUSH1 0x4 ADD PUSH1 0x20 PUSH1 0x40 MLOAD DUP1 DUP4 SUB DUP2 DUP7 GAS STATICCALL SWAP3 POP POP POP DUP1 ISZERO PUSH2 0x228B JUMPI POP PUSH1 0x40 MLOAD RETURNDATASIZE PUSH1 0x1F NOT PUSH1 0x1F DUP3 ADD AND DUP3 ADD DUP1 PUSH1 0x40 MSTORE POP DUP2 ADD SWAP1 PUSH2 0x2288 SWAP2 SWAP1 PUSH2 0x3116 JUMP JUMPDEST PUSH1 0x1 JUMPDEST PUSH2 0x22CC JUMPI DUP2 PUSH1 0x40 MLOAD PUSH32 0x4C9C8CE300000000000000000000000000000000000000000000000000000000 DUP2 MSTORE PUSH1 0x4 ADD PUSH2 0x22C3 SWAP2 SWAP1 PUSH2 0x2F10 JUMP JUMPDEST PUSH1 0x40 MLOAD DUP1 SWAP2 SUB SWAP1 REVERT JUMPDEST PUSH32 0x360894A13BA1A3210667C828492DB98DCA3E2076CC3735A920A3CA505D382BBC PUSH0 SHL DUP2 EQ PUSH2 0x2332 JUMPI DUP1 PUSH1 0x40 MLOAD PUSH32 0xAA1D49A400000000000000000000000000000000000000000000000000000000 DUP2 MSTORE PUSH1 0x4 ADD PUSH2 0x2329 SWAP2 SWAP1 PUSH2 0x2B7C JUMP JUMPDEST PUSH1 0x40 MLOAD DUP1 SWAP2 SUB SWAP1 REVERT JUMPDEST PUSH2 0x233C DUP4 DUP4 PUSH2 0x25DA JUMP JUMPDEST POP POP POP JUMP JUMPDEST PUSH32 0x0 PUSH20 0xFFFFFFFFFFFFFFFFFFFFFFFFFFFFFFFFFFFFFFFF AND ADDRESS PUSH20 0xFFFFFFFFFFFFFFFFFFFFFFFFFFFFFFFFFFFFFFFF AND EQ PUSH2 0x23C6 JUMPI PUSH1 0x40 MLOAD PUSH32 0xE07C8DBA00000000000000000000000000000000000000000000000000000000 DUP2 MSTORE PUSH1 0x4 ADD PUSH1 0x40 MLOAD DUP1 SWAP2 SUB SWAP1 REVERT JUMPDEST JUMP JUMPDEST PUSH2 0x23D0 PUSH2 0x1E21 JUMP JUMPDEST PUSH1 0x1 PUSH0 PUSH0 PUSH2 0x100 EXP DUP2 SLOAD DUP2 PUSH1 0xFF MUL NOT AND SWAP1 DUP4 ISZERO ISZERO MUL OR SWAP1 SSTORE POP PUSH32 0x62E78CEA01BEE320CD4E420270B5EA74000D11B0C9F74754EBDBFC544B05A258 PUSH2 0x2412 PUSH2 0x1FB0 JUMP JUMPDEST PUSH1 0x40 MLOAD PUSH2 0x241F SWAP2 SWAP1 PUSH2 0x2F10 JUMP JUMPDEST PUSH1 0x40 MLOAD DUP1 SWAP2 SUB SWAP1 LOG1 JUMP JUMPDEST PUSH0 PUSH0 PUSH2 0x2433 PUSH2 0x264C JUMP JUMPDEST SWAP1 POP DUP1 SWAP2 POP POP SWAP1 JUMP JUMPDEST PUSH2 0x2444 PUSH2 0x2675 JUMP JUMPDEST JUMP JUMPDEST PUSH2 0x244E PUSH2 0x2675 JUMP JUMPDEST PUSH2 0x2456 PUSH2 0x26B5 JUMP JUMPDEST JUMP JUMPDEST PUSH2 0x2460 PUSH2 0x2675 JUMP JUMPDEST PUSH2 0x2468 PUSH2 0x26D7 JUMP JUMPDEST JUMP JUMPDEST PUSH2 0x2472 PUSH2 0x2675 JUMP JUMPDEST JUMP JUMPDEST POP POP JUMP JUMPDEST POP POP JUMP JUMPDEST POP POP JUMP JUMPDEST POP POP JUMP JUMPDEST PUSH0 PUSH32 0x1FFC9A700000000000000000000000000000000000000000000000000000000 PUSH28 0xFFFFFFFFFFFFFFFFFFFFFFFFFFFFFFFFFFFFFFFFFFFFFFFFFFFFFFFF NOT AND DUP3 PUSH28 0xFFFFFFFFFFFFFFFFFFFFFFFFFFFFFFFFFFFFFFFFFFFFFFFFFFFFFFFF NOT AND EQ SWAP1 POP SWAP2 SWAP1 POP JUMP JUMPDEST PUSH2 0x24F7 DUP3 DUP3 PUSH2 0x1376 JUMP JUMPDEST PUSH2 0x253A JUMPI DUP1 DUP3 PUSH1 0x40 MLOAD PUSH32 0xE2517D3F00000000000000000000000000000000000000000000000000000000 DUP2 MSTORE PUSH1 0x4 ADD PUSH2 0x2531 SWAP3 SWAP2 SWAP1 PUSH2 0x3141 JUMP JUMPDEST PUSH1 0x40 MLOAD DUP1 SWAP2 SUB SWAP1 REVERT JUMPDEST POP POP JUMP JUMPDEST PUSH2 0x2546 PUSH2 0x10CE JUMP JUMPDEST PUSH2 0x2585 JUMPI PUSH1 0x40 MLOAD PUSH32 0x8C379A000000000000000000000000000000000000000000000000000000000 DUP2 MSTORE PUSH1 0x4 ADD PUSH2 0x257C SWAP1 PUSH2 0x31B2 JUMP JUMPDEST PUSH1 0x40 MLOAD DUP1 SWAP2 SUB SWAP1 REVERT JUMPDEST JUMP JUMPDEST PUSH0 PUSH2 0x25B3 PUSH32 0x360894A13BA1A3210667C828492DB98DCA3E2076CC3735A920A3CA505D382BBC PUSH0 SHL PUSH2 0x26E9 JUMP JUMPDEST PUSH0 ADD PUSH0 SWAP1 SLOAD SWAP1 PUSH2 0x100 EXP SWAP1 DIV PUSH20 0xFFFFFFFFFFFFFFFFFFFFFFFFFFFFFFFFFFFFFFFF AND SWAP1 POP SWAP1 JUMP JUMPDEST PUSH2 0x25E3 DUP3 PUSH2 0x26F2 JUMP JUMPDEST DUP2 PUSH20 0xFFFFFFFFFFFFFFFFFFFFFFFFFFFFFFFFFFFFFFFF AND PUSH32 0xBC7CD75A20EE27FD9ADEBAB32041F755214DBC6BFFA90CC0225B39DA2E5C2D3B PUSH1 0x40 MLOAD PUSH1 0x40 MLOAD DUP1 SWAP2 SUB SWAP1 LOG2 PUSH0 DUP2 MLOAD GT ISZERO PUSH2 0x263F JUMPI PUSH2 0x2639 DUP3 DUP3 PUSH2 0x27BB JUMP JUMPDEST POP PUSH2 0x2648 JUMP JUMPDEST PUSH2 0x2647 PUSH2 0x283B JUMP JUMPDEST JUMPDEST POP POP JUMP JUMPDEST PUSH0 PUSH32 0xF0C57E16840DF040F15088DC2F81FE391C3923BEC73E23A9662EFC9C229C6A00 PUSH0 SHL SWAP1 POP SWAP1 JUMP JUMPDEST PUSH2 0x267D PUSH2 0x2877 JUMP JUMPDEST PUSH2 0x26B3 JUMPI PUSH1 0x40 MLOAD PUSH32 0xD7E6BCF800000000000000000000000000000000000000000000000000000000 DUP2 MSTORE PUSH1 0x4 ADD PUSH1 0x40 MLOAD DUP1 SWAP2 SUB SWAP1 REVERT JUMPDEST JUMP JUMPDEST PUSH2 0x26BD PUSH2 0x2675 JUMP JUMPDEST PUSH0 PUSH0 PUSH0 PUSH2 0x100 EXP DUP2 SLOAD DUP2 PUSH1 0xFF MUL NOT AND SWAP1 DUP4 ISZERO ISZERO MUL OR SWAP1 SSTORE POP JUMP JUMPDEST PUSH2 0x26DF PUSH2 0x2675 JUMP JUMPDEST PUSH1 0x1 PUSH1 0x32 DUP2 SWAP1 SSTORE POP JUMP JUMPDEST PUSH0 DUP2 SWAP1 POP SWAP2 SWAP1 POP JUMP JUMPDEST PUSH0 DUP2 PUSH20 0xFFFFFFFFFFFFFFFFFFFFFFFFFFFFFFFFFFFFFFFF AND EXTCODESIZE SUB PUSH2 0x274D JUMPI DUP1 PUSH1 0x40 MLOAD PUSH32 0x4C9C8CE300000000000000000000000000000000000000000000000000000000 DUP2 MSTORE PUSH1 0x4 ADD PUSH2 0x2744 SWAP2 SWAP1 PUSH2 0x2F10 JUMP JUMPDEST PUSH1 0x40 MLOAD DUP1 SWAP2 SUB SWAP1 REVERT JUMPDEST DUP1 PUSH2 0x2779 PUSH32 0x360894A13BA1A3210667C828492DB98DCA3E2076CC3735A920A3CA505D382BBC PUSH0 SHL PUSH2 0x26E9 JUMP JUMPDEST PUSH0 ADD PUSH0 PUSH2 0x100 EXP DUP2 SLOAD DUP2 PUSH20 0xFFFFFFFFFFFFFFFFFFFFFFFFFFFFFFFFFFFFFFFF MUL NOT AND SWAP1 DUP4 PUSH20 0xFFFFFFFFFFFFFFFFFFFFFFFFFFFFFFFFFFFFFFFF AND MUL OR SWAP1 SSTORE POP POP JUMP JUMPDEST PUSH1 0x60 PUSH0 PUSH0 DUP5 PUSH20 0xFFFFFFFFFFFFFFFFFFFFFFFFFFFFFFFFFFFFFFFF AND DUP5 PUSH1 0x40 MLOAD PUSH2 0x27E4 SWAP2 SWAP1 PUSH2 0x320A JUMP JUMPDEST PUSH0 PUSH1 0x40 MLOAD DUP1 DUP4 SUB DUP2 DUP6 GAS DELEGATECALL SWAP2 POP POP RETURNDATASIZE DUP1 PUSH0 DUP2 EQ PUSH2 0x281C JUMPI PUSH1 0x40 MLOAD SWAP2 POP PUSH1 0x1F NOT PUSH1 0x3F RETURNDATASIZE ADD AND DUP3 ADD PUSH1 0x40 MSTORE RETURNDATASIZE DUP3 MSTORE RETURNDATASIZE PUSH0 PUSH1 0x20 DUP5 ADD RETURNDATACOPY PUSH2 0x2821 JUMP JUMPDEST PUSH1 0x60 SWAP2 POP JUMPDEST POP SWAP2 POP SWAP2 POP PUSH2 0x2831 DUP6 DUP4 DUP4 PUSH2 0x2895 JUMP JUMPDEST SWAP3 POP POP POP SWAP3 SWAP2 POP POP JUMP JUMPDEST PUSH0 CALLVALUE GT ISZERO PUSH2 0x2875 JUMPI PUSH1 0x40 MLOAD PUSH32 0xB398979F00000000000000000000000000000000000000000000000000000000 DUP2 MSTORE PUSH1 0x4 ADD PUSH1 0x40 MLOAD DUP1 SWAP2 SUB SWAP1 REVERT JUMPDEST JUMP JUMPDEST PUSH0 PUSH2 0x2880 PUSH2 0x2429 JUMP JUMPDEST PUSH0 ADD PUSH1 0x8 SWAP1 SLOAD SWAP1 PUSH2 0x100 EXP SWAP1 DIV PUSH1 0xFF AND SWAP1 POP SWAP1 JUMP JUMPDEST PUSH1 0x60 DUP3 PUSH2 0x28AA JUMPI PUSH2 0x28A5 DUP3 PUSH2 0x2922 JUMP JUMPDEST PUSH2 0x291A JUMP JUMPDEST PUSH0 DUP3 MLOAD EQ DUP1 ISZERO PUSH2 0x28D0 JUMPI POP PUSH0 DUP5 PUSH20 0xFFFFFFFFFFFFFFFFFFFFFFFFFFFFFFFFFFFFFFFF AND EXTCODESIZE EQ JUMPDEST ISZERO PUSH2 0x2912 JUMPI DUP4 PUSH1 0x40 MLOAD PUSH32 0x9996B31500000000000000000000000000000000000000000000000000000000 DUP2 MSTORE PUSH1 0x4 ADD PUSH2 0x2909 SWAP2 SWAP1 PUSH2 0x2F10 JUMP JUMPDEST PUSH1 0x40 MLOAD DUP1 SWAP2 SUB SWAP1 REVERT JUMPDEST DUP2 SWAP1 POP PUSH2 0x291B JUMP JUMPDEST JUMPDEST SWAP4 SWAP3 POP POP POP JUMP JUMPDEST PUSH0 DUP2 MLOAD GT ISZERO PUSH2 0x2933 JUMPI DUP1 MLOAD PUSH1 0x20 DUP3 ADD REVERT JUMPDEST PUSH1 0x40 MLOAD PUSH32 0xD6BDA27500000000000000000000000000000000000000000000000000000000 DUP2 MSTORE PUSH1 0x4 ADD PUSH1 0x40 MLOAD DUP1 SWAP2 SUB SWAP1 REVERT JUMPDEST PUSH0 DUP2 SWAP1 POP SWAP2 SWAP1 POP JUMP JUMPDEST PUSH32 0x4E487B7100000000000000000000000000000000000000000000000000000000 PUSH0 MSTORE PUSH1 0x11 PUSH1 0x4 MSTORE PUSH1 0x24 PUSH0 REVERT JUMPDEST PUSH0 PUSH2 0x29A5 DUP3 PUSH2 0x2965 JUMP JUMPDEST SWAP2 POP PUSH2 0x29B0 DUP4 PUSH2 0x2965 JUMP JUMPDEST SWAP3 POP DUP3 DUP3 ADD SWAP1 POP DUP1 DUP3 GT ISZERO PUSH2 0x29C8 JUMPI PUSH2 0x29C7 PUSH2 0x296E JUMP JUMPDEST JUMPDEST SWAP3 SWAP2 POP POP JUMP JUMPDEST PUSH2 0x29D7 DUP2 PUSH2 0x2965 JUMP JUMPDEST DUP3 MSTORE POP POP JUMP JUMPDEST PUSH0 PUSH1 0x20 DUP3 ADD SWAP1 POP PUSH2 0x29F0 PUSH0 DUP4 ADD DUP5 PUSH2 0x29CE JUMP JUMPDEST SWAP3 SWAP2 POP POP JUMP JUMPDEST PUSH0 PUSH1 0x40 MLOAD SWAP1 POP SWAP1 JUMP JUMPDEST PUSH0 PUSH0 REVERT JUMPDEST PUSH0 PUSH0 REVERT JUMPDEST PUSH0 PUSH32 0xFFFFFFFF00000000000000000000000000000000000000000000000000000000 DUP3 AND SWAP1 POP SWAP2 SWAP1 POP JUMP JUMPDEST PUSH2 0x2A3B DUP2 PUSH2 0x2A07 JUMP JUMPDEST DUP2 EQ PUSH2 0x2A45 JUMPI PUSH0 PUSH0 REVERT JUMPDEST POP JUMP JUMPDEST PUSH0 DUP2 CALLDATALOAD SWAP1 POP PUSH2 0x2A56 DUP2 PUSH2 0x2A32 JUMP JUMPDEST SWAP3 SWAP2 POP POP JUMP JUMPDEST PUSH0 PUSH1 0x20 DUP3 DUP5 SUB SLT ISZERO PUSH2 0x2A71 JUMPI PUSH2 0x2A70 PUSH2 0x29FF JUMP JUMPDEST JUMPDEST PUSH0 PUSH2 0x2A7E DUP5 DUP3 DUP6 ADD PUSH2 0x2A48 JUMP JUMPDEST SWAP2 POP POP SWAP3 SWAP2 POP POP JUMP JUMPDEST PUSH0 DUP2 ISZERO ISZERO SWAP1 POP SWAP2 SWAP1 POP JUMP JUMPDEST PUSH2 0x2A9B DUP2 PUSH2 0x2A87 JUMP JUMPDEST DUP3 MSTORE POP POP JUMP JUMPDEST PUSH0 PUSH1 0x20 DUP3 ADD SWAP1 POP PUSH2 0x2AB4 PUSH0 DUP4 ADD DUP5 PUSH2 0x2A92 JUMP JUMPDEST SWAP3 SWAP2 POP POP JUMP JUMPDEST PUSH2 0x2AC3 DUP2 PUSH2 0x2965 JUMP JUMPDEST DUP2 EQ PUSH2 0x2ACD JUMPI PUSH0 PUSH0 REVERT JUMPDEST POP JUMP JUMPDEST PUSH0 DUP2 CALLDATALOAD SWAP1 POP PUSH2 0x2ADE DUP2 PUSH2 0x2ABA JUMP JUMPDEST SWAP3 SWAP2 POP POP JUMP JUMPDEST PUSH0 PUSH1 0x20 DUP3 DUP5 SUB SLT ISZERO PUSH2 0x2AF9 JUMPI PUSH2 0x2AF8 PUSH2 0x29FF JUMP JUMPDEST JUMPDEST PUSH0 PUSH2 0x2B06 DUP5 DUP3 DUP6 ADD PUSH2 0x2AD0 JUMP JUMPDEST SWAP2 POP POP SWAP3 SWAP2 POP POP JUMP JUMPDEST PUSH0 DUP2 SWAP1 POP SWAP2 SWAP1 POP JUMP JUMPDEST PUSH2 0x2B21 DUP2 PUSH2 0x2B0F JUMP JUMPDEST DUP2 EQ PUSH2 0x2B2B JUMPI PUSH0 PUSH0 REVERT JUMPDEST POP JUMP JUMPDEST PUSH0 DUP2 CALLDATALOAD SWAP1 POP PUSH2 0x2B3C DUP2 PUSH2 0x2B18 JUMP JUMPDEST SWAP3 SWAP2 POP POP JUMP JUMPDEST PUSH0 PUSH1 0x20 DUP3 DUP5 SUB SLT ISZERO PUSH2 0x2B57 JUMPI PUSH2 0x2B56 PUSH2 0x29FF JUMP JUMPDEST JUMPDEST PUSH0 PUSH2 0x2B64 DUP5 DUP3 DUP6 ADD PUSH2 0x2B2E JUMP JUMPDEST SWAP2 POP POP SWAP3 SWAP2 POP POP JUMP JUMPDEST PUSH2 0x2B76 DUP2 PUSH2 0x2B0F JUMP JUMPDEST DUP3 MSTORE POP POP JUMP JUMPDEST PUSH0 PUSH1 0x20 DUP3 ADD SWAP1 POP PUSH2 0x2B8F PUSH0 DUP4 ADD DUP5 PUSH2 0x2B6D JUMP JUMPDEST SWAP3 SWAP2 POP POP JUMP JUMPDEST PUSH0 PUSH20 0xFFFFFFFFFFFFFFFFFFFFFFFFFFFFFFFFFFFFFFFF DUP3 AND SWAP1 POP SWAP2 SWAP1 POP JUMP JUMPDEST PUSH0 PUSH2 0x2BBE DUP3 PUSH2 0x2B95 JUMP JUMPDEST SWAP1 POP SWAP2 SWAP1 POP JUMP JUMPDEST PUSH2 0x2BCE DUP2 PUSH2 0x2BB4 JUMP JUMPDEST DUP2 EQ PUSH2 0x2BD8 JUMPI PUSH0 PUSH0 REVERT JUMPDEST POP JUMP JUMPDEST PUSH0 DUP2 CALLDATALOAD SWAP1 POP PUSH2 0x2BE9 DUP2 PUSH2 0x2BC5 JUMP JUMPDEST SWAP3 SWAP2 POP POP JUMP JUMPDEST PUSH0 PUSH0 PUSH1 0x40 DUP4 DUP6 SUB SLT ISZERO PUSH2 0x2C05 JUMPI PUSH2 0x2C04 PUSH2 0x29FF JUMP JUMPDEST JUMPDEST PUSH0 PUSH2 0x2C12 DUP6 DUP3 DUP7 ADD PUSH2 0x2B2E JUMP JUMPDEST SWAP3 POP POP PUSH1 0x20 PUSH2 0x2C23 DUP6 DUP3 DUP7 ADD PUSH2 0x2BDB JUMP JUMPDEST SWAP2 POP POP SWAP3 POP SWAP3 SWAP1 POP JUMP JUMPDEST PUSH0 PUSH1 0x20 DUP3 DUP5 SUB SLT ISZERO PUSH2 0x2C42 JUMPI PUSH2 0x2C41 PUSH2 0x29FF JUMP JUMPDEST JUMPDEST PUSH0 PUSH2 0x2C4F DUP5 DUP3 DUP6 ADD PUSH2 0x2BDB JUMP JUMPDEST SWAP2 POP POP SWAP3 SWAP2 POP POP JUMP JUMPDEST PUSH0 PUSH0 REVERT JUMPDEST PUSH0 PUSH0 REVERT JUMPDEST PUSH0 PUSH1 0x1F NOT PUSH1 0x1F DUP4 ADD AND SWAP1 POP SWAP2 SWAP1 POP JUMP JUMPDEST PUSH32 0x4E487B7100000000000000000000000000000000000000000000000000000000 PUSH0 MSTORE PUSH1 0x41 PUSH1 0x4 MSTORE PUSH1 0x24 PUSH0 REVERT JUMPDEST PUSH2 0x2CA6 DUP3 PUSH2 0x2C60 JUMP JUMPDEST DUP2 ADD DUP2 DUP2 LT PUSH8 0xFFFFFFFFFFFFFFFF DUP3 GT OR ISZERO PUSH2 0x2CC5 JUMPI PUSH2 0x2CC4 PUSH2 0x2C70 JUMP JUMPDEST JUMPDEST DUP1 PUSH1 0x40 MSTORE POP POP POP JUMP JUMPDEST PUSH0 PUSH2 0x2CD7 PUSH2 0x29F6 JUMP JUMPDEST SWAP1 POP PUSH2 0x2CE3 DUP3 DUP3 PUSH2 0x2C9D JUMP JUMPDEST SWAP2 SWAP1 POP JUMP JUMPDEST PUSH0 PUSH8 0xFFFFFFFFFFFFFFFF DUP3 GT ISZERO PUSH2 0x2D02 JUMPI PUSH2 0x2D01 PUSH2 0x2C70 JUMP JUMPDEST JUMPDEST PUSH2 0x2D0B DUP3 PUSH2 0x2C60 JUMP JUMPDEST SWAP1 POP PUSH1 0x20 DUP2 ADD SWAP1 POP SWAP2 SWAP1 POP JUMP JUMPDEST DUP3 DUP2 DUP4 CALLDATACOPY PUSH0 DUP4 DUP4 ADD MSTORE POP POP POP JUMP JUMPDEST PUSH0 PUSH2 0x2D38 PUSH2 0x2D33 DUP5 PUSH2 0x2CE8 JUMP JUMPDEST PUSH2 0x2CCE JUMP JUMPDEST SWAP1 POP DUP3 DUP2 MSTORE PUSH1 0x20 DUP2 ADD DUP5 DUP5 DUP5 ADD GT ISZERO PUSH2 0x2D54 JUMPI PUSH2 0x2D53 PUSH2 0x2C5C JUMP JUMPDEST JUMPDEST PUSH2 0x2D5F DUP5 DUP3 DUP6 PUSH2 0x2D18 JUMP JUMPDEST POP SWAP4 SWAP3 POP POP POP JUMP JUMPDEST PUSH0 DUP3 PUSH1 0x1F DUP4 ADD SLT PUSH2 0x2D7B JUMPI PUSH2 0x2D7A PUSH2 0x2C58 JUMP JUMPDEST JUMPDEST DUP2 CALLDATALOAD PUSH2 0x2D8B DUP5 DUP3 PUSH1 0x20 DUP7 ADD PUSH2 0x2D26 JUMP JUMPDEST SWAP2 POP POP SWAP3 SWAP2 POP POP JUMP JUMPDEST PUSH0 PUSH0 PUSH1 0x40 DUP4 DUP6 SUB SLT ISZERO PUSH2 0x2DAA JUMPI PUSH2 0x2DA9 PUSH2 0x29FF JUMP JUMPDEST JUMPDEST PUSH0 PUSH2 0x2DB7 DUP6 DUP3 DUP7 ADD PUSH2 0x2BDB JUMP JUMPDEST SWAP3 POP POP PUSH1 0x20 DUP4 ADD CALLDATALOAD PUSH8 0xFFFFFFFFFFFFFFFF DUP2 GT ISZERO PUSH2 0x2DD8 JUMPI PUSH2 0x2DD7 PUSH2 0x2A03 JUMP JUMPDEST JUMPDEST PUSH2 0x2DE4 DUP6 DUP3 DUP7 ADD PUSH2 0x2D67 JUMP JUMPDEST SWAP2 POP POP SWAP3 POP SWAP3 SWAP1 POP JUMP JUMPDEST PUSH0 DUP2 MLOAD SWAP1 POP SWAP2 SWAP1 POP JUMP JUMPDEST PUSH0 DUP3 DUP3 MSTORE PUSH1 0x20 DUP3 ADD SWAP1 POP SWAP3 SWAP2 POP POP JUMP JUMPDEST DUP3 DUP2 DUP4 MCOPY PUSH0 DUP4 DUP4 ADD MSTORE POP POP POP JUMP JUMPDEST PUSH0 PUSH2 0x2E20 DUP3 PUSH2 0x2DEE JUMP JUMPDEST PUSH2 0x2E2A DUP2 DUP6 PUSH2 0x2DF8 JUMP JUMPDEST SWAP4 POP PUSH2 0x2E3A DUP2 DUP6 PUSH1 0x20 DUP7 ADD PUSH2 0x2E08 JUMP JUMPDEST PUSH2 0x2E43 DUP2 PUSH2 0x2C60 JUMP JUMPDEST DUP5 ADD SWAP2 POP POP SWAP3 SWAP2 POP POP JUMP JUMPDEST PUSH0 PUSH1 0x20 DUP3 ADD SWAP1 POP DUP2 DUP2 SUB PUSH0 DUP4 ADD MSTORE PUSH2 0x2E66 DUP2 DUP5 PUSH2 0x2E16 JUMP JUMPDEST SWAP1 POP SWAP3 SWAP2 POP POP JUMP JUMPDEST PUSH2 0x2E77 DUP2 PUSH2 0x2A87 JUMP JUMPDEST DUP2 EQ PUSH2 0x2E81 JUMPI PUSH0 PUSH0 REVERT JUMPDEST POP JUMP JUMPDEST PUSH0 DUP2 CALLDATALOAD SWAP1 POP PUSH2 0x2E92 DUP2 PUSH2 0x2E6E JUMP JUMPDEST SWAP3 SWAP2 POP POP JUMP JUMPDEST PUSH0 PUSH1 0x20 DUP3 DUP5 SUB SLT ISZERO PUSH2 0x2EAD JUMPI PUSH2 0x2EAC PUSH2 0x29FF JUMP JUMPDEST JUMPDEST PUSH0 PUSH2 0x2EBA DUP5 DUP3 DUP6 ADD PUSH2 0x2E84 JUMP JUMPDEST SWAP2 POP POP SWAP3 SWAP2 POP POP JUMP JUMPDEST PUSH0 PUSH0 PUSH1 0x40 DUP4 DUP6 SUB SLT ISZERO PUSH2 0x2ED9 JUMPI PUSH2 0x2ED8 PUSH2 0x29FF JUMP JUMPDEST JUMPDEST PUSH0 PUSH2 0x2EE6 DUP6 DUP3 DUP7 ADD PUSH2 0x2BDB JUMP JUMPDEST SWAP3 POP POP PUSH1 0x20 PUSH2 0x2EF7 DUP6 DUP3 DUP7 ADD PUSH2 0x2AD0 JUMP JUMPDEST SWAP2 POP POP SWAP3 POP SWAP3 SWAP1 POP JUMP JUMPDEST PUSH2 0x2F0A DUP2 PUSH2 0x2BB4 JUMP JUMPDEST DUP3 MSTORE POP POP JUMP JUMPDEST PUSH0 PUSH1 0x20 DUP3 ADD SWAP1 POP PUSH2 0x2F23 PUSH0 DUP4 ADD DUP5 PUSH2 0x2F01 JUMP JUMPDEST SWAP3 SWAP2 POP POP JUMP JUMPDEST PUSH0 PUSH1 0x40 DUP3 ADD SWAP1 POP PUSH2 0x2F3C PUSH0 DUP4 ADD DUP6 PUSH2 0x29CE JUMP JUMPDEST PUSH2 0x2F49 PUSH1 0x20 DUP4 ADD DUP5 PUSH2 0x29CE JUMP JUMPDEST SWAP4 SWAP3 POP POP POP JUMP JUMPDEST PUSH0 PUSH2 0x2F5A DUP3 PUSH2 0x2965 JUMP JUMPDEST SWAP2 POP PUSH2 0x2F65 DUP4 PUSH2 0x2965 JUMP JUMPDEST SWAP3 POP DUP3 DUP3 SUB SWAP1 POP DUP2 DUP2 GT ISZERO PUSH2 0x2F7D JUMPI PUSH2 0x2F7C PUSH2 0x296E JUMP JUMPDEST JUMPDEST SWAP3 SWAP2 POP POP JUMP JUMPDEST PUSH0 DUP2 SWAP1 POP SWAP3 SWAP2 POP POP JUMP JUMPDEST POP JUMP JUMPDEST PUSH0 PUSH2 0x2F9B PUSH0 DUP4 PUSH2 0x2F83 JUMP JUMPDEST SWAP2 POP PUSH2 0x2FA6 DUP3 PUSH2 0x2F8D JUMP JUMPDEST PUSH0 DUP3 ADD SWAP1 POP SWAP2 SWAP1 POP JUMP JUMPDEST PUSH0 PUSH2 0x2FBA DUP3 PUSH2 0x2F90 JUMP JUMPDEST SWAP2 POP DUP2 SWAP1 POP SWAP2 SWAP1 POP JUMP JUMPDEST PUSH0 DUP2 SWAP1 POP SWAP2 SWAP1 POP JUMP JUMPDEST PUSH0 PUSH8 0xFFFFFFFFFFFFFFFF DUP3 AND SWAP1 POP SWAP2 SWAP1 POP JUMP JUMPDEST PUSH0 DUP2 SWAP1 POP SWAP2 SWAP1 POP JUMP JUMPDEST PUSH0 PUSH2 0x3003 PUSH2 0x2FFE PUSH2 0x2FF9 DUP5 PUSH2 0x2FC4 JUMP JUMPDEST PUSH2 0x2FE0 JUMP JUMPDEST PUSH2 0x2FCD JUMP JUMPDEST SWAP1 POP SWAP2 SWAP1 POP JUMP JUMPDEST PUSH2 0x3013 DUP2 PUSH2 0x2FE9 JUMP JUMPDEST DUP3 MSTORE POP POP JUMP JUMPDEST PUSH0 PUSH1 0x20 DUP3 ADD SWAP1 POP PUSH2 0x302C PUSH0 DUP4 ADD DUP5 PUSH2 0x300A JUMP JUMPDEST SWAP3 SWAP2 POP POP JUMP JUMPDEST PUSH32 0x5265656E7472616E637947756172643A207265656E7472616E742063616C6C00 PUSH0 DUP3 ADD MSTORE POP JUMP JUMPDEST PUSH0 PUSH2 0x3066 PUSH1 0x1F DUP4 PUSH2 0x2DF8 JUMP JUMPDEST SWAP2 POP PUSH2 0x3071 DUP3 PUSH2 0x3032 JUMP JUMPDEST PUSH1 0x20 DUP3 ADD SWAP1 POP SWAP2 SWAP1 POP JUMP JUMPDEST PUSH0 PUSH1 0x20 DUP3 ADD SWAP1 POP DUP2 DUP2 SUB PUSH0 DUP4 ADD MSTORE PUSH2 0x3093 DUP2 PUSH2 0x305A JUMP JUMPDEST SWAP1 POP SWAP2 SWAP1 POP JUMP JUMPDEST PUSH32 0x5061757361626C653A2070617573656400000000000000000000000000000000 PUSH0 DUP3 ADD MSTORE POP JUMP JUMPDEST PUSH0 PUSH2 0x30CE PUSH1 0x10 DUP4 PUSH2 0x2DF8 JUMP JUMPDEST SWAP2 POP PUSH2 0x30D9 DUP3 PUSH2 0x309A JUMP JUMPDEST PUSH1 0x20 DUP3 ADD SWAP1 POP SWAP2 SWAP1 POP JUMP JUMPDEST PUSH0 PUSH1 0x20 DUP3 ADD SWAP1 POP DUP2 DUP2 SUB PUSH0 DUP4 ADD MSTORE PUSH2 0x30FB DUP2 PUSH2 0x30C2 JUMP JUMPDEST SWAP1 POP SWAP2 SWAP1 POP JUMP JUMPDEST PUSH0 DUP2 MLOAD SWAP1 POP PUSH2 0x3110 DUP2 PUSH2 0x2B18 JUMP JUMPDEST SWAP3 SWAP2 POP POP JUMP JUMPDEST PUSH0 PUSH1 0x20 DUP3 DUP5 SUB SLT ISZERO PUSH2 0x312B JUMPI PUSH2 0x312A PUSH2 0x29FF JUMP JUMPDEST JUMPDEST PUSH0 PUSH2 0x3138 DUP5 DUP3 DUP6 ADD PUSH2 0x3102 JUMP JUMPDEST SWAP2 POP POP SWAP3 SWAP2 POP POP JUMP JUMPDEST PUSH0 PUSH1 0x40 DUP3 ADD SWAP1 POP PUSH2 0x3154 PUSH0 DUP4 ADD DUP6 PUSH2 0x2F01 JUMP JUMPDEST PUSH2 0x3161 PUSH1 0x20 DUP4 ADD DUP5 PUSH2 0x2B6D JUMP JUMPDEST SWAP4 SWAP3 POP POP POP JUMP JUMPDEST PUSH32 0x5061757361626C653A206E6F7420706175736564000000000000000000000000 PUSH0 DUP3 ADD MSTORE POP JUMP JUMPDEST PUSH0 PUSH2 0x319C PUSH1 0x14 DUP4 PUSH2 0x2DF8 JUMP JUMPDEST SWAP2 POP PUSH2 0x31A7 DUP3 PUSH2 0x3168 JUMP JUMPDEST PUSH1 0x20 DUP3 ADD SWAP1 POP SWAP2 SWAP1 POP JUMP JUMPDEST PUSH0 PUSH1 0x20 DUP3 ADD SWAP1 POP DUP2 DUP2 SUB PUSH0 DUP4 ADD MSTORE PUSH2 0x31C9 DUP2 PUSH2 0x3190 JUMP JUMPDEST SWAP1 POP SWAP2 SWAP1 POP JUMP JUMPDEST PUSH0 DUP2 MLOAD SWAP1 POP SWAP2 SWAP1 POP JUMP JUMPDEST PUSH0 PUSH2 0x31E4 DUP3 PUSH2 0x31D0 JUMP JUMPDEST PUSH2 0x31EE DUP2 DUP6 PUSH2 0x2F83 JUMP JUMPDEST SWAP4 POP PUSH2 0x31FE DUP2 DUP6 PUSH1 0x20 DUP7 ADD PUSH2 0x2E08 JUMP JUMPDEST DUP1 DUP5 ADD SWAP2 POP POP SWAP3 SWAP2 POP POP JUMP JUMPDEST PUSH0 PUSH2 0x3215 DUP3 DUP5 PUSH2 0x31DA JUMP JUMPDEST SWAP2 POP DUP2 SWAP1 POP SWAP3 SWAP2 POP POP JUMP INVALID LOG2 PUSH5 0x6970667358 0x22 SLT KECCAK256 PUSH13 0x66A4014F9AAABFD039AF507353 0xC9 0xCD 0x2D 0xC SWAP1 0xD5 0xAA SWAP12 SWAP11 PUSH15 0xB4658DF352DEA66664736F6C634300 ADDMOD 0x1E STOP CALLER "
				},
				"gasEstimates": {
					"creation": {
						"codeDepositCost": "2577200",
						"executionCost": "infinite",
						"totalCost": "infinite"
					},
					"external": {
						"ADMIN_ROLE()": "371",
						"DEFAULT_ADMIN_ROLE()": "418",
						"UPGRADE_INTERFACE_VERSION()": "infinite",
						"addToBlacklist(address)": "infinite",
						"addToWhitelist(address)": "infinite",
						"balanceOf(address)": "2940",
						"deposit()": "infinite",
						"emergencyMode()": "2535",
						"emergencyWithdraw()": "infinite",
						"getRoleAdmin(bytes32)": "infinite",
						"grantRole(bytes32,address)": "infinite",
						"hasRole(bytes32,address)": "3239",
						"initialize(address,uint256)": "infinite",
						"isBlacklisted(address)": "2958",
						"isWhitelisted(address)": "2982",
						"maxWithdrawalLimit()": "2535",
						"pause()": "infinite",
						"paused()": "2561",
						"proxiableUUID()": "infinite",
						"removeFromBlacklist(address)": "infinite",
						"removeFromWhitelist(address)": "infinite",
						"renounceRole(bytes32,address)": "infinite",
						"revokeRole(bytes32,address)": "infinite",
						"secureWithdraw(uint256)": "infinite",
						"setEmergencyMode(bool)": "infinite",
						"setMaxWithdrawalLimit(uint256)": "infinite",
						"supportsInterface(bytes4)": "806",
						"unpause()": "infinite",
						"upgradeToAndCall(address,bytes)": "infinite"
					},
					"internal": {
						"_afterDeposit(address,uint256)": "13",
						"_afterEmergencyWithdraw(address,uint256)": "13",
						"_afterSecureWithdraw(address,uint256)": "13",
						"_authorizeUpgrade(address)": "infinite",
						"_beforeDeposit(address,uint256)": "13",
						"_beforeEmergencyWithdraw(address,uint256)": "13",
						"_beforeSecureWithdraw(address,uint256)": "13"
					}
				},
				"methodIdentifiers": {
					"ADMIN_ROLE()": "75b238fc",
					"DEFAULT_ADMIN_ROLE()": "a217fddf",
					"UPGRADE_INTERFACE_VERSION()": "ad3cb1cc",
					"addToBlacklist(address)": "44337ea1",
					"addToWhitelist(address)": "e43252d7",
					"balanceOf(address)": "70a08231",
					"deposit()": "d0e30db0",
					"emergencyMode()": "0905f560",
					"emergencyWithdraw()": "db2e21bc",
					"getRoleAdmin(bytes32)": "248a9ca3",
					"grantRole(bytes32,address)": "2f2ff15d",
					"hasRole(bytes32,address)": "91d14854",
					"initialize(address,uint256)": "cd6dc687",
					"isBlacklisted(address)": "fe575a87",
					"isWhitelisted(address)": "3af32abf",
					"maxWithdrawalLimit()": "ff2f97a3",
					"pause()": "8456cb59",
					"paused()": "5c975abb",
					"proxiableUUID()": "52d1902d",
					"removeFromBlacklist(address)": "537df3b6",
					"removeFromWhitelist(address)": "8ab1d681",
					"renounceRole(bytes32,address)": "36568abe",
					"revokeRole(bytes32,address)": "d547741f",
					"secureWithdraw(uint256)": "19058c15",
					"setEmergencyMode(bool)": "be32b3f8",
					"setMaxWithdrawalLimit(uint256)": "83a9b785",
					"supportsInterface(bytes4)": "01ffc9a7",
					"unpause()": "3f4ba83a",
					"upgradeToAndCall(address,bytes)": "4f1ef286"
				}
			},
			"storageLayout": {
				"storage": [
					{
						"astId": 836,
						"contract": "contracts/rough.sol:Secure",
						"label": "_paused",
						"offset": 0,
						"slot": "0",
						"type": "t_bool"
					},
					{
						"astId": 941,
						"contract": "contracts/rough.sol:Secure",
						"label": "__gap",
						"offset": 0,
						"slot": "1",
						"type": "t_array(t_uint256)49_storage"
					},
					{
						"astId": 957,
						"contract": "contracts/rough.sol:Secure",
						"label": "_status",
						"offset": 0,
						"slot": "50",
						"type": "t_uint256"
					},
					{
						"astId": 1026,
						"contract": "contracts/rough.sol:Secure",
						"label": "__gap",
						"offset": 0,
						"slot": "51",
						"type": "t_array(t_uint256)49_storage"
					},
					{
						"astId": 2015,
						"contract": "contracts/rough.sol:Secure",
						"label": "whitelist",
						"offset": 0,
						"slot": "100",
						"type": "t_mapping(t_address,t_bool)"
					},
					{
						"astId": 2019,
						"contract": "contracts/rough.sol:Secure",
						"label": "blacklist",
						"offset": 0,
						"slot": "101",
						"type": "t_mapping(t_address,t_bool)"
					},
					{
						"astId": 2023,
						"contract": "contracts/rough.sol:Secure",
						"label": "balances",
						"offset": 0,
						"slot": "102",
						"type": "t_mapping(t_address,t_uint256)"
					},
					{
						"astId": 2027,
						"contract": "contracts/rough.sol:Secure",
						"label": "lastBlockWithdrawn",
						"offset": 0,
						"slot": "103",
						"type": "t_mapping(t_address,t_uint256)"
					},
					{
						"astId": 2029,
						"contract": "contracts/rough.sol:Secure",
						"label": "emergencyMode",
						"offset": 0,
						"slot": "104",
						"type": "t_bool"
					},
					{
						"astId": 2031,
						"contract": "contracts/rough.sol:Secure",
						"label": "maxWithdrawalLimit",
						"offset": 0,
						"slot": "105",
						"type": "t_uint256"
					}
				],
				"types": {
					"t_address": {
						"encoding": "inplace",
						"label": "address",
						"numberOfBytes": "20"
					},
					"t_array(t_uint256)49_storage": {
						"base": "t_uint256",
						"encoding": "inplace",
						"label": "uint256[49]",
						"numberOfBytes": "1568"
					},
					"t_bool": {
						"encoding": "inplace",
						"label": "bool",
						"numberOfBytes": "1"
					},
					"t_mapping(t_address,t_bool)": {
						"encoding": "mapping",
						"key": "t_address",
						"label": "mapping(address => bool)",
						"numberOfBytes": "32",
						"value": "t_bool"
					},
					"t_mapping(t_address,t_uint256)": {
						"encoding": "mapping",
						"key": "t_address",
						"label": "mapping(address => uint256)",
						"numberOfBytes": "32",
						"value": "t_uint256"
					},
					"t_uint256": {
						"encoding": "inplace",
						"label": "uint256",
						"numberOfBytes": "32"
					}
				}
			},
			"userdoc": {
				"kind": "user",
				"methods": {},
				"version": 1
			}
		}
	}
}